{
  "_format": "hh-sol-artifact-1",
  "contractName": "AutoClaimExecutor",
  "sourceName": "contracts/AutoClaimExecutor.sol",
  "abi": [
    {
      "inputs": [
        {
          "internalType": "address",
          "name": "_shahToken",
          "type": "address"
        },
        {
          "internalType": "address",
          "name": "_stakingContract",
          "type": "address"
        },
        {
          "internalType": "address",
          "name": "_treasury",
          "type": "address"
        },
        {
          "internalType": "uint256",
          "name": "_executionFee",
          "type": "uint256"
        }
      ],
      "stateMutability": "nonpayable",
      "type": "constructor"
    },
    {
      "inputs": [],
      "name": "EnforcedPause",
      "type": "error"
    },
    {
      "inputs": [],
      "name": "ExpectedPause",
      "type": "error"
    },
    {
      "inputs": [
        {
          "internalType": "address",
          "name": "owner",
          "type": "address"
        }
      ],
      "name": "OwnableInvalidOwner",
      "type": "error"
    },
    {
      "inputs": [
        {
          "internalType": "address",
          "name": "account",
          "type": "address"
        }
      ],
      "name": "OwnableUnauthorizedAccount",
      "type": "error"
    },
    {
      "inputs": [],
      "name": "ReentrancyGuardReentrantCall",
      "type": "error"
    },
    {
      "anonymous": false,
      "inputs": [
        {
          "indexed": true,
          "internalType": "address",
          "name": "user",
          "type": "address"
        },
        {
          "indexed": false,
          "internalType": "uint256",
          "name": "rewards",
          "type": "uint256"
        },
        {
          "indexed": false,
          "internalType": "uint256",
          "name": "fee",
          "type": "uint256"
        }
      ],
      "name": "AutoClaimExecuted",
      "type": "event"
    },
    {
      "anonymous": false,
      "inputs": [
        {
          "indexed": false,
          "internalType": "address[]",
          "name": "users",
          "type": "address[]"
        },
        {
          "indexed": false,
          "internalType": "uint256",
          "name": "totalRewards",
          "type": "uint256"
        },
        {
          "indexed": false,
          "internalType": "uint256",
          "name": "totalFees",
          "type": "uint256"
        }
      ],
      "name": "BatchAutoClaimExecuted",
      "type": "event"
    },
    {
      "anonymous": false,
      "inputs": [
        {
          "indexed": false,
          "internalType": "uint256",
          "name": "oldFee",
          "type": "uint256"
        },
        {
          "indexed": false,
          "internalType": "uint256",
          "name": "newFee",
          "type": "uint256"
        }
      ],
      "name": "FeeUpdated",
      "type": "event"
    },
    {
      "anonymous": false,
      "inputs": [
        {
          "indexed": true,
          "internalType": "address",
          "name": "previousOwner",
          "type": "address"
        },
        {
          "indexed": true,
          "internalType": "address",
          "name": "newOwner",
          "type": "address"
        }
      ],
      "name": "OwnershipTransferred",
      "type": "event"
    },
    {
      "anonymous": false,
      "inputs": [
        {
          "indexed": false,
          "internalType": "address",
          "name": "account",
          "type": "address"
        }
      ],
      "name": "Paused",
      "type": "event"
    },
    {
      "anonymous": false,
      "inputs": [
        {
          "indexed": true,
          "internalType": "address",
          "name": "oldTreasury",
          "type": "address"
        },
        {
          "indexed": true,
          "internalType": "address",
          "name": "newTreasury",
          "type": "address"
        }
      ],
      "name": "TreasuryUpdated",
      "type": "event"
    },
    {
      "anonymous": false,
      "inputs": [
        {
          "indexed": false,
          "internalType": "address",
          "name": "account",
          "type": "address"
        }
      ],
      "name": "Unpaused",
      "type": "event"
    },
    {
      "inputs": [],
      "name": "MAX_BATCH_SIZE",
      "outputs": [
        {
          "internalType": "uint256",
          "name": "",
          "type": "uint256"
        }
      ],
      "stateMutability": "view",
      "type": "function"
    },
    {
      "inputs": [],
      "name": "MIN_REWARDS_THRESHOLD",
      "outputs": [
        {
          "internalType": "uint256",
          "name": "",
          "type": "uint256"
        }
      ],
      "stateMutability": "view",
      "type": "function"
    },
    {
      "inputs": [
        {
          "internalType": "address",
          "name": "user",
          "type": "address"
        }
      ],
      "name": "autoClaim",
      "outputs": [
        {
          "internalType": "uint256",
          "name": "rewards",
          "type": "uint256"
        },
        {
          "internalType": "uint256",
          "name": "fee",
          "type": "uint256"
        }
      ],
      "stateMutability": "nonpayable",
      "type": "function"
    },
    {
      "inputs": [
        {
          "internalType": "address[]",
          "name": "users",
          "type": "address[]"
        }
      ],
      "name": "batchAutoClaim",
      "outputs": [
        {
          "internalType": "uint256",
          "name": "totalRewards",
          "type": "uint256"
        },
        {
          "internalType": "uint256",
          "name": "totalFees",
          "type": "uint256"
        }
      ],
      "stateMutability": "nonpayable",
      "type": "function"
    },
    {
      "inputs": [
        {
          "internalType": "address",
          "name": "token",
          "type": "address"
        },
        {
          "internalType": "uint256",
          "name": "amount",
          "type": "uint256"
        }
      ],
      "name": "emergencyWithdraw",
      "outputs": [],
      "stateMutability": "nonpayable",
      "type": "function"
    },
    {
      "inputs": [],
      "name": "executionFee",
      "outputs": [
        {
          "internalType": "uint256",
          "name": "",
          "type": "uint256"
        }
      ],
      "stateMutability": "view",
      "type": "function"
    },
    {
      "inputs": [
        {
          "internalType": "address",
          "name": "user",
          "type": "address"
        }
      ],
      "name": "getClaimableRewards",
      "outputs": [
        {
          "internalType": "uint256",
          "name": "rewards",
          "type": "uint256"
        }
      ],
      "stateMutability": "view",
      "type": "function"
    },
    {
      "inputs": [
        {
          "internalType": "address",
          "name": "user",
          "type": "address"
        }
      ],
      "name": "hasSufficientRewards",
      "outputs": [
        {
          "internalType": "bool",
          "name": "",
          "type": "bool"
        }
      ],
      "stateMutability": "view",
      "type": "function"
    },
    {
      "inputs": [],
      "name": "owner",
      "outputs": [
        {
          "internalType": "address",
          "name": "",
          "type": "address"
        }
      ],
      "stateMutability": "view",
      "type": "function"
    },
    {
      "inputs": [],
      "name": "pause",
      "outputs": [],
      "stateMutability": "nonpayable",
      "type": "function"
    },
    {
      "inputs": [],
      "name": "paused",
      "outputs": [
        {
          "internalType": "bool",
          "name": "",
          "type": "bool"
        }
      ],
      "stateMutability": "view",
      "type": "function"
    },
    {
      "inputs": [],
      "name": "renounceOwnership",
      "outputs": [],
      "stateMutability": "nonpayable",
      "type": "function"
    },
    {
      "inputs": [],
      "name": "shahToken",
      "outputs": [
        {
          "internalType": "contract IERC20",
          "name": "",
          "type": "address"
        }
      ],
      "stateMutability": "view",
      "type": "function"
    },
    {
      "inputs": [],
      "name": "stakingContract",
      "outputs": [
        {
          "internalType": "address",
          "name": "",
          "type": "address"
        }
      ],
      "stateMutability": "view",
      "type": "function"
    },
    {
      "inputs": [
        {
          "internalType": "address",
          "name": "newOwner",
          "type": "address"
        }
      ],
      "name": "transferOwnership",
      "outputs": [],
      "stateMutability": "nonpayable",
      "type": "function"
    },
    {
      "inputs": [],
      "name": "treasury",
      "outputs": [
        {
          "internalType": "address",
          "name": "",
          "type": "address"
        }
      ],
      "stateMutability": "view",
      "type": "function"
    },
    {
      "inputs": [],
      "name": "unpause",
      "outputs": [],
      "stateMutability": "nonpayable",
      "type": "function"
    },
    {
      "inputs": [
        {
          "internalType": "uint256",
          "name": "newFee",
          "type": "uint256"
        }
      ],
      "name": "updateExecutionFee",
      "outputs": [],
      "stateMutability": "nonpayable",
      "type": "function"
    },
    {
      "inputs": [
        {
          "internalType": "address",
          "name": "newTreasury",
          "type": "address"
        }
      ],
      "name": "updateTreasury",
      "outputs": [],
      "stateMutability": "nonpayable",
      "type": "function"
    }
  ],
  "bytecode": "0x60c03461029d57601f6111a138819003918201601f191683019291906001600160401b038411838510176102a257816080928492604096875283398101031261029d5761004b816102b8565b90610058602082016102b8565b60606100658584016102b8565b9201519233156102855760008054336001600160a01b03198216811783558751936001600160a01b039384939192918416907f8be0079c531659141344cd1fd0a4f28419497f9722a3daafe3b4186f6b6457e09080a360018055169182156102355750808316156101dd5783161561018d5783156101385760805260a05260028054610100600160a81b03191660089290921b610100600160a81b031691909117905560035551610ed490816102cd8239608051818181610109015261084d015260a05181818161027d01526108c20152f35b845162461bcd60e51b815260206004820152602860248201527f4175746f436c61696d4578656375746f723a20496e76616c696420657865637560448201526774696f6e2066656560c01b6064820152608490fd5b845162461bcd60e51b815260206004820152602360248201527f4175746f436c61696d4578656375746f723a20496e76616c696420747265617360448201526275727960e81b6064820152608490fd5b855162461bcd60e51b815260206004820152602b60248201527f4175746f436c61696d4578656375746f723a20496e76616c6964207374616b6960448201526a1b99c818dbdb9d1c9858dd60aa1b6064820152608490fd5b62461bcd60e51b815260206004820152602560248201527f4175746f436c61696d4578656375746f723a20496e76616c69642053484148206044820152643a37b5b2b760d91b6064820152608490fd5b8451631e4fbdf760e01b815260006004820152602490fd5b600080fd5b634e487b7160e01b600052604160045260246000fd5b51906001600160a01b038216820361029d5756fe608060408181526004918236101561001657600080fd5b600092833560e01c91826308d47abb14610d0f57508163308e401e14610ce95781633f4ba83a14610c7f57816340e9903b14610c605781635c975abb14610c3c57816361d027b314610c0f578163637d7035146107f4578163715018a61461079a5781637f51bb1f146106c45781638456cb59146106695781638da5cb5b1461064157816395ccea671461055b578163a3278eda14610539578163cfdbf2541461051d578163ee368623146102ac578163ee99205c14610268578163f2fde38b146101e1578163f5d064861461013c575063f6155811146100f657600080fd5b34610138578160031936011261013857517f00000000000000000000000000000000000000000000000000000000000000006001600160a01b03168152602090f35b5080fd5b9050346101dd5760203660031901126101dd5780359061015a610dbe565b811561019a5750907f528d9479e9f9889a87a3c30c7f7ba537e5e59c4c85a37733b16e57c62df6130291600354908060035582519182526020820152a180f35b606490602084519162461bcd60e51b8352820152601e60248201527f4175746f436c61696d4578656375746f723a20496e76616c69642066656500006044820152fd5b8280fd5b9050346101dd5760203660031901126101dd576101fc610da3565b90610205610dbe565b6001600160a01b0391821692831561025257505082546001600160a01b0319811683178455167f8be0079c531659141344cd1fd0a4f28419497f9722a3daafe3b4186f6b6457e08380a380f35b51631e4fbdf760e01b8152908101849052602490fd5b505034610138578160031936011261013857517f00000000000000000000000000000000000000000000000000000000000000006001600160a01b03168152602090f35b83915034610138576020806003193601126101dd5767ffffffffffffffff823581811161046b573660238201121561046b578084013591821161046b57602491600595368483891b8501011161051a57610304610e58565b61030c610e3a565b8096819683156104cd57603284116104805790829392915b8383106103b6575050508751938160608601606087525260808501930191805b82821061038e575050505090807f57e82d405921c359fab3ad75fdc0da94bad2f9d360d8d9bf52bc45e0afa0ef7092868583015285888301520390a1600180558351928352820152f35b90919293843560018060a01b0381168091036101dd5781528601938601929160010190610344565b909197988689849695961b8701013560018060a01b03811680910361046b578b519063637d703560e01b8252838201528b81898188305af1908115610476578590869261043b575b5061040c9061041293610e7b565b9a610e7b565b976000198114610429576001019190939293610324565b634e487b7160e01b8452601182528684fd5b8092508d8092503d831161046f575b6104548183610dea565b8101031261046b578051908901519061040c6103fe565b8480fd5b503d61044a565b8c513d87823e3d90fd5b895162461bcd60e51b81529081018790526022818701527f4175746f436c61696d4578656375746f723a20426174636820746f6f206c6172604482015261676560f01b6064820152608490fd5b60849086888c519262461bcd60e51b8452830152808201527f4175746f436c61696d4578656375746f723a20456d70747920757365727320616044820152637272617960e01b6064820152fd5b80fd5b5050346101385781600319360112610138576020905160328152f35b5050346101385781600319360112610138576020905166b1a2bc2ec500008152f35b919050346101dd57806003193601126101dd57610576610da3565b9161057f610dbe565b6001600160a01b039283169283156105fe5790604460209286541691868551968794859363a9059cbb60e01b855284015260243560248401525af19081156105f557506105ca575080f35b6105ea9060203d81116105ee575b6105e28183610dea565b810190610e22565b5080f35b503d6105d8565b513d84823e3d90fd5b506020606492519162461bcd60e51b8352820152602060248201527f4175746f436c61696d4578656375746f723a20496e76616c696420746f6b656e6044820152fd5b505034610138578160031936011261013857905490516001600160a01b039091168152602090f35b50503461013857816003193601126101385760207f62e78cea01bee320cd4e420270b5ea74000d11b0c9f74754ebdbfc544b05a258916106a7610dbe565b6106af610e3a565b600160ff19600254161760025551338152a180f35b9050346101dd5760203660031901126101dd576106df610da3565b6106e7610dbe565b6001600160a01b0381811693909290841561074b57505060028054610100600160a81b03198116600893841b610100600160a81b031617909155901c167f4ab5be82436d353e61ca18726e984e561f5c1cc7c6d38b29d2553c790434705a8380a380f35b906020608492519162461bcd60e51b8352820152602360248201527f4175746f436c61696d4578656375746f723a20496e76616c696420747265617360448201526275727960e81b6064820152fd5b833461051a578060031936011261051a576107b3610dbe565b80546001600160a01b03198116825581906001600160a01b03167f8be0079c531659141344cd1fd0a4f28419497f9722a3daafe3b4186f6b6457e08280a380f35b83915034610138576020806003193601126101dd57610811610da3565b9161081a610e58565b610822610e3a565b6001600160a01b03928316908115610bbc5785516370a0823160e01b808252828201849052956024917f000000000000000000000000000000000000000000000000000000000000000087169086818581855afa908115610b19578391610b8f575b508951630f41a04d60e11b88820190815285820188905285825267ffffffffffffffff916060810183811182821017610b7d578d52518591829190827f00000000000000000000000000000000000000000000000000000000000000005af1903d15610b77573d908111610b65578b5190610908601f8201601f19168b0183610dea565b815284893d92013e5b15610b2357895198895285858a015286898581855afa988915610b19578399610aea575b508803978811610ad95766b1a2bc2ec500008810610a9e576003549687151580610a94575b15610a585782916064889260025460081c168c5194859384926323b872dd60e01b84528b8b850152898401528c60448401525af1918215610a4d5791610a30575b50156109df5750507f1fd5a951720e4f8c32344b4d57432e2198681b9e3c469bc3c789e909432dddec8580518681528585820152a25b600180558351928352820152f35b865162461bcd60e51b81529182018490526026908201527f4175746f436c61696d4578656375746f723a20466565207472616e736665722060448201526519985a5b195960d21b6064820152608490fd5b610a479150853d87116105ee576105e28183610dea565b8861099b565b8951903d90823e3d90fd5b50508095507f1fd5a951720e4f8c32344b4d57432e2198681b9e3c469bc3c789e909432dddec92508791509481519087825285820152a26109d1565b508789101561095a565b508095507f1fd5a951720e4f8c32344b4d57432e2198681b9e3c469bc3c789e909432dddec92508791509481519087825285820152a26109d1565b50634e487b7160e01b815260118352fd5b9098508681813d8311610b12575b610b028183610dea565b810103126101dd5751978a610935565b503d610af8565b8a513d85823e3d90fd5b895162461bcd60e51b8152808601889052601f818601527f4175746f436c61696d4578656375746f723a20436c61696d206661696c6564006044820152606490fd5b634e487b7160e01b8552604187528585fd5b50610911565b634e487b7160e01b8752604189528787fd5b90508681813d8311610bb5575b610ba68183610dea565b810103126101dd57518a610884565b503d610b9c565b855162461bcd60e51b8152908101839052602760248201527f4175746f436c61696d4578656375746f723a20496e76616c69642075736572206044820152666164647265737360c81b6064820152608490fd5b505034610138578160031936011261013857600254905160089190911c6001600160a01b03168152602090f35b50503461013857816003193601126101385760209060ff6002541690519015158152f35b5050346101385781600319360112610138576020906003549051908152f35b9050346101dd57826003193601126101dd57610c99610dbe565b6002549060ff821615610cdb575060ff1916600255513381527f5db9ee0a495bf2e6ff9c91a7834c1ba4fdd244a5e8aa4e537bd38aeae4b073aa90602090a180f35b8251638dfc202b60e01b8152fd5b5050346101385760203660031901126101385790602091610d08610da3565b5051908152f35b8484913461013857602093846003193601126101dd57610d2d610da3565b631847200f60e11b83526001600160a01b0316908201528381602481305afa918215610d98578092610d68575b505060035411159051908152f35b9091508382813d8311610d91575b610d808183610dea565b8101031261051a5750518380610d5a565b503d610d76565b8351903d90823e3d90fd5b600435906001600160a01b0382168203610db957565b600080fd5b6000546001600160a01b03163303610dd257565b60405163118cdaa760e01b8152336004820152602490fd5b90601f8019910116810190811067ffffffffffffffff821117610e0c57604052565b634e487b7160e01b600052604160045260246000fd5b90816020910312610db957518015158103610db95790565b60ff60025416610e4657565b60405163d93c066560e01b8152600490fd5b600260015414610e69576002600155565b604051633ee5aeb560e01b8152600490fd5b91908201809211610e8857565b634e487b7160e01b600052601160045260246000fdfea2646970667358221220160d533a25031a2afdc1d90079b67bb43c54f558bc7375c4bc2a6e23b9aa611864736f6c63430008140033",
  "linkReferences": {},
  "deployedLinkReferences": {}
}