{
  "_format": "hh-sol-artifact-1",
  "contractName": "ShahSwapRouterVS2",
  "sourceName": "contracts/ShahSwapRouterVS2.sol",
  "abi": [
    {
      "inputs": [
        {
          "internalType": "address",
          "name": "_factory",
          "type": "address"
        },
        {
          "internalType": "address",
          "name": "_WETH",
          "type": "address"
        }
      ],
      "stateMutability": "nonpayable",
      "type": "constructor"
    },
    {
      "inputs": [],
      "name": "WETH",
      "outputs": [
        {
          "internalType": "address",
          "name": "",
          "type": "address"
        }
      ],
      "stateMutability": "view",
      "type": "function"
    },
    {
      "inputs": [
        {
          "internalType": "address",
          "name": "tokenA",
          "type": "address"
        },
        {
          "internalType": "address",
          "name": "tokenB",
          "type": "address"
        },
        {
          "internalType": "uint256",
          "name": "amountADesired",
          "type": "uint256"
        },
        {
          "internalType": "uint256",
          "name": "amountBDesired",
          "type": "uint256"
        },
        {
          "internalType": "uint256",
          "name": "amountAMin",
          "type": "uint256"
        },
        {
          "internalType": "uint256",
          "name": "amountBMin",
          "type": "uint256"
        },
        {
          "internalType": "address",
          "name": "to",
          "type": "address"
        },
        {
          "internalType": "uint256",
          "name": "deadline",
          "type": "uint256"
        }
      ],
      "name": "addLiquidity",
      "outputs": [
        {
          "internalType": "uint256",
          "name": "amountA",
          "type": "uint256"
        },
        {
          "internalType": "uint256",
          "name": "amountB",
          "type": "uint256"
        },
        {
          "internalType": "uint256",
          "name": "liquidity",
          "type": "uint256"
        }
      ],
      "stateMutability": "nonpayable",
      "type": "function"
    },
    {
      "inputs": [
        {
          "internalType": "address",
          "name": "token",
          "type": "address"
        },
        {
          "internalType": "uint256",
          "name": "amountTokenDesired",
          "type": "uint256"
        },
        {
          "internalType": "uint256",
          "name": "amountTokenMin",
          "type": "uint256"
        },
        {
          "internalType": "uint256",
          "name": "amountETHMin",
          "type": "uint256"
        },
        {
          "internalType": "address",
          "name": "to",
          "type": "address"
        },
        {
          "internalType": "uint256",
          "name": "deadline",
          "type": "uint256"
        }
      ],
      "name": "addLiquidityETH",
      "outputs": [
        {
          "internalType": "uint256",
          "name": "amountToken",
          "type": "uint256"
        },
        {
          "internalType": "uint256",
          "name": "amountETH",
          "type": "uint256"
        },
        {
          "internalType": "uint256",
          "name": "liquidity",
          "type": "uint256"
        }
      ],
      "stateMutability": "payable",
      "type": "function"
    },
    {
      "inputs": [],
      "name": "factory",
      "outputs": [
        {
          "internalType": "address",
          "name": "",
          "type": "address"
        }
      ],
      "stateMutability": "view",
      "type": "function"
    },
    {
      "inputs": [
        {
          "internalType": "uint256",
          "name": "amountOut",
          "type": "uint256"
        },
        {
          "internalType": "uint256",
          "name": "reserveIn",
          "type": "uint256"
        },
        {
          "internalType": "uint256",
          "name": "reserveOut",
          "type": "uint256"
        }
      ],
      "name": "getAmountIn",
      "outputs": [
        {
          "internalType": "uint256",
          "name": "amountIn",
          "type": "uint256"
        }
      ],
      "stateMutability": "pure",
      "type": "function"
    },
    {
      "inputs": [
        {
          "internalType": "uint256",
          "name": "amountIn",
          "type": "uint256"
        },
        {
          "internalType": "uint256",
          "name": "reserveIn",
          "type": "uint256"
        },
        {
          "internalType": "uint256",
          "name": "reserveOut",
          "type": "uint256"
        }
      ],
      "name": "getAmountOut",
      "outputs": [
        {
          "internalType": "uint256",
          "name": "amountOut",
          "type": "uint256"
        }
      ],
      "stateMutability": "pure",
      "type": "function"
    },
    {
      "inputs": [
        {
          "internalType": "uint256",
          "name": "amountOut",
          "type": "uint256"
        },
        {
          "internalType": "address[]",
          "name": "path",
          "type": "address[]"
        }
      ],
      "name": "getAmountsIn",
      "outputs": [
        {
          "internalType": "uint256[]",
          "name": "amounts",
          "type": "uint256[]"
        }
      ],
      "stateMutability": "view",
      "type": "function"
    },
    {
      "inputs": [
        {
          "internalType": "uint256",
          "name": "amountIn",
          "type": "uint256"
        },
        {
          "internalType": "address[]",
          "name": "path",
          "type": "address[]"
        }
      ],
      "name": "getAmountsOut",
      "outputs": [
        {
          "internalType": "uint256[]",
          "name": "amounts",
          "type": "uint256[]"
        }
      ],
      "stateMutability": "view",
      "type": "function"
    },
    {
      "inputs": [
        {
          "internalType": "uint256",
          "name": "amountA",
          "type": "uint256"
        },
        {
          "internalType": "uint256",
          "name": "reserveA",
          "type": "uint256"
        },
        {
          "internalType": "uint256",
          "name": "reserveB",
          "type": "uint256"
        }
      ],
      "name": "quote",
      "outputs": [
        {
          "internalType": "uint256",
          "name": "amountB",
          "type": "uint256"
        }
      ],
      "stateMutability": "pure",
      "type": "function"
    },
    {
      "inputs": [
        {
          "internalType": "address",
          "name": "tokenA",
          "type": "address"
        },
        {
          "internalType": "address",
          "name": "tokenB",
          "type": "address"
        },
        {
          "internalType": "uint256",
          "name": "liquidity",
          "type": "uint256"
        },
        {
          "internalType": "uint256",
          "name": "amountAMin",
          "type": "uint256"
        },
        {
          "internalType": "uint256",
          "name": "amountBMin",
          "type": "uint256"
        },
        {
          "internalType": "address",
          "name": "to",
          "type": "address"
        },
        {
          "internalType": "uint256",
          "name": "deadline",
          "type": "uint256"
        }
      ],
      "name": "removeLiquidity",
      "outputs": [
        {
          "internalType": "uint256",
          "name": "amountA",
          "type": "uint256"
        },
        {
          "internalType": "uint256",
          "name": "amountB",
          "type": "uint256"
        }
      ],
      "stateMutability": "nonpayable",
      "type": "function"
    },
    {
      "inputs": [
        {
          "internalType": "address",
          "name": "token",
          "type": "address"
        },
        {
          "internalType": "uint256",
          "name": "liquidity",
          "type": "uint256"
        },
        {
          "internalType": "uint256",
          "name": "amountTokenMin",
          "type": "uint256"
        },
        {
          "internalType": "uint256",
          "name": "amountETHMin",
          "type": "uint256"
        },
        {
          "internalType": "address",
          "name": "to",
          "type": "address"
        },
        {
          "internalType": "uint256",
          "name": "deadline",
          "type": "uint256"
        }
      ],
      "name": "removeLiquidityETH",
      "outputs": [
        {
          "internalType": "uint256",
          "name": "amountToken",
          "type": "uint256"
        },
        {
          "internalType": "uint256",
          "name": "amountETH",
          "type": "uint256"
        }
      ],
      "stateMutability": "nonpayable",
      "type": "function"
    },
    {
      "inputs": [
        {
          "internalType": "address",
          "name": "token",
          "type": "address"
        },
        {
          "internalType": "uint256",
          "name": "liquidity",
          "type": "uint256"
        },
        {
          "internalType": "uint256",
          "name": "amountTokenMin",
          "type": "uint256"
        },
        {
          "internalType": "uint256",
          "name": "amountETHMin",
          "type": "uint256"
        },
        {
          "internalType": "address",
          "name": "to",
          "type": "address"
        },
        {
          "internalType": "uint256",
          "name": "deadline",
          "type": "uint256"
        }
      ],
      "name": "removeLiquidityETHSupportingFeeOnTransferTokens",
      "outputs": [
        {
          "internalType": "uint256",
          "name": "amountETH",
          "type": "uint256"
        }
      ],
      "stateMutability": "nonpayable",
      "type": "function"
    },
    {
      "stateMutability": "payable",
      "type": "receive"
    }
  ],
  "bytecode": "0x60c0346100cf57601f62001c8738819003918201601f19168301916001600160401b038311848410176100d45780849260409485528339810103126100cf57610053602061004c836100ea565b92016100ea565b9060805260a052604051611b889081620000ff823960805181818161013d015281816103cc01528181610573015281816106b401528181610734015281816108e101528181610c6901528181610de30152611473015260a05181818160240152818161010a015281816108b501528181610c040152610db70152f35b600080fd5b634e487b7160e01b600052604160045260246000fd5b51906001600160a01b03821682036100cf5756fe60406080815260049081361015610054575b5050361561001e57600080fd5b610052337f00000000000000000000000000000000000000000000000000000000000000006001600160a01b03161461111c565b005b600091823560e01c806302751cec14610d8e578063054d50d414610d725780631f00ca7414610c4f57806385f8c25914610c33578063ad5c464814610bef578063ad615dec14610bcc578063af2979eb1461088b578063baa2abde146106e3578063c45a01551461069f578063d06ca61f1461055a578063e8e33700146103625763f305d719146100e55750610011565b61013392610108926100f636611037565b99939499989098929192421115611139565b7f0000000000000000000000000000000000000000000000000000000000000000933490858b611446565b96909561016183837f00000000000000000000000000000000000000000000000000000000000000006111e9565b84516323b872dd60e01b8152338882019081526001600160a01b038316602082810191909152604082018b905295919086908290819060600103818b60018060a01b03809a165af1801561033b5790859291610345575b5016803b15610337578551630d0e30db60e41b815287818a818e865af1801561033b578887928d9261031d575b50885163a9059cbb60e01b81526001600160a01b0386168c820190815260208101939093529384928390036040019183915af19081156103135784602493610239889796948b9485916102e6575b5061111c565b88519a8b9687956335313c2160e11b87521690850152165af19283156102db57926102a4575b50610288925084341161028c575b51938493846040919493926060820195825260208201520152565b0390f35b61029f61029986346117db565b33611ac5565b61026d565b90915082813d83116102d4575b6102bb81836111af565b810103126102cf576102889151903861025f565b600080fd5b503d6102b1565b8251903d90823e3d90fd5b6103069150893d8b1161030c575b6102fe81836111af565b8101906111d1565b38610233565b503d6102f4565b86513d89823e3d90fd5b90925061032a9150611185565b61033757848a88386101e5565b8680fd5b87513d8a823e3d90fd5b61035b90873d891161030c576102fe81836111af565b50386101b8565b508234610557576101003660031901126105575761037e61100b565b90610387611021565b6001600160a01b03949060c435868116908190036102cf576103ad4260e4351015611139565b6103c360a435608435606435604435868a611446565b978387839993957f0000000000000000000000000000000000000000000000000000000000000000916103f5926111e9565b86516323b872dd60e01b808252338683019081526001600160a01b0384166020808301919091526040820199909952929a9092889183918290036060019082908d9089165af1801561054d57928a8a868f94958b9661048898610530575b508c51908152338a82019081526001600160a01b03909416602085015260408401959095529395869485939091849160600190565b0393165af1801561031357602492869594928992610513575b508751998a9586946335313c2160e11b8652850152165af19283156102db57926104e1575b50519283526020830193909352506040810191909152606090f35b90915082813d831161050c575b6104f881836111af565b810103126102cf57610288915190856104c6565b503d6104ee565b61052990873d891161030c576102fe81836111af565b508c6104a1565b61054690883d8a1161030c576102fe81836111af565b5038610453565b88513d8b823e3d90fd5b80fd5b5082903461069b5761059a61056e36611091565b9192907f000000000000000000000000000000000000000000000000000000000000000092369161197f565b906105a96002835110156119dd565b6105b38251611a29565b92835115610686576020840152845b8251600019810190811161067357811015610666576001600160a01b03806105ea8386611a5b565b511660018301918284116106535761061661062e926106279261060d868a611a5b565b511690876115ed565b90610621868a611a5b565b516117e8565b9186611a5b565b526000198114610640576001016105c2565b634e487b7160e01b865260118552602486fd5b634e487b7160e01b895260118852602489fd5b86518061028886826110e1565b634e487b7160e01b875260118652602487fd5b603285634e487b7160e01b6000525260246000fd5b5080fd5b50503461069b578160031936011261069b57517f00000000000000000000000000000000000000000000000000000000000000006001600160a01b03168152602090f35b5082903461069b5760e036600319011261069b576106ff61100b565b610707611021565b926001600160a01b039060a435828116908190036102cf5761072d4260c4351015611139565b61075886857f00000000000000000000000000000000000000000000000000000000000000006111e9565b87516323b872dd60e01b8152338188019081526001600160a01b0383166020828101919091526044356040830152928616979290829081906060010381878b5af1801561088157916024918a9493610863575b50848451988994859363226bf2d160e21b85528401525af1948515610857578194829661081d575b50906107e08392856112ae565b5090501691161460001461081857905b6107fe606435831015611392565b61080c6084358210156113ec565b82519182526020820152f35b6107f0565b87809297508196503d8311610850575b61083781836111af565b81010312610557578351602090940151946107e06107d3565b503d61082d565b508551903d90823e3d90fd5b61087a9060203d811161030c576102fe81836111af565b508a6107ab565b89513d86823e3d90fd5b5082346105575761089b36611037565b9794909396929197421115906108b082611139565b6108da7f000000000000000000000000000000000000000000000000000000000000000092611139565b61090582827f00000000000000000000000000000000000000000000000000000000000000006111e9565b86516323b872dd60e01b8152338682019081526001600160a01b039283166020828101829052604083019c909c52919b929591908b908d90819060600103818d855af18015610ba457908b8b9c9d8b9c9b93610bae575b505060248251809b819363226bf2d160e21b8352308c8401525af1978815610ba457918a918c938390849b610b64575b508761099888886112ae565b508782169550168403610b5157916109ba6109c29260249695945b1015611392565b8a10156113ec565b89516370a0823160e01b8152308882015292839182905afa90811561054d579189918b938391610b1b575b50895163a9059cbb60e01b9481019485526001600160a01b0389166024820152604480820192909252908152919283928390610a2a6064826111af565b51925af1610a36611a85565b81610aeb575b5015610aa8571690813b15610aa45783602487928388519586948593632e1a7d4d60e01b85528401525af18015610a9a57610a83575b5090610a7d91611ac5565b51908152f35b93610a92610a7d939295611185565b939091610a72565b84513d87823e3d90fd5b8580fd5b855162461bcd60e51b8152808401899052601f60248201527f5472616e7366657248656c7065723a205452414e534645525f4641494c4544006044820152606490fd5b8051801592508a908315610b03575b50505089610a3c565b610b1393508201810191016111d1565b898981610afa565b9250509181813d8311610b4a575b610b3381836111af565b81010312610b46575189918991826109ed565b8880fd5b503d610b29565b99916109ba6109c29260249695946109b3565b9a5050915091508888813d8311610b9d575b610b8081836111af565b81010312610b99578a918a91838a519a0151998e61098c565b8980fd5b503d610b76565b89513d8c823e3d90fd5b81610bc492903d1061030c576102fe81836111af565b508c8e61095c565b50503461069b57602090610be8610be236611077565b91611754565b9051908152f35b50503461069b578160031936011261069b57517f00000000000000000000000000000000000000000000000000000000000000006001600160a01b03168152602090f35b50503461069b57602090610be8610c4936611077565b9161189e565b509034610d6e57610c9092610c6336611091565b929195907f000000000000000000000000000000000000000000000000000000000000000093369161197f565b93610c9f6002865110156119dd565b610ca98551611a29565b9485519660001997888101908111610d5b57610cc59088611a5b565b528051878101908111610d4857805b610ce55785518061028889826110e1565b878101818111610d5b57610d39610d32610d216001600160a01b0380610d0b8689611a5b565b511690610d188789611a5b565b5116908a6115ed565b90610d2c868d611a5b565b5161189e565b9189611a5b565b528015610d4857870180610cd4565b634e487b7160e01b845260118352602484fd5b634e487b7160e01b855260118452602485fd5b8280fd5b50503461069b57602090610be8610d8836611077565b916117e8565b50823461055757610d9e36611037565b9692969490939442111590610db282611139565b610ddc7f000000000000000000000000000000000000000000000000000000000000000092611139565b610e0782827f00000000000000000000000000000000000000000000000000000000000000006111e9565b89516323b872dd60e01b8152338682019081526001600160a01b039283166020828101829052604083019a909a52929592919089908290819060600103818d865af1801561100157918c918b9796959493610fe4575b5060248251809c819363226bf2d160e21b8352308c8401525af1988915610fda578590869a610fa1575b508480610e9486866112ae565b50941693168303610f8b578592610ebe8a93610eb6610ef1949e8f1015611392565b8c10156113ec565b8c5163a9059cbb60e01b81526001600160a01b038a16898201908152602081018e90529094859384928391604090910190565b03925af18015610f8157610f64575b501691823b1561069b578560248392838b519687948593632e1a7d4d60e01b85528401525af1908115610f595750918491610f4093610f4a575b50611ac5565b8351928352820152f35b610f5390611185565b87610f3a565b8751903d90823e3d90fd5b610f7a90873d891161030c576102fe81836111af565b5089610f00565b8a513d86823e3d90fd5b988592610ebe8a93610eb6610ef1949e8f6109b3565b809a508c8092503d8311610fd3575b610fba81836111af565b81010312610fcf57878951990151988c610e87565b8480fd5b503d610fb0565b8b513d87823e3d90fd5b610ffa908b3d8d1161030c576102fe81836111af565b508d610e5d565b8c513d8c823e3d90fd5b600435906001600160a01b03821682036102cf57565b602435906001600160a01b03821682036102cf57565b60c09060031901126102cf576001600160a01b0360043581811681036102cf579160243591604435916064359160843590811681036102cf579060a43590565b60609060031901126102cf57600435906024359060443590565b60406003198201126102cf576004359160243567ffffffffffffffff928382116102cf57806023830112156102cf5781600401359384116102cf5760248460051b830101116102cf576024019190565b6020908160408183019282815285518094520193019160005b828110611108575050505090565b8351855293810193928101926001016110fa565b1561112357565b634e487b7160e01b600052600160045260246000fd5b1561114057565b60405162461bcd60e51b815260206004820152601760248201527f5368616853776170526f757465723a20455850495245440000000000000000006044820152606490fd5b67ffffffffffffffff811161119957604052565b634e487b7160e01b600052604160045260246000fd5b90601f8019910116810190811067ffffffffffffffff82111761119957604052565b908160209103126102cf575180151581036102cf5790565b916111f3916112ae565b6040929192519260208401906bffffffffffffffffffffffff199283809260601b16835260601b16603485015260288452606084019367ffffffffffffffff92818610848711176111995760e092866040528251902090608083019560ff60f81b875260601b16608183015260958201527f96e8ac4277198ff8b6f785478aa9a39f403cb768dd02cbee326c3e7da348845f60b58201526055855201908382109082111761119957604052905190206001600160a01b031690565b90916001600160a01b039182841683821680821461132257101561131d57925b918316156112d857565b60405162461bcd60e51b815260206004820152601d60248201527f53686168537761704c6962726172793a205a45524f5f414444524553530000006044820152606490fd5b6112ce565b60405162461bcd60e51b8152602060048201526024808201527f53686168537761704c6962726172793a204944454e544943414c5f41444452456044820152635353455360e01b6064820152608490fd5b908160209103126102cf57516001600160a01b03811681036102cf5790565b1561139957565b60405162461bcd60e51b815260206004820152602560248201527f5368616853776170526f757465723a20494e53554646494349454e545f415f416044820152641353d5539560da1b6064820152608490fd5b156113f357565b60405162461bcd60e51b815260206004820152602560248201527f5368616853776170526f757465723a20494e53554646494349454e545f425f416044820152641353d5539560da1b6064820152608490fd5b60405163e6a4390560e01b81526001600160a01b03828116600483015283811660248301529396949594937f0000000000000000000000000000000000000000000000000000000000000000808216949392909160209182816044818a5afa9081156115b0576000916115bc575b501615611539575b506114c793506115ed565b9290801580611531575b156114de57505050509091565b6114ed84828897959697611754565b948386116115095750505050611505908210156113ec565b9091565b839550611505945090611520916115299394611754565b9485111561111c565b831015611392565b5083156114d1565b6040516364e329cb60e11b81526001600160a01b03848116600483015285166024820152948190869060449082906000905af19485156115b0576114c795611582575b506114bc565b816115a192903d106115a9575b61159981836111af565b810190611373565b50388061157c565b503d61158f565b6040513d6000823e3d90fd5b6115d39150833d85116115a95761159981836111af565b386114b4565b51906001600160701b03821682036102cf57565b9080606060049361161361160187856112ae565b50966001600160a01b039485936111e9565b1660405194858092630240bc6b60e21b82525afa9283156115b0576000908194611657575b5081906001600160701b03809116941694169116146000146115055791565b93506060843d82116116a7575b81611671606093836111af565b8101031261055757611682846115d9565b906040611691602087016115d9565b95015163ffffffff811603610557575081611638565b3d9150611664565b156116b657565b60405162461bcd60e51b815260206004820152602760248201527f53686168537761704c6962726172793a20494e53554646494349454e545f4c496044820152665155494449545960c81b6064820152608490fd5b8181029291811591840414171561171e57565b634e487b7160e01b600052601160045260246000fd5b811561173e570490565b634e487b7160e01b600052601260045260246000fd5b801561178a5761177e926117799183151580611781575b611774906116af565b61170b565b611734565b90565b5081151561176b565b60405162461bcd60e51b8152602060048201526024808201527f53686168537761704c6962726172793a20494e53554646494349454e545f414d60448201526313d5539560e21b6064820152608490fd5b9190820391821161171e57565b80156118465781159283158061183d575b611802906116af565b6103e58083029283040361171e5761181a908261170b565b926103e880840293840414171561171e57810180911161171e5761177e91611734565b508015156117f9565b60405162461bcd60e51b815260206004820152602a60248201527f53686168537761704c6962726172793a20494e53554646494349454e545f494e60448201526914155517d05353d5539560b21b6064820152608490fd5b9190821561190e5782816118bc9215158061190557611774906116af565b916103e89283810293818504149015171561171e576118da916117db565b6103e59081810291818304149015171561171e576118f791611734565b6001810180911161171e5790565b5083151561176b565b60405162461bcd60e51b815260206004820152602b60248201527f53686168537761704c6962726172793a20494e53554646494349454e545f4f5560448201526a1514155517d05353d5539560aa1b6064820152608490fd5b67ffffffffffffffff81116111995760051b60200190565b929161198a82611967565b9161199860405193846111af565b829481845260208094019160051b81019283116102cf57905b8282106119be5750505050565b81356001600160a01b03811681036102cf5781529083019083016119b1565b156119e457565b60405162461bcd60e51b815260206004820152601d60248201527f53686168537761704c6962726172793a20494e56414c49445f504154480000006044820152606490fd5b90611a3382611967565b611a4060405191826111af565b8281528092611a51601f1991611967565b0190602036910137565b8051821015611a6f5760209160051b010190565b634e487b7160e01b600052603260045260246000fd5b3d15611ac0573d9067ffffffffffffffff82116111995760405191611ab4601f8201601f1916602001846111af565b82523d6000602084013e565b606090565b604051602081019080821067ffffffffffffffff831117611199576000938493848094938194604052525af1611af9611a85565b5015611b0157565b60405162461bcd60e51b815260206004820152602360248201527f5472616e7366657248656c7065723a204554485f5452414e534645525f46414960448201526213115160ea1b6064820152608490fdfea264697066735822122060abbb76263f9b01302db847f6bb22c25dece7bc30b0449f984200bf51a9fb5564736f6c63430008140033",
  "linkReferences": {},
  "deployedLinkReferences": {}
}