{
  "_format": "hh-sol-artifact-1",
  "contractName": "ShahSwapRouterV2",
  "sourceName": "contracts/ShahSwapRouterV2.sol",
  "abi": [
    {
      "inputs": [
        {
          "internalType": "address",
          "name": "_factory",
          "type": "address"
        },
        {
          "internalType": "address",
          "name": "_WETH",
          "type": "address"
        }
      ],
      "stateMutability": "nonpayable",
      "type": "constructor"
    },
    {
      "inputs": [],
      "name": "ECDSAInvalidSignature",
      "type": "error"
    },
    {
      "inputs": [
        {
          "internalType": "uint256",
          "name": "length",
          "type": "uint256"
        }
      ],
      "name": "ECDSAInvalidSignatureLength",
      "type": "error"
    },
    {
      "inputs": [
        {
          "internalType": "bytes32",
          "name": "s",
          "type": "bytes32"
        }
      ],
      "name": "ECDSAInvalidSignatureS",
      "type": "error"
    },
    {
      "inputs": [],
      "name": "InvalidShortString",
      "type": "error"
    },
    {
      "inputs": [
        {
          "internalType": "address",
          "name": "owner",
          "type": "address"
        }
      ],
      "name": "OwnableInvalidOwner",
      "type": "error"
    },
    {
      "inputs": [
        {
          "internalType": "address",
          "name": "account",
          "type": "address"
        }
      ],
      "name": "OwnableUnauthorizedAccount",
      "type": "error"
    },
    {
      "inputs": [],
      "name": "ReentrancyGuardReentrantCall",
      "type": "error"
    },
    {
      "inputs": [
        {
          "internalType": "string",
          "name": "str",
          "type": "string"
        }
      ],
      "name": "StringTooLong",
      "type": "error"
    },
    {
      "anonymous": false,
      "inputs": [
        {
          "indexed": true,
          "internalType": "address",
          "name": "user",
          "type": "address"
        },
        {
          "indexed": false,
          "internalType": "uint256",
          "name": "totalAmountIn",
          "type": "uint256"
        },
        {
          "indexed": false,
          "internalType": "uint256",
          "name": "totalAmountOut",
          "type": "uint256"
        },
        {
          "indexed": false,
          "internalType": "uint256",
          "name": "swapsCount",
          "type": "uint256"
        },
        {
          "indexed": false,
          "internalType": "uint256",
          "name": "gasUsed",
          "type": "uint256"
        }
      ],
      "name": "BatchSwapExecuted",
      "type": "event"
    },
    {
      "anonymous": false,
      "inputs": [],
      "name": "EIP712DomainChanged",
      "type": "event"
    },
    {
      "anonymous": false,
      "inputs": [
        {
          "indexed": true,
          "internalType": "address",
          "name": "previousOwner",
          "type": "address"
        },
        {
          "indexed": true,
          "internalType": "address",
          "name": "newOwner",
          "type": "address"
        }
      ],
      "name": "OwnershipTransferred",
      "type": "event"
    },
    {
      "anonymous": false,
      "inputs": [
        {
          "indexed": true,
          "internalType": "address",
          "name": "user",
          "type": "address"
        },
        {
          "indexed": false,
          "internalType": "address[]",
          "name": "path",
          "type": "address[]"
        },
        {
          "indexed": false,
          "internalType": "uint256",
          "name": "amountIn",
          "type": "uint256"
        },
        {
          "indexed": false,
          "internalType": "uint256",
          "name": "amountOut",
          "type": "uint256"
        },
        {
          "indexed": false,
          "internalType": "uint256",
          "name": "deadline",
          "type": "uint256"
        }
      ],
      "name": "PermitSwapExecuted",
      "type": "event"
    },
    {
      "anonymous": false,
      "inputs": [
        {
          "indexed": true,
          "internalType": "address",
          "name": "user",
          "type": "address"
        },
        {
          "indexed": false,
          "internalType": "address[]",
          "name": "path",
          "type": "address[]"
        },
        {
          "indexed": false,
          "internalType": "uint256",
          "name": "amountIn",
          "type": "uint256"
        },
        {
          "indexed": false,
          "internalType": "uint256",
          "name": "amountOut",
          "type": "uint256"
        },
        {
          "indexed": false,
          "internalType": "uint256",
          "name": "gasUsed",
          "type": "uint256"
        }
      ],
      "name": "SwapExecuted",
      "type": "event"
    },
    {
      "inputs": [],
      "name": "PERMIT_TYPEHASH",
      "outputs": [
        {
          "internalType": "bytes32",
          "name": "",
          "type": "bytes32"
        }
      ],
      "stateMutability": "view",
      "type": "function"
    },
    {
      "inputs": [],
      "name": "WETH",
      "outputs": [
        {
          "internalType": "address",
          "name": "",
          "type": "address"
        }
      ],
      "stateMutability": "view",
      "type": "function"
    },
    {
      "inputs": [
        {
          "components": [
            {
              "components": [
                {
                  "internalType": "uint256",
                  "name": "amountIn",
                  "type": "uint256"
                },
                {
                  "internalType": "uint256",
                  "name": "amountOutMin",
                  "type": "uint256"
                },
                {
                  "internalType": "address[]",
                  "name": "path",
                  "type": "address[]"
                },
                {
                  "internalType": "address",
                  "name": "to",
                  "type": "address"
                },
                {
                  "internalType": "uint256",
                  "name": "deadline",
                  "type": "uint256"
                }
              ],
              "internalType": "struct ShahSwapRouterV2.SwapParams[]",
              "name": "swaps",
              "type": "tuple[]"
            },
            {
              "internalType": "uint256",
              "name": "totalAmountIn",
              "type": "uint256"
            },
            {
              "internalType": "uint256",
              "name": "totalAmountOutMin",
              "type": "uint256"
            },
            {
              "internalType": "address",
              "name": "to",
              "type": "address"
            },
            {
              "internalType": "uint256",
              "name": "deadline",
              "type": "uint256"
            }
          ],
          "internalType": "struct ShahSwapRouterV2.BatchSwapParams",
          "name": "params",
          "type": "tuple"
        }
      ],
      "name": "batchSwapExactTokensForTokens",
      "outputs": [
        {
          "internalType": "uint256",
          "name": "totalAmountOut",
          "type": "uint256"
        }
      ],
      "stateMutability": "nonpayable",
      "type": "function"
    },
    {
      "inputs": [],
      "name": "eip712Domain",
      "outputs": [
        {
          "internalType": "bytes1",
          "name": "fields",
          "type": "bytes1"
        },
        {
          "internalType": "string",
          "name": "name",
          "type": "string"
        },
        {
          "internalType": "string",
          "name": "version",
          "type": "string"
        },
        {
          "internalType": "uint256",
          "name": "chainId",
          "type": "uint256"
        },
        {
          "internalType": "address",
          "name": "verifyingContract",
          "type": "address"
        },
        {
          "internalType": "bytes32",
          "name": "salt",
          "type": "bytes32"
        },
        {
          "internalType": "uint256[]",
          "name": "extensions",
          "type": "uint256[]"
        }
      ],
      "stateMutability": "view",
      "type": "function"
    },
    {
      "inputs": [
        {
          "internalType": "address",
          "name": "token",
          "type": "address"
        },
        {
          "internalType": "uint256",
          "name": "amount",
          "type": "uint256"
        }
      ],
      "name": "emergencyRecover",
      "outputs": [],
      "stateMutability": "nonpayable",
      "type": "function"
    },
    {
      "inputs": [],
      "name": "emergencyRecoverETH",
      "outputs": [],
      "stateMutability": "nonpayable",
      "type": "function"
    },
    {
      "inputs": [],
      "name": "factory",
      "outputs": [
        {
          "internalType": "address",
          "name": "",
          "type": "address"
        }
      ],
      "stateMutability": "view",
      "type": "function"
    },
    {
      "inputs": [
        {
          "internalType": "uint256",
          "name": "amountOut",
          "type": "uint256"
        },
        {
          "internalType": "address[]",
          "name": "path",
          "type": "address[]"
        }
      ],
      "name": "getAmountsIn",
      "outputs": [
        {
          "internalType": "uint256[]",
          "name": "amounts",
          "type": "uint256[]"
        }
      ],
      "stateMutability": "view",
      "type": "function"
    },
    {
      "inputs": [
        {
          "internalType": "uint256",
          "name": "amountIn",
          "type": "uint256"
        },
        {
          "internalType": "address[]",
          "name": "path",
          "type": "address[]"
        }
      ],
      "name": "getAmountsOut",
      "outputs": [
        {
          "internalType": "uint256[]",
          "name": "amounts",
          "type": "uint256[]"
        }
      ],
      "stateMutability": "view",
      "type": "function"
    },
    {
      "inputs": [
        {
          "internalType": "uint256",
          "name": "amountIn",
          "type": "uint256"
        },
        {
          "internalType": "address[]",
          "name": "path",
          "type": "address[]"
        }
      ],
      "name": "getBestRoute",
      "outputs": [
        {
          "components": [
            {
              "internalType": "address[]",
              "name": "path",
              "type": "address[]"
            },
            {
              "internalType": "uint256",
              "name": "amountOut",
              "type": "uint256"
            },
            {
              "internalType": "uint256",
              "name": "priceImpact",
              "type": "uint256"
            }
          ],
          "internalType": "struct ShahSwapRouterV2.Route",
          "name": "route",
          "type": "tuple"
        }
      ],
      "stateMutability": "view",
      "type": "function"
    },
    {
      "inputs": [],
      "name": "oracle",
      "outputs": [
        {
          "internalType": "address",
          "name": "",
          "type": "address"
        }
      ],
      "stateMutability": "view",
      "type": "function"
    },
    {
      "inputs": [],
      "name": "owner",
      "outputs": [
        {
          "internalType": "address",
          "name": "",
          "type": "address"
        }
      ],
      "stateMutability": "view",
      "type": "function"
    },
    {
      "inputs": [],
      "name": "renounceOwnership",
      "outputs": [],
      "stateMutability": "nonpayable",
      "type": "function"
    },
    {
      "inputs": [
        {
          "internalType": "address",
          "name": "_oracle",
          "type": "address"
        }
      ],
      "name": "setOracle",
      "outputs": [],
      "stateMutability": "nonpayable",
      "type": "function"
    },
    {
      "inputs": [
        {
          "internalType": "uint256",
          "name": "amountOutMin",
          "type": "uint256"
        },
        {
          "internalType": "address[]",
          "name": "path",
          "type": "address[]"
        },
        {
          "internalType": "address",
          "name": "to",
          "type": "address"
        },
        {
          "internalType": "uint256",
          "name": "deadline",
          "type": "uint256"
        }
      ],
      "name": "swapExactETHForTokens",
      "outputs": [
        {
          "internalType": "uint256[]",
          "name": "amounts",
          "type": "uint256[]"
        }
      ],
      "stateMutability": "payable",
      "type": "function"
    },
    {
      "inputs": [
        {
          "internalType": "uint256",
          "name": "amountIn",
          "type": "uint256"
        },
        {
          "internalType": "uint256",
          "name": "amountOutMin",
          "type": "uint256"
        },
        {
          "internalType": "address[]",
          "name": "path",
          "type": "address[]"
        },
        {
          "internalType": "address",
          "name": "to",
          "type": "address"
        },
        {
          "internalType": "uint256",
          "name": "deadline",
          "type": "uint256"
        }
      ],
      "name": "swapExactTokensForTokens",
      "outputs": [
        {
          "internalType": "uint256[]",
          "name": "amounts",
          "type": "uint256[]"
        }
      ],
      "stateMutability": "nonpayable",
      "type": "function"
    },
    {
      "inputs": [
        {
          "components": [
            {
              "internalType": "uint256",
              "name": "amountIn",
              "type": "uint256"
            },
            {
              "internalType": "uint256",
              "name": "amountOutMin",
              "type": "uint256"
            },
            {
              "internalType": "address[]",
              "name": "path",
              "type": "address[]"
            },
            {
              "internalType": "address",
              "name": "to",
              "type": "address"
            },
            {
              "internalType": "uint256",
              "name": "deadline",
              "type": "uint256"
            }
          ],
          "internalType": "struct ShahSwapRouterV2.SwapParams",
          "name": "params",
          "type": "tuple"
        }
      ],
      "name": "swapExactTokensForTokensMultiHop",
      "outputs": [
        {
          "internalType": "uint256[]",
          "name": "amounts",
          "type": "uint256[]"
        }
      ],
      "stateMutability": "nonpayable",
      "type": "function"
    },
    {
      "inputs": [
        {
          "components": [
            {
              "components": [
                {
                  "internalType": "uint256",
                  "name": "amountIn",
                  "type": "uint256"
                },
                {
                  "internalType": "uint256",
                  "name": "amountOutMin",
                  "type": "uint256"
                },
                {
                  "internalType": "address[]",
                  "name": "path",
                  "type": "address[]"
                },
                {
                  "internalType": "address",
                  "name": "to",
                  "type": "address"
                },
                {
                  "internalType": "uint256",
                  "name": "deadline",
                  "type": "uint256"
                }
              ],
              "internalType": "struct ShahSwapRouterV2.SwapParams",
              "name": "swap",
              "type": "tuple"
            },
            {
              "internalType": "uint256",
              "name": "deadline",
              "type": "uint256"
            },
            {
              "internalType": "uint8",
              "name": "v",
              "type": "uint8"
            },
            {
              "internalType": "bytes32",
              "name": "r",
              "type": "bytes32"
            },
            {
              "internalType": "bytes32",
              "name": "s",
              "type": "bytes32"
            }
          ],
          "internalType": "struct ShahSwapRouterV2.PermitSwapParams",
          "name": "params",
          "type": "tuple"
        }
      ],
      "name": "swapExactTokensForTokensWithPermit",
      "outputs": [
        {
          "internalType": "uint256[]",
          "name": "amounts",
          "type": "uint256[]"
        }
      ],
      "stateMutability": "nonpayable",
      "type": "function"
    },
    {
      "inputs": [
        {
          "internalType": "uint256",
          "name": "amountOut",
          "type": "uint256"
        },
        {
          "internalType": "uint256",
          "name": "amountInMax",
          "type": "uint256"
        },
        {
          "internalType": "address[]",
          "name": "path",
          "type": "address[]"
        },
        {
          "internalType": "address",
          "name": "to",
          "type": "address"
        },
        {
          "internalType": "uint256",
          "name": "deadline",
          "type": "uint256"
        }
      ],
      "name": "swapTokensForExactETH",
      "outputs": [
        {
          "internalType": "uint256[]",
          "name": "amounts",
          "type": "uint256[]"
        }
      ],
      "stateMutability": "nonpayable",
      "type": "function"
    },
    {
      "inputs": [
        {
          "internalType": "uint256",
          "name": "amountOut",
          "type": "uint256"
        },
        {
          "internalType": "uint256",
          "name": "amountInMax",
          "type": "uint256"
        },
        {
          "internalType": "address[]",
          "name": "path",
          "type": "address[]"
        },
        {
          "internalType": "address",
          "name": "to",
          "type": "address"
        },
        {
          "internalType": "uint256",
          "name": "deadline",
          "type": "uint256"
        }
      ],
      "name": "swapTokensForExactTokens",
      "outputs": [
        {
          "internalType": "uint256[]",
          "name": "amounts",
          "type": "uint256[]"
        }
      ],
      "stateMutability": "nonpayable",
      "type": "function"
    },
    {
      "inputs": [
        {
          "internalType": "address",
          "name": "newOwner",
          "type": "address"
        }
      ],
      "name": "transferOwnership",
      "outputs": [],
      "stateMutability": "nonpayable",
      "type": "function"
    },
    {
      "stateMutability": "payable",
      "type": "receive"
    }
  ],
  "bytecode": "0x6101a034620002e1576001600160401b039062003299601f38829003908101601f191683019084821184831017620002e65780849160409485948552833981010312620002e157620000518262000318565b62000060602080940162000318565b918051906200006f82620002fc565b60108252848201946f29b430b429bbb0b82937baba32b92b1960811b86528151966200009b88620002fc565b6005885281880190640312e302e360dc1b82523315620002c95760008054336001600160a01b0319821681178355919a6001600160a01b03949092909185167f8be0079c531659141344cd1fd0a4f28419497f9722a3daafe3b4186f6b6457e08d80a3600180556200010d876200032d565b996101209a8b526200011f836200050a565b97610140988952519020918260e052519020906101009a828c524660a052865192868401927f8b73c3c69bb8fe3d512ecc4cf759cc79239f7b179b0ffacaa9a75d522b39400f84528885015260608401524660808401523060a084015260a0835260c083019383851090851117620002b55750828652815190206080523060c05282871615620002735750508516156200023157506101609283526101809384525193612bd99586620006c08739608051866124b6015260a05186612581015260c05186612480015260e051866125050152518561252b01525184611095015251836110bf0152518281816109b20152612a7b015251818181601d015281816109f6015281816111ec015261154d0152f35b606491519062461bcd60e51b82526004820152601460248201527f526f757465723a20494e56414c49445f574554480000000000000000000000006044820152fd5b907f526f757465723a20494e56414c49445f464143544f52590000000000000000006101046064938662461bcd60e51b855260c4820152601760e48201520152fd5b634e487b7160e01b81526041600452602490fd5b8351631e4fbdf760e01b815260006004820152602490fd5b600080fd5b634e487b7160e01b600052604160045260246000fd5b604081019081106001600160401b03821117620002e657604052565b51906001600160a01b0382168203620002e157565b805160209081811015620003ca5750601f8251116200036957808251920151908083106200035a57501790565b82600019910360031b1b161790565b90604051809263305a27a960e01b82528060048301528251908160248401526000935b828510620003b0575050604492506000838284010152601f80199101168101030190fd5b84810182015186860160440152938101938593506200038c565b906001600160401b038211620002e657600254926001938481811c91168015620004ff575b83821014620004e957601f8111620004af575b5081601f841160011462000443575092829391839260009462000437575b50501b916000199060031b1c19161760025560ff90565b01519250388062000420565b919083601f198116600260005284600020946000905b888383106200049457505050106200047a575b505050811b0160025560ff90565b015160001960f88460031b161c191690553880806200046c565b85870151885590960195948501948793509081019062000459565b600260005284601f84600020920160051c820191601f860160051c015b828110620004dc57505062000402565b60008155018590620004cc565b634e487b7160e01b600052602260045260246000fd5b90607f1690620003ef565b805160209190828110156200059a575090601f8251116200053957808251920151908083106200035a57501790565b90604051809263305a27a960e01b82528060048301528251908160248401526000935b82851062000580575050604492506000838284010152601f80199101168101030190fd5b84810182015186860160440152938101938593506200055c565b6001600160401b038111620002e6576003928354926001938481811c91168015620006b4575b83821014620004e957601f81116200067b575b5081601f841160011462000612575092829391839260009462000606575b50501b9160001990841b1c191617905560ff90565b015192503880620005f1565b919083601f1981168760005284600020946000905b8883831062000660575050501062000647575b505050811b01905560ff90565b015160001983861b60f8161c191690553880806200063a565b85870151885590960195948501948793509081019062000627565b8560005284601f84600020920160051c820191601f860160051c015b828110620006a7575050620005d3565b6000815501859062000697565b90607f1690620005c056fe604060808152600480361015610088575b361561001b57600080fd5b7f00000000000000000000000000000000000000000000000000000000000000006001600160a01b0316330361004d57005b6020606492519162461bcd60e51b835282015260166024820152752937baba32b91d1024a72b20a624a22fa9a2a72222a960511b6044820152fd5b6000803560e01c8063186e2d7714611b325780631f00ca7414611b155780631f7547b61461193557806330adf81f146118fa57806338ed1739146117585780634a25d94a146114e0578063715018a6146114865780637adbf973146114055780637dc0d1d0146113dc5780637ff36ab51461116f57806384b0196e1461107d57806385e0608e14610c7b5780638803dbee14610ae85780638da5cb5b14610ac05780639639011e14610a25578063ad5c4648146109e1578063c45a01551461099d578063c67d4915146104b8578063d06ca61f14610488578063e3c5f81d146102105763f2fde38b1461017b5750610010565b91903461020c57602036600319011261020c57610196611c4a565b9061019f611e3a565b6001600160a01b039182169283156101f6575050600054826bffffffffffffffffffffffff60a01b821617600055167f8be0079c531659141344cd1fd0a4f28419497f9722a3daafe3b4186f6b6457e0600080a380f35b51631e4fbdf760e01b8152908101849052602490fd5b8280fd5b5082346104845761022036611e09565b906102314260808401351015612095565b80820192610256600261024e61024787876122de565b3691611c74565b5110156120d3565b61025e612230565b823561027661027061024787876122de565b826125a7565b8051909560001991828101908111610471576102929088612139565b51956102a560209788830135111561214d565b6102af82826122de565b1561045e576001600160a01b03906102c6906121a4565b166102d183836122de565b1561044b576102df906121a4565b6102e984846122de565b6001101561043857610349928c8961030e8d95610308878d97016121a4565b90612a24565b8c516323b872dd60e01b8152339381019384526001600160a01b03909116602084015260408301949094529294859384929091839160600190565b03925af1801561042e5790610391939291610401575b5061038c61038661037084846122de565b919061037e606086016121a4565b923691611c74565b8b61282f565b6122de565b91909387519182019182116103ee575091600080516020612b84833981519152916103d46103c46103ea9796958a612139565b515a9087519485943398866121d0565b0390a26001805551928284938452830190611d17565b0390f35b634e487b7160e01b815260118952602490fd5b61042090893d8b11610427575b6104188183611c12565b8101906121b8565b508a61035f565b503d61040e565b87513d88823e3d90fd5b634e487b7160e01b885260328c52602488fd5b634e487b7160e01b875260328b52602487fd5b634e487b7160e01b865260328a52602486fd5b634e487b7160e01b855260118952602485fd5b5080fd5b508234610484576103ea906104a561049f36611ce8565b906125a7565b9051918291602083526020830190611d17565b50913461020c576104c836611e09565b602092838201356104db42821015612095565b6104f9600261024e6102476104f08780612338565b888101906122de565b610501612230565b61050b8380612338565b356105226105198580612338565b868101906122de565b1561098a576001600160a01b03918791839061053d906121a4565b1690875192838093623f675f60e91b8252338983015260249586915afa8015610980578a9061094d575b604292508851908a8201927f6e71edae12b1b97f4d1f60370fef10105fa2faae0126114a169c64845d6126c98452338b840152306060840152608083015260a08201528560c082015260c081526105bd81611bdc565b5190206105c861247d565b9088519161190160f01b83526002830152602282015220868601906105ec8261235a565b61060f61060660608a0135938460808c0135948592612368565b909291926123f8565b853391160361090b5761062e6106258980612338565b8a8101906122de565b156108f95790856106418d9594936121a4565b16906106576106508b80612338565b359461235a565b92823b156108f55785879360e4938c938f84988e60ff92519b8c9a8b9963d505accf60e01b8b5233908b015230908a01526044890152606488015216608486015260a485015260c48401525af1801561089c576108dd575b50506106cf6106be8680612338565b3561049f6102476106258980612338565b97885192600019938481019081116108cb576106ee610703918c612139565b518a6106fa8a80612338565b0135111561214d565b6107196107108880612338565b898101906122de565b156108b957610727906121a4565b166107356107108880612338565b156108b957610743906121a4565b6107506106258980612338565b600110156108a6579161076c8b92610308846107b296016121a4565b906107778a80612338565b8b516323b872dd60e01b815233818c019081526001600160a01b03909416602085015290356040840152938492839187918391606090910190565b03925af1801561089c579061081a959493929161087f575b506108046107fe6107e76107de8a80612338565b8b8101906122de565b919061037e60606107f88d80612338565b016121a4565b8c61282f565b6108116107108880612338565b95909780612338565b35958a5193840193841161086f57505050916103d46103ea969594926108617f6dfd949eea2cda0f020fc0ef00d3a43baac044b521bf50dcd888f155b92a4ebd958b612139565b5187519485943398866121d0565b634e487b7160e01b825260119052fd5b610895908a3d8c11610427576104188183611c12565b50386107ca565b88513d84823e3d90fd5b5050634e487b7160e01b82525060328552fd5b5050634e487b7160e01b815260328552fd5b5050634e487b7160e01b815260118552fd5b6108e690611bb3565b6108f15787386106af565b8780fd5b8580fd5b634e487b7160e01b8c5260328852848cfd5b885162461bcd60e51b81528088018b90526019818601527f526f757465723a20494e56414c49445f5349474e4154555245000000000000006044820152606490fd5b508882813d8311610979575b6109638183611c12565b810103126109745760429151610567565b600080fd5b503d610959565b88513d8c823e3d90fd5b634e487b7160e01b885260328452602488fd5b508234610484578160031936011261048457517f00000000000000000000000000000000000000000000000000000000000000006001600160a01b03168152602090f35b508234610484578160031936011261048457517f00000000000000000000000000000000000000000000000000000000000000006001600160a01b03168152602090f35b50913461020c578060031936011261020c576020610a8792610a45611c4a565b610a4d611e3a565b8554845163a9059cbb60e01b81526001600160a01b0391821693810193845260243560208501529586938492899290918491604090910190565b0393165af1908115610ab75750610a9c575080f35b610ab39060203d8111610427576104188183611c12565b5080f35b513d84823e3d90fd5b508234610484578160031936011261048457905490516001600160a01b039091168152602090f35b50823461048457610b0b610afb36611d7b565b9891939895909295421115612095565b610b1b600261024e368689611c74565b610b23612230565b610b4c610b3a610b34368689611c74565b86612700565b98610b448a612116565b511115612253565b8215610c68576001600160a01b03610b63866121a4565b1696610b6e866121a4565b8460011015610c55576020988991610b878984016121a4565b610b9091612a24565b90610b9a8c612116565b518a516323b872dd60e01b8152339681019687526001600160a01b0390931660208701526040860152909384919082908590829060600103925af1908115610c4a57506103ea96959492600080516020612b848339815191529492610c1092610c2d575b50610c0a368488611c74565b8a61282f565b6103d4610c1c89612116565b51925a9087519485943398866121d0565b610c43908a3d8c11610427576104188183611c12565b508a610bfe565b8751903d90823e3d90fd5b506032602492634e487b7160e01b835252fd5b634e487b7160e01b875260329052602486fd5b503461107a57610c8a36611e09565b906080610c9c42828501351015612095565b610ca4612230565b610cae83806122de565b90501561104157600a610cc184806122de565b905011610ffe578490829492918580946060808801965b610ce289806122de565b9050811015610eff57610cf589806122de565b821015610eec57610d0c908260051b810190612338565b9660a09788813603126108f55786519889016001600160401b03908a811082821117610ed757885281358a5260209081830135828c0152888301359081116108f1576002610d60610d869236908601611cca565b8c8c808d830197848952610d758c8201611c60565b8c85015201359101525110156120d3565b610d9f610d968b518451906125a7565b938b519061234d565b9c83516000198101908111610ec45790610dbc610dc39286612139565b519061234d565b8251909a6001600160a01b03918290610ddb90612116565b51169180610de98651612116565b5116908551805160011015610eaf57928b8b610e118f95610e4d9895878b9901511690612a24565b925194516323b872dd60e01b8152339181019182526001600160a01b039093166020820152604081019490945290948593849291839160600190565b03925af18015610ea55791610e7a9391610e7f969593610e87575b505051610e748c6121a4565b9161282f565b612313565b989598610cd8565b81610e9d92903d10610427576104188183611c12565b508e80610e68565b89513d8a823e3d90fd5b60328b634e487b7160e01b6000525260246000fd5b634e487b7160e01b895260118852602489fd5b604187634e487b7160e01b6000525260246000fd5b634e487b7160e01b855260328452602485fd5b858a8689858d8860208201358403610fbb57848201358610610f6e5750947f5450480b3a4f391b90dd657cd6ae5ba60b99566e1291a095cff2038a7fa7ca2091610f4b876020986122de565b9190505a9186519586528789870152868601528401523392a26001805551908152f35b608490602086519162461bcd60e51b8352820152602160248201527f526f757465723a20494e53554646494349454e545f544f54414c5f4f555450556044820152601560fa1b6064820152fd5b606490602086519162461bcd60e51b8352820152601f60248201527f526f757465723a20494e56414c49445f544f54414c5f414d4f554e545f494e006044820152fd5b845162461bcd60e51b8152602081860152601760248201527f526f757465723a2042415443485f544f4f5f4c415247450000000000000000006044820152606490fd5b845162461bcd60e51b815260208186015260136024820152720a4deeae8cae474408a9aa0a8b2be8482a8869606b1b6044820152606490fd5b80fd5b5091903461020c578260031936011261020c576110b97f0000000000000000000000000000000000000000000000000000000000000000611e98565b916110e37f0000000000000000000000000000000000000000000000000000000000000000611fbf565b81519260208401908482106001600160401b0383111761115a5750826103ea949261113b9261112e9895528484528151978897600f60f81b895260e060208a015260e0890190611dc9565b9187830390880152611dc9565b9146606086015230608086015260a085015283820360c0850152611d17565b604190634e487b7160e01b6000525260246000fd5b5091608036600319011261020c576024356001600160401b0381116113d85761119b9036908401611d4b565b60443592916001600160a01b038085168503610974576111bf426064351015612095565b6111cf600261024e368686611c74565b6111d7612230565b82156113c5576111e6826121a4565b946112197f00000000000000000000000000000000000000000000000000000000000000009683881693849116146120d3565b61122d611227368686611c74565b346125a7565b95865192600019938481019081116113b2576112579061124f8b35918b612139565b51101561214d565b803b156113a4578651630d0e30db60e41b81528a9081818c8134875af180156113a857611390575b5050856001101561137d57889992916112a798996112db9260209a8b93610308858b016121a4565b8a5163a9059cbb60e01b81526001600160a01b03909116928101928352346020840152938492839188918391604090910190565b03925af1801561137357906113029291611356575b506112fc368787611c74565b8961282f565b865191820191821161134357506103ea93929161132e600080516020612b848339815191529288612139565b51906103d45a865193849333973491866121d0565b634e487b7160e01b815260118852602490fd5b61136c90893d8b11610427576104188183611c12565b50386112f0565b87513d85823e3d90fd5b634e487b7160e01b8a526032895260248afd5b61139990611bb3565b6113a457893861127f565b8980fd5b89513d84823e3d90fd5b634e487b7160e01b8b5260118a5260248bfd5b634e487b7160e01b875260328652602487fd5b8380fd5b5091903461020c578260031936011261020c575490516001600160a01b03909116815260209150f35b50913461020c57602036600319011261020c57611420611c4a565b611428611e3a565b6001600160a01b031690811561144b575081546001600160a01b03191617905580f35b5162461bcd60e51b81526020818401526016602482015275526f757465723a20494e56414c49445f4f5241434c4560501b6044820152606490fd5b503461107a578060031936011261107a5761149f611e3a565b600080546001600160a01b0319811682556001600160a01b03167f8be0079c531659141344cd1fd0a4f28419497f9722a3daafe3b4186f6b6457e08280a380f35b50823461048457611505906114f436611d7b565b989294979193969098421115612095565b611515600261024e368688611c74565b61151d612230565b6000198301978389116117455783891015610c555761154361157a9960051b86016121a4565b6001600160a01b037f000000000000000000000000000000000000000000000000000000000000000081169a909182168b146120d3565b611591610b3a61158b36888a611c74565b8b612700565b8415611732576115a0866121a4565b16986115ab866121a4565b99856001101561171f576115cf98999a6116169160209a8b92610308848c016121a4565b906115d98d612116565b518b516323b872dd60e01b8152338a82019081526001600160a01b0390941660208501526040840191909152938492839189918391606090910190565b03925af18015611715576116f8575b506116353061038636888a611c74565b803b1561020c5782809160248c8a519485938492632e1a7d4d60e01b84528a8401525af1801561137357908a9392916116e5575b5081809381925af161167961229f565b50156116a257508495600080516020612b84833981519152916103d4610c1c6103ea9798612116565b835162461bcd60e51b8152908101859052601b60248201527f526f757465723a204554485f5452414e534645525f4641494c454400000000006044820152606490fd5b6116f190929192611bb3565b908a611669565b61170e90893d8b11610427576104188183611c12565b508a611625565b88513d86823e3d90fd5b634e487b7160e01b845260328552602484fd5b634e487b7160e01b835260328452602483fd5b506011602492634e487b7160e01b835252fd5b5082346104845761177c9061176c36611d7b565b9690969493919294421115612095565b61178c600261024e368588611c74565b611794612230565b6117a86117a2368487611c74565b846125a7565b96875191600019928381019081116118e7579061124f6117c8928b612139565b82156118d4576001600160a01b036117df866121a4565b16966117ea866121a4565b84600110156118c1578a908660209a8b92838b01611807906121a4565b61181091612a24565b8b516323b872dd60e01b8152339581019586526001600160a01b0390911660208601526040850192909252909283919082908790829060600103925af180156118b7579061186a929161189a575b50610c0a368689611c74565b87519182019182116103ee575091600080516020612b84833981519152916103d46103c46103ea9796958a612139565b6118b0908a3d8c11610427576104188183611c12565b508b61185e565b88513d85823e3d90fd5b634e487b7160e01b835260328b52602483fd5b634e487b7160e01b815260328952602490fd5b634e487b7160e01b835260118b52602483fd5b508234610484578160031936011261048457602090517f6e71edae12b1b97f4d1f60370fef10105fa2faae0126114a169c64845d6126c98152f35b5082903461107a5761194636611ce8565b939092805193606085018581106001600160401b03821117611b0257825260608552602094858101918583528382019486865261198760028a5110156120d3565b88835261199489836125a7565b895160001991828201918211611aef57906119ae91612139565b51855281546001600160a01b039a908b169182611a21575b505050505094938251958587526080870190519560608189015286518092528060a089019701925b828110611a0b575050505084955051908401525160608301520390f35b83518a16885296810196928101926001016119ee565b8b611a2b83612116565b5116918051918201918211611adc57611a498c959493928e92612139565b5189516333d0bfab60e21b81526001600160a01b0393841695810195865291169091166020840152604083019490945283918290819060600103915afa869181611aa9575b50611aa257508484525b87808080806119c6565b8452611a98565b9091508781813d8311611ad5575b611ac18183611c12565b81010312611ad157519089611a8e565b8680fd5b503d611ab7565b634e487b7160e01b8b526011855260248bfd5b634e487b7160e01b8a526011845260248afd5b634e487b7160e01b855260418452602485fd5b508234610484576103ea906104a5611b2c36611ce8565b90612700565b50913461020c578260031936011261020c57611b4c611e3a565b8280808060018060a01b0381541647905af1611b6661229f565b5015611b70578280f35b906020606492519162461bcd60e51b8352820152601b60248201527f526f757465723a204554485f5245434f564552595f4641494c454400000000006044820152fd5b6001600160401b038111611bc657604052565b634e487b7160e01b600052604160045260246000fd5b60e081019081106001600160401b03821117611bc657604052565b604081019081106001600160401b03821117611bc657604052565b90601f801991011681019081106001600160401b03821117611bc657604052565b6001600160401b038111611bc65760051b60200190565b600435906001600160a01b038216820361097457565b35906001600160a01b038216820361097457565b9291611c7f82611c33565b91611c8d6040519384611c12565b829481845260208094019160051b810192831161097457905b828210611cb35750505050565b838091611cbf84611c60565b815201910190611ca6565b9080601f8301121561097457816020611ce593359101611c74565b90565b9060406003198301126109745760043591602435906001600160401b03821161097457611ce591600401611cca565b90815180825260208080930193019160005b828110611d37575050505090565b835185529381019392810192600101611d29565b9181601f84011215610974578235916001600160401b038311610974576020808501948460051b01011161097457565b60a0600319820112610974576004359160243591604435906001600160401b03821161097457611dad91600401611d4b565b90916064356001600160a01b0381168103610974579060843590565b919082519283825260005b848110611df5575050826000602080949584010152601f8019910116010190565b602081830181015184830182015201611dd4565b6003199060208183011261097457600435916001600160401b038311610974578260a0920301126109745760040190565b6000546001600160a01b03163303611e4e57565b60405163118cdaa760e01b8152336004820152602490fd5b90611e7082611c33565b611e7d6040519182611c12565b8281528092611e8e601f1991611c33565b0190602036910137565b60ff8114611ed65760ff811690601f8211611ec45760405191611eba83611bf7565b8252602082015290565b604051632cd44ac360e21b8152600490fd5b50604051600060025490600182811c90808416938415611fb5575b6020948584108114611fa15783875286949392918115611f815750600114611f22575b5050611ce592500382611c12565b9093915060026000527f405787fa12a823e0f2b7631cc41b3ba8828b3321ca811111fa75cd3aa3bb5ace936000915b818310611f69575050611ce593508201013880611f14565b85548784018501529485019486945091830191611f51565b915050611ce594925060ff191682840152151560051b8201013880611f14565b634e487b7160e01b85526022600452602485fd5b91607f1691611ef1565b60ff8114611fe15760ff811690601f8211611ec45760405191611eba83611bf7565b50604051600060035490600182811c9080841693841561208b575b6020948584108114611fa15783875286949392918115611f81575060011461202c575050611ce592500382611c12565b9093915060036000527fc2575a0e9e593c00f959f8c92f12db2869c3395a3b0502d05e2516446f71f85b936000915b818310612073575050611ce593508201013880611f14565b8554878401850152948501948694509183019161205b565b91607f1691611ffc565b1561209c57565b60405162461bcd60e51b815260206004820152600f60248201526e149bdd5d195c8e8811561412549151608a1b6044820152606490fd5b156120da57565b60405162461bcd60e51b81526020600482015260146024820152730a4deeae8cae47440929cac82989288bea082a8960631b6044820152606490fd5b8051156121235760200190565b634e487b7160e01b600052603260045260246000fd5b80518210156121235760209160051b010190565b1561215457565b60405162461bcd60e51b815260206004820152602260248201527f526f757465723a20494e53554646494349454e545f4f55545055545f414d4f55604482015261139560f21b6064820152608490fd5b356001600160a01b03811681036109745790565b90816020910312610974575180151581036109745790565b92959493918060808501608086525260a08401919060005b818110612205575050506020830195909552604082015260600152565b91929091906001906001600160a01b0361221e86611c60565b168152602090810194019291016121e8565b600260015414612241576002600155565b604051633ee5aeb560e01b8152600490fd5b1561225a57565b60405162461bcd60e51b815260206004820152601e60248201527f526f757465723a204558434553534956455f494e5055545f414d4f554e5400006044820152606490fd5b3d156122d9573d906001600160401b038211611bc657604051916122cd601f8201601f191660200184611c12565b82523d6000602084013e565b606090565b903590601e198136030182121561097457018035906001600160401b03821161097457602001918160051b3603831361097457565b60001981146123225760010190565b634e487b7160e01b600052601160045260246000fd5b903590609e1981360301821215610974570190565b9190820180921161232257565b3560ff811681036109745790565b91907f7fffffffffffffffffffffffffffffff5d576e7357a4501ddfe92f46681b20a084116123ec57926020929160ff608095604051948552168484015260408301526060820152600092839182805260015afa156123e05780516001600160a01b038116156123d757918190565b50809160019190565b604051903d90823e3d90fd5b50505060009160039190565b6004811015612467578061240a575050565b600181036124245760405163f645eedf60e01b8152600490fd5b600281036124455760405163fce698f760e01b815260048101839052602490fd5b60031461244f5750565b602490604051906335e2f38360e21b82526004820152fd5b634e487b7160e01b600052602160045260246000fd5b307f00000000000000000000000000000000000000000000000000000000000000006001600160a01b0316148061257e575b156124d8577f000000000000000000000000000000000000000000000000000000000000000090565b60405160208101907f8b73c3c69bb8fe3d512ecc4cf759cc79239f7b179b0ffacaa9a75d522b39400f82527f000000000000000000000000000000000000000000000000000000000000000060408201527f000000000000000000000000000000000000000000000000000000000000000060608201524660808201523060a082015260a0815260c081018181106001600160401b03821117611bc65760405251902090565b507f000000000000000000000000000000000000000000000000000000000000000046146124af565b9190916125b86002845110156120d3565b6125c28351611e66565b906125cc82612116565b5260005b83516000198101908111612322578110156126fb576001600160a01b0390816125f98287612139565b51166001820192838311612322576126269161262191612619868a612139565b511690612a24565b612af8565b5092906126338386612139565b5180156126ac578115948515806126a3575b61264e906129a5565b6103e5808302928304036123225761266690826129f1565b946103e88084029384041417156123225761269e9461268b612691926126989461234d565b90612a04565b9185612139565b52612313565b6125d0565b50801515612645565b60405162461bcd60e51b815260206004820152602160248201527f526f757465723a20494e53554646494349454e545f494e5055545f414d4f554e6044820152601560fa1b6064820152608490fd5b509150565b61270e6002835110156120d3565b6127188251611e66565b9182519160001992838101908111612322576127349085612139565b52805182810190811161232257805b61274d5750505090565b8281018181116128115761277d6126216001600160a01b03806127708588612139565b5116906126198688612139565b50906127b161278c8589612139565b51809261279a82151561214d565b80151580612826575b6127ac906129a5565b6129f1565b916103e8928381029381850414901517156128115781810391818311612811576103e58084029384041491141715612811576127ec91612a04565b9060018201809211612811576128029086612139565b52801561281157820180612743565b60246000634e487b7160e01b81526011600452fd5b508415156127a3565b90929160005b845160001981019081116123225781101561299e576001600160a01b038061285d8388612139565b511690600183018084116123225781612876828a612139565b51169081841015612993578261288e85925b89612139565b519116840361298b57600090915b8951600119810190811161232257861015612980576002860190818711612322576128d6856128ce6128dc948e612139565b511682612a24565b95612a24565b600080604092835196826020988981019263022c0d9f60e01b8452602498898301526044998a83015260649b168b8201526080608482015260a48281830152815261292681611bdc565b51925af161293261229f565b501561294b57505050505061294690612313565b612835565b5162461bcd60e51b8152600481019390935260139083015272149bdd5d195c8e8814d5d05417d19052531151606a1b90820152fd5b6128dc908795612a24565b60009161289c565b8261288e8392612888565b5050509050565b156129ac57565b60405162461bcd60e51b815260206004820152601e60248201527f526f757465723a20494e53554646494349454e545f4c495155494449545900006044820152606490fd5b8181029291811591840414171561232257565b8115612a0e570490565b634e487b7160e01b600052601260045260246000fd5b60405163e6a4390560e01b602082019081526001600160a01b0392831660248301529282166044808301919091528152600093928491608081016001600160401b03811182821017612ae4576040525182918291907f00000000000000000000000000000000000000000000000000000000000000005afa612aa461229f565b9080612ad8575b612ab457505050565b9091929350602081805181010312610484576020015191821680920361107a575090565b50602081511015612aab565b634e487b7160e01b84526041600452602484fd5b9060009160009182808080946040516020810190630240bc6b60e21b825260048152612b2381611bf7565b51915afa612b2f61229f565b9080612b77575b612b3e575050565b606092955080935080919450518101031261048457602081015191606060408301519201519063ffffffff8216820361107a5750909192565b50606081511015612b3656fefaf6bd688536b0e77d3902f500c5bb95e9a9bbb8b906bdeea4879507cd263fc2a2646970667358221220881dae461f464ca94493b967bb101669a5d7e3f6229e49c91fc40029e872cc2864736f6c63430008140033",
  "linkReferences": {},
  "deployedLinkReferences": {}
}