{"contracts/ShahSwapRouterVS2.sol":{"ShahSwapRouterVS2":{"abi":[{"inputs":[{"internalType":"address","name":"_factory","type":"address"},{"internalType":"address","name":"_WETH","type":"address"}],"stateMutability":"nonpayable","type":"constructor"},{"inputs":[],"name":"WETH","outputs":[{"internalType":"address","name":"","type":"address"}],"stateMutability":"view","type":"function"},{"inputs":[{"internalType":"address","name":"tokenA","type":"address"},{"internalType":"address","name":"tokenB","type":"address"},{"internalType":"uint256","name":"amountADesired","type":"uint256"},{"internalType":"uint256","name":"amountBDesired","type":"uint256"},{"internalType":"uint256","name":"amountAMin","type":"uint256"},{"internalType":"uint256","name":"amountBMin","type":"uint256"},{"internalType":"address","name":"to","type":"address"},{"internalType":"uint256","name":"deadline","type":"uint256"}],"name":"addLiquidity","outputs":[{"internalType":"uint256","name":"amountA","type":"uint256"},{"internalType":"uint256","name":"amountB","type":"uint256"},{"internalType":"uint256","name":"liquidity","type":"uint256"}],"stateMutability":"nonpayable","type":"function"},{"inputs":[{"internalType":"address","name":"token","type":"address"},{"internalType":"uint256","name":"amountTokenDesired","type":"uint256"},{"internalType":"uint256","name":"amountTokenMin","type":"uint256"},{"internalType":"uint256","name":"amountETHMin","type":"uint256"},{"internalType":"address","name":"to","type":"address"},{"internalType":"uint256","name":"deadline","type":"uint256"}],"name":"addLiquidityETH","outputs":[{"internalType":"uint256","name":"amountToken","type":"uint256"},{"internalType":"uint256","name":"amountETH","type":"uint256"},{"internalType":"uint256","name":"liquidity","type":"uint256"}],"stateMutability":"payable","type":"function"},{"inputs":[],"name":"factory","outputs":[{"internalType":"address","name":"","type":"address"}],"stateMutability":"view","type":"function"},{"inputs":[{"internalType":"uint256","name":"amountOut","type":"uint256"},{"internalType":"uint256","name":"reserveIn","type":"uint256"},{"internalType":"uint256","name":"reserveOut","type":"uint256"}],"name":"getAmountIn","outputs":[{"internalType":"uint256","name":"amountIn","type":"uint256"}],"stateMutability":"pure","type":"function"},{"inputs":[{"internalType":"uint256","name":"amountIn","type":"uint256"},{"internalType":"uint256","name":"reserveIn","type":"uint256"},{"internalType":"uint256","name":"reserveOut","type":"uint256"}],"name":"getAmountOut","outputs":[{"internalType":"uint256","name":"amountOut","type":"uint256"}],"stateMutability":"pure","type":"function"},{"inputs":[{"internalType":"uint256","name":"amountOut","type":"uint256"},{"internalType":"address[]","name":"path","type":"address[]"}],"name":"getAmountsIn","outputs":[{"internalType":"uint256[]","name":"amounts","type":"uint256[]"}],"stateMutability":"view","type":"function"},{"inputs":[{"internalType":"uint256","name":"amountIn","type":"uint256"},{"internalType":"address[]","name":"path","type":"address[]"}],"name":"getAmountsOut","outputs":[{"internalType":"uint256[]","name":"amounts","type":"uint256[]"}],"stateMutability":"view","type":"function"},{"inputs":[{"internalType":"uint256","name":"amountA","type":"uint256"},{"internalType":"uint256","name":"reserveA","type":"uint256"},{"internalType":"uint256","name":"reserveB","type":"uint256"}],"name":"quote","outputs":[{"internalType":"uint256","name":"amountB","type":"uint256"}],"stateMutability":"pure","type":"function"},{"inputs":[{"internalType":"address","name":"tokenA","type":"address"},{"internalType":"address","name":"tokenB","type":"address"},{"internalType":"uint256","name":"liquidity","type":"uint256"},{"internalType":"uint256","name":"amountAMin","type":"uint256"},{"internalType":"uint256","name":"amountBMin","type":"uint256"},{"internalType":"address","name":"to","type":"address"},{"internalType":"uint256","name":"deadline","type":"uint256"}],"name":"removeLiquidity","outputs":[{"internalType":"uint256","name":"amountA","type":"uint256"},{"internalType":"uint256","name":"amountB","type":"uint256"}],"stateMutability":"nonpayable","type":"function"},{"inputs":[{"internalType":"address","name":"token","type":"address"},{"internalType":"uint256","name":"liquidity","type":"uint256"},{"internalType":"uint256","name":"amountTokenMin","type":"uint256"},{"internalType":"uint256","name":"amountETHMin","type":"uint256"},{"internalType":"address","name":"to","type":"address"},{"internalType":"uint256","name":"deadline","type":"uint256"}],"name":"removeLiquidityETH","outputs":[{"internalType":"uint256","name":"amountToken","type":"uint256"},{"internalType":"uint256","name":"amountETH","type":"uint256"}],"stateMutability":"nonpayable","type":"function"},{"inputs":[{"internalType":"address","name":"token","type":"address"},{"internalType":"uint256","name":"liquidity","type":"uint256"},{"internalType":"uint256","name":"amountTokenMin","type":"uint256"},{"internalType":"uint256","name":"amountETHMin","type":"uint256"},{"internalType":"address","name":"to","type":"address"},{"internalType":"uint256","name":"deadline","type":"uint256"}],"name":"removeLiquidityETHSupportingFeeOnTransferTokens","outputs":[{"internalType":"uint256","name":"amountETH","type":"uint256"}],"stateMutability":"nonpayable","type":"function"},{"stateMutability":"payable","type":"receive"}],"evm":{"bytecode":{"linkReferences":{},"object":"60c0346100cf57601f62001c8738819003918201601f19168301916001600160401b038311848410176100d45780849260409485528339810103126100cf57610053602061004c836100ea565b92016100ea565b9060805260a052604051611b889081620000ff823960805181818161013d015281816103cc01528181610573015281816106b401528181610734015281816108e101528181610c6901528181610de30152611473015260a05181818160240152818161010a015281816108b501528181610c040152610db70152f35b600080fd5b634e487b7160e01b600052604160045260246000fd5b51906001600160a01b03821682036100cf5756fe60406080815260049081361015610054575b5050361561001e57600080fd5b610052337f00000000000000000000000000000000000000000000000000000000000000006001600160a01b03161461111c565b005b600091823560e01c806302751cec14610d8e578063054d50d414610d725780631f00ca7414610c4f57806385f8c25914610c33578063ad5c464814610bef578063ad615dec14610bcc578063af2979eb1461088b578063baa2abde146106e3578063c45a01551461069f578063d06ca61f1461055a578063e8e33700146103625763f305d719146100e55750610011565b61013392610108926100f636611037565b99939499989098929192421115611139565b7f0000000000000000000000000000000000000000000000000000000000000000933490858b611446565b96909561016183837f00000000000000000000000000000000000000000000000000000000000000006111e9565b84516323b872dd60e01b8152338882019081526001600160a01b038316602082810191909152604082018b905295919086908290819060600103818b60018060a01b03809a165af1801561033b5790859291610345575b5016803b15610337578551630d0e30db60e41b815287818a818e865af1801561033b578887928d9261031d575b50885163a9059cbb60e01b81526001600160a01b0386168c820190815260208101939093529384928390036040019183915af19081156103135784602493610239889796948b9485916102e6575b5061111c565b88519a8b9687956335313c2160e11b87521690850152165af19283156102db57926102a4575b50610288925084341161028c575b51938493846040919493926060820195825260208201520152565b0390f35b61029f61029986346117db565b33611ac5565b61026d565b90915082813d83116102d4575b6102bb81836111af565b810103126102cf576102889151903861025f565b600080fd5b503d6102b1565b8251903d90823e3d90fd5b6103069150893d8b1161030c575b6102fe81836111af565b8101906111d1565b38610233565b503d6102f4565b86513d89823e3d90fd5b90925061032a9150611185565b61033757848a88386101e5565b8680fd5b87513d8a823e3d90fd5b61035b90873d891161030c576102fe81836111af565b50386101b8565b508234610557576101003660031901126105575761037e61100b565b90610387611021565b6001600160a01b03949060c435868116908190036102cf576103ad4260e4351015611139565b6103c360a435608435606435604435868a611446565b978387839993957f0000000000000000000000000000000000000000000000000000000000000000916103f5926111e9565b86516323b872dd60e01b808252338683019081526001600160a01b0384166020808301919091526040820199909952929a9092889183918290036060019082908d9089165af1801561054d57928a8a868f94958b9661048898610530575b508c51908152338a82019081526001600160a01b03909416602085015260408401959095529395869485939091849160600190565b0393165af1801561031357602492869594928992610513575b508751998a9586946335313c2160e11b8652850152165af19283156102db57926104e1575b50519283526020830193909352506040810191909152606090f35b90915082813d831161050c575b6104f881836111af565b810103126102cf57610288915190856104c6565b503d6104ee565b61052990873d891161030c576102fe81836111af565b508c6104a1565b61054690883d8a1161030c576102fe81836111af565b5038610453565b88513d8b823e3d90fd5b80fd5b5082903461069b5761059a61056e36611091565b9192907f000000000000000000000000000000000000000000000000000000000000000092369161197f565b906105a96002835110156119dd565b6105b38251611a29565b92835115610686576020840152845b8251600019810190811161067357811015610666576001600160a01b03806105ea8386611a5b565b511660018301918284116106535761061661062e926106279261060d868a611a5b565b511690876115ed565b90610621868a611a5b565b516117e8565b9186611a5b565b526000198114610640576001016105c2565b634e487b7160e01b865260118552602486fd5b634e487b7160e01b895260118852602489fd5b86518061028886826110e1565b634e487b7160e01b875260118652602487fd5b603285634e487b7160e01b6000525260246000fd5b5080fd5b50503461069b578160031936011261069b57517f00000000000000000000000000000000000000000000000000000000000000006001600160a01b03168152602090f35b5082903461069b5760e036600319011261069b576106ff61100b565b610707611021565b926001600160a01b039060a435828116908190036102cf5761072d4260c4351015611139565b61075886857f00000000000000000000000000000000000000000000000000000000000000006111e9565b87516323b872dd60e01b8152338188019081526001600160a01b0383166020828101919091526044356040830152928616979290829081906060010381878b5af1801561088157916024918a9493610863575b50848451988994859363226bf2d160e21b85528401525af1948515610857578194829661081d575b50906107e08392856112ae565b5090501691161460001461081857905b6107fe606435831015611392565b61080c6084358210156113ec565b82519182526020820152f35b6107f0565b87809297508196503d8311610850575b61083781836111af565b81010312610557578351602090940151946107e06107d3565b503d61082d565b508551903d90823e3d90fd5b61087a9060203d811161030c576102fe81836111af565b508a6107ab565b89513d86823e3d90fd5b5082346105575761089b36611037565b9794909396929197421115906108b082611139565b6108da7f000000000000000000000000000000000000000000000000000000000000000092611139565b61090582827f00000000000000000000000000000000000000000000000000000000000000006111e9565b86516323b872dd60e01b8152338682019081526001600160a01b039283166020828101829052604083019c909c52919b929591908b908d90819060600103818d855af18015610ba457908b8b9c9d8b9c9b93610bae575b505060248251809b819363226bf2d160e21b8352308c8401525af1978815610ba457918a918c938390849b610b64575b508761099888886112ae565b508782169550168403610b5157916109ba6109c29260249695945b1015611392565b8a10156113ec565b89516370a0823160e01b8152308882015292839182905afa90811561054d579189918b938391610b1b575b50895163a9059cbb60e01b9481019485526001600160a01b0389166024820152604480820192909252908152919283928390610a2a6064826111af565b51925af1610a36611a85565b81610aeb575b5015610aa8571690813b15610aa45783602487928388519586948593632e1a7d4d60e01b85528401525af18015610a9a57610a83575b5090610a7d91611ac5565b51908152f35b93610a92610a7d939295611185565b939091610a72565b84513d87823e3d90fd5b8580fd5b855162461bcd60e51b8152808401899052601f60248201527f5472616e7366657248656c7065723a205452414e534645525f4641494c4544006044820152606490fd5b8051801592508a908315610b03575b50505089610a3c565b610b1393508201810191016111d1565b898981610afa565b9250509181813d8311610b4a575b610b3381836111af565b81010312610b46575189918991826109ed565b8880fd5b503d610b29565b99916109ba6109c29260249695946109b3565b9a5050915091508888813d8311610b9d575b610b8081836111af565b81010312610b99578a918a91838a519a0151998e61098c565b8980fd5b503d610b76565b89513d8c823e3d90fd5b81610bc492903d1061030c576102fe81836111af565b508c8e61095c565b50503461069b57602090610be8610be236611077565b91611754565b9051908152f35b50503461069b578160031936011261069b57517f00000000000000000000000000000000000000000000000000000000000000006001600160a01b03168152602090f35b50503461069b57602090610be8610c4936611077565b9161189e565b509034610d6e57610c9092610c6336611091565b929195907f000000000000000000000000000000000000000000000000000000000000000093369161197f565b93610c9f6002865110156119dd565b610ca98551611a29565b9485519660001997888101908111610d5b57610cc59088611a5b565b528051878101908111610d4857805b610ce55785518061028889826110e1565b878101818111610d5b57610d39610d32610d216001600160a01b0380610d0b8689611a5b565b511690610d188789611a5b565b5116908a6115ed565b90610d2c868d611a5b565b5161189e565b9189611a5b565b528015610d4857870180610cd4565b634e487b7160e01b845260118352602484fd5b634e487b7160e01b855260118452602485fd5b8280fd5b50503461069b57602090610be8610d8836611077565b916117e8565b50823461055757610d9e36611037565b9692969490939442111590610db282611139565b610ddc7f000000000000000000000000000000000000000000000000000000000000000092611139565b610e0782827f00000000000000000000000000000000000000000000000000000000000000006111e9565b89516323b872dd60e01b8152338682019081526001600160a01b039283166020828101829052604083019a909a52929592919089908290819060600103818d865af1801561100157918c918b9796959493610fe4575b5060248251809c819363226bf2d160e21b8352308c8401525af1988915610fda578590869a610fa1575b508480610e9486866112ae565b50941693168303610f8b578592610ebe8a93610eb6610ef1949e8f1015611392565b8c10156113ec565b8c5163a9059cbb60e01b81526001600160a01b038a16898201908152602081018e90529094859384928391604090910190565b03925af18015610f8157610f64575b501691823b1561069b578560248392838b519687948593632e1a7d4d60e01b85528401525af1908115610f595750918491610f4093610f4a575b50611ac5565b8351928352820152f35b610f5390611185565b87610f3a565b8751903d90823e3d90fd5b610f7a90873d891161030c576102fe81836111af565b5089610f00565b8a513d86823e3d90fd5b988592610ebe8a93610eb6610ef1949e8f6109b3565b809a508c8092503d8311610fd3575b610fba81836111af565b81010312610fcf57878951990151988c610e87565b8480fd5b503d610fb0565b8b513d87823e3d90fd5b610ffa908b3d8d1161030c576102fe81836111af565b508d610e5d565b8c513d8c823e3d90fd5b600435906001600160a01b03821682036102cf57565b602435906001600160a01b03821682036102cf57565b60c09060031901126102cf576001600160a01b0360043581811681036102cf579160243591604435916064359160843590811681036102cf579060a43590565b60609060031901126102cf57600435906024359060443590565b60406003198201126102cf576004359160243567ffffffffffffffff928382116102cf57806023830112156102cf5781600401359384116102cf5760248460051b830101116102cf576024019190565b6020908160408183019282815285518094520193019160005b828110611108575050505090565b8351855293810193928101926001016110fa565b1561112357565b634e487b7160e01b600052600160045260246000fd5b1561114057565b60405162461bcd60e51b815260206004820152601760248201527f5368616853776170526f757465723a20455850495245440000000000000000006044820152606490fd5b67ffffffffffffffff811161119957604052565b634e487b7160e01b600052604160045260246000fd5b90601f8019910116810190811067ffffffffffffffff82111761119957604052565b908160209103126102cf575180151581036102cf5790565b916111f3916112ae565b6040929192519260208401906bffffffffffffffffffffffff199283809260601b16835260601b16603485015260288452606084019367ffffffffffffffff92818610848711176111995760e092866040528251902090608083019560ff60f81b875260601b16608183015260958201527f96e8ac4277198ff8b6f785478aa9a39f403cb768dd02cbee326c3e7da348845f60b58201526055855201908382109082111761119957604052905190206001600160a01b031690565b90916001600160a01b039182841683821680821461132257101561131d57925b918316156112d857565b60405162461bcd60e51b815260206004820152601d60248201527f53686168537761704c6962726172793a205a45524f5f414444524553530000006044820152606490fd5b6112ce565b60405162461bcd60e51b8152602060048201526024808201527f53686168537761704c6962726172793a204944454e544943414c5f41444452456044820152635353455360e01b6064820152608490fd5b908160209103126102cf57516001600160a01b03811681036102cf5790565b1561139957565b60405162461bcd60e51b815260206004820152602560248201527f5368616853776170526f757465723a20494e53554646494349454e545f415f416044820152641353d5539560da1b6064820152608490fd5b156113f357565b60405162461bcd60e51b815260206004820152602560248201527f5368616853776170526f757465723a20494e53554646494349454e545f425f416044820152641353d5539560da1b6064820152608490fd5b60405163e6a4390560e01b81526001600160a01b03828116600483015283811660248301529396949594937f0000000000000000000000000000000000000000000000000000000000000000808216949392909160209182816044818a5afa9081156115b0576000916115bc575b501615611539575b506114c793506115ed565b9290801580611531575b156114de57505050509091565b6114ed84828897959697611754565b948386116115095750505050611505908210156113ec565b9091565b839550611505945090611520916115299394611754565b9485111561111c565b831015611392565b5083156114d1565b6040516364e329cb60e11b81526001600160a01b03848116600483015285166024820152948190869060449082906000905af19485156115b0576114c795611582575b506114bc565b816115a192903d106115a9575b61159981836111af565b810190611373565b50388061157c565b503d61158f565b6040513d6000823e3d90fd5b6115d39150833d85116115a95761159981836111af565b386114b4565b51906001600160701b03821682036102cf57565b9080606060049361161361160187856112ae565b50966001600160a01b039485936111e9565b1660405194858092630240bc6b60e21b82525afa9283156115b0576000908194611657575b5081906001600160701b03809116941694169116146000146115055791565b93506060843d82116116a7575b81611671606093836111af565b8101031261055757611682846115d9565b906040611691602087016115d9565b95015163ffffffff811603610557575081611638565b3d9150611664565b156116b657565b60405162461bcd60e51b815260206004820152602760248201527f53686168537761704c6962726172793a20494e53554646494349454e545f4c496044820152665155494449545960c81b6064820152608490fd5b8181029291811591840414171561171e57565b634e487b7160e01b600052601160045260246000fd5b811561173e570490565b634e487b7160e01b600052601260045260246000fd5b801561178a5761177e926117799183151580611781575b611774906116af565b61170b565b611734565b90565b5081151561176b565b60405162461bcd60e51b8152602060048201526024808201527f53686168537761704c6962726172793a20494e53554646494349454e545f414d60448201526313d5539560e21b6064820152608490fd5b9190820391821161171e57565b80156118465781159283158061183d575b611802906116af565b6103e58083029283040361171e5761181a908261170b565b926103e880840293840414171561171e57810180911161171e5761177e91611734565b508015156117f9565b60405162461bcd60e51b815260206004820152602a60248201527f53686168537761704c6962726172793a20494e53554646494349454e545f494e60448201526914155517d05353d5539560b21b6064820152608490fd5b9190821561190e5782816118bc9215158061190557611774906116af565b916103e89283810293818504149015171561171e576118da916117db565b6103e59081810291818304149015171561171e576118f791611734565b6001810180911161171e5790565b5083151561176b565b60405162461bcd60e51b815260206004820152602b60248201527f53686168537761704c6962726172793a20494e53554646494349454e545f4f5560448201526a1514155517d05353d5539560aa1b6064820152608490fd5b67ffffffffffffffff81116111995760051b60200190565b929161198a82611967565b9161199860405193846111af565b829481845260208094019160051b81019283116102cf57905b8282106119be5750505050565b81356001600160a01b03811681036102cf5781529083019083016119b1565b156119e457565b60405162461bcd60e51b815260206004820152601d60248201527f53686168537761704c6962726172793a20494e56414c49445f504154480000006044820152606490fd5b90611a3382611967565b611a4060405191826111af565b8281528092611a51601f1991611967565b0190602036910137565b8051821015611a6f5760209160051b010190565b634e487b7160e01b600052603260045260246000fd5b3d15611ac0573d9067ffffffffffffffff82116111995760405191611ab4601f8201601f1916602001846111af565b82523d6000602084013e565b606090565b604051602081019080821067ffffffffffffffff831117611199576000938493848094938194604052525af1611af9611a85565b5015611b0157565b60405162461bcd60e51b815260206004820152602360248201527f5472616e7366657248656c7065723a204554485f5452414e534645525f46414960448201526213115160ea1b6064820152608490fdfea264697066735822122060abbb76263f9b01302db847f6bb22c25dece7bc30b0449f984200bf51a9fb5564736f6c63430008140033","opcodes":"PUSH1 0xC0 CALLVALUE PUSH2 0xCF JUMPI PUSH1 0x1F PUSH3 0x1C87 CODESIZE DUP2 SWAP1 SUB SWAP2 DUP3 ADD PUSH1 0x1F NOT AND DUP4 ADD SWAP2 PUSH1 0x1 PUSH1 0x1 PUSH1 0x40 SHL SUB DUP4 GT DUP5 DUP5 LT OR PUSH2 0xD4 JUMPI DUP1 DUP5 SWAP3 PUSH1 0x40 SWAP5 DUP6 MSTORE DUP4 CODECOPY DUP2 ADD SUB SLT PUSH2 0xCF JUMPI PUSH2 0x53 PUSH1 0x20 PUSH2 0x4C DUP4 PUSH2 0xEA JUMP JUMPDEST SWAP3 ADD PUSH2 0xEA JUMP JUMPDEST SWAP1 PUSH1 0x80 MSTORE PUSH1 0xA0 MSTORE PUSH1 0x40 MLOAD PUSH2 0x1B88 SWAP1 DUP2 PUSH3 0xFF DUP3 CODECOPY PUSH1 0x80 MLOAD DUP2 DUP2 DUP2 PUSH2 0x13D ADD MSTORE DUP2 DUP2 PUSH2 0x3CC ADD MSTORE DUP2 DUP2 PUSH2 0x573 ADD MSTORE DUP2 DUP2 PUSH2 0x6B4 ADD MSTORE DUP2 DUP2 PUSH2 0x734 ADD MSTORE DUP2 DUP2 PUSH2 0x8E1 ADD MSTORE DUP2 DUP2 PUSH2 0xC69 ADD MSTORE DUP2 DUP2 PUSH2 0xDE3 ADD MSTORE PUSH2 0x1473 ADD MSTORE PUSH1 0xA0 MLOAD DUP2 DUP2 DUP2 PUSH1 0x24 ADD MSTORE DUP2 DUP2 PUSH2 0x10A ADD MSTORE DUP2 DUP2 PUSH2 0x8B5 ADD MSTORE DUP2 DUP2 PUSH2 0xC04 ADD MSTORE PUSH2 0xDB7 ADD MSTORE RETURN JUMPDEST PUSH1 0x0 DUP1 REVERT JUMPDEST PUSH4 0x4E487B71 PUSH1 0xE0 SHL PUSH1 0x0 MSTORE PUSH1 0x41 PUSH1 0x4 MSTORE PUSH1 0x24 PUSH1 0x0 REVERT JUMPDEST MLOAD SWAP1 PUSH1 0x1 PUSH1 0x1 PUSH1 0xA0 SHL SUB DUP3 AND DUP3 SUB PUSH2 0xCF JUMPI JUMP INVALID PUSH1 0x40 PUSH1 0x80 DUP2 MSTORE PUSH1 0x4 SWAP1 DUP2 CALLDATASIZE LT ISZERO PUSH2 0x54 JUMPI JUMPDEST POP POP CALLDATASIZE ISZERO PUSH2 0x1E JUMPI PUSH1 0x0 DUP1 REVERT JUMPDEST PUSH2 0x52 CALLER PUSH32 0x0 PUSH1 0x1 PUSH1 0x1 PUSH1 0xA0 SHL SUB AND EQ PUSH2 0x111C JUMP JUMPDEST STOP JUMPDEST PUSH1 0x0 SWAP2 DUP3 CALLDATALOAD PUSH1 0xE0 SHR DUP1 PUSH4 0x2751CEC EQ PUSH2 0xD8E JUMPI DUP1 PUSH4 0x54D50D4 EQ PUSH2 0xD72 JUMPI DUP1 PUSH4 0x1F00CA74 EQ PUSH2 0xC4F JUMPI DUP1 PUSH4 0x85F8C259 EQ PUSH2 0xC33 JUMPI DUP1 PUSH4 0xAD5C4648 EQ PUSH2 0xBEF JUMPI DUP1 PUSH4 0xAD615DEC EQ PUSH2 0xBCC JUMPI DUP1 PUSH4 0xAF2979EB EQ PUSH2 0x88B JUMPI DUP1 PUSH4 0xBAA2ABDE EQ PUSH2 0x6E3 JUMPI DUP1 PUSH4 0xC45A0155 EQ PUSH2 0x69F JUMPI DUP1 PUSH4 0xD06CA61F EQ PUSH2 0x55A JUMPI DUP1 PUSH4 0xE8E33700 EQ PUSH2 0x362 JUMPI PUSH4 0xF305D719 EQ PUSH2 0xE5 JUMPI POP PUSH2 0x11 JUMP JUMPDEST PUSH2 0x133 SWAP3 PUSH2 0x108 SWAP3 PUSH2 0xF6 CALLDATASIZE PUSH2 0x1037 JUMP JUMPDEST SWAP10 SWAP4 SWAP5 SWAP10 SWAP9 SWAP1 SWAP9 SWAP3 SWAP2 SWAP3 TIMESTAMP GT ISZERO PUSH2 0x1139 JUMP JUMPDEST PUSH32 0x0 SWAP4 CALLVALUE SWAP1 DUP6 DUP12 PUSH2 0x1446 JUMP JUMPDEST SWAP7 SWAP1 SWAP6 PUSH2 0x161 DUP4 DUP4 PUSH32 0x0 PUSH2 0x11E9 JUMP JUMPDEST DUP5 MLOAD PUSH4 0x23B872DD PUSH1 0xE0 SHL DUP2 MSTORE CALLER DUP9 DUP3 ADD SWAP1 DUP2 MSTORE PUSH1 0x1 PUSH1 0x1 PUSH1 0xA0 SHL SUB DUP4 AND PUSH1 0x20 DUP3 DUP2 ADD SWAP2 SWAP1 SWAP2 MSTORE PUSH1 0x40 DUP3 ADD DUP12 SWAP1 MSTORE SWAP6 SWAP2 SWAP1 DUP7 SWAP1 DUP3 SWAP1 DUP2 SWAP1 PUSH1 0x60 ADD SUB DUP2 DUP12 PUSH1 0x1 DUP1 PUSH1 0xA0 SHL SUB DUP1 SWAP11 AND GAS CALL DUP1 ISZERO PUSH2 0x33B JUMPI SWAP1 DUP6 SWAP3 SWAP2 PUSH2 0x345 JUMPI JUMPDEST POP AND DUP1 EXTCODESIZE ISZERO PUSH2 0x337 JUMPI DUP6 MLOAD PUSH4 0xD0E30DB PUSH1 0xE4 SHL DUP2 MSTORE DUP8 DUP2 DUP11 DUP2 DUP15 DUP7 GAS CALL DUP1 ISZERO PUSH2 0x33B JUMPI DUP9 DUP8 SWAP3 DUP14 SWAP3 PUSH2 0x31D JUMPI JUMPDEST POP DUP9 MLOAD PUSH4 0xA9059CBB PUSH1 0xE0 SHL DUP2 MSTORE PUSH1 0x1 PUSH1 0x1 PUSH1 0xA0 SHL SUB DUP7 AND DUP13 DUP3 ADD SWAP1 DUP2 MSTORE PUSH1 0x20 DUP2 ADD SWAP4 SWAP1 SWAP4 MSTORE SWAP4 DUP5 SWAP3 DUP4 SWAP1 SUB PUSH1 0x40 ADD SWAP2 DUP4 SWAP2 GAS CALL SWAP1 DUP2 ISZERO PUSH2 0x313 JUMPI DUP5 PUSH1 0x24 SWAP4 PUSH2 0x239 DUP9 SWAP8 SWAP7 SWAP5 DUP12 SWAP5 DUP6 SWAP2 PUSH2 0x2E6 JUMPI JUMPDEST POP PUSH2 0x111C JUMP JUMPDEST DUP9 MLOAD SWAP11 DUP12 SWAP7 DUP8 SWAP6 PUSH4 0x35313C21 PUSH1 0xE1 SHL DUP8 MSTORE AND SWAP1 DUP6 ADD MSTORE AND GAS CALL SWAP3 DUP4 ISZERO PUSH2 0x2DB JUMPI SWAP3 PUSH2 0x2A4 JUMPI JUMPDEST POP PUSH2 0x288 SWAP3 POP DUP5 CALLVALUE GT PUSH2 0x28C JUMPI JUMPDEST MLOAD SWAP4 DUP5 SWAP4 DUP5 PUSH1 0x40 SWAP2 SWAP5 SWAP4 SWAP3 PUSH1 0x60 DUP3 ADD SWAP6 DUP3 MSTORE PUSH1 0x20 DUP3 ADD MSTORE ADD MSTORE JUMP JUMPDEST SUB SWAP1 RETURN JUMPDEST PUSH2 0x29F PUSH2 0x299 DUP7 CALLVALUE PUSH2 0x17DB JUMP JUMPDEST CALLER PUSH2 0x1AC5 JUMP JUMPDEST PUSH2 0x26D JUMP JUMPDEST SWAP1 SWAP2 POP DUP3 DUP2 RETURNDATASIZE DUP4 GT PUSH2 0x2D4 JUMPI JUMPDEST PUSH2 0x2BB DUP2 DUP4 PUSH2 0x11AF JUMP JUMPDEST DUP2 ADD SUB SLT PUSH2 0x2CF JUMPI PUSH2 0x288 SWAP2 MLOAD SWAP1 CODESIZE PUSH2 0x25F JUMP JUMPDEST PUSH1 0x0 DUP1 REVERT JUMPDEST POP RETURNDATASIZE PUSH2 0x2B1 JUMP JUMPDEST DUP3 MLOAD SWAP1 RETURNDATASIZE SWAP1 DUP3 RETURNDATACOPY RETURNDATASIZE SWAP1 REVERT JUMPDEST PUSH2 0x306 SWAP2 POP DUP10 RETURNDATASIZE DUP12 GT PUSH2 0x30C JUMPI JUMPDEST PUSH2 0x2FE DUP2 DUP4 PUSH2 0x11AF JUMP JUMPDEST DUP2 ADD SWAP1 PUSH2 0x11D1 JUMP JUMPDEST CODESIZE PUSH2 0x233 JUMP JUMPDEST POP RETURNDATASIZE PUSH2 0x2F4 JUMP JUMPDEST DUP7 MLOAD RETURNDATASIZE DUP10 DUP3 RETURNDATACOPY RETURNDATASIZE SWAP1 REVERT JUMPDEST SWAP1 SWAP3 POP PUSH2 0x32A SWAP2 POP PUSH2 0x1185 JUMP JUMPDEST PUSH2 0x337 JUMPI DUP5 DUP11 DUP9 CODESIZE PUSH2 0x1E5 JUMP JUMPDEST DUP7 DUP1 REVERT JUMPDEST DUP8 MLOAD RETURNDATASIZE DUP11 DUP3 RETURNDATACOPY RETURNDATASIZE SWAP1 REVERT JUMPDEST PUSH2 0x35B SWAP1 DUP8 RETURNDATASIZE DUP10 GT PUSH2 0x30C JUMPI PUSH2 0x2FE DUP2 DUP4 PUSH2 0x11AF JUMP JUMPDEST POP CODESIZE PUSH2 0x1B8 JUMP JUMPDEST POP DUP3 CALLVALUE PUSH2 0x557 JUMPI PUSH2 0x100 CALLDATASIZE PUSH1 0x3 NOT ADD SLT PUSH2 0x557 JUMPI PUSH2 0x37E PUSH2 0x100B JUMP JUMPDEST SWAP1 PUSH2 0x387 PUSH2 0x1021 JUMP JUMPDEST PUSH1 0x1 PUSH1 0x1 PUSH1 0xA0 SHL SUB SWAP5 SWAP1 PUSH1 0xC4 CALLDATALOAD DUP7 DUP2 AND SWAP1 DUP2 SWAP1 SUB PUSH2 0x2CF JUMPI PUSH2 0x3AD TIMESTAMP PUSH1 0xE4 CALLDATALOAD LT ISZERO PUSH2 0x1139 JUMP JUMPDEST PUSH2 0x3C3 PUSH1 0xA4 CALLDATALOAD PUSH1 0x84 CALLDATALOAD PUSH1 0x64 CALLDATALOAD PUSH1 0x44 CALLDATALOAD DUP7 DUP11 PUSH2 0x1446 JUMP JUMPDEST SWAP8 DUP4 DUP8 DUP4 SWAP10 SWAP4 SWAP6 PUSH32 0x0 SWAP2 PUSH2 0x3F5 SWAP3 PUSH2 0x11E9 JUMP JUMPDEST DUP7 MLOAD PUSH4 0x23B872DD PUSH1 0xE0 SHL DUP1 DUP3 MSTORE CALLER DUP7 DUP4 ADD SWAP1 DUP2 MSTORE PUSH1 0x1 PUSH1 0x1 PUSH1 0xA0 SHL SUB DUP5 AND PUSH1 0x20 DUP1 DUP4 ADD SWAP2 SWAP1 SWAP2 MSTORE PUSH1 0x40 DUP3 ADD SWAP10 SWAP1 SWAP10 MSTORE SWAP3 SWAP11 SWAP1 SWAP3 DUP9 SWAP2 DUP4 SWAP2 DUP3 SWAP1 SUB PUSH1 0x60 ADD SWAP1 DUP3 SWAP1 DUP14 SWAP1 DUP10 AND GAS CALL DUP1 ISZERO PUSH2 0x54D JUMPI SWAP3 DUP11 DUP11 DUP7 DUP16 SWAP5 SWAP6 DUP12 SWAP7 PUSH2 0x488 SWAP9 PUSH2 0x530 JUMPI JUMPDEST POP DUP13 MLOAD SWAP1 DUP2 MSTORE CALLER DUP11 DUP3 ADD SWAP1 DUP2 MSTORE PUSH1 0x1 PUSH1 0x1 PUSH1 0xA0 SHL SUB SWAP1 SWAP5 AND PUSH1 0x20 DUP6 ADD MSTORE PUSH1 0x40 DUP5 ADD SWAP6 SWAP1 SWAP6 MSTORE SWAP4 SWAP6 DUP7 SWAP5 DUP6 SWAP4 SWAP1 SWAP2 DUP5 SWAP2 PUSH1 0x60 ADD SWAP1 JUMP JUMPDEST SUB SWAP4 AND GAS CALL DUP1 ISZERO PUSH2 0x313 JUMPI PUSH1 0x24 SWAP3 DUP7 SWAP6 SWAP5 SWAP3 DUP10 SWAP3 PUSH2 0x513 JUMPI JUMPDEST POP DUP8 MLOAD SWAP10 DUP11 SWAP6 DUP7 SWAP5 PUSH4 0x35313C21 PUSH1 0xE1 SHL DUP7 MSTORE DUP6 ADD MSTORE AND GAS CALL SWAP3 DUP4 ISZERO PUSH2 0x2DB JUMPI SWAP3 PUSH2 0x4E1 JUMPI JUMPDEST POP MLOAD SWAP3 DUP4 MSTORE PUSH1 0x20 DUP4 ADD SWAP4 SWAP1 SWAP4 MSTORE POP PUSH1 0x40 DUP2 ADD SWAP2 SWAP1 SWAP2 MSTORE PUSH1 0x60 SWAP1 RETURN JUMPDEST SWAP1 SWAP2 POP DUP3 DUP2 RETURNDATASIZE DUP4 GT PUSH2 0x50C JUMPI JUMPDEST PUSH2 0x4F8 DUP2 DUP4 PUSH2 0x11AF JUMP JUMPDEST DUP2 ADD SUB SLT PUSH2 0x2CF JUMPI PUSH2 0x288 SWAP2 MLOAD SWAP1 DUP6 PUSH2 0x4C6 JUMP JUMPDEST POP RETURNDATASIZE PUSH2 0x4EE JUMP JUMPDEST PUSH2 0x529 SWAP1 DUP8 RETURNDATASIZE DUP10 GT PUSH2 0x30C JUMPI PUSH2 0x2FE DUP2 DUP4 PUSH2 0x11AF JUMP JUMPDEST POP DUP13 PUSH2 0x4A1 JUMP JUMPDEST PUSH2 0x546 SWAP1 DUP9 RETURNDATASIZE DUP11 GT PUSH2 0x30C JUMPI PUSH2 0x2FE DUP2 DUP4 PUSH2 0x11AF JUMP JUMPDEST POP CODESIZE PUSH2 0x453 JUMP JUMPDEST DUP9 MLOAD RETURNDATASIZE DUP12 DUP3 RETURNDATACOPY RETURNDATASIZE SWAP1 REVERT JUMPDEST DUP1 REVERT JUMPDEST POP DUP3 SWAP1 CALLVALUE PUSH2 0x69B JUMPI PUSH2 0x59A PUSH2 0x56E CALLDATASIZE PUSH2 0x1091 JUMP JUMPDEST SWAP2 SWAP3 SWAP1 PUSH32 0x0 SWAP3 CALLDATASIZE SWAP2 PUSH2 0x197F JUMP JUMPDEST SWAP1 PUSH2 0x5A9 PUSH1 0x2 DUP4 MLOAD LT ISZERO PUSH2 0x19DD JUMP JUMPDEST PUSH2 0x5B3 DUP3 MLOAD PUSH2 0x1A29 JUMP JUMPDEST SWAP3 DUP4 MLOAD ISZERO PUSH2 0x686 JUMPI PUSH1 0x20 DUP5 ADD MSTORE DUP5 JUMPDEST DUP3 MLOAD PUSH1 0x0 NOT DUP2 ADD SWAP1 DUP2 GT PUSH2 0x673 JUMPI DUP2 LT ISZERO PUSH2 0x666 JUMPI PUSH1 0x1 PUSH1 0x1 PUSH1 0xA0 SHL SUB DUP1 PUSH2 0x5EA DUP4 DUP7 PUSH2 0x1A5B JUMP JUMPDEST MLOAD AND PUSH1 0x1 DUP4 ADD SWAP2 DUP3 DUP5 GT PUSH2 0x653 JUMPI PUSH2 0x616 PUSH2 0x62E SWAP3 PUSH2 0x627 SWAP3 PUSH2 0x60D DUP7 DUP11 PUSH2 0x1A5B JUMP JUMPDEST MLOAD AND SWAP1 DUP8 PUSH2 0x15ED JUMP JUMPDEST SWAP1 PUSH2 0x621 DUP7 DUP11 PUSH2 0x1A5B JUMP JUMPDEST MLOAD PUSH2 0x17E8 JUMP JUMPDEST SWAP2 DUP7 PUSH2 0x1A5B JUMP JUMPDEST MSTORE PUSH1 0x0 NOT DUP2 EQ PUSH2 0x640 JUMPI PUSH1 0x1 ADD PUSH2 0x5C2 JUMP JUMPDEST PUSH4 0x4E487B71 PUSH1 0xE0 SHL DUP7 MSTORE PUSH1 0x11 DUP6 MSTORE PUSH1 0x24 DUP7 REVERT JUMPDEST PUSH4 0x4E487B71 PUSH1 0xE0 SHL DUP10 MSTORE PUSH1 0x11 DUP9 MSTORE PUSH1 0x24 DUP10 REVERT JUMPDEST DUP7 MLOAD DUP1 PUSH2 0x288 DUP7 DUP3 PUSH2 0x10E1 JUMP JUMPDEST PUSH4 0x4E487B71 PUSH1 0xE0 SHL DUP8 MSTORE PUSH1 0x11 DUP7 MSTORE PUSH1 0x24 DUP8 REVERT JUMPDEST PUSH1 0x32 DUP6 PUSH4 0x4E487B71 PUSH1 0xE0 SHL PUSH1 0x0 MSTORE MSTORE PUSH1 0x24 PUSH1 0x0 REVERT JUMPDEST POP DUP1 REVERT JUMPDEST POP POP CALLVALUE PUSH2 0x69B JUMPI DUP2 PUSH1 0x3 NOT CALLDATASIZE ADD SLT PUSH2 0x69B JUMPI MLOAD PUSH32 0x0 PUSH1 0x1 PUSH1 0x1 PUSH1 0xA0 SHL SUB AND DUP2 MSTORE PUSH1 0x20 SWAP1 RETURN JUMPDEST POP DUP3 SWAP1 CALLVALUE PUSH2 0x69B JUMPI PUSH1 0xE0 CALLDATASIZE PUSH1 0x3 NOT ADD SLT PUSH2 0x69B JUMPI PUSH2 0x6FF PUSH2 0x100B JUMP JUMPDEST PUSH2 0x707 PUSH2 0x1021 JUMP JUMPDEST SWAP3 PUSH1 0x1 PUSH1 0x1 PUSH1 0xA0 SHL SUB SWAP1 PUSH1 0xA4 CALLDATALOAD DUP3 DUP2 AND SWAP1 DUP2 SWAP1 SUB PUSH2 0x2CF JUMPI PUSH2 0x72D TIMESTAMP PUSH1 0xC4 CALLDATALOAD LT ISZERO PUSH2 0x1139 JUMP JUMPDEST PUSH2 0x758 DUP7 DUP6 PUSH32 0x0 PUSH2 0x11E9 JUMP JUMPDEST DUP8 MLOAD PUSH4 0x23B872DD PUSH1 0xE0 SHL DUP2 MSTORE CALLER DUP2 DUP9 ADD SWAP1 DUP2 MSTORE PUSH1 0x1 PUSH1 0x1 PUSH1 0xA0 SHL SUB DUP4 AND PUSH1 0x20 DUP3 DUP2 ADD SWAP2 SWAP1 SWAP2 MSTORE PUSH1 0x44 CALLDATALOAD PUSH1 0x40 DUP4 ADD MSTORE SWAP3 DUP7 AND SWAP8 SWAP3 SWAP1 DUP3 SWAP1 DUP2 SWAP1 PUSH1 0x60 ADD SUB DUP2 DUP8 DUP12 GAS CALL DUP1 ISZERO PUSH2 0x881 JUMPI SWAP2 PUSH1 0x24 SWAP2 DUP11 SWAP5 SWAP4 PUSH2 0x863 JUMPI JUMPDEST POP DUP5 DUP5 MLOAD SWAP9 DUP10 SWAP5 DUP6 SWAP4 PUSH4 0x226BF2D1 PUSH1 0xE2 SHL DUP6 MSTORE DUP5 ADD MSTORE GAS CALL SWAP5 DUP6 ISZERO PUSH2 0x857 JUMPI DUP2 SWAP5 DUP3 SWAP7 PUSH2 0x81D JUMPI JUMPDEST POP SWAP1 PUSH2 0x7E0 DUP4 SWAP3 DUP6 PUSH2 0x12AE JUMP JUMPDEST POP SWAP1 POP AND SWAP2 AND EQ PUSH1 0x0 EQ PUSH2 0x818 JUMPI SWAP1 JUMPDEST PUSH2 0x7FE PUSH1 0x64 CALLDATALOAD DUP4 LT ISZERO PUSH2 0x1392 JUMP JUMPDEST PUSH2 0x80C PUSH1 0x84 CALLDATALOAD DUP3 LT ISZERO PUSH2 0x13EC JUMP JUMPDEST DUP3 MLOAD SWAP2 DUP3 MSTORE PUSH1 0x20 DUP3 ADD MSTORE RETURN JUMPDEST PUSH2 0x7F0 JUMP JUMPDEST DUP8 DUP1 SWAP3 SWAP8 POP DUP2 SWAP7 POP RETURNDATASIZE DUP4 GT PUSH2 0x850 JUMPI JUMPDEST PUSH2 0x837 DUP2 DUP4 PUSH2 0x11AF JUMP JUMPDEST DUP2 ADD SUB SLT PUSH2 0x557 JUMPI DUP4 MLOAD PUSH1 0x20 SWAP1 SWAP5 ADD MLOAD SWAP5 PUSH2 0x7E0 PUSH2 0x7D3 JUMP JUMPDEST POP RETURNDATASIZE PUSH2 0x82D JUMP JUMPDEST POP DUP6 MLOAD SWAP1 RETURNDATASIZE SWAP1 DUP3 RETURNDATACOPY RETURNDATASIZE SWAP1 REVERT JUMPDEST PUSH2 0x87A SWAP1 PUSH1 0x20 RETURNDATASIZE DUP2 GT PUSH2 0x30C JUMPI PUSH2 0x2FE DUP2 DUP4 PUSH2 0x11AF JUMP JUMPDEST POP DUP11 PUSH2 0x7AB JUMP JUMPDEST DUP10 MLOAD RETURNDATASIZE DUP7 DUP3 RETURNDATACOPY RETURNDATASIZE SWAP1 REVERT JUMPDEST POP DUP3 CALLVALUE PUSH2 0x557 JUMPI PUSH2 0x89B CALLDATASIZE PUSH2 0x1037 JUMP JUMPDEST SWAP8 SWAP5 SWAP1 SWAP4 SWAP7 SWAP3 SWAP2 SWAP8 TIMESTAMP GT ISZERO SWAP1 PUSH2 0x8B0 DUP3 PUSH2 0x1139 JUMP JUMPDEST PUSH2 0x8DA PUSH32 0x0 SWAP3 PUSH2 0x1139 JUMP JUMPDEST PUSH2 0x905 DUP3 DUP3 PUSH32 0x0 PUSH2 0x11E9 JUMP JUMPDEST DUP7 MLOAD PUSH4 0x23B872DD PUSH1 0xE0 SHL DUP2 MSTORE CALLER DUP7 DUP3 ADD SWAP1 DUP2 MSTORE PUSH1 0x1 PUSH1 0x1 PUSH1 0xA0 SHL SUB SWAP3 DUP4 AND PUSH1 0x20 DUP3 DUP2 ADD DUP3 SWAP1 MSTORE PUSH1 0x40 DUP4 ADD SWAP13 SWAP1 SWAP13 MSTORE SWAP2 SWAP12 SWAP3 SWAP6 SWAP2 SWAP1 DUP12 SWAP1 DUP14 SWAP1 DUP2 SWAP1 PUSH1 0x60 ADD SUB DUP2 DUP14 DUP6 GAS CALL DUP1 ISZERO PUSH2 0xBA4 JUMPI SWAP1 DUP12 DUP12 SWAP13 SWAP14 DUP12 SWAP13 SWAP12 SWAP4 PUSH2 0xBAE JUMPI JUMPDEST POP POP PUSH1 0x24 DUP3 MLOAD DUP1 SWAP12 DUP2 SWAP4 PUSH4 0x226BF2D1 PUSH1 0xE2 SHL DUP4 MSTORE ADDRESS DUP13 DUP5 ADD MSTORE GAS CALL SWAP8 DUP9 ISZERO PUSH2 0xBA4 JUMPI SWAP2 DUP11 SWAP2 DUP13 SWAP4 DUP4 SWAP1 DUP5 SWAP12 PUSH2 0xB64 JUMPI JUMPDEST POP DUP8 PUSH2 0x998 DUP9 DUP9 PUSH2 0x12AE JUMP JUMPDEST POP DUP8 DUP3 AND SWAP6 POP AND DUP5 SUB PUSH2 0xB51 JUMPI SWAP2 PUSH2 0x9BA PUSH2 0x9C2 SWAP3 PUSH1 0x24 SWAP7 SWAP6 SWAP5 JUMPDEST LT ISZERO PUSH2 0x1392 JUMP JUMPDEST DUP11 LT ISZERO PUSH2 0x13EC JUMP JUMPDEST DUP10 MLOAD PUSH4 0x70A08231 PUSH1 0xE0 SHL DUP2 MSTORE ADDRESS DUP9 DUP3 ADD MSTORE SWAP3 DUP4 SWAP2 DUP3 SWAP1 GAS STATICCALL SWAP1 DUP2 ISZERO PUSH2 0x54D JUMPI SWAP2 DUP10 SWAP2 DUP12 SWAP4 DUP4 SWAP2 PUSH2 0xB1B JUMPI JUMPDEST POP DUP10 MLOAD PUSH4 0xA9059CBB PUSH1 0xE0 SHL SWAP5 DUP2 ADD SWAP5 DUP6 MSTORE PUSH1 0x1 PUSH1 0x1 PUSH1 0xA0 SHL SUB DUP10 AND PUSH1 0x24 DUP3 ADD MSTORE PUSH1 0x44 DUP1 DUP3 ADD SWAP3 SWAP1 SWAP3 MSTORE SWAP1 DUP2 MSTORE SWAP2 SWAP3 DUP4 SWAP3 DUP4 SWAP1 PUSH2 0xA2A PUSH1 0x64 DUP3 PUSH2 0x11AF JUMP JUMPDEST MLOAD SWAP3 GAS CALL PUSH2 0xA36 PUSH2 0x1A85 JUMP JUMPDEST DUP2 PUSH2 0xAEB JUMPI JUMPDEST POP ISZERO PUSH2 0xAA8 JUMPI AND SWAP1 DUP2 EXTCODESIZE ISZERO PUSH2 0xAA4 JUMPI DUP4 PUSH1 0x24 DUP8 SWAP3 DUP4 DUP9 MLOAD SWAP6 DUP7 SWAP5 DUP6 SWAP4 PUSH4 0x2E1A7D4D PUSH1 0xE0 SHL DUP6 MSTORE DUP5 ADD MSTORE GAS CALL DUP1 ISZERO PUSH2 0xA9A JUMPI PUSH2 0xA83 JUMPI JUMPDEST POP SWAP1 PUSH2 0xA7D SWAP2 PUSH2 0x1AC5 JUMP JUMPDEST MLOAD SWAP1 DUP2 MSTORE RETURN JUMPDEST SWAP4 PUSH2 0xA92 PUSH2 0xA7D SWAP4 SWAP3 SWAP6 PUSH2 0x1185 JUMP JUMPDEST SWAP4 SWAP1 SWAP2 PUSH2 0xA72 JUMP JUMPDEST DUP5 MLOAD RETURNDATASIZE DUP8 DUP3 RETURNDATACOPY RETURNDATASIZE SWAP1 REVERT JUMPDEST DUP6 DUP1 REVERT JUMPDEST DUP6 MLOAD PUSH3 0x461BCD PUSH1 0xE5 SHL DUP2 MSTORE DUP1 DUP5 ADD DUP10 SWAP1 MSTORE PUSH1 0x1F PUSH1 0x24 DUP3 ADD MSTORE PUSH32 0x5472616E7366657248656C7065723A205452414E534645525F4641494C454400 PUSH1 0x44 DUP3 ADD MSTORE PUSH1 0x64 SWAP1 REVERT JUMPDEST DUP1 MLOAD DUP1 ISZERO SWAP3 POP DUP11 SWAP1 DUP4 ISZERO PUSH2 0xB03 JUMPI JUMPDEST POP POP POP DUP10 PUSH2 0xA3C JUMP JUMPDEST PUSH2 0xB13 SWAP4 POP DUP3 ADD DUP2 ADD SWAP2 ADD PUSH2 0x11D1 JUMP JUMPDEST DUP10 DUP10 DUP2 PUSH2 0xAFA JUMP JUMPDEST SWAP3 POP POP SWAP2 DUP2 DUP2 RETURNDATASIZE DUP4 GT PUSH2 0xB4A JUMPI JUMPDEST PUSH2 0xB33 DUP2 DUP4 PUSH2 0x11AF JUMP JUMPDEST DUP2 ADD SUB SLT PUSH2 0xB46 JUMPI MLOAD DUP10 SWAP2 DUP10 SWAP2 DUP3 PUSH2 0x9ED JUMP JUMPDEST DUP9 DUP1 REVERT JUMPDEST POP RETURNDATASIZE PUSH2 0xB29 JUMP JUMPDEST SWAP10 SWAP2 PUSH2 0x9BA PUSH2 0x9C2 SWAP3 PUSH1 0x24 SWAP7 SWAP6 SWAP5 PUSH2 0x9B3 JUMP JUMPDEST SWAP11 POP POP SWAP2 POP SWAP2 POP DUP9 DUP9 DUP2 RETURNDATASIZE DUP4 GT PUSH2 0xB9D JUMPI JUMPDEST PUSH2 0xB80 DUP2 DUP4 PUSH2 0x11AF JUMP JUMPDEST DUP2 ADD SUB SLT PUSH2 0xB99 JUMPI DUP11 SWAP2 DUP11 SWAP2 DUP4 DUP11 MLOAD SWAP11 ADD MLOAD SWAP10 DUP15 PUSH2 0x98C JUMP JUMPDEST DUP10 DUP1 REVERT JUMPDEST POP RETURNDATASIZE PUSH2 0xB76 JUMP JUMPDEST DUP10 MLOAD RETURNDATASIZE DUP13 DUP3 RETURNDATACOPY RETURNDATASIZE SWAP1 REVERT JUMPDEST DUP2 PUSH2 0xBC4 SWAP3 SWAP1 RETURNDATASIZE LT PUSH2 0x30C JUMPI PUSH2 0x2FE DUP2 DUP4 PUSH2 0x11AF JUMP JUMPDEST POP DUP13 DUP15 PUSH2 0x95C JUMP JUMPDEST POP POP CALLVALUE PUSH2 0x69B JUMPI PUSH1 0x20 SWAP1 PUSH2 0xBE8 PUSH2 0xBE2 CALLDATASIZE PUSH2 0x1077 JUMP JUMPDEST SWAP2 PUSH2 0x1754 JUMP JUMPDEST SWAP1 MLOAD SWAP1 DUP2 MSTORE RETURN JUMPDEST POP POP CALLVALUE PUSH2 0x69B JUMPI DUP2 PUSH1 0x3 NOT CALLDATASIZE ADD SLT PUSH2 0x69B JUMPI MLOAD PUSH32 0x0 PUSH1 0x1 PUSH1 0x1 PUSH1 0xA0 SHL SUB AND DUP2 MSTORE PUSH1 0x20 SWAP1 RETURN JUMPDEST POP POP CALLVALUE PUSH2 0x69B JUMPI PUSH1 0x20 SWAP1 PUSH2 0xBE8 PUSH2 0xC49 CALLDATASIZE PUSH2 0x1077 JUMP JUMPDEST SWAP2 PUSH2 0x189E JUMP JUMPDEST POP SWAP1 CALLVALUE PUSH2 0xD6E JUMPI PUSH2 0xC90 SWAP3 PUSH2 0xC63 CALLDATASIZE PUSH2 0x1091 JUMP JUMPDEST SWAP3 SWAP2 SWAP6 SWAP1 PUSH32 0x0 SWAP4 CALLDATASIZE SWAP2 PUSH2 0x197F JUMP JUMPDEST SWAP4 PUSH2 0xC9F PUSH1 0x2 DUP7 MLOAD LT ISZERO PUSH2 0x19DD JUMP JUMPDEST PUSH2 0xCA9 DUP6 MLOAD PUSH2 0x1A29 JUMP JUMPDEST SWAP5 DUP6 MLOAD SWAP7 PUSH1 0x0 NOT SWAP8 DUP9 DUP2 ADD SWAP1 DUP2 GT PUSH2 0xD5B JUMPI PUSH2 0xCC5 SWAP1 DUP9 PUSH2 0x1A5B JUMP JUMPDEST MSTORE DUP1 MLOAD DUP8 DUP2 ADD SWAP1 DUP2 GT PUSH2 0xD48 JUMPI DUP1 JUMPDEST PUSH2 0xCE5 JUMPI DUP6 MLOAD DUP1 PUSH2 0x288 DUP10 DUP3 PUSH2 0x10E1 JUMP JUMPDEST DUP8 DUP2 ADD DUP2 DUP2 GT PUSH2 0xD5B JUMPI PUSH2 0xD39 PUSH2 0xD32 PUSH2 0xD21 PUSH1 0x1 PUSH1 0x1 PUSH1 0xA0 SHL SUB DUP1 PUSH2 0xD0B DUP7 DUP10 PUSH2 0x1A5B JUMP JUMPDEST MLOAD AND SWAP1 PUSH2 0xD18 DUP8 DUP10 PUSH2 0x1A5B JUMP JUMPDEST MLOAD AND SWAP1 DUP11 PUSH2 0x15ED JUMP JUMPDEST SWAP1 PUSH2 0xD2C DUP7 DUP14 PUSH2 0x1A5B JUMP JUMPDEST MLOAD PUSH2 0x189E JUMP JUMPDEST SWAP2 DUP10 PUSH2 0x1A5B JUMP JUMPDEST MSTORE DUP1 ISZERO PUSH2 0xD48 JUMPI DUP8 ADD DUP1 PUSH2 0xCD4 JUMP JUMPDEST PUSH4 0x4E487B71 PUSH1 0xE0 SHL DUP5 MSTORE PUSH1 0x11 DUP4 MSTORE PUSH1 0x24 DUP5 REVERT JUMPDEST PUSH4 0x4E487B71 PUSH1 0xE0 SHL DUP6 MSTORE PUSH1 0x11 DUP5 MSTORE PUSH1 0x24 DUP6 REVERT JUMPDEST DUP3 DUP1 REVERT JUMPDEST POP POP CALLVALUE PUSH2 0x69B JUMPI PUSH1 0x20 SWAP1 PUSH2 0xBE8 PUSH2 0xD88 CALLDATASIZE PUSH2 0x1077 JUMP JUMPDEST SWAP2 PUSH2 0x17E8 JUMP JUMPDEST POP DUP3 CALLVALUE PUSH2 0x557 JUMPI PUSH2 0xD9E CALLDATASIZE PUSH2 0x1037 JUMP JUMPDEST SWAP7 SWAP3 SWAP7 SWAP5 SWAP1 SWAP4 SWAP5 TIMESTAMP GT ISZERO SWAP1 PUSH2 0xDB2 DUP3 PUSH2 0x1139 JUMP JUMPDEST PUSH2 0xDDC PUSH32 0x0 SWAP3 PUSH2 0x1139 JUMP JUMPDEST PUSH2 0xE07 DUP3 DUP3 PUSH32 0x0 PUSH2 0x11E9 JUMP JUMPDEST DUP10 MLOAD PUSH4 0x23B872DD PUSH1 0xE0 SHL DUP2 MSTORE CALLER DUP7 DUP3 ADD SWAP1 DUP2 MSTORE PUSH1 0x1 PUSH1 0x1 PUSH1 0xA0 SHL SUB SWAP3 DUP4 AND PUSH1 0x20 DUP3 DUP2 ADD DUP3 SWAP1 MSTORE PUSH1 0x40 DUP4 ADD SWAP11 SWAP1 SWAP11 MSTORE SWAP3 SWAP6 SWAP3 SWAP2 SWAP1 DUP10 SWAP1 DUP3 SWAP1 DUP2 SWAP1 PUSH1 0x60 ADD SUB DUP2 DUP14 DUP7 GAS CALL DUP1 ISZERO PUSH2 0x1001 JUMPI SWAP2 DUP13 SWAP2 DUP12 SWAP8 SWAP7 SWAP6 SWAP5 SWAP4 PUSH2 0xFE4 JUMPI JUMPDEST POP PUSH1 0x24 DUP3 MLOAD DUP1 SWAP13 DUP2 SWAP4 PUSH4 0x226BF2D1 PUSH1 0xE2 SHL DUP4 MSTORE ADDRESS DUP13 DUP5 ADD MSTORE GAS CALL SWAP9 DUP10 ISZERO PUSH2 0xFDA JUMPI DUP6 SWAP1 DUP7 SWAP11 PUSH2 0xFA1 JUMPI JUMPDEST POP DUP5 DUP1 PUSH2 0xE94 DUP7 DUP7 PUSH2 0x12AE JUMP JUMPDEST POP SWAP5 AND SWAP4 AND DUP4 SUB PUSH2 0xF8B JUMPI DUP6 SWAP3 PUSH2 0xEBE DUP11 SWAP4 PUSH2 0xEB6 PUSH2 0xEF1 SWAP5 SWAP15 DUP16 LT ISZERO PUSH2 0x1392 JUMP JUMPDEST DUP13 LT ISZERO PUSH2 0x13EC JUMP JUMPDEST DUP13 MLOAD PUSH4 0xA9059CBB PUSH1 0xE0 SHL DUP2 MSTORE PUSH1 0x1 PUSH1 0x1 PUSH1 0xA0 SHL SUB DUP11 AND DUP10 DUP3 ADD SWAP1 DUP2 MSTORE PUSH1 0x20 DUP2 ADD DUP15 SWAP1 MSTORE SWAP1 SWAP5 DUP6 SWAP4 DUP5 SWAP3 DUP4 SWAP2 PUSH1 0x40 SWAP1 SWAP2 ADD SWAP1 JUMP JUMPDEST SUB SWAP3 GAS CALL DUP1 ISZERO PUSH2 0xF81 JUMPI PUSH2 0xF64 JUMPI JUMPDEST POP AND SWAP2 DUP3 EXTCODESIZE ISZERO PUSH2 0x69B JUMPI DUP6 PUSH1 0x24 DUP4 SWAP3 DUP4 DUP12 MLOAD SWAP7 DUP8 SWAP5 DUP6 SWAP4 PUSH4 0x2E1A7D4D PUSH1 0xE0 SHL DUP6 MSTORE DUP5 ADD MSTORE GAS CALL SWAP1 DUP2 ISZERO PUSH2 0xF59 JUMPI POP SWAP2 DUP5 SWAP2 PUSH2 0xF40 SWAP4 PUSH2 0xF4A JUMPI JUMPDEST POP PUSH2 0x1AC5 JUMP JUMPDEST DUP4 MLOAD SWAP3 DUP4 MSTORE DUP3 ADD MSTORE RETURN JUMPDEST PUSH2 0xF53 SWAP1 PUSH2 0x1185 JUMP JUMPDEST DUP8 PUSH2 0xF3A JUMP JUMPDEST DUP8 MLOAD SWAP1 RETURNDATASIZE SWAP1 DUP3 RETURNDATACOPY RETURNDATASIZE SWAP1 REVERT JUMPDEST PUSH2 0xF7A SWAP1 DUP8 RETURNDATASIZE DUP10 GT PUSH2 0x30C JUMPI PUSH2 0x2FE DUP2 DUP4 PUSH2 0x11AF JUMP JUMPDEST POP DUP10 PUSH2 0xF00 JUMP JUMPDEST DUP11 MLOAD RETURNDATASIZE DUP7 DUP3 RETURNDATACOPY RETURNDATASIZE SWAP1 REVERT JUMPDEST SWAP9 DUP6 SWAP3 PUSH2 0xEBE DUP11 SWAP4 PUSH2 0xEB6 PUSH2 0xEF1 SWAP5 SWAP15 DUP16 PUSH2 0x9B3 JUMP JUMPDEST DUP1 SWAP11 POP DUP13 DUP1 SWAP3 POP RETURNDATASIZE DUP4 GT PUSH2 0xFD3 JUMPI JUMPDEST PUSH2 0xFBA DUP2 DUP4 PUSH2 0x11AF JUMP JUMPDEST DUP2 ADD SUB SLT PUSH2 0xFCF JUMPI DUP8 DUP10 MLOAD SWAP10 ADD MLOAD SWAP9 DUP13 PUSH2 0xE87 JUMP JUMPDEST DUP5 DUP1 REVERT JUMPDEST POP RETURNDATASIZE PUSH2 0xFB0 JUMP JUMPDEST DUP12 MLOAD RETURNDATASIZE DUP8 DUP3 RETURNDATACOPY RETURNDATASIZE SWAP1 REVERT JUMPDEST PUSH2 0xFFA SWAP1 DUP12 RETURNDATASIZE DUP14 GT PUSH2 0x30C JUMPI PUSH2 0x2FE DUP2 DUP4 PUSH2 0x11AF JUMP JUMPDEST POP DUP14 PUSH2 0xE5D JUMP JUMPDEST DUP13 MLOAD RETURNDATASIZE DUP13 DUP3 RETURNDATACOPY RETURNDATASIZE SWAP1 REVERT JUMPDEST PUSH1 0x4 CALLDATALOAD SWAP1 PUSH1 0x1 PUSH1 0x1 PUSH1 0xA0 SHL SUB DUP3 AND DUP3 SUB PUSH2 0x2CF JUMPI JUMP JUMPDEST PUSH1 0x24 CALLDATALOAD SWAP1 PUSH1 0x1 PUSH1 0x1 PUSH1 0xA0 SHL SUB DUP3 AND DUP3 SUB PUSH2 0x2CF JUMPI JUMP JUMPDEST PUSH1 0xC0 SWAP1 PUSH1 0x3 NOT ADD SLT PUSH2 0x2CF JUMPI PUSH1 0x1 PUSH1 0x1 PUSH1 0xA0 SHL SUB PUSH1 0x4 CALLDATALOAD DUP2 DUP2 AND DUP2 SUB PUSH2 0x2CF JUMPI SWAP2 PUSH1 0x24 CALLDATALOAD SWAP2 PUSH1 0x44 CALLDATALOAD SWAP2 PUSH1 0x64 CALLDATALOAD SWAP2 PUSH1 0x84 CALLDATALOAD SWAP1 DUP2 AND DUP2 SUB PUSH2 0x2CF JUMPI SWAP1 PUSH1 0xA4 CALLDATALOAD SWAP1 JUMP JUMPDEST PUSH1 0x60 SWAP1 PUSH1 0x3 NOT ADD SLT PUSH2 0x2CF JUMPI PUSH1 0x4 CALLDATALOAD SWAP1 PUSH1 0x24 CALLDATALOAD SWAP1 PUSH1 0x44 CALLDATALOAD SWAP1 JUMP JUMPDEST PUSH1 0x40 PUSH1 0x3 NOT DUP3 ADD SLT PUSH2 0x2CF JUMPI PUSH1 0x4 CALLDATALOAD SWAP2 PUSH1 0x24 CALLDATALOAD PUSH8 0xFFFFFFFFFFFFFFFF SWAP3 DUP4 DUP3 GT PUSH2 0x2CF JUMPI DUP1 PUSH1 0x23 DUP4 ADD SLT ISZERO PUSH2 0x2CF JUMPI DUP2 PUSH1 0x4 ADD CALLDATALOAD SWAP4 DUP5 GT PUSH2 0x2CF JUMPI PUSH1 0x24 DUP5 PUSH1 0x5 SHL DUP4 ADD ADD GT PUSH2 0x2CF JUMPI PUSH1 0x24 ADD SWAP2 SWAP1 JUMP JUMPDEST PUSH1 0x20 SWAP1 DUP2 PUSH1 0x40 DUP2 DUP4 ADD SWAP3 DUP3 DUP2 MSTORE DUP6 MLOAD DUP1 SWAP5 MSTORE ADD SWAP4 ADD SWAP2 PUSH1 0x0 JUMPDEST DUP3 DUP2 LT PUSH2 0x1108 JUMPI POP POP POP POP SWAP1 JUMP JUMPDEST DUP4 MLOAD DUP6 MSTORE SWAP4 DUP2 ADD SWAP4 SWAP3 DUP2 ADD SWAP3 PUSH1 0x1 ADD PUSH2 0x10FA JUMP JUMPDEST ISZERO PUSH2 0x1123 JUMPI JUMP JUMPDEST PUSH4 0x4E487B71 PUSH1 0xE0 SHL PUSH1 0x0 MSTORE PUSH1 0x1 PUSH1 0x4 MSTORE PUSH1 0x24 PUSH1 0x0 REVERT JUMPDEST ISZERO PUSH2 0x1140 JUMPI JUMP JUMPDEST PUSH1 0x40 MLOAD PUSH3 0x461BCD PUSH1 0xE5 SHL DUP2 MSTORE PUSH1 0x20 PUSH1 0x4 DUP3 ADD MSTORE PUSH1 0x17 PUSH1 0x24 DUP3 ADD MSTORE PUSH32 0x5368616853776170526F757465723A2045585049524544000000000000000000 PUSH1 0x44 DUP3 ADD MSTORE PUSH1 0x64 SWAP1 REVERT JUMPDEST PUSH8 0xFFFFFFFFFFFFFFFF DUP2 GT PUSH2 0x1199 JUMPI PUSH1 0x40 MSTORE JUMP JUMPDEST PUSH4 0x4E487B71 PUSH1 0xE0 SHL PUSH1 0x0 MSTORE PUSH1 0x41 PUSH1 0x4 MSTORE PUSH1 0x24 PUSH1 0x0 REVERT JUMPDEST SWAP1 PUSH1 0x1F DUP1 NOT SWAP2 ADD AND DUP2 ADD SWAP1 DUP2 LT PUSH8 0xFFFFFFFFFFFFFFFF DUP3 GT OR PUSH2 0x1199 JUMPI PUSH1 0x40 MSTORE JUMP JUMPDEST SWAP1 DUP2 PUSH1 0x20 SWAP2 SUB SLT PUSH2 0x2CF JUMPI MLOAD DUP1 ISZERO ISZERO DUP2 SUB PUSH2 0x2CF JUMPI SWAP1 JUMP JUMPDEST SWAP2 PUSH2 0x11F3 SWAP2 PUSH2 0x12AE JUMP JUMPDEST PUSH1 0x40 SWAP3 SWAP2 SWAP3 MLOAD SWAP3 PUSH1 0x20 DUP5 ADD SWAP1 PUSH12 0xFFFFFFFFFFFFFFFFFFFFFFFF NOT SWAP3 DUP4 DUP1 SWAP3 PUSH1 0x60 SHL AND DUP4 MSTORE PUSH1 0x60 SHL AND PUSH1 0x34 DUP6 ADD MSTORE PUSH1 0x28 DUP5 MSTORE PUSH1 0x60 DUP5 ADD SWAP4 PUSH8 0xFFFFFFFFFFFFFFFF SWAP3 DUP2 DUP7 LT DUP5 DUP8 GT OR PUSH2 0x1199 JUMPI PUSH1 0xE0 SWAP3 DUP7 PUSH1 0x40 MSTORE DUP3 MLOAD SWAP1 KECCAK256 SWAP1 PUSH1 0x80 DUP4 ADD SWAP6 PUSH1 0xFF PUSH1 0xF8 SHL DUP8 MSTORE PUSH1 0x60 SHL AND PUSH1 0x81 DUP4 ADD MSTORE PUSH1 0x95 DUP3 ADD MSTORE PUSH32 0x96E8AC4277198FF8B6F785478AA9A39F403CB768DD02CBEE326C3E7DA348845F PUSH1 0xB5 DUP3 ADD MSTORE PUSH1 0x55 DUP6 MSTORE ADD SWAP1 DUP4 DUP3 LT SWAP1 DUP3 GT OR PUSH2 0x1199 JUMPI PUSH1 0x40 MSTORE SWAP1 MLOAD SWAP1 KECCAK256 PUSH1 0x1 PUSH1 0x1 PUSH1 0xA0 SHL SUB AND SWAP1 JUMP JUMPDEST SWAP1 SWAP2 PUSH1 0x1 PUSH1 0x1 PUSH1 0xA0 SHL SUB SWAP2 DUP3 DUP5 AND DUP4 DUP3 AND DUP1 DUP3 EQ PUSH2 0x1322 JUMPI LT ISZERO PUSH2 0x131D JUMPI SWAP3 JUMPDEST SWAP2 DUP4 AND ISZERO PUSH2 0x12D8 JUMPI JUMP JUMPDEST PUSH1 0x40 MLOAD PUSH3 0x461BCD PUSH1 0xE5 SHL DUP2 MSTORE PUSH1 0x20 PUSH1 0x4 DUP3 ADD MSTORE PUSH1 0x1D PUSH1 0x24 DUP3 ADD MSTORE PUSH32 0x53686168537761704C6962726172793A205A45524F5F41444452455353000000 PUSH1 0x44 DUP3 ADD MSTORE PUSH1 0x64 SWAP1 REVERT JUMPDEST PUSH2 0x12CE JUMP JUMPDEST PUSH1 0x40 MLOAD PUSH3 0x461BCD PUSH1 0xE5 SHL DUP2 MSTORE PUSH1 0x20 PUSH1 0x4 DUP3 ADD MSTORE PUSH1 0x24 DUP1 DUP3 ADD MSTORE PUSH32 0x53686168537761704C6962726172793A204944454E544943414C5F4144445245 PUSH1 0x44 DUP3 ADD MSTORE PUSH4 0x53534553 PUSH1 0xE0 SHL PUSH1 0x64 DUP3 ADD MSTORE PUSH1 0x84 SWAP1 REVERT JUMPDEST SWAP1 DUP2 PUSH1 0x20 SWAP2 SUB SLT PUSH2 0x2CF JUMPI MLOAD PUSH1 0x1 PUSH1 0x1 PUSH1 0xA0 SHL SUB DUP2 AND DUP2 SUB PUSH2 0x2CF JUMPI SWAP1 JUMP JUMPDEST ISZERO PUSH2 0x1399 JUMPI JUMP JUMPDEST PUSH1 0x40 MLOAD PUSH3 0x461BCD PUSH1 0xE5 SHL DUP2 MSTORE PUSH1 0x20 PUSH1 0x4 DUP3 ADD MSTORE PUSH1 0x25 PUSH1 0x24 DUP3 ADD MSTORE PUSH32 0x5368616853776170526F757465723A20494E53554646494349454E545F415F41 PUSH1 0x44 DUP3 ADD MSTORE PUSH5 0x1353D55395 PUSH1 0xDA SHL PUSH1 0x64 DUP3 ADD MSTORE PUSH1 0x84 SWAP1 REVERT JUMPDEST ISZERO PUSH2 0x13F3 JUMPI JUMP JUMPDEST PUSH1 0x40 MLOAD PUSH3 0x461BCD PUSH1 0xE5 SHL DUP2 MSTORE PUSH1 0x20 PUSH1 0x4 DUP3 ADD MSTORE PUSH1 0x25 PUSH1 0x24 DUP3 ADD MSTORE PUSH32 0x5368616853776170526F757465723A20494E53554646494349454E545F425F41 PUSH1 0x44 DUP3 ADD MSTORE PUSH5 0x1353D55395 PUSH1 0xDA SHL PUSH1 0x64 DUP3 ADD MSTORE PUSH1 0x84 SWAP1 REVERT JUMPDEST PUSH1 0x40 MLOAD PUSH4 0xE6A43905 PUSH1 0xE0 SHL DUP2 MSTORE PUSH1 0x1 PUSH1 0x1 PUSH1 0xA0 SHL SUB DUP3 DUP2 AND PUSH1 0x4 DUP4 ADD MSTORE DUP4 DUP2 AND PUSH1 0x24 DUP4 ADD MSTORE SWAP4 SWAP7 SWAP5 SWAP6 SWAP5 SWAP4 PUSH32 0x0 DUP1 DUP3 AND SWAP5 SWAP4 SWAP3 SWAP1 SWAP2 PUSH1 0x20 SWAP2 DUP3 DUP2 PUSH1 0x44 DUP2 DUP11 GAS STATICCALL SWAP1 DUP2 ISZERO PUSH2 0x15B0 JUMPI PUSH1 0x0 SWAP2 PUSH2 0x15BC JUMPI JUMPDEST POP AND ISZERO PUSH2 0x1539 JUMPI JUMPDEST POP PUSH2 0x14C7 SWAP4 POP PUSH2 0x15ED JUMP JUMPDEST SWAP3 SWAP1 DUP1 ISZERO DUP1 PUSH2 0x1531 JUMPI JUMPDEST ISZERO PUSH2 0x14DE JUMPI POP POP POP POP SWAP1 SWAP2 JUMP JUMPDEST PUSH2 0x14ED DUP5 DUP3 DUP9 SWAP8 SWAP6 SWAP7 SWAP8 PUSH2 0x1754 JUMP JUMPDEST SWAP5 DUP4 DUP7 GT PUSH2 0x1509 JUMPI POP POP POP POP PUSH2 0x1505 SWAP1 DUP3 LT ISZERO PUSH2 0x13EC JUMP JUMPDEST SWAP1 SWAP2 JUMP JUMPDEST DUP4 SWAP6 POP PUSH2 0x1505 SWAP5 POP SWAP1 PUSH2 0x1520 SWAP2 PUSH2 0x1529 SWAP4 SWAP5 PUSH2 0x1754 JUMP JUMPDEST SWAP5 DUP6 GT ISZERO PUSH2 0x111C JUMP JUMPDEST DUP4 LT ISZERO PUSH2 0x1392 JUMP JUMPDEST POP DUP4 ISZERO PUSH2 0x14D1 JUMP JUMPDEST PUSH1 0x40 MLOAD PUSH4 0x64E329CB PUSH1 0xE1 SHL DUP2 MSTORE PUSH1 0x1 PUSH1 0x1 PUSH1 0xA0 SHL SUB DUP5 DUP2 AND PUSH1 0x4 DUP4 ADD MSTORE DUP6 AND PUSH1 0x24 DUP3 ADD MSTORE SWAP5 DUP2 SWAP1 DUP7 SWAP1 PUSH1 0x44 SWAP1 DUP3 SWAP1 PUSH1 0x0 SWAP1 GAS CALL SWAP5 DUP6 ISZERO PUSH2 0x15B0 JUMPI PUSH2 0x14C7 SWAP6 PUSH2 0x1582 JUMPI JUMPDEST POP PUSH2 0x14BC JUMP JUMPDEST DUP2 PUSH2 0x15A1 SWAP3 SWAP1 RETURNDATASIZE LT PUSH2 0x15A9 JUMPI JUMPDEST PUSH2 0x1599 DUP2 DUP4 PUSH2 0x11AF JUMP JUMPDEST DUP2 ADD SWAP1 PUSH2 0x1373 JUMP JUMPDEST POP CODESIZE DUP1 PUSH2 0x157C JUMP JUMPDEST POP RETURNDATASIZE PUSH2 0x158F JUMP JUMPDEST PUSH1 0x40 MLOAD RETURNDATASIZE PUSH1 0x0 DUP3 RETURNDATACOPY RETURNDATASIZE SWAP1 REVERT JUMPDEST PUSH2 0x15D3 SWAP2 POP DUP4 RETURNDATASIZE DUP6 GT PUSH2 0x15A9 JUMPI PUSH2 0x1599 DUP2 DUP4 PUSH2 0x11AF JUMP JUMPDEST CODESIZE PUSH2 0x14B4 JUMP JUMPDEST MLOAD SWAP1 PUSH1 0x1 PUSH1 0x1 PUSH1 0x70 SHL SUB DUP3 AND DUP3 SUB PUSH2 0x2CF JUMPI JUMP JUMPDEST SWAP1 DUP1 PUSH1 0x60 PUSH1 0x4 SWAP4 PUSH2 0x1613 PUSH2 0x1601 DUP8 DUP6 PUSH2 0x12AE JUMP JUMPDEST POP SWAP7 PUSH1 0x1 PUSH1 0x1 PUSH1 0xA0 SHL SUB SWAP5 DUP6 SWAP4 PUSH2 0x11E9 JUMP JUMPDEST AND PUSH1 0x40 MLOAD SWAP5 DUP6 DUP1 SWAP3 PUSH4 0x240BC6B PUSH1 0xE2 SHL DUP3 MSTORE GAS STATICCALL SWAP3 DUP4 ISZERO PUSH2 0x15B0 JUMPI PUSH1 0x0 SWAP1 DUP2 SWAP5 PUSH2 0x1657 JUMPI JUMPDEST POP DUP2 SWAP1 PUSH1 0x1 PUSH1 0x1 PUSH1 0x70 SHL SUB DUP1 SWAP2 AND SWAP5 AND SWAP5 AND SWAP2 AND EQ PUSH1 0x0 EQ PUSH2 0x1505 JUMPI SWAP2 JUMP JUMPDEST SWAP4 POP PUSH1 0x60 DUP5 RETURNDATASIZE DUP3 GT PUSH2 0x16A7 JUMPI JUMPDEST DUP2 PUSH2 0x1671 PUSH1 0x60 SWAP4 DUP4 PUSH2 0x11AF JUMP JUMPDEST DUP2 ADD SUB SLT PUSH2 0x557 JUMPI PUSH2 0x1682 DUP5 PUSH2 0x15D9 JUMP JUMPDEST SWAP1 PUSH1 0x40 PUSH2 0x1691 PUSH1 0x20 DUP8 ADD PUSH2 0x15D9 JUMP JUMPDEST SWAP6 ADD MLOAD PUSH4 0xFFFFFFFF DUP2 AND SUB PUSH2 0x557 JUMPI POP DUP2 PUSH2 0x1638 JUMP JUMPDEST RETURNDATASIZE SWAP2 POP PUSH2 0x1664 JUMP JUMPDEST ISZERO PUSH2 0x16B6 JUMPI JUMP JUMPDEST PUSH1 0x40 MLOAD PUSH3 0x461BCD PUSH1 0xE5 SHL DUP2 MSTORE PUSH1 0x20 PUSH1 0x4 DUP3 ADD MSTORE PUSH1 0x27 PUSH1 0x24 DUP3 ADD MSTORE PUSH32 0x53686168537761704C6962726172793A20494E53554646494349454E545F4C49 PUSH1 0x44 DUP3 ADD MSTORE PUSH7 0x51554944495459 PUSH1 0xC8 SHL PUSH1 0x64 DUP3 ADD MSTORE PUSH1 0x84 SWAP1 REVERT JUMPDEST DUP2 DUP2 MUL SWAP3 SWAP2 DUP2 ISZERO SWAP2 DUP5 DIV EQ OR ISZERO PUSH2 0x171E JUMPI JUMP JUMPDEST PUSH4 0x4E487B71 PUSH1 0xE0 SHL PUSH1 0x0 MSTORE PUSH1 0x11 PUSH1 0x4 MSTORE PUSH1 0x24 PUSH1 0x0 REVERT JUMPDEST DUP2 ISZERO PUSH2 0x173E JUMPI DIV SWAP1 JUMP JUMPDEST PUSH4 0x4E487B71 PUSH1 0xE0 SHL PUSH1 0x0 MSTORE PUSH1 0x12 PUSH1 0x4 MSTORE PUSH1 0x24 PUSH1 0x0 REVERT JUMPDEST DUP1 ISZERO PUSH2 0x178A JUMPI PUSH2 0x177E SWAP3 PUSH2 0x1779 SWAP2 DUP4 ISZERO ISZERO DUP1 PUSH2 0x1781 JUMPI JUMPDEST PUSH2 0x1774 SWAP1 PUSH2 0x16AF JUMP JUMPDEST PUSH2 0x170B JUMP JUMPDEST PUSH2 0x1734 JUMP JUMPDEST SWAP1 JUMP JUMPDEST POP DUP2 ISZERO ISZERO PUSH2 0x176B JUMP JUMPDEST PUSH1 0x40 MLOAD PUSH3 0x461BCD PUSH1 0xE5 SHL DUP2 MSTORE PUSH1 0x20 PUSH1 0x4 DUP3 ADD MSTORE PUSH1 0x24 DUP1 DUP3 ADD MSTORE PUSH32 0x53686168537761704C6962726172793A20494E53554646494349454E545F414D PUSH1 0x44 DUP3 ADD MSTORE PUSH4 0x13D55395 PUSH1 0xE2 SHL PUSH1 0x64 DUP3 ADD MSTORE PUSH1 0x84 SWAP1 REVERT JUMPDEST SWAP2 SWAP1 DUP3 SUB SWAP2 DUP3 GT PUSH2 0x171E JUMPI JUMP JUMPDEST DUP1 ISZERO PUSH2 0x1846 JUMPI DUP2 ISZERO SWAP3 DUP4 ISZERO DUP1 PUSH2 0x183D JUMPI JUMPDEST PUSH2 0x1802 SWAP1 PUSH2 0x16AF JUMP JUMPDEST PUSH2 0x3E5 DUP1 DUP4 MUL SWAP3 DUP4 DIV SUB PUSH2 0x171E JUMPI PUSH2 0x181A SWAP1 DUP3 PUSH2 0x170B JUMP JUMPDEST SWAP3 PUSH2 0x3E8 DUP1 DUP5 MUL SWAP4 DUP5 DIV EQ OR ISZERO PUSH2 0x171E JUMPI DUP2 ADD DUP1 SWAP2 GT PUSH2 0x171E JUMPI PUSH2 0x177E SWAP2 PUSH2 0x1734 JUMP JUMPDEST POP DUP1 ISZERO ISZERO PUSH2 0x17F9 JUMP JUMPDEST PUSH1 0x40 MLOAD PUSH3 0x461BCD PUSH1 0xE5 SHL DUP2 MSTORE PUSH1 0x20 PUSH1 0x4 DUP3 ADD MSTORE PUSH1 0x2A PUSH1 0x24 DUP3 ADD MSTORE PUSH32 0x53686168537761704C6962726172793A20494E53554646494349454E545F494E PUSH1 0x44 DUP3 ADD MSTORE PUSH10 0x14155517D05353D55395 PUSH1 0xB2 SHL PUSH1 0x64 DUP3 ADD MSTORE PUSH1 0x84 SWAP1 REVERT JUMPDEST SWAP2 SWAP1 DUP3 ISZERO PUSH2 0x190E JUMPI DUP3 DUP2 PUSH2 0x18BC SWAP3 ISZERO ISZERO DUP1 PUSH2 0x1905 JUMPI PUSH2 0x1774 SWAP1 PUSH2 0x16AF JUMP JUMPDEST SWAP2 PUSH2 0x3E8 SWAP3 DUP4 DUP2 MUL SWAP4 DUP2 DUP6 DIV EQ SWAP1 ISZERO OR ISZERO PUSH2 0x171E JUMPI PUSH2 0x18DA SWAP2 PUSH2 0x17DB JUMP JUMPDEST PUSH2 0x3E5 SWAP1 DUP2 DUP2 MUL SWAP2 DUP2 DUP4 DIV EQ SWAP1 ISZERO OR ISZERO PUSH2 0x171E JUMPI PUSH2 0x18F7 SWAP2 PUSH2 0x1734 JUMP JUMPDEST PUSH1 0x1 DUP2 ADD DUP1 SWAP2 GT PUSH2 0x171E JUMPI SWAP1 JUMP JUMPDEST POP DUP4 ISZERO ISZERO PUSH2 0x176B JUMP JUMPDEST PUSH1 0x40 MLOAD PUSH3 0x461BCD PUSH1 0xE5 SHL DUP2 MSTORE PUSH1 0x20 PUSH1 0x4 DUP3 ADD MSTORE PUSH1 0x2B PUSH1 0x24 DUP3 ADD MSTORE PUSH32 0x53686168537761704C6962726172793A20494E53554646494349454E545F4F55 PUSH1 0x44 DUP3 ADD MSTORE PUSH11 0x1514155517D05353D55395 PUSH1 0xAA SHL PUSH1 0x64 DUP3 ADD MSTORE PUSH1 0x84 SWAP1 REVERT JUMPDEST PUSH8 0xFFFFFFFFFFFFFFFF DUP2 GT PUSH2 0x1199 JUMPI PUSH1 0x5 SHL PUSH1 0x20 ADD SWAP1 JUMP JUMPDEST SWAP3 SWAP2 PUSH2 0x198A DUP3 PUSH2 0x1967 JUMP JUMPDEST SWAP2 PUSH2 0x1998 PUSH1 0x40 MLOAD SWAP4 DUP5 PUSH2 0x11AF JUMP JUMPDEST DUP3 SWAP5 DUP2 DUP5 MSTORE PUSH1 0x20 DUP1 SWAP5 ADD SWAP2 PUSH1 0x5 SHL DUP2 ADD SWAP3 DUP4 GT PUSH2 0x2CF JUMPI SWAP1 JUMPDEST DUP3 DUP3 LT PUSH2 0x19BE JUMPI POP POP POP POP JUMP JUMPDEST DUP2 CALLDATALOAD PUSH1 0x1 PUSH1 0x1 PUSH1 0xA0 SHL SUB DUP2 AND DUP2 SUB PUSH2 0x2CF JUMPI DUP2 MSTORE SWAP1 DUP4 ADD SWAP1 DUP4 ADD PUSH2 0x19B1 JUMP JUMPDEST ISZERO PUSH2 0x19E4 JUMPI JUMP JUMPDEST PUSH1 0x40 MLOAD PUSH3 0x461BCD PUSH1 0xE5 SHL DUP2 MSTORE PUSH1 0x20 PUSH1 0x4 DUP3 ADD MSTORE PUSH1 0x1D PUSH1 0x24 DUP3 ADD MSTORE PUSH32 0x53686168537761704C6962726172793A20494E56414C49445F50415448000000 PUSH1 0x44 DUP3 ADD MSTORE PUSH1 0x64 SWAP1 REVERT JUMPDEST SWAP1 PUSH2 0x1A33 DUP3 PUSH2 0x1967 JUMP JUMPDEST PUSH2 0x1A40 PUSH1 0x40 MLOAD SWAP2 DUP3 PUSH2 0x11AF JUMP JUMPDEST DUP3 DUP2 MSTORE DUP1 SWAP3 PUSH2 0x1A51 PUSH1 0x1F NOT SWAP2 PUSH2 0x1967 JUMP JUMPDEST ADD SWAP1 PUSH1 0x20 CALLDATASIZE SWAP2 ADD CALLDATACOPY JUMP JUMPDEST DUP1 MLOAD DUP3 LT ISZERO PUSH2 0x1A6F JUMPI PUSH1 0x20 SWAP2 PUSH1 0x5 SHL ADD ADD SWAP1 JUMP JUMPDEST PUSH4 0x4E487B71 PUSH1 0xE0 SHL PUSH1 0x0 MSTORE PUSH1 0x32 PUSH1 0x4 MSTORE PUSH1 0x24 PUSH1 0x0 REVERT JUMPDEST RETURNDATASIZE ISZERO PUSH2 0x1AC0 JUMPI RETURNDATASIZE SWAP1 PUSH8 0xFFFFFFFFFFFFFFFF DUP3 GT PUSH2 0x1199 JUMPI PUSH1 0x40 MLOAD SWAP2 PUSH2 0x1AB4 PUSH1 0x1F DUP3 ADD PUSH1 0x1F NOT AND PUSH1 0x20 ADD DUP5 PUSH2 0x11AF JUMP JUMPDEST DUP3 MSTORE RETURNDATASIZE PUSH1 0x0 PUSH1 0x20 DUP5 ADD RETURNDATACOPY JUMP JUMPDEST PUSH1 0x60 SWAP1 JUMP JUMPDEST PUSH1 0x40 MLOAD PUSH1 0x20 DUP2 ADD SWAP1 DUP1 DUP3 LT PUSH8 0xFFFFFFFFFFFFFFFF DUP4 GT OR PUSH2 0x1199 JUMPI PUSH1 0x0 SWAP4 DUP5 SWAP4 DUP5 DUP1 SWAP5 SWAP4 DUP2 SWAP5 PUSH1 0x40 MSTORE MSTORE GAS CALL PUSH2 0x1AF9 PUSH2 0x1A85 JUMP JUMPDEST POP ISZERO PUSH2 0x1B01 JUMPI JUMP JUMPDEST PUSH1 0x40 MLOAD PUSH3 0x461BCD PUSH1 0xE5 SHL DUP2 MSTORE PUSH1 0x20 PUSH1 0x4 DUP3 ADD MSTORE PUSH1 0x23 PUSH1 0x24 DUP3 ADD MSTORE PUSH32 0x5472616E7366657248656C7065723A204554485F5452414E534645525F464149 PUSH1 0x44 DUP3 ADD MSTORE PUSH3 0x131151 PUSH1 0xEA SHL PUSH1 0x64 DUP3 ADD MSTORE PUSH1 0x84 SWAP1 REVERT INVALID LOG2 PUSH5 0x6970667358 0x22 SLT KECCAK256 PUSH1 0xAB 0xBB PUSH23 0x263F9B01302DB847F6BB22C25DECE7BC30B0449F984200 0xBF MLOAD 0xA9 0xFB SSTORE PUSH5 0x736F6C6343 STOP ADDMOD EQ STOP CALLER "},"methodIdentifiers":{"WETH()":"ad5c4648","addLiquidity(address,address,uint256,uint256,uint256,uint256,address,uint256)":"e8e33700","addLiquidityETH(address,uint256,uint256,uint256,address,uint256)":"f305d719","factory()":"c45a0155","getAmountIn(uint256,uint256,uint256)":"85f8c259","getAmountOut(uint256,uint256,uint256)":"054d50d4","getAmountsIn(uint256,address[])":"1f00ca74","getAmountsOut(uint256,address[])":"d06ca61f","quote(uint256,uint256,uint256)":"ad615dec","removeLiquidity(address,address,uint256,uint256,uint256,address,uint256)":"baa2abde","removeLiquidityETH(address,uint256,uint256,uint256,address,uint256)":"02751cec","removeLiquidityETHSupportingFeeOnTransferTokens(address,uint256,uint256,uint256,address,uint256)":"af2979eb"}}}}}