{"contracts/shahswap/ShahSwapRouterV3.sol":{"ShahSwapRouterV3":{"abi":[{"inputs":[{"internalType":"address","name":"_factory","type":"address"},{"internalType":"address","name":"_WETH","type":"address"},{"internalType":"address","name":"_oracle","type":"address"}],"stateMutability":"nonpayable","type":"constructor"},{"inputs":[{"internalType":"address","name":"owner","type":"address"}],"name":"OwnableInvalidOwner","type":"error"},{"inputs":[{"internalType":"address","name":"account","type":"address"}],"name":"OwnableUnauthorizedAccount","type":"error"},{"inputs":[],"name":"ReentrancyGuardReentrantCall","type":"error"},{"anonymous":false,"inputs":[{"indexed":true,"internalType":"address","name":"tokenA","type":"address"},{"indexed":true,"internalType":"address","name":"tokenB","type":"address"},{"indexed":false,"internalType":"uint256","name":"amountA","type":"uint256"},{"indexed":false,"internalType":"uint256","name":"amountB","type":"uint256"},{"indexed":false,"internalType":"uint256","name":"liquidity","type":"uint256"}],"name":"LiquidityAdded","type":"event"},{"anonymous":false,"inputs":[{"indexed":true,"internalType":"address","name":"tokenA","type":"address"},{"indexed":true,"internalType":"address","name":"tokenB","type":"address"},{"indexed":false,"internalType":"uint256","name":"amountA","type":"uint256"},{"indexed":false,"internalType":"uint256","name":"amountB","type":"uint256"},{"indexed":false,"internalType":"uint256","name":"liquidity","type":"uint256"}],"name":"LiquidityRemoved","type":"event"},{"anonymous":false,"inputs":[{"indexed":true,"internalType":"address","name":"previousOwner","type":"address"},{"indexed":true,"internalType":"address","name":"newOwner","type":"address"}],"name":"OwnershipTransferred","type":"event"},{"anonymous":false,"inputs":[{"indexed":false,"internalType":"address[]","name":"path","type":"address[]"},{"indexed":false,"internalType":"uint256","name":"amountIn","type":"uint256"},{"indexed":false,"internalType":"uint256","name":"amountOut","type":"uint256"}],"name":"SwapExecuted","type":"event"},{"inputs":[],"name":"WETH","outputs":[{"internalType":"address","name":"","type":"address"}],"stateMutability":"view","type":"function"},{"inputs":[{"internalType":"address","name":"tokenA","type":"address"},{"internalType":"address","name":"tokenB","type":"address"},{"internalType":"uint256","name":"amountADesired","type":"uint256"},{"internalType":"uint256","name":"amountBDesired","type":"uint256"},{"internalType":"uint256","name":"amountAMin","type":"uint256"},{"internalType":"uint256","name":"amountBMin","type":"uint256"},{"internalType":"address","name":"to","type":"address"},{"internalType":"uint256","name":"deadline","type":"uint256"}],"name":"addLiquidity","outputs":[{"internalType":"uint256","name":"amountA","type":"uint256"},{"internalType":"uint256","name":"amountB","type":"uint256"},{"internalType":"uint256","name":"liquidity","type":"uint256"}],"stateMutability":"nonpayable","type":"function"},{"inputs":[{"internalType":"address","name":"token","type":"address"},{"internalType":"uint256","name":"amountTokenDesired","type":"uint256"},{"internalType":"uint256","name":"amountTokenMin","type":"uint256"},{"internalType":"uint256","name":"amountETHMin","type":"uint256"},{"internalType":"address","name":"to","type":"address"},{"internalType":"uint256","name":"deadline","type":"uint256"}],"name":"addLiquidityETH","outputs":[{"internalType":"uint256","name":"amountToken","type":"uint256"},{"internalType":"uint256","name":"amountETH","type":"uint256"},{"internalType":"uint256","name":"liquidity","type":"uint256"}],"stateMutability":"payable","type":"function"},{"inputs":[{"components":[{"internalType":"address[]","name":"path","type":"address[]"},{"internalType":"uint256","name":"amountIn","type":"uint256"},{"internalType":"uint256","name":"amountOutMin","type":"uint256"}],"internalType":"struct ShahSwapRouterV3.BatchStep[]","name":"steps","type":"tuple[]"},{"internalType":"address","name":"to","type":"address"},{"internalType":"uint256","name":"deadline","type":"uint256"}],"name":"batchSwapExactTokensForTokens","outputs":[],"stateMutability":"nonpayable","type":"function"},{"inputs":[],"name":"factory","outputs":[{"internalType":"address","name":"","type":"address"}],"stateMutability":"view","type":"function"},{"inputs":[{"internalType":"uint256","name":"amountOut","type":"uint256"},{"internalType":"uint256","name":"reserveIn","type":"uint256"},{"internalType":"uint256","name":"reserveOut","type":"uint256"}],"name":"getAmountIn","outputs":[{"internalType":"uint256","name":"amountIn","type":"uint256"}],"stateMutability":"pure","type":"function"},{"inputs":[{"internalType":"uint256","name":"amountIn","type":"uint256"},{"internalType":"uint256","name":"reserveIn","type":"uint256"},{"internalType":"uint256","name":"reserveOut","type":"uint256"}],"name":"getAmountOut","outputs":[{"internalType":"uint256","name":"amountOut","type":"uint256"}],"stateMutability":"pure","type":"function"},{"inputs":[{"internalType":"uint256","name":"amountOut","type":"uint256"},{"internalType":"address[]","name":"path","type":"address[]"}],"name":"getAmountsIn","outputs":[{"internalType":"uint256[]","name":"amounts","type":"uint256[]"}],"stateMutability":"view","type":"function"},{"inputs":[{"internalType":"uint256","name":"amountIn","type":"uint256"},{"internalType":"address[]","name":"path","type":"address[]"}],"name":"getAmountsOut","outputs":[{"internalType":"uint256[]","name":"amounts","type":"uint256[]"}],"stateMutability":"view","type":"function"},{"inputs":[{"internalType":"address","name":"tokenIn","type":"address"},{"internalType":"address","name":"tokenOut","type":"address"},{"internalType":"uint256","name":"amountIn","type":"uint256"}],"name":"getBestRoute","outputs":[{"internalType":"address[]","name":"bestPath","type":"address[]"}],"stateMutability":"view","type":"function"},{"inputs":[],"name":"oracle","outputs":[{"internalType":"address","name":"","type":"address"}],"stateMutability":"view","type":"function"},{"inputs":[],"name":"owner","outputs":[{"internalType":"address","name":"","type":"address"}],"stateMutability":"view","type":"function"},{"inputs":[{"internalType":"uint256","name":"amountA","type":"uint256"},{"internalType":"uint256","name":"reserveA","type":"uint256"},{"internalType":"uint256","name":"reserveB","type":"uint256"}],"name":"quote","outputs":[{"internalType":"uint256","name":"amountB","type":"uint256"}],"stateMutability":"pure","type":"function"},{"inputs":[{"internalType":"address","name":"tokenA","type":"address"},{"internalType":"address","name":"tokenB","type":"address"},{"internalType":"uint256","name":"liquidity","type":"uint256"},{"internalType":"uint256","name":"amountAMin","type":"uint256"},{"internalType":"uint256","name":"amountBMin","type":"uint256"},{"internalType":"address","name":"to","type":"address"},{"internalType":"uint256","name":"deadline","type":"uint256"}],"name":"removeLiquidity","outputs":[{"internalType":"uint256","name":"amountA","type":"uint256"},{"internalType":"uint256","name":"amountB","type":"uint256"}],"stateMutability":"nonpayable","type":"function"},{"inputs":[{"internalType":"address","name":"token","type":"address"},{"internalType":"uint256","name":"liquidity","type":"uint256"},{"internalType":"uint256","name":"amountTokenMin","type":"uint256"},{"internalType":"uint256","name":"amountETHMin","type":"uint256"},{"internalType":"address","name":"to","type":"address"},{"internalType":"uint256","name":"deadline","type":"uint256"}],"name":"removeLiquidityETH","outputs":[{"internalType":"uint256","name":"amountToken","type":"uint256"},{"internalType":"uint256","name":"amountETH","type":"uint256"}],"stateMutability":"nonpayable","type":"function"},{"inputs":[{"internalType":"address","name":"token","type":"address"},{"internalType":"uint256","name":"liquidity","type":"uint256"},{"internalType":"uint256","name":"amountTokenMin","type":"uint256"},{"internalType":"uint256","name":"amountETHMin","type":"uint256"},{"internalType":"address","name":"to","type":"address"},{"internalType":"uint256","name":"deadline","type":"uint256"}],"name":"removeLiquidityETHSupportingFeeOnTransferTokens","outputs":[{"internalType":"uint256","name":"amountETH","type":"uint256"}],"stateMutability":"nonpayable","type":"function"},{"inputs":[],"name":"renounceOwnership","outputs":[],"stateMutability":"nonpayable","type":"function"},{"inputs":[{"internalType":"address","name":"_oracle","type":"address"}],"name":"setOracle","outputs":[],"stateMutability":"nonpayable","type":"function"},{"inputs":[{"internalType":"uint256","name":"amountOut","type":"uint256"},{"internalType":"address[]","name":"path","type":"address[]"},{"internalType":"address","name":"to","type":"address"},{"internalType":"uint256","name":"deadline","type":"uint256"}],"name":"swapETHForExactTokens","outputs":[{"internalType":"uint256[]","name":"amounts","type":"uint256[]"}],"stateMutability":"payable","type":"function"},{"inputs":[{"internalType":"uint256","name":"amountOutMin","type":"uint256"},{"internalType":"address[]","name":"path","type":"address[]"},{"internalType":"address","name":"to","type":"address"},{"internalType":"uint256","name":"deadline","type":"uint256"}],"name":"swapExactETHForTokens","outputs":[{"internalType":"uint256[]","name":"amounts","type":"uint256[]"}],"stateMutability":"payable","type":"function"},{"inputs":[{"internalType":"uint256","name":"amountIn","type":"uint256"},{"internalType":"uint256","name":"amountOutMin","type":"uint256"},{"internalType":"address[]","name":"path","type":"address[]"},{"internalType":"address","name":"to","type":"address"},{"internalType":"uint256","name":"deadline","type":"uint256"}],"name":"swapExactTokensForETH","outputs":[{"internalType":"uint256[]","name":"amounts","type":"uint256[]"}],"stateMutability":"nonpayable","type":"function"},{"inputs":[{"internalType":"uint256","name":"amountIn","type":"uint256"},{"internalType":"uint256","name":"amountOutMin","type":"uint256"},{"internalType":"address[]","name":"path","type":"address[]"},{"internalType":"address","name":"to","type":"address"},{"internalType":"uint256","name":"deadline","type":"uint256"}],"name":"swapExactTokensForTokens","outputs":[{"internalType":"uint256[]","name":"amounts","type":"uint256[]"}],"stateMutability":"nonpayable","type":"function"},{"inputs":[{"internalType":"uint256","name":"amountIn","type":"uint256"},{"internalType":"uint256","name":"amountOutMin","type":"uint256"},{"internalType":"address[]","name":"path","type":"address[]"},{"internalType":"address","name":"to","type":"address"},{"internalType":"uint256","name":"deadline","type":"uint256"}],"name":"swapExactTokensForTokensMultiHop","outputs":[{"internalType":"uint256[]","name":"amounts","type":"uint256[]"}],"stateMutability":"nonpayable","type":"function"},{"inputs":[{"internalType":"uint256","name":"amountIn","type":"uint256"},{"internalType":"uint256","name":"amountOutMin","type":"uint256"},{"internalType":"address[]","name":"path","type":"address[]"},{"internalType":"address","name":"to","type":"address"},{"internalType":"uint256","name":"deadline","type":"uint256"},{"internalType":"uint8","name":"v","type":"uint8"},{"internalType":"bytes32","name":"r","type":"bytes32"},{"internalType":"bytes32","name":"s","type":"bytes32"}],"name":"swapExactTokensForTokensWithPermit","outputs":[{"internalType":"uint256[]","name":"amounts","type":"uint256[]"}],"stateMutability":"nonpayable","type":"function"},{"inputs":[{"internalType":"uint256","name":"amountOut","type":"uint256"},{"internalType":"uint256","name":"amountInMax","type":"uint256"},{"internalType":"address[]","name":"path","type":"address[]"},{"internalType":"address","name":"to","type":"address"},{"internalType":"uint256","name":"deadline","type":"uint256"}],"name":"swapTokensForExactETH","outputs":[{"internalType":"uint256[]","name":"amounts","type":"uint256[]"}],"stateMutability":"nonpayable","type":"function"},{"inputs":[{"internalType":"uint256","name":"amountOut","type":"uint256"},{"internalType":"uint256","name":"amountInMax","type":"uint256"},{"internalType":"address[]","name":"path","type":"address[]"},{"internalType":"address","name":"to","type":"address"},{"internalType":"uint256","name":"deadline","type":"uint256"}],"name":"swapTokensForExactTokens","outputs":[{"internalType":"uint256[]","name":"amounts","type":"uint256[]"}],"stateMutability":"nonpayable","type":"function"},{"inputs":[{"internalType":"address","name":"newOwner","type":"address"}],"name":"transferOwnership","outputs":[],"stateMutability":"nonpayable","type":"function"},{"stateMutability":"payable","type":"receive"}],"evm":{"bytecode":{"linkReferences":{},"object":"60c034620001c857601f6200364438819003918201601f19168301916001600160401b03831184841017620001cd57808492606094604052833981010312620001c8576200004d81620001e3565b906200006a60406200006260208401620001e3565b9201620001e3565b3315620001af57600080546001600160a01b03198082163390811784556040519691956001600160a01b03959490938616907f8be0079c531659141344cd1fd0a4f28419497f9722a3daafe3b4186f6b6457e09080a36001805560805260a0521690600254161760025561344b9081620001f982396080518181816101ee015281816104cc015281816107b2015281816108b7015281816108fb0152818161097f01528181610b6801528181610ed30152818161102e01528181611348015281816115fa015281816117a801528181611951015281816119f001528181611b8f01528181612222015281816124f0015281816125dd0152612b1d015260a0518181816023015281816101bd0152818161049901528181610b3801528181610e2601528181610ffd01528181611778015281816119c001528181611b630152612b850152f35b604051631e4fbdf760e01b815260006004820152602490fd5b600080fd5b634e487b7160e01b600052604160045260246000fd5b51906001600160a01b0382168203620001c85756fe604060808152600480361015610053575b5050361561001d57600080fd5b610051337f00000000000000000000000000000000000000000000000000000000000000006001600160a01b0316146120b9565b005b600091823560e01c806302751cec14611b37578063054d50d414611b1b57806318cbafe5146119755780631f00ca741461193757806338ed173914610e555780634a25d94a146117395780635ebe30c7146115225780636ede1b87146112ed578063715018a6146112935780637adbf973146112535780637dc0d1d01461122a5780637ff36ab514610fc657806385f8c25914610faa5780638803dbee14610ead5780638da5cb5b14610e855780639e15703c14610e55578063ad5c464814610e11578063ad615dec14610dee578063af2979eb14610b11578063baa2abde1461092a578063c45a0155146108e6578063d06ca61f1461089d578063e8e337001461073f578063f2fde38b146106af578063f305d71914610474578063faa55b6d146103ff5763fb3bdb41146101895750610010565b6101a461019536612042565b949091949392934211156120d6565b83156103ec576101b383612479565b6001600160a01b037f0000000000000000000000000000000000000000000000000000000000000000811697916101ec911688146127f1565b7f00000000000000000000000000000000000000000000000000000000000000009661022361021c368888611fa9565b858a613043565b976102396102308a6123c3565b51341015612796565b896102438a6123c3565b51833b156103e8578185918b5192838092630d0e30db60e41b8252885af180156103de576103c6575b505061027786612479565b87600110156103b3579161029d6102d99492602094610297868b01612479565b91612ec6565b8b6102a78c6123c3565b518b5163a9059cbb60e01b81526001600160a01b03909316948301948552602085015290948593849291839160400190565b03925af19081156103a957610349926103126000805160206133b683398151915297969593610323936103569c9161037b575b506120b9565b61031d368787611fa9565b896125db565b61032c876123c3565b51341161035a575b61033d876123c3565b5186519485948561248d565b0390a15191829182611ebc565b0390f35b610376610370610369896123c3565b51346123a0565b3361332c565b610334565b61039c915060203d81116103a2575b6103948183611f71565b810190612388565b3861030c565b503d61038a565b86513d8a823e3d90fd5b634e487b7160e01b8b526032845260248bfd5b6103cf90611ef7565b6103da57893861026c565b8980fd5b8a513d84823e3d90fd5b5080fd5b634e487b7160e01b875260328652602487fd5b8382346103e85760603660031901126103e85761042b61041d611dba565b610425611da4565b90612aae565b815192839260208080860192818752855180945286019401925b82811061045457505050500390f35b83516001600160a01b031685528695509381019392810192600101610445565b506104c2926104979161048636611de4565b9993979094999291924211156120d6565b7f0000000000000000000000000000000000000000000000000000000000000000963490888b6121f5565b9690956104f086837f0000000000000000000000000000000000000000000000000000000000000000612ec6565b926104fd88853386613237565b6001600160a01b0396871693843b156106a1578551630d0e30db60e41b8152878185818e8a5af180156106a55790889161068d575b5050855163a9059cbb60e01b81526001600160a01b03821684820190815260208181018d90529392919084908290819060400103818c8b5af19081156106835792898b809461058b6024958998859161066c57506120b9565b8b5198899687956335313c2160e11b87521690850152165af1958615610661579561061a575b50506000805160206133d683398151915261035695883411610608575b8451888152602081018a90526040810187905292169180606081015b0390a351938493846040919493926060820195825260208201520152565b6106156103708a346123a0565b6105ce565b9080969550813d831161065a575b6106328183611f71565b81010312610655576000805160206133d6833981519152610356955194956105b1565b600080fd5b503d610628565b8551903d90823e3d90fd5b61039c9150893d8b116103a2576103948183611f71565b88513d8b823e3d90fd5b61069690611ef7565b6106a1578638610532565b8680fd5b87513d8a823e3d90fd5b50903461073b57602036600319011261073b576106ca611dba565b906106d361208d565b6001600160a01b03918216928315610725575050600054826001600160601b0360a01b821617600055167f8be0079c531659141344cd1fd0a4f28419497f9722a3daafe3b4186f6b6457e0600080a380f35b51631e4fbdf760e01b8152908101849052602490fd5b8280fd5b508290346103e8576101003660031901126103e85761075c611dba565b91610765611da4565b6001600160a01b0360c4358181169591949290869003610655576020966107904260e43510156120d6565b6107a660a43560843560643560443586886121f5565b98909760246107d685877f0000000000000000000000000000000000000000000000000000000000000000612ec6565b936107e38b86338a613237565b6107ef8c863389613237565b888a895196879586946335313c2160e11b8652850152165af1948515610892579461084f575b506000805160206133d6833981519152856103569685519316931691806105ea878b8b846040919493926060820195825260208201520152565b9493506020853d821161088a575b8161086a60209383611f71565b8101031261065557935192936000805160206133d6833981519152610815565b3d915061085d565b8451903d90823e3d90fd5b8382346103e857610356906108db6108b436611fff565b907f0000000000000000000000000000000000000000000000000000000000000000612f99565b905191829182611ebc565b8382346103e857816003193601126103e857517f00000000000000000000000000000000000000000000000000000000000000006001600160a01b03168152602090f35b509134610b0e5760e0366003190112610b0e57610945611dba565b9161094e611da4565b91604435916001600160a01b039060a43582811690819003610655576109784260c43510156120d6565b6109a386887f0000000000000000000000000000000000000000000000000000000000000000612ec6565b88516323b872dd60e01b8152338185019081526001600160a01b0383166020828101919091526040820189905292861694929082908190606001038189885af18015610b0457916024918b9493610ae6575b50868451958694859363226bf2d160e21b85528401525af1958615610adc5783918497610aa4575b508083610a2b888294612e01565b5091169450168303610a8d57906000805160206133f68339815191529195945b610a59606435881015612141565b610a6760843587101561219b565b87518781526020810187905260408101959095521692606090a382519182526020820152f35b936000805160206133f68339815191529190610a4b565b88809298508193503d8311610ad5575b610abe8183611f71565b8101031261073b5781602082519201519690610a1d565b503d610ab4565b87513d85823e3d90fd5b610afd9060203d81116103a2576103948183611f71565b50386109f5565b8a513d88823e3d90fd5b80fd5b503461073b57610b2036611de4565b97939296919794909442111590610b36826120d6565b7f000000000000000000000000000000000000000000000000000000000000000091610b61906120d6565b610b8c82827f0000000000000000000000000000000000000000000000000000000000000000612ec6565b87516323b872dd60e01b8152338582019081526001600160a01b039283166020828101829052604083018990529c939290918d908290819060600103818c865af18015610de457918d8c928b969594610dc6575b5050602482518096819363226bf2d160e21b8352308c8401525af18015610dbc578c93928b928a9283958491610d7a575b50610c1c8989612e01565b50888316968795509083168503610d5557909e8f9260249a610c5f6000805160206133f683398151915296610c57610c7e955b871015612141565b86101561219b565b169b8c9651938493846040919493926060820195825260208201520152565b0390a388516370a0823160e01b8152308682015293849182905afa908115610d4b5786908692610d18575b610cb3935061314a565b813b1561073b5785602484928388519586948593632e1a7d4d60e01b85528401525af18015610d0e5790859291610cf6575b5050610cf09161332c565b51908152f35b819250610d0290611ef7565b610b0e57808491610ce5565b84513d84823e3d90fd5b9150508882813d8311610d44575b610d308183611f71565b810103126106555785610cb3925191610ca9565b503d610d26565b87513d87823e3d90fd5b9e8f9260249a610c5f6000805160206133f683398151915296610c57610c7e95610c4f565b96505092859194508092503d8311610db5575b610d978183611f71565b81010312610db1578783928b928e80965195015138610c11565b8780fd5b503d610d8d565b8a513d8a823e3d90fd5b81610ddc92903d106103a2576103948183611f71565b508d38610be0565b8b513d8b823e3d90fd5b8382346103e857602090610e0a610e0436611e24565b91612900565b9051908152f35b8382346103e857816003193601126103e857517f00000000000000000000000000000000000000000000000000000000000000006001600160a01b03168152602090f35b8382346103e857610356906108db610e80610e6f36611e6e565b9590959491949392934211156120d6565b6124e8565b8382346103e857816003193601126103e857905490516001600160a01b039091168152602090f35b508290346103e857610ed1610ec136611e6e565b97919590929493974211156120d6565b7f0000000000000000000000000000000000000000000000000000000000000000610f1c610f0a610f03368989611fa9565b8684613043565b98610f148a6123c3565b511115612796565b8515610f9757610f2b85612479565b91610f3586612479565b908760011015610f84576103568a8a6000805160206133b68339815191528b8b6103498c6103348d6103128e610f728f8f61029760208b01612479565b610f7b8c6123c3565b51913390613237565b634e487b7160e01b815260328b52602490fd5b634e487b7160e01b825260328952602482fd5b8382346103e857602090610e0a610fc036611e24565b91612a39565b508290610fe4610fd536612042565b969193929490964211156120d6565b821561121757610ff384612479565b6001600160a01b037f00000000000000000000000000000000000000000000000000000000000000008116979161102c911688146127f1565b7f00000000000000000000000000000000000000000000000000000000000000009661106361105c368789611fa9565b348a612f99565b9788519460001995868101908111611204579061108361108b928c6123f6565b51101561240a565b611094896123c3565b51823b1561120057848b918a5192838092630d0e30db60e41b8252875af180156111f6579085916111de575b50506110cb87612479565b86600110156111cb57916110ea60209261112c94610297858c01612479565b906110f48b6123c3565b518a5163a9059cbb60e01b81526001600160a01b03909316838e01908152602081019190915291938492839188918391604090910190565b03925af1908115610adc5761115d929161114c9185916111ad57506120b9565b611157368688611fa9565b886125db565b855191820191821161119a5761035686866000805160206133b6833981519152878761034961118c89876123f6565b51855193849334918561248d565b634e487b7160e01b815260118752602490fd5b6111c5915060203d81116103a2576103948183611f71565b8b61030c565b634e487b7160e01b855260328b52602485fd5b6111e790611ef7565b6111f257838b6110c0565b8380fd5b89513d87823e3d90fd5b8480fd5b634e487b7160e01b865260118c52602486fd5b634e487b7160e01b815260328752602490fd5b8382346103e857816003193601126103e85760025490516001600160a01b039091168152602090f35b8334610b0e576020366003190112610b0e5761126d611dba565b61127561208d565b60018060a01b03166001600160601b0360a01b600254161760025580f35b8334610b0e5780600319360112610b0e576112ac61208d565b600080546001600160a01b0319811682556001600160a01b03167f8be0079c531659141344cd1fd0a4f28419497f9722a3daafe3b4186f6b6457e08280a380f35b50903461073b57606036600319011261073b5780356001600160401b0381116111f25761131d9036908301611e3e565b611325611da4565b936113344260443510156120d6565b6001946002865414611512576002865591927f00000000000000000000000000000000000000000000000000000000000000009290875b858110611379578888805580f35b8060051b820135605e19833603018112156103da578201602090818101356113b56113ae6113a7848061283d565b3691611fa9565b828a612f99565b91825193600019948581019081116114ff576113d46113e091866123f6565b518a840135111561240a565b6113ea828061283d565b156114ec576113f890612479565b90611403838061283d565b156114d857906114138f92612479565b9161141e858061283d565b909110156114c3578c6114479361029761146497969461143e9401612479565b610f7b876123c3565b61145e886114586113a7848061283d565b866125db565b8061283d565b93909280519182019182116114b0576114ab9594926114966000805160206133b683398151915295936114a3936123f6565b51908a519485948561248d565b0390a16125cc565b61136b565b634e487b7160e01b8e5260118c5260248efd5b5050634e487b7160e01b8f5260328d5260248ffd5b50634e487b7160e01b8f5260328d5260248ffd5b634e487b7160e01b8f5260328d5260248ffd5b634e487b7160e01b8f5260118d5260248ffd5b8151633ee5aeb560e01b81528590fd5b508290346103e8576101003660031901126103e85782356044356001600160401b0381116111f2576115579036908601611e3e565b606435949092906001600160a01b0380871687036106555760843560a4359160ff83168093036111f25761158d428310156120d6565b86156117265761159c86612479565b16803b156111f2579060e48a8580948b51968795869463d505accf60e01b865233908601523060248601528a60448601526064850152608484015260c43560a4840152833560c48401525af1801561171c57908291611708575b50507f00000000000000000000000000000000000000000000000000000000000000009061162f611628368787611fa9565b8484612f99565b96875192600019938481019081116116f55761165290611083602435918c6123f6565b61165b86612479565b9061166587612479565b88600110156116e25791610f7261168792611692959461029760208c01612479565b61031d368888611fa9565b86519182019182116116cf5761035687876000805160206133b68339815191528888610349896116c28a886123f6565b519086519485948561248d565b634e487b7160e01b815260118852602490fd5b634e487b7160e01b855260328c52602485fd5b634e487b7160e01b845260118b52602484fd5b61171190611ef7565b610b0e5780886115f6565b86513d84823e3d90fd5b634e487b7160e01b845260328a52602484fd5b508290346103e85761174d610ec136611e6e565b600019908582018681116119245761176961176e918888612469565b612479565b6001600160a01b037f00000000000000000000000000000000000000000000000000000000000000008116916117a6911682146127f1565b7f00000000000000000000000000000000000000000000000000000000000000006117e96117df6117d8368b8b611fa9565b8884613043565b9a610f148c6123c3565b8715611911576117f887612479565b9061180288612479565b89600110156118fe576118209291610f729161029760208c01612479565b6118353061182f368a8a611fa9565b8b6125db565b88518381019081116118eb5761184b908a6123f6565b51813b1561073b57829060248c838c519586948593632e1a7d4d60e01b85528401525af180156118e1579082916118cd575b505087519182019182116118ba5761035688886000805160206133b683398151915289896103498a6103348b6118b38c8a6123f6565b519061332c565b634e487b7160e01b815260118952602490fd5b6118d690611ef7565b610b0e57808a61187d565b88513d84823e3d90fd5b634e487b7160e01b835260118b52602483fd5b634e487b7160e01b855260328d52602485fd5b634e487b7160e01b835260328b52602483fd5b634e487b7160e01b825260118a52602482fd5b8382346103e857610356906108db61194e36611fff565b907f0000000000000000000000000000000000000000000000000000000000000000613043565b508290346103e85761199a61198936611e6e565b9792949397959091954211156120d6565b60001991858301868111611924576117696119b6918888612469565b6001600160a01b037f00000000000000000000000000000000000000000000000000000000000000008116916119ee911682146127f1565b7f0000000000000000000000000000000000000000000000000000000000000000611a24611a1d368a8a611fa9565b8783612f99565b998a51868101908111611b085790611083611a3f928d6123f6565b871561191157611a4e87612479565b90611a5888612479565b89600110156118fe57611a769291610f729161029760208c01612479565b611a853061182f368a8a611fa9565b88518481019081116118eb57611a9b908a6123f6565b51813b1561073b57829060248c838c519586948593632e1a7d4d60e01b85528401525af180156118e157611af9575b50908751838101908111611ae657906118b3611692928a6123f6565b634e487b7160e01b835260118a52602483fd5b611b0290611ef7565b89611aca565b634e487b7160e01b855260118d52602485fd5b8382346103e857602090610e0a611b3136611e24565b91612984565b509190346103e857611b4836611de4565b96929396959190949542111593611b5e856120d6565b611b887f0000000000000000000000000000000000000000000000000000000000000000956120d6565b611bb385887f0000000000000000000000000000000000000000000000000000000000000000612ec6565b89516323b872dd60e01b8152338582019081526001600160a01b039283166020828101829052604083018d9052939a939092918290819060600103818a865af18015611d9a57918c918893611d7c575b50602482518094819363226bf2d160e21b8352308b8401525af1928315611d72578892918c9188918996611d33575b50611c3d8a85612e01565b50848d1692908d168303611d0a579c8d96809d611c9f9c611c7f611ca79b611c776000805160206133f6833981519152975b8d1015612141565b84101561219b565b169b8c95519283928a846040919493926060820195825260208201520152565b0390a361314a565b823b156103e8578460248392838a519687948593632e1a7d4d60e01b85528401525af1908115611cff5750918391611ce493611cf0575b5061332c565b82519182526020820152f35b611cf990611ef7565b38611cde565b8651903d90823e3d90fd5b959c8d96809d611c9f9c611c7f611ca79b611c776000805160206133f683398151915297611c6f565b93945094505081813d8311611d6b575b611d4d8183611f71565b81010312611d6757908a8260208a94519101519438611c32565b8580fd5b503d611d43565b8b513d88823e3d90fd5b611d939060203d81116103a2576103948183611f71565b5038611c03565b8c513d89823e3d90fd5b602435906001600160a01b038216820361065557565b600435906001600160a01b038216820361065557565b35906001600160a01b038216820361065557565b60c0906003190112610655576001600160a01b03600435818116810361065557916024359160443591606435916084359081168103610655579060a43590565b606090600319011261065557600435906024359060443590565b9181601f84011215610655578235916001600160401b038311610655576020808501948460051b01011161065557565b60a0600319820112610655576004359160243591604435906001600160401b03821161065557611ea091600401611e3e565b90916064356001600160a01b0381168103610655579060843590565b6020908160408183019282815285518094520193019160005b828110611ee3575050505090565b835185529381019392810192600101611ed5565b6001600160401b038111611f0a57604052565b634e487b7160e01b600052604160045260246000fd5b602081019081106001600160401b03821117611f0a57604052565b606081019081106001600160401b03821117611f0a57604052565b608081019081106001600160401b03821117611f0a57604052565b90601f801991011681019081106001600160401b03821117611f0a57604052565b6001600160401b038111611f0a5760051b60200190565b9291611fb482611f92565b91611fc26040519384611f71565b829481845260208094019160051b810192831161065557905b828210611fe85750505050565b838091611ff484611dd0565b815201910190611fdb565b9060406003198301126106555760043591602435906001600160401b03821161065557806023830112156106555781602461203f93600401359101611fa9565b90565b9060806003198301126106555760043591602435906001600160401b0382116106555761207191600401611e3e565b90916044356001600160a01b0381168103610655579060643590565b6000546001600160a01b031633036120a157565b60405163118cdaa760e01b8152336004820152602490fd5b156120c057565b634e487b7160e01b600052600160045260246000fd5b156120dd57565b60405162461bcd60e51b815260206004820152601760248201527f5368616853776170526f757465723a20455850495245440000000000000000006044820152606490fd5b9081602091031261065557516001600160a01b03811681036106555790565b1561214857565b60405162461bcd60e51b815260206004820152602560248201527f5368616853776170526f757465723a20494e53554646494349454e545f415f416044820152641353d5539560da1b6064820152608490fd5b156121a257565b60405162461bcd60e51b815260206004820152602560248201527f5368616853776170526f757465723a20494e53554646494349454e545f425f416044820152641353d5539560da1b6064820152608490fd5b60405163e6a4390560e01b81526001600160a01b03828116600483015283811660248301529396949594937f0000000000000000000000000000000000000000000000000000000000000000808216949392909160209182816044818a5afa90811561235f5760009161236b575b5016156122e8575b506122769350612d3f565b92908015806122e0575b1561228d57505050509091565b61229c84828897959697612900565b948386116122b857505050506122b49082101561219b565b9091565b8395506122b49450906122cf916122d89394612900565b948511156120b9565b831015612141565b508315612280565b6040516364e329cb60e11b81526001600160a01b03848116600483015285166024820152948190869060449082906000905af194851561235f5761227695612331575b5061226b565b8161235092903d10612358575b6123488183611f71565b810190612122565b50388061232b565b503d61233e565b6040513d6000823e3d90fd5b6123829150833d8511612358576123488183611f71565b38612263565b90816020910312610655575180151581036106555790565b919082039182116123ad57565b634e487b7160e01b600052601160045260246000fd5b8051156123d05760200190565b634e487b7160e01b600052603260045260246000fd5b8051600110156123d05760400190565b80518210156123d05760209160051b010190565b1561241157565b60405162461bcd60e51b815260206004820152602a60248201527f5368616853776170526f757465723a20494e53554646494349454e545f4f555460448201526914155517d05353d5539560b21b6064820152608490fd5b91908110156123d05760051b0190565b356001600160a01b03811681036106555790565b91949392948060608401606085525260808301919060005b8181106124bd57505050906040919460208201520152565b91929091906001906001600160a01b036124d686611dd0565b168152602090810194019291016124a5565b9291909493947f000000000000000000000000000000000000000000000000000000000000000061252461251d368686611fa9565b8683612f99565b968751600019938482019182116123ad57611083612542928b6123f6565b84156123d05761255184612479565b9161255b85612479565b9286600110156123d05761257c612585926125909561029760208a01612479565b610f7b8b6123c3565b611157368686611fa9565b85519081019081116123ad576000805160206133b6833981519152936125b96125c792886123f6565b51906040519485948561248d565b0390a1565b60001981146123ad5760010190565b7f0000000000000000000000000000000000000000000000000000000000000000939290919060005b825160001981019081116123ad5781101561278e576001600160a01b038061262c83866123f6565b511660018301918284116123ad578061264584886123f6565b51168161265d6126558386612e01565b50958a6123f6565b519416830361278657600093905b875160011981019081116123ad57839087101561277a5750600286018087116123ad57816126ab8d8694856126a36126b3968f6123f6565b511691612ec6565b955b8d612ec6565b16916040938451926126c484611f20565b60008452843b1561065557855163022c0d9f60e01b81526004810197909752602487015216604485015260806064850152805160848501819052849160005b8281106127625750509181600080948260a49183838284010152601f801991011681010301925af19081156127585750906127449291612749575b506125cc565b612604565b61275290611ef7565b3861273e565b513d6000823e3d90fd5b602082820181015160a4898401015287945001612703565b906126b39088956126ad565b60009061266b565b505050509050565b1561279d57565b60405162461bcd60e51b815260206004820152602660248201527f5368616853776170526f757465723a204558434553534956455f494e5055545f604482015265105353d5539560d21b6064820152608490fd5b156127f857565b60405162461bcd60e51b815260206004820152601c60248201527f5368616853776170526f757465723a20494e56414c49445f50415448000000006044820152606490fd5b903590601e198136030182121561065557018035906001600160401b03821161065557602001918160051b3603831361065557565b1561287957565b60405162461bcd60e51b815260206004820152602660248201527f5368616853776170526f757465723a20494e53554646494349454e545f4c495160448201526555494449545960d01b6064820152608490fd5b818102929181159184041417156123ad57565b81156128ea570490565b634e487b7160e01b600052601260045260246000fd5b80156129335761203f92612925918315158061292a575b61292090612872565b6128cd565b6128e0565b50811515612917565b60405162461bcd60e51b815260206004820152602360248201527f5368616853776170526f757465723a20494e53554646494349454e545f414d4f60448201526215539560ea1b6064820152608490fd5b80156129e2578115928315806129d9575b61299e90612872565b6103e5808302928304036123ad576129b690826128cd565b926103e88084029384041417156123ad5781018091116123ad5761203f916128e0565b50801515612995565b60405162461bcd60e51b815260206004820152602960248201527f5368616853776170526f757465723a20494e53554646494349454e545f494e50604482015268155517d05353d5539560ba1b6064820152608490fd5b919082612a5c91612a4b82151561240a565b80151580612aa55761292090612872565b916103e8928381029381850414901517156123ad57612a7a916123a0565b6103e5908181029181830414901517156123ad57612a97916128e0565b600181018091116123ad5790565b50831515612917565b906040908151612abd81611f3b565b60028152602093833686840137612ad3826123c3565b6001600160a01b038281169182905290939091612aef846123e6565b83831690819052865163e6a4390560e01b8082526001600160a01b03848116600484015285166024830152957f000000000000000000000000000000000000000000000000000000000000000086169392918a81604481885afa908115612d2057908791600091612d03575b5016612cf65750875196612b6e88611f56565b600388526060368b8a0137612b82886123c3565b527f000000000000000000000000000000000000000000000000000000000000000091612bae886123e6565b86841690528751600210156123d057606088019190915287518681526001600160a01b03918216600482015290821660248201528881604481865afa908115612ceb5789949392918691600091612cce575b501615159586612c5f575b505050505050612c5957815162461bcd60e51b815260048101849052601860248201527f5368616853776170526f757465723a204e4f5f524f55544500000000000000006044820152606490fd5b91505090565b88519081526001600160a01b0391821660048201529216602483015292935091829060449082905afa908115612cc357600091612ca6575b50161515388481808080612c0b565b612cbd9150853d8711612358576123488183611f71565b38612c97565b84513d6000823e3d90fd5b612ce59150863d8811612358576123488183611f71565b38612c00565b88513d6000823e3d90fd5b9850505050505050505090565b612d1a91508c8d3d10612358576123488183611f71565b38612b5b565b8a513d6000823e3d90fd5b51906001600160701b038216820361065557565b90806060600493612d65612d538785612e01565b50966001600160a01b03948593612ec6565b1660405194858092630240bc6b60e21b82525afa92831561235f576000908194612da9575b5081906001600160701b03809116941694169116146000146122b45791565b93506060843d8211612df9575b81612dc360609383611f71565b81010312610b0e57612dd484612d2b565b906040612de360208701612d2b565b95015163ffffffff811603610b0e575081612d8a565b3d9150612db6565b90916001600160a01b0391828416838216808214612e75571015612e7057925b91831615612e2b57565b60405162461bcd60e51b815260206004820152601c60248201527f5368616853776170526f757465723a205a45524f5f41444452455353000000006044820152606490fd5b612e21565b60405162461bcd60e51b815260206004820152602360248201527f5368616853776170526f757465723a204944454e544943414c5f41444452455360448201526253455360e81b6064820152608490fd5b91612ed091612e01565b919060405160208101916001600160601b03199485809260601b16845260601b16603482015260288152612f0381611f3b565b51902060405192602084019260ff60f81b845260601b16602184015260358301527f5d59ee5b4a031065f4eea90c908632a8d5368f79ae9915560d3359be24de471c605583015260558252612f5782611f56565b905190206001600160a01b031690565b90612f7182611f92565b612f7e6040519182611f71565b8281528092612f8f601f1991611f92565b0190602036910137565b9291612fa96002825110156127f1565b612fb38151612f67565b91612fbd836123c3565b5260005b815160001981019081116123ad5781101561303d576001600160a01b039081612fea82856123f6565b51169160018201908183116123ad5761302b61301a6130389561303293613011868a6123f6565b5116908b612d3f565b90613025868a6123f6565b51612984565b91866123f6565b526125cc565b612fc1565b50509150565b9291926130546002855110156127f1565b61305e8451612f67565b93845192600019938481019081116123ad5761307a90876123f6565b5280518381019081116123ad57805b6130935750505050565b8381018181116130f6576130e76130e06130cf6001600160a01b03806130b986896123f6565b5116906130c687896123f6565b51169088612d3f565b906130da868c6123f6565b51612a39565b91886123f6565b5280156130f657830180613089565b60246000634e487b7160e01b81526011600452fd5b3d15613145573d906001600160401b038211611f0a5760405191613139601f8201601f191660200184611f71565b82523d6000602084013e565b606090565b60405163a9059cbb60e01b602082019081526001600160a01b0390931660248201526044810193909352600092839290839061319381606481015b03601f198101835282611f71565b51925af161319f61310b565b81613208575b50156131ad57565b60405162461bcd60e51b815260206004820152602d60248201527f5472616e7366657248656c7065723a3a736166655472616e736665723a20747260448201526c185b9cd9995c8819985a5b1959609a1b6064820152608490fd5b805180159250821561321d575b5050386131a5565b6132309250602080918301019101612388565b3880613215565b6040516323b872dd60e01b602082019081526001600160a01b03938416602483015293909216604483015260648201939093526000928392909183906132808160848101613185565b51925af161328c61310b565b816132fd575b501561329a57565b60405162461bcd60e51b815260206004820152603560248201527f5472616e7366657248656c7065723a3a736166655472616e7366657246726f6d6044820152740e881d1c985b9cd9995c919c9bdb4819985a5b1959605a1b6064820152608490fd5b8051801592508215613312575b505038613292565b6133259250602080918301019101612388565b388061330a565b600080809381938260405161334081611f20565b525af161334b61310b565b501561335357565b60405162461bcd60e51b815260206004820152603460248201527f5472616e7366657248656c7065723a3a736166655472616e736665724554483a60448201527308115512081d1c985b9cd9995c8819985a5b195960621b6064820152608490fdfe46d36d3d18d9bcd63ff8be3e4c69d3939f4af76fe86599f2e7f0f027d0e273054a1a2a6176e9646d9e3157f7c2ab3c499f18337c0b0828cfb28e0a61de4a11f7bc7d19d505c7ec4db83f3b51f19fb98c4c8a99922e7839d1ee608dfbee29501ba26469706673582212201f1a39b436829b2e328e4c06c64e0d5b0fbbc42b02e7433df494e228f83dfdd864736f6c63430008140033","opcodes":"PUSH1 0xC0 CALLVALUE PUSH3 0x1C8 JUMPI PUSH1 0x1F PUSH3 0x3644 CODESIZE DUP2 SWAP1 SUB SWAP2 DUP3 ADD PUSH1 0x1F NOT AND DUP4 ADD SWAP2 PUSH1 0x1 PUSH1 0x1 PUSH1 0x40 SHL SUB DUP4 GT DUP5 DUP5 LT OR PUSH3 0x1CD JUMPI DUP1 DUP5 SWAP3 PUSH1 0x60 SWAP5 PUSH1 0x40 MSTORE DUP4 CODECOPY DUP2 ADD SUB SLT PUSH3 0x1C8 JUMPI PUSH3 0x4D DUP2 PUSH3 0x1E3 JUMP JUMPDEST SWAP1 PUSH3 0x6A PUSH1 0x40 PUSH3 0x62 PUSH1 0x20 DUP5 ADD PUSH3 0x1E3 JUMP JUMPDEST SWAP3 ADD PUSH3 0x1E3 JUMP JUMPDEST CALLER ISZERO PUSH3 0x1AF JUMPI PUSH1 0x0 DUP1 SLOAD PUSH1 0x1 PUSH1 0x1 PUSH1 0xA0 SHL SUB NOT DUP1 DUP3 AND CALLER SWAP1 DUP2 OR DUP5 SSTORE PUSH1 0x40 MLOAD SWAP7 SWAP2 SWAP6 PUSH1 0x1 PUSH1 0x1 PUSH1 0xA0 SHL SUB SWAP6 SWAP5 SWAP1 SWAP4 DUP7 AND SWAP1 PUSH32 0x8BE0079C531659141344CD1FD0A4F28419497F9722A3DAAFE3B4186F6B6457E0 SWAP1 DUP1 LOG3 PUSH1 0x1 DUP1 SSTORE PUSH1 0x80 MSTORE PUSH1 0xA0 MSTORE AND SWAP1 PUSH1 0x2 SLOAD AND OR PUSH1 0x2 SSTORE PUSH2 0x344B SWAP1 DUP2 PUSH3 0x1F9 DUP3 CODECOPY PUSH1 0x80 MLOAD DUP2 DUP2 DUP2 PUSH2 0x1EE ADD MSTORE DUP2 DUP2 PUSH2 0x4CC ADD MSTORE DUP2 DUP2 PUSH2 0x7B2 ADD MSTORE DUP2 DUP2 PUSH2 0x8B7 ADD MSTORE DUP2 DUP2 PUSH2 0x8FB ADD MSTORE DUP2 DUP2 PUSH2 0x97F ADD MSTORE DUP2 DUP2 PUSH2 0xB68 ADD MSTORE DUP2 DUP2 PUSH2 0xED3 ADD MSTORE DUP2 DUP2 PUSH2 0x102E ADD MSTORE DUP2 DUP2 PUSH2 0x1348 ADD MSTORE DUP2 DUP2 PUSH2 0x15FA ADD MSTORE DUP2 DUP2 PUSH2 0x17A8 ADD MSTORE DUP2 DUP2 PUSH2 0x1951 ADD MSTORE DUP2 DUP2 PUSH2 0x19F0 ADD MSTORE DUP2 DUP2 PUSH2 0x1B8F ADD MSTORE DUP2 DUP2 PUSH2 0x2222 ADD MSTORE DUP2 DUP2 PUSH2 0x24F0 ADD MSTORE DUP2 DUP2 PUSH2 0x25DD ADD MSTORE PUSH2 0x2B1D ADD MSTORE PUSH1 0xA0 MLOAD DUP2 DUP2 DUP2 PUSH1 0x23 ADD MSTORE DUP2 DUP2 PUSH2 0x1BD ADD MSTORE DUP2 DUP2 PUSH2 0x499 ADD MSTORE DUP2 DUP2 PUSH2 0xB38 ADD MSTORE DUP2 DUP2 PUSH2 0xE26 ADD MSTORE DUP2 DUP2 PUSH2 0xFFD ADD MSTORE DUP2 DUP2 PUSH2 0x1778 ADD MSTORE DUP2 DUP2 PUSH2 0x19C0 ADD MSTORE DUP2 DUP2 PUSH2 0x1B63 ADD MSTORE PUSH2 0x2B85 ADD MSTORE RETURN JUMPDEST PUSH1 0x40 MLOAD PUSH4 0x1E4FBDF7 PUSH1 0xE0 SHL DUP2 MSTORE PUSH1 0x0 PUSH1 0x4 DUP3 ADD MSTORE PUSH1 0x24 SWAP1 REVERT JUMPDEST PUSH1 0x0 DUP1 REVERT JUMPDEST PUSH4 0x4E487B71 PUSH1 0xE0 SHL PUSH1 0x0 MSTORE PUSH1 0x41 PUSH1 0x4 MSTORE PUSH1 0x24 PUSH1 0x0 REVERT JUMPDEST MLOAD SWAP1 PUSH1 0x1 PUSH1 0x1 PUSH1 0xA0 SHL SUB DUP3 AND DUP3 SUB PUSH3 0x1C8 JUMPI JUMP INVALID PUSH1 0x40 PUSH1 0x80 DUP2 MSTORE PUSH1 0x4 DUP1 CALLDATASIZE LT ISZERO PUSH2 0x53 JUMPI JUMPDEST POP POP CALLDATASIZE ISZERO PUSH2 0x1D JUMPI PUSH1 0x0 DUP1 REVERT JUMPDEST PUSH2 0x51 CALLER PUSH32 0x0 PUSH1 0x1 PUSH1 0x1 PUSH1 0xA0 SHL SUB AND EQ PUSH2 0x20B9 JUMP JUMPDEST STOP JUMPDEST PUSH1 0x0 SWAP2 DUP3 CALLDATALOAD PUSH1 0xE0 SHR DUP1 PUSH4 0x2751CEC EQ PUSH2 0x1B37 JUMPI DUP1 PUSH4 0x54D50D4 EQ PUSH2 0x1B1B JUMPI DUP1 PUSH4 0x18CBAFE5 EQ PUSH2 0x1975 JUMPI DUP1 PUSH4 0x1F00CA74 EQ PUSH2 0x1937 JUMPI DUP1 PUSH4 0x38ED1739 EQ PUSH2 0xE55 JUMPI DUP1 PUSH4 0x4A25D94A EQ PUSH2 0x1739 JUMPI DUP1 PUSH4 0x5EBE30C7 EQ PUSH2 0x1522 JUMPI DUP1 PUSH4 0x6EDE1B87 EQ PUSH2 0x12ED JUMPI DUP1 PUSH4 0x715018A6 EQ PUSH2 0x1293 JUMPI DUP1 PUSH4 0x7ADBF973 EQ PUSH2 0x1253 JUMPI DUP1 PUSH4 0x7DC0D1D0 EQ PUSH2 0x122A JUMPI DUP1 PUSH4 0x7FF36AB5 EQ PUSH2 0xFC6 JUMPI DUP1 PUSH4 0x85F8C259 EQ PUSH2 0xFAA JUMPI DUP1 PUSH4 0x8803DBEE EQ PUSH2 0xEAD JUMPI DUP1 PUSH4 0x8DA5CB5B EQ PUSH2 0xE85 JUMPI DUP1 PUSH4 0x9E15703C EQ PUSH2 0xE55 JUMPI DUP1 PUSH4 0xAD5C4648 EQ PUSH2 0xE11 JUMPI DUP1 PUSH4 0xAD615DEC EQ PUSH2 0xDEE JUMPI DUP1 PUSH4 0xAF2979EB EQ PUSH2 0xB11 JUMPI DUP1 PUSH4 0xBAA2ABDE EQ PUSH2 0x92A JUMPI DUP1 PUSH4 0xC45A0155 EQ PUSH2 0x8E6 JUMPI DUP1 PUSH4 0xD06CA61F EQ PUSH2 0x89D JUMPI DUP1 PUSH4 0xE8E33700 EQ PUSH2 0x73F JUMPI DUP1 PUSH4 0xF2FDE38B EQ PUSH2 0x6AF JUMPI DUP1 PUSH4 0xF305D719 EQ PUSH2 0x474 JUMPI DUP1 PUSH4 0xFAA55B6D EQ PUSH2 0x3FF JUMPI PUSH4 0xFB3BDB41 EQ PUSH2 0x189 JUMPI POP PUSH2 0x10 JUMP JUMPDEST PUSH2 0x1A4 PUSH2 0x195 CALLDATASIZE PUSH2 0x2042 JUMP JUMPDEST SWAP5 SWAP1 SWAP2 SWAP5 SWAP4 SWAP3 SWAP4 TIMESTAMP GT ISZERO PUSH2 0x20D6 JUMP JUMPDEST DUP4 ISZERO PUSH2 0x3EC JUMPI PUSH2 0x1B3 DUP4 PUSH2 0x2479 JUMP JUMPDEST PUSH1 0x1 PUSH1 0x1 PUSH1 0xA0 SHL SUB PUSH32 0x0 DUP2 AND SWAP8 SWAP2 PUSH2 0x1EC SWAP2 AND DUP9 EQ PUSH2 0x27F1 JUMP JUMPDEST PUSH32 0x0 SWAP7 PUSH2 0x223 PUSH2 0x21C CALLDATASIZE DUP9 DUP9 PUSH2 0x1FA9 JUMP JUMPDEST DUP6 DUP11 PUSH2 0x3043 JUMP JUMPDEST SWAP8 PUSH2 0x239 PUSH2 0x230 DUP11 PUSH2 0x23C3 JUMP JUMPDEST MLOAD CALLVALUE LT ISZERO PUSH2 0x2796 JUMP JUMPDEST DUP10 PUSH2 0x243 DUP11 PUSH2 0x23C3 JUMP JUMPDEST MLOAD DUP4 EXTCODESIZE ISZERO PUSH2 0x3E8 JUMPI DUP2 DUP6 SWAP2 DUP12 MLOAD SWAP3 DUP4 DUP1 SWAP3 PUSH4 0xD0E30DB PUSH1 0xE4 SHL DUP3 MSTORE DUP9 GAS CALL DUP1 ISZERO PUSH2 0x3DE JUMPI PUSH2 0x3C6 JUMPI JUMPDEST POP POP PUSH2 0x277 DUP7 PUSH2 0x2479 JUMP JUMPDEST DUP8 PUSH1 0x1 LT ISZERO PUSH2 0x3B3 JUMPI SWAP2 PUSH2 0x29D PUSH2 0x2D9 SWAP5 SWAP3 PUSH1 0x20 SWAP5 PUSH2 0x297 DUP7 DUP12 ADD PUSH2 0x2479 JUMP JUMPDEST SWAP2 PUSH2 0x2EC6 JUMP JUMPDEST DUP12 PUSH2 0x2A7 DUP13 PUSH2 0x23C3 JUMP JUMPDEST MLOAD DUP12 MLOAD PUSH4 0xA9059CBB PUSH1 0xE0 SHL DUP2 MSTORE PUSH1 0x1 PUSH1 0x1 PUSH1 0xA0 SHL SUB SWAP1 SWAP4 AND SWAP5 DUP4 ADD SWAP5 DUP6 MSTORE PUSH1 0x20 DUP6 ADD MSTORE SWAP1 SWAP5 DUP6 SWAP4 DUP5 SWAP3 SWAP2 DUP4 SWAP2 PUSH1 0x40 ADD SWAP1 JUMP JUMPDEST SUB SWAP3 GAS CALL SWAP1 DUP2 ISZERO PUSH2 0x3A9 JUMPI PUSH2 0x349 SWAP3 PUSH2 0x312 PUSH1 0x0 DUP1 MLOAD PUSH1 0x20 PUSH2 0x33B6 DUP4 CODECOPY DUP2 MLOAD SWAP2 MSTORE SWAP8 SWAP7 SWAP6 SWAP4 PUSH2 0x323 SWAP4 PUSH2 0x356 SWAP13 SWAP2 PUSH2 0x37B JUMPI JUMPDEST POP PUSH2 0x20B9 JUMP JUMPDEST PUSH2 0x31D CALLDATASIZE DUP8 DUP8 PUSH2 0x1FA9 JUMP JUMPDEST DUP10 PUSH2 0x25DB JUMP JUMPDEST PUSH2 0x32C DUP8 PUSH2 0x23C3 JUMP JUMPDEST MLOAD CALLVALUE GT PUSH2 0x35A JUMPI JUMPDEST PUSH2 0x33D DUP8 PUSH2 0x23C3 JUMP JUMPDEST MLOAD DUP7 MLOAD SWAP5 DUP6 SWAP5 DUP6 PUSH2 0x248D JUMP JUMPDEST SUB SWAP1 LOG1 MLOAD SWAP2 DUP3 SWAP2 DUP3 PUSH2 0x1EBC JUMP JUMPDEST SUB SWAP1 RETURN JUMPDEST PUSH2 0x376 PUSH2 0x370 PUSH2 0x369 DUP10 PUSH2 0x23C3 JUMP JUMPDEST MLOAD CALLVALUE PUSH2 0x23A0 JUMP JUMPDEST CALLER PUSH2 0x332C JUMP JUMPDEST PUSH2 0x334 JUMP JUMPDEST PUSH2 0x39C SWAP2 POP PUSH1 0x20 RETURNDATASIZE DUP2 GT PUSH2 0x3A2 JUMPI JUMPDEST PUSH2 0x394 DUP2 DUP4 PUSH2 0x1F71 JUMP JUMPDEST DUP2 ADD SWAP1 PUSH2 0x2388 JUMP JUMPDEST CODESIZE PUSH2 0x30C JUMP JUMPDEST POP RETURNDATASIZE PUSH2 0x38A JUMP JUMPDEST DUP7 MLOAD RETURNDATASIZE DUP11 DUP3 RETURNDATACOPY RETURNDATASIZE SWAP1 REVERT JUMPDEST PUSH4 0x4E487B71 PUSH1 0xE0 SHL DUP12 MSTORE PUSH1 0x32 DUP5 MSTORE PUSH1 0x24 DUP12 REVERT JUMPDEST PUSH2 0x3CF SWAP1 PUSH2 0x1EF7 JUMP JUMPDEST PUSH2 0x3DA JUMPI DUP10 CODESIZE PUSH2 0x26C JUMP JUMPDEST DUP10 DUP1 REVERT JUMPDEST DUP11 MLOAD RETURNDATASIZE DUP5 DUP3 RETURNDATACOPY RETURNDATASIZE SWAP1 REVERT JUMPDEST POP DUP1 REVERT JUMPDEST PUSH4 0x4E487B71 PUSH1 0xE0 SHL DUP8 MSTORE PUSH1 0x32 DUP7 MSTORE PUSH1 0x24 DUP8 REVERT JUMPDEST DUP4 DUP3 CALLVALUE PUSH2 0x3E8 JUMPI PUSH1 0x60 CALLDATASIZE PUSH1 0x3 NOT ADD SLT PUSH2 0x3E8 JUMPI PUSH2 0x42B PUSH2 0x41D PUSH2 0x1DBA JUMP JUMPDEST PUSH2 0x425 PUSH2 0x1DA4 JUMP JUMPDEST SWAP1 PUSH2 0x2AAE JUMP JUMPDEST DUP2 MLOAD SWAP3 DUP4 SWAP3 PUSH1 0x20 DUP1 DUP1 DUP7 ADD SWAP3 DUP2 DUP8 MSTORE DUP6 MLOAD DUP1 SWAP5 MSTORE DUP7 ADD SWAP5 ADD SWAP3 JUMPDEST DUP3 DUP2 LT PUSH2 0x454 JUMPI POP POP POP POP SUB SWAP1 RETURN JUMPDEST DUP4 MLOAD PUSH1 0x1 PUSH1 0x1 PUSH1 0xA0 SHL SUB AND DUP6 MSTORE DUP7 SWAP6 POP SWAP4 DUP2 ADD SWAP4 SWAP3 DUP2 ADD SWAP3 PUSH1 0x1 ADD PUSH2 0x445 JUMP JUMPDEST POP PUSH2 0x4C2 SWAP3 PUSH2 0x497 SWAP2 PUSH2 0x486 CALLDATASIZE PUSH2 0x1DE4 JUMP JUMPDEST SWAP10 SWAP4 SWAP8 SWAP1 SWAP5 SWAP10 SWAP3 SWAP2 SWAP3 TIMESTAMP GT ISZERO PUSH2 0x20D6 JUMP JUMPDEST PUSH32 0x0 SWAP7 CALLVALUE SWAP1 DUP9 DUP12 PUSH2 0x21F5 JUMP JUMPDEST SWAP7 SWAP1 SWAP6 PUSH2 0x4F0 DUP7 DUP4 PUSH32 0x0 PUSH2 0x2EC6 JUMP JUMPDEST SWAP3 PUSH2 0x4FD DUP9 DUP6 CALLER DUP7 PUSH2 0x3237 JUMP JUMPDEST PUSH1 0x1 PUSH1 0x1 PUSH1 0xA0 SHL SUB SWAP7 DUP8 AND SWAP4 DUP5 EXTCODESIZE ISZERO PUSH2 0x6A1 JUMPI DUP6 MLOAD PUSH4 0xD0E30DB PUSH1 0xE4 SHL DUP2 MSTORE DUP8 DUP2 DUP6 DUP2 DUP15 DUP11 GAS CALL DUP1 ISZERO PUSH2 0x6A5 JUMPI SWAP1 DUP9 SWAP2 PUSH2 0x68D JUMPI JUMPDEST POP POP DUP6 MLOAD PUSH4 0xA9059CBB PUSH1 0xE0 SHL DUP2 MSTORE PUSH1 0x1 PUSH1 0x1 PUSH1 0xA0 SHL SUB DUP3 AND DUP5 DUP3 ADD SWAP1 DUP2 MSTORE PUSH1 0x20 DUP2 DUP2 ADD DUP14 SWAP1 MSTORE SWAP4 SWAP3 SWAP2 SWAP1 DUP5 SWAP1 DUP3 SWAP1 DUP2 SWAP1 PUSH1 0x40 ADD SUB DUP2 DUP13 DUP12 GAS CALL SWAP1 DUP2 ISZERO PUSH2 0x683 JUMPI SWAP3 DUP10 DUP12 DUP1 SWAP5 PUSH2 0x58B PUSH1 0x24 SWAP6 DUP10 SWAP9 DUP6 SWAP2 PUSH2 0x66C JUMPI POP PUSH2 0x20B9 JUMP JUMPDEST DUP12 MLOAD SWAP9 DUP10 SWAP7 DUP8 SWAP6 PUSH4 0x35313C21 PUSH1 0xE1 SHL DUP8 MSTORE AND SWAP1 DUP6 ADD MSTORE AND GAS CALL SWAP6 DUP7 ISZERO PUSH2 0x661 JUMPI SWAP6 PUSH2 0x61A JUMPI JUMPDEST POP POP PUSH1 0x0 DUP1 MLOAD PUSH1 0x20 PUSH2 0x33D6 DUP4 CODECOPY DUP2 MLOAD SWAP2 MSTORE PUSH2 0x356 SWAP6 DUP9 CALLVALUE GT PUSH2 0x608 JUMPI JUMPDEST DUP5 MLOAD DUP9 DUP2 MSTORE PUSH1 0x20 DUP2 ADD DUP11 SWAP1 MSTORE PUSH1 0x40 DUP2 ADD DUP8 SWAP1 MSTORE SWAP3 AND SWAP2 DUP1 PUSH1 0x60 DUP2 ADD JUMPDEST SUB SWAP1 LOG3 MLOAD SWAP4 DUP5 SWAP4 DUP5 PUSH1 0x40 SWAP2 SWAP5 SWAP4 SWAP3 PUSH1 0x60 DUP3 ADD SWAP6 DUP3 MSTORE PUSH1 0x20 DUP3 ADD MSTORE ADD MSTORE JUMP JUMPDEST PUSH2 0x615 PUSH2 0x370 DUP11 CALLVALUE PUSH2 0x23A0 JUMP JUMPDEST PUSH2 0x5CE JUMP JUMPDEST SWAP1 DUP1 SWAP7 SWAP6 POP DUP2 RETURNDATASIZE DUP4 GT PUSH2 0x65A JUMPI JUMPDEST PUSH2 0x632 DUP2 DUP4 PUSH2 0x1F71 JUMP JUMPDEST DUP2 ADD SUB SLT PUSH2 0x655 JUMPI PUSH1 0x0 DUP1 MLOAD PUSH1 0x20 PUSH2 0x33D6 DUP4 CODECOPY DUP2 MLOAD SWAP2 MSTORE PUSH2 0x356 SWAP6 MLOAD SWAP5 SWAP6 PUSH2 0x5B1 JUMP JUMPDEST PUSH1 0x0 DUP1 REVERT JUMPDEST POP RETURNDATASIZE PUSH2 0x628 JUMP JUMPDEST DUP6 MLOAD SWAP1 RETURNDATASIZE SWAP1 DUP3 RETURNDATACOPY RETURNDATASIZE SWAP1 REVERT JUMPDEST PUSH2 0x39C SWAP2 POP DUP10 RETURNDATASIZE DUP12 GT PUSH2 0x3A2 JUMPI PUSH2 0x394 DUP2 DUP4 PUSH2 0x1F71 JUMP JUMPDEST DUP9 MLOAD RETURNDATASIZE DUP12 DUP3 RETURNDATACOPY RETURNDATASIZE SWAP1 REVERT JUMPDEST PUSH2 0x696 SWAP1 PUSH2 0x1EF7 JUMP JUMPDEST PUSH2 0x6A1 JUMPI DUP7 CODESIZE PUSH2 0x532 JUMP JUMPDEST DUP7 DUP1 REVERT JUMPDEST DUP8 MLOAD RETURNDATASIZE DUP11 DUP3 RETURNDATACOPY RETURNDATASIZE SWAP1 REVERT JUMPDEST POP SWAP1 CALLVALUE PUSH2 0x73B JUMPI PUSH1 0x20 CALLDATASIZE PUSH1 0x3 NOT ADD SLT PUSH2 0x73B JUMPI PUSH2 0x6CA PUSH2 0x1DBA JUMP JUMPDEST SWAP1 PUSH2 0x6D3 PUSH2 0x208D JUMP JUMPDEST PUSH1 0x1 PUSH1 0x1 PUSH1 0xA0 SHL SUB SWAP2 DUP3 AND SWAP3 DUP4 ISZERO PUSH2 0x725 JUMPI POP POP PUSH1 0x0 SLOAD DUP3 PUSH1 0x1 PUSH1 0x1 PUSH1 0x60 SHL SUB PUSH1 0xA0 SHL DUP3 AND OR PUSH1 0x0 SSTORE AND PUSH32 0x8BE0079C531659141344CD1FD0A4F28419497F9722A3DAAFE3B4186F6B6457E0 PUSH1 0x0 DUP1 LOG3 DUP1 RETURN JUMPDEST MLOAD PUSH4 0x1E4FBDF7 PUSH1 0xE0 SHL DUP2 MSTORE SWAP1 DUP2 ADD DUP5 SWAP1 MSTORE PUSH1 0x24 SWAP1 REVERT JUMPDEST DUP3 DUP1 REVERT JUMPDEST POP DUP3 SWAP1 CALLVALUE PUSH2 0x3E8 JUMPI PUSH2 0x100 CALLDATASIZE PUSH1 0x3 NOT ADD SLT PUSH2 0x3E8 JUMPI PUSH2 0x75C PUSH2 0x1DBA JUMP JUMPDEST SWAP2 PUSH2 0x765 PUSH2 0x1DA4 JUMP JUMPDEST PUSH1 0x1 PUSH1 0x1 PUSH1 0xA0 SHL SUB PUSH1 0xC4 CALLDATALOAD DUP2 DUP2 AND SWAP6 SWAP2 SWAP5 SWAP3 SWAP1 DUP7 SWAP1 SUB PUSH2 0x655 JUMPI PUSH1 0x20 SWAP7 PUSH2 0x790 TIMESTAMP PUSH1 0xE4 CALLDATALOAD LT ISZERO PUSH2 0x20D6 JUMP JUMPDEST PUSH2 0x7A6 PUSH1 0xA4 CALLDATALOAD PUSH1 0x84 CALLDATALOAD PUSH1 0x64 CALLDATALOAD PUSH1 0x44 CALLDATALOAD DUP7 DUP9 PUSH2 0x21F5 JUMP JUMPDEST SWAP9 SWAP1 SWAP8 PUSH1 0x24 PUSH2 0x7D6 DUP6 DUP8 PUSH32 0x0 PUSH2 0x2EC6 JUMP JUMPDEST SWAP4 PUSH2 0x7E3 DUP12 DUP7 CALLER DUP11 PUSH2 0x3237 JUMP JUMPDEST PUSH2 0x7EF DUP13 DUP7 CALLER DUP10 PUSH2 0x3237 JUMP JUMPDEST DUP9 DUP11 DUP10 MLOAD SWAP7 DUP8 SWAP6 DUP7 SWAP5 PUSH4 0x35313C21 PUSH1 0xE1 SHL DUP7 MSTORE DUP6 ADD MSTORE AND GAS CALL SWAP5 DUP6 ISZERO PUSH2 0x892 JUMPI SWAP5 PUSH2 0x84F JUMPI JUMPDEST POP PUSH1 0x0 DUP1 MLOAD PUSH1 0x20 PUSH2 0x33D6 DUP4 CODECOPY DUP2 MLOAD SWAP2 MSTORE DUP6 PUSH2 0x356 SWAP7 DUP6 MLOAD SWAP4 AND SWAP4 AND SWAP2 DUP1 PUSH2 0x5EA DUP8 DUP12 DUP12 DUP5 PUSH1 0x40 SWAP2 SWAP5 SWAP4 SWAP3 PUSH1 0x60 DUP3 ADD SWAP6 DUP3 MSTORE PUSH1 0x20 DUP3 ADD MSTORE ADD MSTORE JUMP JUMPDEST SWAP5 SWAP4 POP PUSH1 0x20 DUP6 RETURNDATASIZE DUP3 GT PUSH2 0x88A JUMPI JUMPDEST DUP2 PUSH2 0x86A PUSH1 0x20 SWAP4 DUP4 PUSH2 0x1F71 JUMP JUMPDEST DUP2 ADD SUB SLT PUSH2 0x655 JUMPI SWAP4 MLOAD SWAP3 SWAP4 PUSH1 0x0 DUP1 MLOAD PUSH1 0x20 PUSH2 0x33D6 DUP4 CODECOPY DUP2 MLOAD SWAP2 MSTORE PUSH2 0x815 JUMP JUMPDEST RETURNDATASIZE SWAP2 POP PUSH2 0x85D JUMP JUMPDEST DUP5 MLOAD SWAP1 RETURNDATASIZE SWAP1 DUP3 RETURNDATACOPY RETURNDATASIZE SWAP1 REVERT JUMPDEST DUP4 DUP3 CALLVALUE PUSH2 0x3E8 JUMPI PUSH2 0x356 SWAP1 PUSH2 0x8DB PUSH2 0x8B4 CALLDATASIZE PUSH2 0x1FFF JUMP JUMPDEST SWAP1 PUSH32 0x0 PUSH2 0x2F99 JUMP JUMPDEST SWAP1 MLOAD SWAP2 DUP3 SWAP2 DUP3 PUSH2 0x1EBC JUMP JUMPDEST DUP4 DUP3 CALLVALUE PUSH2 0x3E8 JUMPI DUP2 PUSH1 0x3 NOT CALLDATASIZE ADD SLT PUSH2 0x3E8 JUMPI MLOAD PUSH32 0x0 PUSH1 0x1 PUSH1 0x1 PUSH1 0xA0 SHL SUB AND DUP2 MSTORE PUSH1 0x20 SWAP1 RETURN JUMPDEST POP SWAP2 CALLVALUE PUSH2 0xB0E JUMPI PUSH1 0xE0 CALLDATASIZE PUSH1 0x3 NOT ADD SLT PUSH2 0xB0E JUMPI PUSH2 0x945 PUSH2 0x1DBA JUMP JUMPDEST SWAP2 PUSH2 0x94E PUSH2 0x1DA4 JUMP JUMPDEST SWAP2 PUSH1 0x44 CALLDATALOAD SWAP2 PUSH1 0x1 PUSH1 0x1 PUSH1 0xA0 SHL SUB SWAP1 PUSH1 0xA4 CALLDATALOAD DUP3 DUP2 AND SWAP1 DUP2 SWAP1 SUB PUSH2 0x655 JUMPI PUSH2 0x978 TIMESTAMP PUSH1 0xC4 CALLDATALOAD LT ISZERO PUSH2 0x20D6 JUMP JUMPDEST PUSH2 0x9A3 DUP7 DUP9 PUSH32 0x0 PUSH2 0x2EC6 JUMP JUMPDEST DUP9 MLOAD PUSH4 0x23B872DD PUSH1 0xE0 SHL DUP2 MSTORE CALLER DUP2 DUP6 ADD SWAP1 DUP2 MSTORE PUSH1 0x1 PUSH1 0x1 PUSH1 0xA0 SHL SUB DUP4 AND PUSH1 0x20 DUP3 DUP2 ADD SWAP2 SWAP1 SWAP2 MSTORE PUSH1 0x40 DUP3 ADD DUP10 SWAP1 MSTORE SWAP3 DUP7 AND SWAP5 SWAP3 SWAP1 DUP3 SWAP1 DUP2 SWAP1 PUSH1 0x60 ADD SUB DUP2 DUP10 DUP9 GAS CALL DUP1 ISZERO PUSH2 0xB04 JUMPI SWAP2 PUSH1 0x24 SWAP2 DUP12 SWAP5 SWAP4 PUSH2 0xAE6 JUMPI JUMPDEST POP DUP7 DUP5 MLOAD SWAP6 DUP7 SWAP5 DUP6 SWAP4 PUSH4 0x226BF2D1 PUSH1 0xE2 SHL DUP6 MSTORE DUP5 ADD MSTORE GAS CALL SWAP6 DUP7 ISZERO PUSH2 0xADC JUMPI DUP4 SWAP2 DUP5 SWAP8 PUSH2 0xAA4 JUMPI JUMPDEST POP DUP1 DUP4 PUSH2 0xA2B DUP9 DUP3 SWAP5 PUSH2 0x2E01 JUMP JUMPDEST POP SWAP2 AND SWAP5 POP AND DUP4 SUB PUSH2 0xA8D JUMPI SWAP1 PUSH1 0x0 DUP1 MLOAD PUSH1 0x20 PUSH2 0x33F6 DUP4 CODECOPY DUP2 MLOAD SWAP2 MSTORE SWAP2 SWAP6 SWAP5 JUMPDEST PUSH2 0xA59 PUSH1 0x64 CALLDATALOAD DUP9 LT ISZERO PUSH2 0x2141 JUMP JUMPDEST PUSH2 0xA67 PUSH1 0x84 CALLDATALOAD DUP8 LT ISZERO PUSH2 0x219B JUMP JUMPDEST DUP8 MLOAD DUP8 DUP2 MSTORE PUSH1 0x20 DUP2 ADD DUP8 SWAP1 MSTORE PUSH1 0x40 DUP2 ADD SWAP6 SWAP1 SWAP6 MSTORE AND SWAP3 PUSH1 0x60 SWAP1 LOG3 DUP3 MLOAD SWAP2 DUP3 MSTORE PUSH1 0x20 DUP3 ADD MSTORE RETURN JUMPDEST SWAP4 PUSH1 0x0 DUP1 MLOAD PUSH1 0x20 PUSH2 0x33F6 DUP4 CODECOPY DUP2 MLOAD SWAP2 MSTORE SWAP2 SWAP1 PUSH2 0xA4B JUMP JUMPDEST DUP9 DUP1 SWAP3 SWAP9 POP DUP2 SWAP4 POP RETURNDATASIZE DUP4 GT PUSH2 0xAD5 JUMPI JUMPDEST PUSH2 0xABE DUP2 DUP4 PUSH2 0x1F71 JUMP JUMPDEST DUP2 ADD SUB SLT PUSH2 0x73B JUMPI DUP2 PUSH1 0x20 DUP3 MLOAD SWAP3 ADD MLOAD SWAP7 SWAP1 PUSH2 0xA1D JUMP JUMPDEST POP RETURNDATASIZE PUSH2 0xAB4 JUMP JUMPDEST DUP8 MLOAD RETURNDATASIZE DUP6 DUP3 RETURNDATACOPY RETURNDATASIZE SWAP1 REVERT JUMPDEST PUSH2 0xAFD SWAP1 PUSH1 0x20 RETURNDATASIZE DUP2 GT PUSH2 0x3A2 JUMPI PUSH2 0x394 DUP2 DUP4 PUSH2 0x1F71 JUMP JUMPDEST POP CODESIZE PUSH2 0x9F5 JUMP JUMPDEST DUP11 MLOAD RETURNDATASIZE DUP9 DUP3 RETURNDATACOPY RETURNDATASIZE SWAP1 REVERT JUMPDEST DUP1 REVERT JUMPDEST POP CALLVALUE PUSH2 0x73B JUMPI PUSH2 0xB20 CALLDATASIZE PUSH2 0x1DE4 JUMP JUMPDEST SWAP8 SWAP4 SWAP3 SWAP7 SWAP2 SWAP8 SWAP5 SWAP1 SWAP5 TIMESTAMP GT ISZERO SWAP1 PUSH2 0xB36 DUP3 PUSH2 0x20D6 JUMP JUMPDEST PUSH32 0x0 SWAP2 PUSH2 0xB61 SWAP1 PUSH2 0x20D6 JUMP JUMPDEST PUSH2 0xB8C DUP3 DUP3 PUSH32 0x0 PUSH2 0x2EC6 JUMP JUMPDEST DUP8 MLOAD PUSH4 0x23B872DD PUSH1 0xE0 SHL DUP2 MSTORE CALLER DUP6 DUP3 ADD SWAP1 DUP2 MSTORE PUSH1 0x1 PUSH1 0x1 PUSH1 0xA0 SHL SUB SWAP3 DUP4 AND PUSH1 0x20 DUP3 DUP2 ADD DUP3 SWAP1 MSTORE PUSH1 0x40 DUP4 ADD DUP10 SWAP1 MSTORE SWAP13 SWAP4 SWAP3 SWAP1 SWAP2 DUP14 SWAP1 DUP3 SWAP1 DUP2 SWAP1 PUSH1 0x60 ADD SUB DUP2 DUP13 DUP7 GAS CALL DUP1 ISZERO PUSH2 0xDE4 JUMPI SWAP2 DUP14 DUP13 SWAP3 DUP12 SWAP7 SWAP6 SWAP5 PUSH2 0xDC6 JUMPI JUMPDEST POP POP PUSH1 0x24 DUP3 MLOAD DUP1 SWAP7 DUP2 SWAP4 PUSH4 0x226BF2D1 PUSH1 0xE2 SHL DUP4 MSTORE ADDRESS DUP13 DUP5 ADD MSTORE GAS CALL DUP1 ISZERO PUSH2 0xDBC JUMPI DUP13 SWAP4 SWAP3 DUP12 SWAP3 DUP11 SWAP3 DUP4 SWAP6 DUP5 SWAP2 PUSH2 0xD7A JUMPI JUMPDEST POP PUSH2 0xC1C DUP10 DUP10 PUSH2 0x2E01 JUMP JUMPDEST POP DUP9 DUP4 AND SWAP7 DUP8 SWAP6 POP SWAP1 DUP4 AND DUP6 SUB PUSH2 0xD55 JUMPI SWAP1 SWAP15 DUP16 SWAP3 PUSH1 0x24 SWAP11 PUSH2 0xC5F PUSH1 0x0 DUP1 MLOAD PUSH1 0x20 PUSH2 0x33F6 DUP4 CODECOPY DUP2 MLOAD SWAP2 MSTORE SWAP7 PUSH2 0xC57 PUSH2 0xC7E SWAP6 JUMPDEST DUP8 LT ISZERO PUSH2 0x2141 JUMP JUMPDEST DUP7 LT ISZERO PUSH2 0x219B JUMP JUMPDEST AND SWAP12 DUP13 SWAP7 MLOAD SWAP4 DUP5 SWAP4 DUP5 PUSH1 0x40 SWAP2 SWAP5 SWAP4 SWAP3 PUSH1 0x60 DUP3 ADD SWAP6 DUP3 MSTORE PUSH1 0x20 DUP3 ADD MSTORE ADD MSTORE JUMP JUMPDEST SUB SWAP1 LOG3 DUP9 MLOAD PUSH4 0x70A08231 PUSH1 0xE0 SHL DUP2 MSTORE ADDRESS DUP7 DUP3 ADD MSTORE SWAP4 DUP5 SWAP2 DUP3 SWAP1 GAS STATICCALL SWAP1 DUP2 ISZERO PUSH2 0xD4B JUMPI DUP7 SWAP1 DUP7 SWAP3 PUSH2 0xD18 JUMPI JUMPDEST PUSH2 0xCB3 SWAP4 POP PUSH2 0x314A JUMP JUMPDEST DUP2 EXTCODESIZE ISZERO PUSH2 0x73B JUMPI DUP6 PUSH1 0x24 DUP5 SWAP3 DUP4 DUP9 MLOAD SWAP6 DUP7 SWAP5 DUP6 SWAP4 PUSH4 0x2E1A7D4D PUSH1 0xE0 SHL DUP6 MSTORE DUP5 ADD MSTORE GAS CALL DUP1 ISZERO PUSH2 0xD0E JUMPI SWAP1 DUP6 SWAP3 SWAP2 PUSH2 0xCF6 JUMPI JUMPDEST POP POP PUSH2 0xCF0 SWAP2 PUSH2 0x332C JUMP JUMPDEST MLOAD SWAP1 DUP2 MSTORE RETURN JUMPDEST DUP2 SWAP3 POP PUSH2 0xD02 SWAP1 PUSH2 0x1EF7 JUMP JUMPDEST PUSH2 0xB0E JUMPI DUP1 DUP5 SWAP2 PUSH2 0xCE5 JUMP JUMPDEST DUP5 MLOAD RETURNDATASIZE DUP5 DUP3 RETURNDATACOPY RETURNDATASIZE SWAP1 REVERT JUMPDEST SWAP2 POP POP DUP9 DUP3 DUP2 RETURNDATASIZE DUP4 GT PUSH2 0xD44 JUMPI JUMPDEST PUSH2 0xD30 DUP2 DUP4 PUSH2 0x1F71 JUMP JUMPDEST DUP2 ADD SUB SLT PUSH2 0x655 JUMPI DUP6 PUSH2 0xCB3 SWAP3 MLOAD SWAP2 PUSH2 0xCA9 JUMP JUMPDEST POP RETURNDATASIZE PUSH2 0xD26 JUMP JUMPDEST DUP8 MLOAD RETURNDATASIZE DUP8 DUP3 RETURNDATACOPY RETURNDATASIZE SWAP1 REVERT JUMPDEST SWAP15 DUP16 SWAP3 PUSH1 0x24 SWAP11 PUSH2 0xC5F PUSH1 0x0 DUP1 MLOAD PUSH1 0x20 PUSH2 0x33F6 DUP4 CODECOPY DUP2 MLOAD SWAP2 MSTORE SWAP7 PUSH2 0xC57 PUSH2 0xC7E SWAP6 PUSH2 0xC4F JUMP JUMPDEST SWAP7 POP POP SWAP3 DUP6 SWAP2 SWAP5 POP DUP1 SWAP3 POP RETURNDATASIZE DUP4 GT PUSH2 0xDB5 JUMPI JUMPDEST PUSH2 0xD97 DUP2 DUP4 PUSH2 0x1F71 JUMP JUMPDEST DUP2 ADD SUB SLT PUSH2 0xDB1 JUMPI DUP8 DUP4 SWAP3 DUP12 SWAP3 DUP15 DUP1 SWAP7 MLOAD SWAP6 ADD MLOAD CODESIZE PUSH2 0xC11 JUMP JUMPDEST DUP8 DUP1 REVERT JUMPDEST POP RETURNDATASIZE PUSH2 0xD8D JUMP JUMPDEST DUP11 MLOAD RETURNDATASIZE DUP11 DUP3 RETURNDATACOPY RETURNDATASIZE SWAP1 REVERT JUMPDEST DUP2 PUSH2 0xDDC SWAP3 SWAP1 RETURNDATASIZE LT PUSH2 0x3A2 JUMPI PUSH2 0x394 DUP2 DUP4 PUSH2 0x1F71 JUMP JUMPDEST POP DUP14 CODESIZE PUSH2 0xBE0 JUMP JUMPDEST DUP12 MLOAD RETURNDATASIZE DUP12 DUP3 RETURNDATACOPY RETURNDATASIZE SWAP1 REVERT JUMPDEST DUP4 DUP3 CALLVALUE PUSH2 0x3E8 JUMPI PUSH1 0x20 SWAP1 PUSH2 0xE0A PUSH2 0xE04 CALLDATASIZE PUSH2 0x1E24 JUMP JUMPDEST SWAP2 PUSH2 0x2900 JUMP JUMPDEST SWAP1 MLOAD SWAP1 DUP2 MSTORE RETURN JUMPDEST DUP4 DUP3 CALLVALUE PUSH2 0x3E8 JUMPI DUP2 PUSH1 0x3 NOT CALLDATASIZE ADD SLT PUSH2 0x3E8 JUMPI MLOAD PUSH32 0x0 PUSH1 0x1 PUSH1 0x1 PUSH1 0xA0 SHL SUB AND DUP2 MSTORE PUSH1 0x20 SWAP1 RETURN JUMPDEST DUP4 DUP3 CALLVALUE PUSH2 0x3E8 JUMPI PUSH2 0x356 SWAP1 PUSH2 0x8DB PUSH2 0xE80 PUSH2 0xE6F CALLDATASIZE PUSH2 0x1E6E JUMP JUMPDEST SWAP6 SWAP1 SWAP6 SWAP5 SWAP2 SWAP5 SWAP4 SWAP3 SWAP4 TIMESTAMP GT ISZERO PUSH2 0x20D6 JUMP JUMPDEST PUSH2 0x24E8 JUMP JUMPDEST DUP4 DUP3 CALLVALUE PUSH2 0x3E8 JUMPI DUP2 PUSH1 0x3 NOT CALLDATASIZE ADD SLT PUSH2 0x3E8 JUMPI SWAP1 SLOAD SWAP1 MLOAD PUSH1 0x1 PUSH1 0x1 PUSH1 0xA0 SHL SUB SWAP1 SWAP2 AND DUP2 MSTORE PUSH1 0x20 SWAP1 RETURN JUMPDEST POP DUP3 SWAP1 CALLVALUE PUSH2 0x3E8 JUMPI PUSH2 0xED1 PUSH2 0xEC1 CALLDATASIZE PUSH2 0x1E6E JUMP JUMPDEST SWAP8 SWAP2 SWAP6 SWAP1 SWAP3 SWAP5 SWAP4 SWAP8 TIMESTAMP GT ISZERO PUSH2 0x20D6 JUMP JUMPDEST PUSH32 0x0 PUSH2 0xF1C PUSH2 0xF0A PUSH2 0xF03 CALLDATASIZE DUP10 DUP10 PUSH2 0x1FA9 JUMP JUMPDEST DUP7 DUP5 PUSH2 0x3043 JUMP JUMPDEST SWAP9 PUSH2 0xF14 DUP11 PUSH2 0x23C3 JUMP JUMPDEST MLOAD GT ISZERO PUSH2 0x2796 JUMP JUMPDEST DUP6 ISZERO PUSH2 0xF97 JUMPI PUSH2 0xF2B DUP6 PUSH2 0x2479 JUMP JUMPDEST SWAP2 PUSH2 0xF35 DUP7 PUSH2 0x2479 JUMP JUMPDEST SWAP1 DUP8 PUSH1 0x1 LT ISZERO PUSH2 0xF84 JUMPI PUSH2 0x356 DUP11 DUP11 PUSH1 0x0 DUP1 MLOAD PUSH1 0x20 PUSH2 0x33B6 DUP4 CODECOPY DUP2 MLOAD SWAP2 MSTORE DUP12 DUP12 PUSH2 0x349 DUP13 PUSH2 0x334 DUP14 PUSH2 0x312 DUP15 PUSH2 0xF72 DUP16 DUP16 PUSH2 0x297 PUSH1 0x20 DUP12 ADD PUSH2 0x2479 JUMP JUMPDEST PUSH2 0xF7B DUP13 PUSH2 0x23C3 JUMP JUMPDEST MLOAD SWAP2 CALLER SWAP1 PUSH2 0x3237 JUMP JUMPDEST PUSH4 0x4E487B71 PUSH1 0xE0 SHL DUP2 MSTORE PUSH1 0x32 DUP12 MSTORE PUSH1 0x24 SWAP1 REVERT JUMPDEST PUSH4 0x4E487B71 PUSH1 0xE0 SHL DUP3 MSTORE PUSH1 0x32 DUP10 MSTORE PUSH1 0x24 DUP3 REVERT JUMPDEST DUP4 DUP3 CALLVALUE PUSH2 0x3E8 JUMPI PUSH1 0x20 SWAP1 PUSH2 0xE0A PUSH2 0xFC0 CALLDATASIZE PUSH2 0x1E24 JUMP JUMPDEST SWAP2 PUSH2 0x2A39 JUMP JUMPDEST POP DUP3 SWAP1 PUSH2 0xFE4 PUSH2 0xFD5 CALLDATASIZE PUSH2 0x2042 JUMP JUMPDEST SWAP7 SWAP2 SWAP4 SWAP3 SWAP5 SWAP1 SWAP7 TIMESTAMP GT ISZERO PUSH2 0x20D6 JUMP JUMPDEST DUP3 ISZERO PUSH2 0x1217 JUMPI PUSH2 0xFF3 DUP5 PUSH2 0x2479 JUMP JUMPDEST PUSH1 0x1 PUSH1 0x1 PUSH1 0xA0 SHL SUB PUSH32 0x0 DUP2 AND SWAP8 SWAP2 PUSH2 0x102C SWAP2 AND DUP9 EQ PUSH2 0x27F1 JUMP JUMPDEST PUSH32 0x0 SWAP7 PUSH2 0x1063 PUSH2 0x105C CALLDATASIZE DUP8 DUP10 PUSH2 0x1FA9 JUMP JUMPDEST CALLVALUE DUP11 PUSH2 0x2F99 JUMP JUMPDEST SWAP8 DUP9 MLOAD SWAP5 PUSH1 0x0 NOT SWAP6 DUP7 DUP2 ADD SWAP1 DUP2 GT PUSH2 0x1204 JUMPI SWAP1 PUSH2 0x1083 PUSH2 0x108B SWAP3 DUP13 PUSH2 0x23F6 JUMP JUMPDEST MLOAD LT ISZERO PUSH2 0x240A JUMP JUMPDEST PUSH2 0x1094 DUP10 PUSH2 0x23C3 JUMP JUMPDEST MLOAD DUP3 EXTCODESIZE ISZERO PUSH2 0x1200 JUMPI DUP5 DUP12 SWAP2 DUP11 MLOAD SWAP3 DUP4 DUP1 SWAP3 PUSH4 0xD0E30DB PUSH1 0xE4 SHL DUP3 MSTORE DUP8 GAS CALL DUP1 ISZERO PUSH2 0x11F6 JUMPI SWAP1 DUP6 SWAP2 PUSH2 0x11DE JUMPI JUMPDEST POP POP PUSH2 0x10CB DUP8 PUSH2 0x2479 JUMP JUMPDEST DUP7 PUSH1 0x1 LT ISZERO PUSH2 0x11CB JUMPI SWAP2 PUSH2 0x10EA PUSH1 0x20 SWAP3 PUSH2 0x112C SWAP5 PUSH2 0x297 DUP6 DUP13 ADD PUSH2 0x2479 JUMP JUMPDEST SWAP1 PUSH2 0x10F4 DUP12 PUSH2 0x23C3 JUMP JUMPDEST MLOAD DUP11 MLOAD PUSH4 0xA9059CBB PUSH1 0xE0 SHL DUP2 MSTORE PUSH1 0x1 PUSH1 0x1 PUSH1 0xA0 SHL SUB SWAP1 SWAP4 AND DUP4 DUP15 ADD SWAP1 DUP2 MSTORE PUSH1 0x20 DUP2 ADD SWAP2 SWAP1 SWAP2 MSTORE SWAP2 SWAP4 DUP5 SWAP3 DUP4 SWAP2 DUP9 SWAP2 DUP4 SWAP2 PUSH1 0x40 SWAP1 SWAP2 ADD SWAP1 JUMP JUMPDEST SUB SWAP3 GAS CALL SWAP1 DUP2 ISZERO PUSH2 0xADC JUMPI PUSH2 0x115D SWAP3 SWAP2 PUSH2 0x114C SWAP2 DUP6 SWAP2 PUSH2 0x11AD JUMPI POP PUSH2 0x20B9 JUMP JUMPDEST PUSH2 0x1157 CALLDATASIZE DUP7 DUP9 PUSH2 0x1FA9 JUMP JUMPDEST DUP9 PUSH2 0x25DB JUMP JUMPDEST DUP6 MLOAD SWAP2 DUP3 ADD SWAP2 DUP3 GT PUSH2 0x119A JUMPI PUSH2 0x356 DUP7 DUP7 PUSH1 0x0 DUP1 MLOAD PUSH1 0x20 PUSH2 0x33B6 DUP4 CODECOPY DUP2 MLOAD SWAP2 MSTORE DUP8 DUP8 PUSH2 0x349 PUSH2 0x118C DUP10 DUP8 PUSH2 0x23F6 JUMP JUMPDEST MLOAD DUP6 MLOAD SWAP4 DUP5 SWAP4 CALLVALUE SWAP2 DUP6 PUSH2 0x248D JUMP JUMPDEST PUSH4 0x4E487B71 PUSH1 0xE0 SHL DUP2 MSTORE PUSH1 0x11 DUP8 MSTORE PUSH1 0x24 SWAP1 REVERT JUMPDEST PUSH2 0x11C5 SWAP2 POP PUSH1 0x20 RETURNDATASIZE DUP2 GT PUSH2 0x3A2 JUMPI PUSH2 0x394 DUP2 DUP4 PUSH2 0x1F71 JUMP JUMPDEST DUP12 PUSH2 0x30C JUMP JUMPDEST PUSH4 0x4E487B71 PUSH1 0xE0 SHL DUP6 MSTORE PUSH1 0x32 DUP12 MSTORE PUSH1 0x24 DUP6 REVERT JUMPDEST PUSH2 0x11E7 SWAP1 PUSH2 0x1EF7 JUMP JUMPDEST PUSH2 0x11F2 JUMPI DUP4 DUP12 PUSH2 0x10C0 JUMP JUMPDEST DUP4 DUP1 REVERT JUMPDEST DUP10 MLOAD RETURNDATASIZE DUP8 DUP3 RETURNDATACOPY RETURNDATASIZE SWAP1 REVERT JUMPDEST DUP5 DUP1 REVERT JUMPDEST PUSH4 0x4E487B71 PUSH1 0xE0 SHL DUP7 MSTORE PUSH1 0x11 DUP13 MSTORE PUSH1 0x24 DUP7 REVERT JUMPDEST PUSH4 0x4E487B71 PUSH1 0xE0 SHL DUP2 MSTORE PUSH1 0x32 DUP8 MSTORE PUSH1 0x24 SWAP1 REVERT JUMPDEST DUP4 DUP3 CALLVALUE PUSH2 0x3E8 JUMPI DUP2 PUSH1 0x3 NOT CALLDATASIZE ADD SLT PUSH2 0x3E8 JUMPI PUSH1 0x2 SLOAD SWAP1 MLOAD PUSH1 0x1 PUSH1 0x1 PUSH1 0xA0 SHL SUB SWAP1 SWAP2 AND DUP2 MSTORE PUSH1 0x20 SWAP1 RETURN JUMPDEST DUP4 CALLVALUE PUSH2 0xB0E JUMPI PUSH1 0x20 CALLDATASIZE PUSH1 0x3 NOT ADD SLT PUSH2 0xB0E JUMPI PUSH2 0x126D PUSH2 0x1DBA JUMP JUMPDEST PUSH2 0x1275 PUSH2 0x208D JUMP JUMPDEST PUSH1 0x1 DUP1 PUSH1 0xA0 SHL SUB AND PUSH1 0x1 PUSH1 0x1 PUSH1 0x60 SHL SUB PUSH1 0xA0 SHL PUSH1 0x2 SLOAD AND OR PUSH1 0x2 SSTORE DUP1 RETURN JUMPDEST DUP4 CALLVALUE PUSH2 0xB0E JUMPI DUP1 PUSH1 0x3 NOT CALLDATASIZE ADD SLT PUSH2 0xB0E JUMPI PUSH2 0x12AC PUSH2 0x208D JUMP JUMPDEST PUSH1 0x0 DUP1 SLOAD PUSH1 0x1 PUSH1 0x1 PUSH1 0xA0 SHL SUB NOT DUP2 AND DUP3 SSTORE PUSH1 0x1 PUSH1 0x1 PUSH1 0xA0 SHL SUB AND PUSH32 0x8BE0079C531659141344CD1FD0A4F28419497F9722A3DAAFE3B4186F6B6457E0 DUP3 DUP1 LOG3 DUP1 RETURN JUMPDEST POP SWAP1 CALLVALUE PUSH2 0x73B JUMPI PUSH1 0x60 CALLDATASIZE PUSH1 0x3 NOT ADD SLT PUSH2 0x73B JUMPI DUP1 CALLDATALOAD PUSH1 0x1 PUSH1 0x1 PUSH1 0x40 SHL SUB DUP2 GT PUSH2 0x11F2 JUMPI PUSH2 0x131D SWAP1 CALLDATASIZE SWAP1 DUP4 ADD PUSH2 0x1E3E JUMP JUMPDEST PUSH2 0x1325 PUSH2 0x1DA4 JUMP JUMPDEST SWAP4 PUSH2 0x1334 TIMESTAMP PUSH1 0x44 CALLDATALOAD LT ISZERO PUSH2 0x20D6 JUMP JUMPDEST PUSH1 0x1 SWAP5 PUSH1 0x2 DUP7 SLOAD EQ PUSH2 0x1512 JUMPI PUSH1 0x2 DUP7 SSTORE SWAP2 SWAP3 PUSH32 0x0 SWAP3 SWAP1 DUP8 JUMPDEST DUP6 DUP2 LT PUSH2 0x1379 JUMPI DUP9 DUP9 DUP1 SSTORE DUP1 RETURN JUMPDEST DUP1 PUSH1 0x5 SHL DUP3 ADD CALLDATALOAD PUSH1 0x5E NOT DUP4 CALLDATASIZE SUB ADD DUP2 SLT ISZERO PUSH2 0x3DA JUMPI DUP3 ADD PUSH1 0x20 SWAP1 DUP2 DUP2 ADD CALLDATALOAD PUSH2 0x13B5 PUSH2 0x13AE PUSH2 0x13A7 DUP5 DUP1 PUSH2 0x283D JUMP JUMPDEST CALLDATASIZE SWAP2 PUSH2 0x1FA9 JUMP JUMPDEST DUP3 DUP11 PUSH2 0x2F99 JUMP JUMPDEST SWAP2 DUP3 MLOAD SWAP4 PUSH1 0x0 NOT SWAP5 DUP6 DUP2 ADD SWAP1 DUP2 GT PUSH2 0x14FF JUMPI PUSH2 0x13D4 PUSH2 0x13E0 SWAP2 DUP7 PUSH2 0x23F6 JUMP JUMPDEST MLOAD DUP11 DUP5 ADD CALLDATALOAD GT ISZERO PUSH2 0x240A JUMP JUMPDEST PUSH2 0x13EA DUP3 DUP1 PUSH2 0x283D JUMP JUMPDEST ISZERO PUSH2 0x14EC JUMPI PUSH2 0x13F8 SWAP1 PUSH2 0x2479 JUMP JUMPDEST SWAP1 PUSH2 0x1403 DUP4 DUP1 PUSH2 0x283D JUMP JUMPDEST ISZERO PUSH2 0x14D8 JUMPI SWAP1 PUSH2 0x1413 DUP16 SWAP3 PUSH2 0x2479 JUMP JUMPDEST SWAP2 PUSH2 0x141E DUP6 DUP1 PUSH2 0x283D JUMP JUMPDEST SWAP1 SWAP2 LT ISZERO PUSH2 0x14C3 JUMPI DUP13 PUSH2 0x1447 SWAP4 PUSH2 0x297 PUSH2 0x1464 SWAP8 SWAP7 SWAP5 PUSH2 0x143E SWAP5 ADD PUSH2 0x2479 JUMP JUMPDEST PUSH2 0xF7B DUP8 PUSH2 0x23C3 JUMP JUMPDEST PUSH2 0x145E DUP9 PUSH2 0x1458 PUSH2 0x13A7 DUP5 DUP1 PUSH2 0x283D JUMP JUMPDEST DUP7 PUSH2 0x25DB JUMP JUMPDEST DUP1 PUSH2 0x283D JUMP JUMPDEST SWAP4 SWAP1 SWAP3 DUP1 MLOAD SWAP2 DUP3 ADD SWAP2 DUP3 GT PUSH2 0x14B0 JUMPI PUSH2 0x14AB SWAP6 SWAP5 SWAP3 PUSH2 0x1496 PUSH1 0x0 DUP1 MLOAD PUSH1 0x20 PUSH2 0x33B6 DUP4 CODECOPY DUP2 MLOAD SWAP2 MSTORE SWAP6 SWAP4 PUSH2 0x14A3 SWAP4 PUSH2 0x23F6 JUMP JUMPDEST MLOAD SWAP1 DUP11 MLOAD SWAP5 DUP6 SWAP5 DUP6 PUSH2 0x248D JUMP JUMPDEST SUB SWAP1 LOG1 PUSH2 0x25CC JUMP JUMPDEST PUSH2 0x136B JUMP JUMPDEST PUSH4 0x4E487B71 PUSH1 0xE0 SHL DUP15 MSTORE PUSH1 0x11 DUP13 MSTORE PUSH1 0x24 DUP15 REVERT JUMPDEST POP POP PUSH4 0x4E487B71 PUSH1 0xE0 SHL DUP16 MSTORE PUSH1 0x32 DUP14 MSTORE PUSH1 0x24 DUP16 REVERT JUMPDEST POP PUSH4 0x4E487B71 PUSH1 0xE0 SHL DUP16 MSTORE PUSH1 0x32 DUP14 MSTORE PUSH1 0x24 DUP16 REVERT JUMPDEST PUSH4 0x4E487B71 PUSH1 0xE0 SHL DUP16 MSTORE PUSH1 0x32 DUP14 MSTORE PUSH1 0x24 DUP16 REVERT JUMPDEST PUSH4 0x4E487B71 PUSH1 0xE0 SHL DUP16 MSTORE PUSH1 0x11 DUP14 MSTORE PUSH1 0x24 DUP16 REVERT JUMPDEST DUP2 MLOAD PUSH4 0x3EE5AEB5 PUSH1 0xE0 SHL DUP2 MSTORE DUP6 SWAP1 REVERT JUMPDEST POP DUP3 SWAP1 CALLVALUE PUSH2 0x3E8 JUMPI PUSH2 0x100 CALLDATASIZE PUSH1 0x3 NOT ADD SLT PUSH2 0x3E8 JUMPI DUP3 CALLDATALOAD PUSH1 0x44 CALLDATALOAD PUSH1 0x1 PUSH1 0x1 PUSH1 0x40 SHL SUB DUP2 GT PUSH2 0x11F2 JUMPI PUSH2 0x1557 SWAP1 CALLDATASIZE SWAP1 DUP7 ADD PUSH2 0x1E3E JUMP JUMPDEST PUSH1 0x64 CALLDATALOAD SWAP5 SWAP1 SWAP3 SWAP1 PUSH1 0x1 PUSH1 0x1 PUSH1 0xA0 SHL SUB DUP1 DUP8 AND DUP8 SUB PUSH2 0x655 JUMPI PUSH1 0x84 CALLDATALOAD PUSH1 0xA4 CALLDATALOAD SWAP2 PUSH1 0xFF DUP4 AND DUP1 SWAP4 SUB PUSH2 0x11F2 JUMPI PUSH2 0x158D TIMESTAMP DUP4 LT ISZERO PUSH2 0x20D6 JUMP JUMPDEST DUP7 ISZERO PUSH2 0x1726 JUMPI PUSH2 0x159C DUP7 PUSH2 0x2479 JUMP JUMPDEST AND DUP1 EXTCODESIZE ISZERO PUSH2 0x11F2 JUMPI SWAP1 PUSH1 0xE4 DUP11 DUP6 DUP1 SWAP5 DUP12 MLOAD SWAP7 DUP8 SWAP6 DUP7 SWAP5 PUSH4 0xD505ACCF PUSH1 0xE0 SHL DUP7 MSTORE CALLER SWAP1 DUP7 ADD MSTORE ADDRESS PUSH1 0x24 DUP7 ADD MSTORE DUP11 PUSH1 0x44 DUP7 ADD MSTORE PUSH1 0x64 DUP6 ADD MSTORE PUSH1 0x84 DUP5 ADD MSTORE PUSH1 0xC4 CALLDATALOAD PUSH1 0xA4 DUP5 ADD MSTORE DUP4 CALLDATALOAD PUSH1 0xC4 DUP5 ADD MSTORE GAS CALL DUP1 ISZERO PUSH2 0x171C JUMPI SWAP1 DUP3 SWAP2 PUSH2 0x1708 JUMPI JUMPDEST POP POP PUSH32 0x0 SWAP1 PUSH2 0x162F PUSH2 0x1628 CALLDATASIZE DUP8 DUP8 PUSH2 0x1FA9 JUMP JUMPDEST DUP5 DUP5 PUSH2 0x2F99 JUMP JUMPDEST SWAP7 DUP8 MLOAD SWAP3 PUSH1 0x0 NOT SWAP4 DUP5 DUP2 ADD SWAP1 DUP2 GT PUSH2 0x16F5 JUMPI PUSH2 0x1652 SWAP1 PUSH2 0x1083 PUSH1 0x24 CALLDATALOAD SWAP2 DUP13 PUSH2 0x23F6 JUMP JUMPDEST PUSH2 0x165B DUP7 PUSH2 0x2479 JUMP JUMPDEST SWAP1 PUSH2 0x1665 DUP8 PUSH2 0x2479 JUMP JUMPDEST DUP9 PUSH1 0x1 LT ISZERO PUSH2 0x16E2 JUMPI SWAP2 PUSH2 0xF72 PUSH2 0x1687 SWAP3 PUSH2 0x1692 SWAP6 SWAP5 PUSH2 0x297 PUSH1 0x20 DUP13 ADD PUSH2 0x2479 JUMP JUMPDEST PUSH2 0x31D CALLDATASIZE DUP9 DUP9 PUSH2 0x1FA9 JUMP JUMPDEST DUP7 MLOAD SWAP2 DUP3 ADD SWAP2 DUP3 GT PUSH2 0x16CF JUMPI PUSH2 0x356 DUP8 DUP8 PUSH1 0x0 DUP1 MLOAD PUSH1 0x20 PUSH2 0x33B6 DUP4 CODECOPY DUP2 MLOAD SWAP2 MSTORE DUP9 DUP9 PUSH2 0x349 DUP10 PUSH2 0x16C2 DUP11 DUP9 PUSH2 0x23F6 JUMP JUMPDEST MLOAD SWAP1 DUP7 MLOAD SWAP5 DUP6 SWAP5 DUP6 PUSH2 0x248D JUMP JUMPDEST PUSH4 0x4E487B71 PUSH1 0xE0 SHL DUP2 MSTORE PUSH1 0x11 DUP9 MSTORE PUSH1 0x24 SWAP1 REVERT JUMPDEST PUSH4 0x4E487B71 PUSH1 0xE0 SHL DUP6 MSTORE PUSH1 0x32 DUP13 MSTORE PUSH1 0x24 DUP6 REVERT JUMPDEST PUSH4 0x4E487B71 PUSH1 0xE0 SHL DUP5 MSTORE PUSH1 0x11 DUP12 MSTORE PUSH1 0x24 DUP5 REVERT JUMPDEST PUSH2 0x1711 SWAP1 PUSH2 0x1EF7 JUMP JUMPDEST PUSH2 0xB0E JUMPI DUP1 DUP9 PUSH2 0x15F6 JUMP JUMPDEST DUP7 MLOAD RETURNDATASIZE DUP5 DUP3 RETURNDATACOPY RETURNDATASIZE SWAP1 REVERT JUMPDEST PUSH4 0x4E487B71 PUSH1 0xE0 SHL DUP5 MSTORE PUSH1 0x32 DUP11 MSTORE PUSH1 0x24 DUP5 REVERT JUMPDEST POP DUP3 SWAP1 CALLVALUE PUSH2 0x3E8 JUMPI PUSH2 0x174D PUSH2 0xEC1 CALLDATASIZE PUSH2 0x1E6E JUMP JUMPDEST PUSH1 0x0 NOT SWAP1 DUP6 DUP3 ADD DUP7 DUP2 GT PUSH2 0x1924 JUMPI PUSH2 0x1769 PUSH2 0x176E SWAP2 DUP9 DUP9 PUSH2 0x2469 JUMP JUMPDEST PUSH2 0x2479 JUMP JUMPDEST PUSH1 0x1 PUSH1 0x1 PUSH1 0xA0 SHL SUB PUSH32 0x0 DUP2 AND SWAP2 PUSH2 0x17A6 SWAP2 AND DUP3 EQ PUSH2 0x27F1 JUMP JUMPDEST PUSH32 0x0 PUSH2 0x17E9 PUSH2 0x17DF PUSH2 0x17D8 CALLDATASIZE DUP12 DUP12 PUSH2 0x1FA9 JUMP JUMPDEST DUP9 DUP5 PUSH2 0x3043 JUMP JUMPDEST SWAP11 PUSH2 0xF14 DUP13 PUSH2 0x23C3 JUMP JUMPDEST DUP8 ISZERO PUSH2 0x1911 JUMPI PUSH2 0x17F8 DUP8 PUSH2 0x2479 JUMP JUMPDEST SWAP1 PUSH2 0x1802 DUP9 PUSH2 0x2479 JUMP JUMPDEST DUP10 PUSH1 0x1 LT ISZERO PUSH2 0x18FE JUMPI PUSH2 0x1820 SWAP3 SWAP2 PUSH2 0xF72 SWAP2 PUSH2 0x297 PUSH1 0x20 DUP13 ADD PUSH2 0x2479 JUMP JUMPDEST PUSH2 0x1835 ADDRESS PUSH2 0x182F CALLDATASIZE DUP11 DUP11 PUSH2 0x1FA9 JUMP JUMPDEST DUP12 PUSH2 0x25DB JUMP JUMPDEST DUP9 MLOAD DUP4 DUP2 ADD SWAP1 DUP2 GT PUSH2 0x18EB JUMPI PUSH2 0x184B SWAP1 DUP11 PUSH2 0x23F6 JUMP JUMPDEST MLOAD DUP2 EXTCODESIZE ISZERO PUSH2 0x73B JUMPI DUP3 SWAP1 PUSH1 0x24 DUP13 DUP4 DUP13 MLOAD SWAP6 DUP7 SWAP5 DUP6 SWAP4 PUSH4 0x2E1A7D4D PUSH1 0xE0 SHL DUP6 MSTORE DUP5 ADD MSTORE GAS CALL DUP1 ISZERO PUSH2 0x18E1 JUMPI SWAP1 DUP3 SWAP2 PUSH2 0x18CD JUMPI JUMPDEST POP POP DUP8 MLOAD SWAP2 DUP3 ADD SWAP2 DUP3 GT PUSH2 0x18BA JUMPI PUSH2 0x356 DUP9 DUP9 PUSH1 0x0 DUP1 MLOAD PUSH1 0x20 PUSH2 0x33B6 DUP4 CODECOPY DUP2 MLOAD SWAP2 MSTORE DUP10 DUP10 PUSH2 0x349 DUP11 PUSH2 0x334 DUP12 PUSH2 0x18B3 DUP13 DUP11 PUSH2 0x23F6 JUMP JUMPDEST MLOAD SWAP1 PUSH2 0x332C JUMP JUMPDEST PUSH4 0x4E487B71 PUSH1 0xE0 SHL DUP2 MSTORE PUSH1 0x11 DUP10 MSTORE PUSH1 0x24 SWAP1 REVERT JUMPDEST PUSH2 0x18D6 SWAP1 PUSH2 0x1EF7 JUMP JUMPDEST PUSH2 0xB0E JUMPI DUP1 DUP11 PUSH2 0x187D JUMP JUMPDEST DUP9 MLOAD RETURNDATASIZE DUP5 DUP3 RETURNDATACOPY RETURNDATASIZE SWAP1 REVERT JUMPDEST PUSH4 0x4E487B71 PUSH1 0xE0 SHL DUP4 MSTORE PUSH1 0x11 DUP12 MSTORE PUSH1 0x24 DUP4 REVERT JUMPDEST PUSH4 0x4E487B71 PUSH1 0xE0 SHL DUP6 MSTORE PUSH1 0x32 DUP14 MSTORE PUSH1 0x24 DUP6 REVERT JUMPDEST PUSH4 0x4E487B71 PUSH1 0xE0 SHL DUP4 MSTORE PUSH1 0x32 DUP12 MSTORE PUSH1 0x24 DUP4 REVERT JUMPDEST PUSH4 0x4E487B71 PUSH1 0xE0 SHL DUP3 MSTORE PUSH1 0x11 DUP11 MSTORE PUSH1 0x24 DUP3 REVERT JUMPDEST DUP4 DUP3 CALLVALUE PUSH2 0x3E8 JUMPI PUSH2 0x356 SWAP1 PUSH2 0x8DB PUSH2 0x194E CALLDATASIZE PUSH2 0x1FFF JUMP JUMPDEST SWAP1 PUSH32 0x0 PUSH2 0x3043 JUMP JUMPDEST POP DUP3 SWAP1 CALLVALUE PUSH2 0x3E8 JUMPI PUSH2 0x199A PUSH2 0x1989 CALLDATASIZE PUSH2 0x1E6E JUMP JUMPDEST SWAP8 SWAP3 SWAP5 SWAP4 SWAP8 SWAP6 SWAP1 SWAP2 SWAP6 TIMESTAMP GT ISZERO PUSH2 0x20D6 JUMP JUMPDEST PUSH1 0x0 NOT SWAP2 DUP6 DUP4 ADD DUP7 DUP2 GT PUSH2 0x1924 JUMPI PUSH2 0x1769 PUSH2 0x19B6 SWAP2 DUP9 DUP9 PUSH2 0x2469 JUMP JUMPDEST PUSH1 0x1 PUSH1 0x1 PUSH1 0xA0 SHL SUB PUSH32 0x0 DUP2 AND SWAP2 PUSH2 0x19EE SWAP2 AND DUP3 EQ PUSH2 0x27F1 JUMP JUMPDEST PUSH32 0x0 PUSH2 0x1A24 PUSH2 0x1A1D CALLDATASIZE DUP11 DUP11 PUSH2 0x1FA9 JUMP JUMPDEST DUP8 DUP4 PUSH2 0x2F99 JUMP JUMPDEST SWAP10 DUP11 MLOAD DUP7 DUP2 ADD SWAP1 DUP2 GT PUSH2 0x1B08 JUMPI SWAP1 PUSH2 0x1083 PUSH2 0x1A3F SWAP3 DUP14 PUSH2 0x23F6 JUMP JUMPDEST DUP8 ISZERO PUSH2 0x1911 JUMPI PUSH2 0x1A4E DUP8 PUSH2 0x2479 JUMP JUMPDEST SWAP1 PUSH2 0x1A58 DUP9 PUSH2 0x2479 JUMP JUMPDEST DUP10 PUSH1 0x1 LT ISZERO PUSH2 0x18FE JUMPI PUSH2 0x1A76 SWAP3 SWAP2 PUSH2 0xF72 SWAP2 PUSH2 0x297 PUSH1 0x20 DUP13 ADD PUSH2 0x2479 JUMP JUMPDEST PUSH2 0x1A85 ADDRESS PUSH2 0x182F CALLDATASIZE DUP11 DUP11 PUSH2 0x1FA9 JUMP JUMPDEST DUP9 MLOAD DUP5 DUP2 ADD SWAP1 DUP2 GT PUSH2 0x18EB JUMPI PUSH2 0x1A9B SWAP1 DUP11 PUSH2 0x23F6 JUMP JUMPDEST MLOAD DUP2 EXTCODESIZE ISZERO PUSH2 0x73B JUMPI DUP3 SWAP1 PUSH1 0x24 DUP13 DUP4 DUP13 MLOAD SWAP6 DUP7 SWAP5 DUP6 SWAP4 PUSH4 0x2E1A7D4D PUSH1 0xE0 SHL DUP6 MSTORE DUP5 ADD MSTORE GAS CALL DUP1 ISZERO PUSH2 0x18E1 JUMPI PUSH2 0x1AF9 JUMPI JUMPDEST POP SWAP1 DUP8 MLOAD DUP4 DUP2 ADD SWAP1 DUP2 GT PUSH2 0x1AE6 JUMPI SWAP1 PUSH2 0x18B3 PUSH2 0x1692 SWAP3 DUP11 PUSH2 0x23F6 JUMP JUMPDEST PUSH4 0x4E487B71 PUSH1 0xE0 SHL DUP4 MSTORE PUSH1 0x11 DUP11 MSTORE PUSH1 0x24 DUP4 REVERT JUMPDEST PUSH2 0x1B02 SWAP1 PUSH2 0x1EF7 JUMP JUMPDEST DUP10 PUSH2 0x1ACA JUMP JUMPDEST PUSH4 0x4E487B71 PUSH1 0xE0 SHL DUP6 MSTORE PUSH1 0x11 DUP14 MSTORE PUSH1 0x24 DUP6 REVERT JUMPDEST DUP4 DUP3 CALLVALUE PUSH2 0x3E8 JUMPI PUSH1 0x20 SWAP1 PUSH2 0xE0A PUSH2 0x1B31 CALLDATASIZE PUSH2 0x1E24 JUMP JUMPDEST SWAP2 PUSH2 0x2984 JUMP JUMPDEST POP SWAP2 SWAP1 CALLVALUE PUSH2 0x3E8 JUMPI PUSH2 0x1B48 CALLDATASIZE PUSH2 0x1DE4 JUMP JUMPDEST SWAP7 SWAP3 SWAP4 SWAP7 SWAP6 SWAP2 SWAP1 SWAP5 SWAP6 TIMESTAMP GT ISZERO SWAP4 PUSH2 0x1B5E DUP6 PUSH2 0x20D6 JUMP JUMPDEST PUSH2 0x1B88 PUSH32 0x0 SWAP6 PUSH2 0x20D6 JUMP JUMPDEST PUSH2 0x1BB3 DUP6 DUP9 PUSH32 0x0 PUSH2 0x2EC6 JUMP JUMPDEST DUP10 MLOAD PUSH4 0x23B872DD PUSH1 0xE0 SHL DUP2 MSTORE CALLER DUP6 DUP3 ADD SWAP1 DUP2 MSTORE PUSH1 0x1 PUSH1 0x1 PUSH1 0xA0 SHL SUB SWAP3 DUP4 AND PUSH1 0x20 DUP3 DUP2 ADD DUP3 SWAP1 MSTORE PUSH1 0x40 DUP4 ADD DUP14 SWAP1 MSTORE SWAP4 SWAP11 SWAP4 SWAP1 SWAP3 SWAP2 DUP3 SWAP1 DUP2 SWAP1 PUSH1 0x60 ADD SUB DUP2 DUP11 DUP7 GAS CALL DUP1 ISZERO PUSH2 0x1D9A JUMPI SWAP2 DUP13 SWAP2 DUP9 SWAP4 PUSH2 0x1D7C JUMPI JUMPDEST POP PUSH1 0x24 DUP3 MLOAD DUP1 SWAP5 DUP2 SWAP4 PUSH4 0x226BF2D1 PUSH1 0xE2 SHL DUP4 MSTORE ADDRESS DUP12 DUP5 ADD MSTORE GAS CALL SWAP3 DUP4 ISZERO PUSH2 0x1D72 JUMPI DUP9 SWAP3 SWAP2 DUP13 SWAP2 DUP9 SWAP2 DUP10 SWAP7 PUSH2 0x1D33 JUMPI JUMPDEST POP PUSH2 0x1C3D DUP11 DUP6 PUSH2 0x2E01 JUMP JUMPDEST POP DUP5 DUP14 AND SWAP3 SWAP1 DUP14 AND DUP4 SUB PUSH2 0x1D0A JUMPI SWAP13 DUP14 SWAP7 DUP1 SWAP14 PUSH2 0x1C9F SWAP13 PUSH2 0x1C7F PUSH2 0x1CA7 SWAP12 PUSH2 0x1C77 PUSH1 0x0 DUP1 MLOAD PUSH1 0x20 PUSH2 0x33F6 DUP4 CODECOPY DUP2 MLOAD SWAP2 MSTORE SWAP8 JUMPDEST DUP14 LT ISZERO PUSH2 0x2141 JUMP JUMPDEST DUP5 LT ISZERO PUSH2 0x219B JUMP JUMPDEST AND SWAP12 DUP13 SWAP6 MLOAD SWAP3 DUP4 SWAP3 DUP11 DUP5 PUSH1 0x40 SWAP2 SWAP5 SWAP4 SWAP3 PUSH1 0x60 DUP3 ADD SWAP6 DUP3 MSTORE PUSH1 0x20 DUP3 ADD MSTORE ADD MSTORE JUMP JUMPDEST SUB SWAP1 LOG3 PUSH2 0x314A JUMP JUMPDEST DUP3 EXTCODESIZE ISZERO PUSH2 0x3E8 JUMPI DUP5 PUSH1 0x24 DUP4 SWAP3 DUP4 DUP11 MLOAD SWAP7 DUP8 SWAP5 DUP6 SWAP4 PUSH4 0x2E1A7D4D PUSH1 0xE0 SHL DUP6 MSTORE DUP5 ADD MSTORE GAS CALL SWAP1 DUP2 ISZERO PUSH2 0x1CFF JUMPI POP SWAP2 DUP4 SWAP2 PUSH2 0x1CE4 SWAP4 PUSH2 0x1CF0 JUMPI JUMPDEST POP PUSH2 0x332C JUMP JUMPDEST DUP3 MLOAD SWAP2 DUP3 MSTORE PUSH1 0x20 DUP3 ADD MSTORE RETURN JUMPDEST PUSH2 0x1CF9 SWAP1 PUSH2 0x1EF7 JUMP JUMPDEST CODESIZE PUSH2 0x1CDE JUMP JUMPDEST DUP7 MLOAD SWAP1 RETURNDATASIZE SWAP1 DUP3 RETURNDATACOPY RETURNDATASIZE SWAP1 REVERT JUMPDEST SWAP6 SWAP13 DUP14 SWAP7 DUP1 SWAP14 PUSH2 0x1C9F SWAP13 PUSH2 0x1C7F PUSH2 0x1CA7 SWAP12 PUSH2 0x1C77 PUSH1 0x0 DUP1 MLOAD PUSH1 0x20 PUSH2 0x33F6 DUP4 CODECOPY DUP2 MLOAD SWAP2 MSTORE SWAP8 PUSH2 0x1C6F JUMP JUMPDEST SWAP4 SWAP5 POP SWAP5 POP POP DUP2 DUP2 RETURNDATASIZE DUP4 GT PUSH2 0x1D6B JUMPI JUMPDEST PUSH2 0x1D4D DUP2 DUP4 PUSH2 0x1F71 JUMP JUMPDEST DUP2 ADD SUB SLT PUSH2 0x1D67 JUMPI SWAP1 DUP11 DUP3 PUSH1 0x20 DUP11 SWAP5 MLOAD SWAP2 ADD MLOAD SWAP5 CODESIZE PUSH2 0x1C32 JUMP JUMPDEST DUP6 DUP1 REVERT JUMPDEST POP RETURNDATASIZE PUSH2 0x1D43 JUMP JUMPDEST DUP12 MLOAD RETURNDATASIZE DUP9 DUP3 RETURNDATACOPY RETURNDATASIZE SWAP1 REVERT JUMPDEST PUSH2 0x1D93 SWAP1 PUSH1 0x20 RETURNDATASIZE DUP2 GT PUSH2 0x3A2 JUMPI PUSH2 0x394 DUP2 DUP4 PUSH2 0x1F71 JUMP JUMPDEST POP CODESIZE PUSH2 0x1C03 JUMP JUMPDEST DUP13 MLOAD RETURNDATASIZE DUP10 DUP3 RETURNDATACOPY RETURNDATASIZE SWAP1 REVERT JUMPDEST PUSH1 0x24 CALLDATALOAD SWAP1 PUSH1 0x1 PUSH1 0x1 PUSH1 0xA0 SHL SUB DUP3 AND DUP3 SUB PUSH2 0x655 JUMPI JUMP JUMPDEST PUSH1 0x4 CALLDATALOAD SWAP1 PUSH1 0x1 PUSH1 0x1 PUSH1 0xA0 SHL SUB DUP3 AND DUP3 SUB PUSH2 0x655 JUMPI JUMP JUMPDEST CALLDATALOAD SWAP1 PUSH1 0x1 PUSH1 0x1 PUSH1 0xA0 SHL SUB DUP3 AND DUP3 SUB PUSH2 0x655 JUMPI JUMP JUMPDEST PUSH1 0xC0 SWAP1 PUSH1 0x3 NOT ADD SLT PUSH2 0x655 JUMPI PUSH1 0x1 PUSH1 0x1 PUSH1 0xA0 SHL SUB PUSH1 0x4 CALLDATALOAD DUP2 DUP2 AND DUP2 SUB PUSH2 0x655 JUMPI SWAP2 PUSH1 0x24 CALLDATALOAD SWAP2 PUSH1 0x44 CALLDATALOAD SWAP2 PUSH1 0x64 CALLDATALOAD SWAP2 PUSH1 0x84 CALLDATALOAD SWAP1 DUP2 AND DUP2 SUB PUSH2 0x655 JUMPI SWAP1 PUSH1 0xA4 CALLDATALOAD SWAP1 JUMP JUMPDEST PUSH1 0x60 SWAP1 PUSH1 0x3 NOT ADD SLT PUSH2 0x655 JUMPI PUSH1 0x4 CALLDATALOAD SWAP1 PUSH1 0x24 CALLDATALOAD SWAP1 PUSH1 0x44 CALLDATALOAD SWAP1 JUMP JUMPDEST SWAP2 DUP2 PUSH1 0x1F DUP5 ADD SLT ISZERO PUSH2 0x655 JUMPI DUP3 CALLDATALOAD SWAP2 PUSH1 0x1 PUSH1 0x1 PUSH1 0x40 SHL SUB DUP4 GT PUSH2 0x655 JUMPI PUSH1 0x20 DUP1 DUP6 ADD SWAP5 DUP5 PUSH1 0x5 SHL ADD ADD GT PUSH2 0x655 JUMPI JUMP JUMPDEST PUSH1 0xA0 PUSH1 0x3 NOT DUP3 ADD SLT PUSH2 0x655 JUMPI PUSH1 0x4 CALLDATALOAD SWAP2 PUSH1 0x24 CALLDATALOAD SWAP2 PUSH1 0x44 CALLDATALOAD SWAP1 PUSH1 0x1 PUSH1 0x1 PUSH1 0x40 SHL SUB DUP3 GT PUSH2 0x655 JUMPI PUSH2 0x1EA0 SWAP2 PUSH1 0x4 ADD PUSH2 0x1E3E JUMP JUMPDEST SWAP1 SWAP2 PUSH1 0x64 CALLDATALOAD PUSH1 0x1 PUSH1 0x1 PUSH1 0xA0 SHL SUB DUP2 AND DUP2 SUB PUSH2 0x655 JUMPI SWAP1 PUSH1 0x84 CALLDATALOAD SWAP1 JUMP JUMPDEST PUSH1 0x20 SWAP1 DUP2 PUSH1 0x40 DUP2 DUP4 ADD SWAP3 DUP3 DUP2 MSTORE DUP6 MLOAD DUP1 SWAP5 MSTORE ADD SWAP4 ADD SWAP2 PUSH1 0x0 JUMPDEST DUP3 DUP2 LT PUSH2 0x1EE3 JUMPI POP POP POP POP SWAP1 JUMP JUMPDEST DUP4 MLOAD DUP6 MSTORE SWAP4 DUP2 ADD SWAP4 SWAP3 DUP2 ADD SWAP3 PUSH1 0x1 ADD PUSH2 0x1ED5 JUMP JUMPDEST PUSH1 0x1 PUSH1 0x1 PUSH1 0x40 SHL SUB DUP2 GT PUSH2 0x1F0A JUMPI PUSH1 0x40 MSTORE JUMP JUMPDEST PUSH4 0x4E487B71 PUSH1 0xE0 SHL PUSH1 0x0 MSTORE PUSH1 0x41 PUSH1 0x4 MSTORE PUSH1 0x24 PUSH1 0x0 REVERT JUMPDEST PUSH1 0x20 DUP2 ADD SWAP1 DUP2 LT PUSH1 0x1 PUSH1 0x1 PUSH1 0x40 SHL SUB DUP3 GT OR PUSH2 0x1F0A JUMPI PUSH1 0x40 MSTORE JUMP JUMPDEST PUSH1 0x60 DUP2 ADD SWAP1 DUP2 LT PUSH1 0x1 PUSH1 0x1 PUSH1 0x40 SHL SUB DUP3 GT OR PUSH2 0x1F0A JUMPI PUSH1 0x40 MSTORE JUMP JUMPDEST PUSH1 0x80 DUP2 ADD SWAP1 DUP2 LT PUSH1 0x1 PUSH1 0x1 PUSH1 0x40 SHL SUB DUP3 GT OR PUSH2 0x1F0A JUMPI PUSH1 0x40 MSTORE JUMP JUMPDEST SWAP1 PUSH1 0x1F DUP1 NOT SWAP2 ADD AND DUP2 ADD SWAP1 DUP2 LT PUSH1 0x1 PUSH1 0x1 PUSH1 0x40 SHL SUB DUP3 GT OR PUSH2 0x1F0A JUMPI PUSH1 0x40 MSTORE JUMP JUMPDEST PUSH1 0x1 PUSH1 0x1 PUSH1 0x40 SHL SUB DUP2 GT PUSH2 0x1F0A JUMPI PUSH1 0x5 SHL PUSH1 0x20 ADD SWAP1 JUMP JUMPDEST SWAP3 SWAP2 PUSH2 0x1FB4 DUP3 PUSH2 0x1F92 JUMP JUMPDEST SWAP2 PUSH2 0x1FC2 PUSH1 0x40 MLOAD SWAP4 DUP5 PUSH2 0x1F71 JUMP JUMPDEST DUP3 SWAP5 DUP2 DUP5 MSTORE PUSH1 0x20 DUP1 SWAP5 ADD SWAP2 PUSH1 0x5 SHL DUP2 ADD SWAP3 DUP4 GT PUSH2 0x655 JUMPI SWAP1 JUMPDEST DUP3 DUP3 LT PUSH2 0x1FE8 JUMPI POP POP POP POP JUMP JUMPDEST DUP4 DUP1 SWAP2 PUSH2 0x1FF4 DUP5 PUSH2 0x1DD0 JUMP JUMPDEST DUP2 MSTORE ADD SWAP2 ADD SWAP1 PUSH2 0x1FDB JUMP JUMPDEST SWAP1 PUSH1 0x40 PUSH1 0x3 NOT DUP4 ADD SLT PUSH2 0x655 JUMPI PUSH1 0x4 CALLDATALOAD SWAP2 PUSH1 0x24 CALLDATALOAD SWAP1 PUSH1 0x1 PUSH1 0x1 PUSH1 0x40 SHL SUB DUP3 GT PUSH2 0x655 JUMPI DUP1 PUSH1 0x23 DUP4 ADD SLT ISZERO PUSH2 0x655 JUMPI DUP2 PUSH1 0x24 PUSH2 0x203F SWAP4 PUSH1 0x4 ADD CALLDATALOAD SWAP2 ADD PUSH2 0x1FA9 JUMP JUMPDEST SWAP1 JUMP JUMPDEST SWAP1 PUSH1 0x80 PUSH1 0x3 NOT DUP4 ADD SLT PUSH2 0x655 JUMPI PUSH1 0x4 CALLDATALOAD SWAP2 PUSH1 0x24 CALLDATALOAD SWAP1 PUSH1 0x1 PUSH1 0x1 PUSH1 0x40 SHL SUB DUP3 GT PUSH2 0x655 JUMPI PUSH2 0x2071 SWAP2 PUSH1 0x4 ADD PUSH2 0x1E3E JUMP JUMPDEST SWAP1 SWAP2 PUSH1 0x44 CALLDATALOAD PUSH1 0x1 PUSH1 0x1 PUSH1 0xA0 SHL SUB DUP2 AND DUP2 SUB PUSH2 0x655 JUMPI SWAP1 PUSH1 0x64 CALLDATALOAD SWAP1 JUMP JUMPDEST PUSH1 0x0 SLOAD PUSH1 0x1 PUSH1 0x1 PUSH1 0xA0 SHL SUB AND CALLER SUB PUSH2 0x20A1 JUMPI JUMP JUMPDEST PUSH1 0x40 MLOAD PUSH4 0x118CDAA7 PUSH1 0xE0 SHL DUP2 MSTORE CALLER PUSH1 0x4 DUP3 ADD MSTORE PUSH1 0x24 SWAP1 REVERT JUMPDEST ISZERO PUSH2 0x20C0 JUMPI JUMP JUMPDEST PUSH4 0x4E487B71 PUSH1 0xE0 SHL PUSH1 0x0 MSTORE PUSH1 0x1 PUSH1 0x4 MSTORE PUSH1 0x24 PUSH1 0x0 REVERT JUMPDEST ISZERO PUSH2 0x20DD JUMPI JUMP JUMPDEST PUSH1 0x40 MLOAD PUSH3 0x461BCD PUSH1 0xE5 SHL DUP2 MSTORE PUSH1 0x20 PUSH1 0x4 DUP3 ADD MSTORE PUSH1 0x17 PUSH1 0x24 DUP3 ADD MSTORE PUSH32 0x5368616853776170526F757465723A2045585049524544000000000000000000 PUSH1 0x44 DUP3 ADD MSTORE PUSH1 0x64 SWAP1 REVERT JUMPDEST SWAP1 DUP2 PUSH1 0x20 SWAP2 SUB SLT PUSH2 0x655 JUMPI MLOAD PUSH1 0x1 PUSH1 0x1 PUSH1 0xA0 SHL SUB DUP2 AND DUP2 SUB PUSH2 0x655 JUMPI SWAP1 JUMP JUMPDEST ISZERO PUSH2 0x2148 JUMPI JUMP JUMPDEST PUSH1 0x40 MLOAD PUSH3 0x461BCD PUSH1 0xE5 SHL DUP2 MSTORE PUSH1 0x20 PUSH1 0x4 DUP3 ADD MSTORE PUSH1 0x25 PUSH1 0x24 DUP3 ADD MSTORE PUSH32 0x5368616853776170526F757465723A20494E53554646494349454E545F415F41 PUSH1 0x44 DUP3 ADD MSTORE PUSH5 0x1353D55395 PUSH1 0xDA SHL PUSH1 0x64 DUP3 ADD MSTORE PUSH1 0x84 SWAP1 REVERT JUMPDEST ISZERO PUSH2 0x21A2 JUMPI JUMP JUMPDEST PUSH1 0x40 MLOAD PUSH3 0x461BCD PUSH1 0xE5 SHL DUP2 MSTORE PUSH1 0x20 PUSH1 0x4 DUP3 ADD MSTORE PUSH1 0x25 PUSH1 0x24 DUP3 ADD MSTORE PUSH32 0x5368616853776170526F757465723A20494E53554646494349454E545F425F41 PUSH1 0x44 DUP3 ADD MSTORE PUSH5 0x1353D55395 PUSH1 0xDA SHL PUSH1 0x64 DUP3 ADD MSTORE PUSH1 0x84 SWAP1 REVERT JUMPDEST PUSH1 0x40 MLOAD PUSH4 0xE6A43905 PUSH1 0xE0 SHL DUP2 MSTORE PUSH1 0x1 PUSH1 0x1 PUSH1 0xA0 SHL SUB DUP3 DUP2 AND PUSH1 0x4 DUP4 ADD MSTORE DUP4 DUP2 AND PUSH1 0x24 DUP4 ADD MSTORE SWAP4 SWAP7 SWAP5 SWAP6 SWAP5 SWAP4 PUSH32 0x0 DUP1 DUP3 AND SWAP5 SWAP4 SWAP3 SWAP1 SWAP2 PUSH1 0x20 SWAP2 DUP3 DUP2 PUSH1 0x44 DUP2 DUP11 GAS STATICCALL SWAP1 DUP2 ISZERO PUSH2 0x235F JUMPI PUSH1 0x0 SWAP2 PUSH2 0x236B JUMPI JUMPDEST POP AND ISZERO PUSH2 0x22E8 JUMPI JUMPDEST POP PUSH2 0x2276 SWAP4 POP PUSH2 0x2D3F JUMP JUMPDEST SWAP3 SWAP1 DUP1 ISZERO DUP1 PUSH2 0x22E0 JUMPI JUMPDEST ISZERO PUSH2 0x228D JUMPI POP POP POP POP SWAP1 SWAP2 JUMP JUMPDEST PUSH2 0x229C DUP5 DUP3 DUP9 SWAP8 SWAP6 SWAP7 SWAP8 PUSH2 0x2900 JUMP JUMPDEST SWAP5 DUP4 DUP7 GT PUSH2 0x22B8 JUMPI POP POP POP POP PUSH2 0x22B4 SWAP1 DUP3 LT ISZERO PUSH2 0x219B JUMP JUMPDEST SWAP1 SWAP2 JUMP JUMPDEST DUP4 SWAP6 POP PUSH2 0x22B4 SWAP5 POP SWAP1 PUSH2 0x22CF SWAP2 PUSH2 0x22D8 SWAP4 SWAP5 PUSH2 0x2900 JUMP JUMPDEST SWAP5 DUP6 GT ISZERO PUSH2 0x20B9 JUMP JUMPDEST DUP4 LT ISZERO PUSH2 0x2141 JUMP JUMPDEST POP DUP4 ISZERO PUSH2 0x2280 JUMP JUMPDEST PUSH1 0x40 MLOAD PUSH4 0x64E329CB PUSH1 0xE1 SHL DUP2 MSTORE PUSH1 0x1 PUSH1 0x1 PUSH1 0xA0 SHL SUB DUP5 DUP2 AND PUSH1 0x4 DUP4 ADD MSTORE DUP6 AND PUSH1 0x24 DUP3 ADD MSTORE SWAP5 DUP2 SWAP1 DUP7 SWAP1 PUSH1 0x44 SWAP1 DUP3 SWAP1 PUSH1 0x0 SWAP1 GAS CALL SWAP5 DUP6 ISZERO PUSH2 0x235F JUMPI PUSH2 0x2276 SWAP6 PUSH2 0x2331 JUMPI JUMPDEST POP PUSH2 0x226B JUMP JUMPDEST DUP2 PUSH2 0x2350 SWAP3 SWAP1 RETURNDATASIZE LT PUSH2 0x2358 JUMPI JUMPDEST PUSH2 0x2348 DUP2 DUP4 PUSH2 0x1F71 JUMP JUMPDEST DUP2 ADD SWAP1 PUSH2 0x2122 JUMP JUMPDEST POP CODESIZE DUP1 PUSH2 0x232B JUMP JUMPDEST POP RETURNDATASIZE PUSH2 0x233E JUMP JUMPDEST PUSH1 0x40 MLOAD RETURNDATASIZE PUSH1 0x0 DUP3 RETURNDATACOPY RETURNDATASIZE SWAP1 REVERT JUMPDEST PUSH2 0x2382 SWAP2 POP DUP4 RETURNDATASIZE DUP6 GT PUSH2 0x2358 JUMPI PUSH2 0x2348 DUP2 DUP4 PUSH2 0x1F71 JUMP JUMPDEST CODESIZE PUSH2 0x2263 JUMP JUMPDEST SWAP1 DUP2 PUSH1 0x20 SWAP2 SUB SLT PUSH2 0x655 JUMPI MLOAD DUP1 ISZERO ISZERO DUP2 SUB PUSH2 0x655 JUMPI SWAP1 JUMP JUMPDEST SWAP2 SWAP1 DUP3 SUB SWAP2 DUP3 GT PUSH2 0x23AD JUMPI JUMP JUMPDEST PUSH4 0x4E487B71 PUSH1 0xE0 SHL PUSH1 0x0 MSTORE PUSH1 0x11 PUSH1 0x4 MSTORE PUSH1 0x24 PUSH1 0x0 REVERT JUMPDEST DUP1 MLOAD ISZERO PUSH2 0x23D0 JUMPI PUSH1 0x20 ADD SWAP1 JUMP JUMPDEST PUSH4 0x4E487B71 PUSH1 0xE0 SHL PUSH1 0x0 MSTORE PUSH1 0x32 PUSH1 0x4 MSTORE PUSH1 0x24 PUSH1 0x0 REVERT JUMPDEST DUP1 MLOAD PUSH1 0x1 LT ISZERO PUSH2 0x23D0 JUMPI PUSH1 0x40 ADD SWAP1 JUMP JUMPDEST DUP1 MLOAD DUP3 LT ISZERO PUSH2 0x23D0 JUMPI PUSH1 0x20 SWAP2 PUSH1 0x5 SHL ADD ADD SWAP1 JUMP JUMPDEST ISZERO PUSH2 0x2411 JUMPI JUMP JUMPDEST PUSH1 0x40 MLOAD PUSH3 0x461BCD PUSH1 0xE5 SHL DUP2 MSTORE PUSH1 0x20 PUSH1 0x4 DUP3 ADD MSTORE PUSH1 0x2A PUSH1 0x24 DUP3 ADD MSTORE PUSH32 0x5368616853776170526F757465723A20494E53554646494349454E545F4F5554 PUSH1 0x44 DUP3 ADD MSTORE PUSH10 0x14155517D05353D55395 PUSH1 0xB2 SHL PUSH1 0x64 DUP3 ADD MSTORE PUSH1 0x84 SWAP1 REVERT JUMPDEST SWAP2 SWAP1 DUP2 LT ISZERO PUSH2 0x23D0 JUMPI PUSH1 0x5 SHL ADD SWAP1 JUMP JUMPDEST CALLDATALOAD PUSH1 0x1 PUSH1 0x1 PUSH1 0xA0 SHL SUB DUP2 AND DUP2 SUB PUSH2 0x655 JUMPI SWAP1 JUMP JUMPDEST SWAP2 SWAP5 SWAP4 SWAP3 SWAP5 DUP1 PUSH1 0x60 DUP5 ADD PUSH1 0x60 DUP6 MSTORE MSTORE PUSH1 0x80 DUP4 ADD SWAP2 SWAP1 PUSH1 0x0 JUMPDEST DUP2 DUP2 LT PUSH2 0x24BD JUMPI POP POP POP SWAP1 PUSH1 0x40 SWAP2 SWAP5 PUSH1 0x20 DUP3 ADD MSTORE ADD MSTORE JUMP JUMPDEST SWAP2 SWAP3 SWAP1 SWAP2 SWAP1 PUSH1 0x1 SWAP1 PUSH1 0x1 PUSH1 0x1 PUSH1 0xA0 SHL SUB PUSH2 0x24D6 DUP7 PUSH2 0x1DD0 JUMP JUMPDEST AND DUP2 MSTORE PUSH1 0x20 SWAP1 DUP2 ADD SWAP5 ADD SWAP3 SWAP2 ADD PUSH2 0x24A5 JUMP JUMPDEST SWAP3 SWAP2 SWAP1 SWAP5 SWAP4 SWAP5 PUSH32 0x0 PUSH2 0x2524 PUSH2 0x251D CALLDATASIZE DUP7 DUP7 PUSH2 0x1FA9 JUMP JUMPDEST DUP7 DUP4 PUSH2 0x2F99 JUMP JUMPDEST SWAP7 DUP8 MLOAD PUSH1 0x0 NOT SWAP4 DUP5 DUP3 ADD SWAP2 DUP3 GT PUSH2 0x23AD JUMPI PUSH2 0x1083 PUSH2 0x2542 SWAP3 DUP12 PUSH2 0x23F6 JUMP JUMPDEST DUP5 ISZERO PUSH2 0x23D0 JUMPI PUSH2 0x2551 DUP5 PUSH2 0x2479 JUMP JUMPDEST SWAP2 PUSH2 0x255B DUP6 PUSH2 0x2479 JUMP JUMPDEST SWAP3 DUP7 PUSH1 0x1 LT ISZERO PUSH2 0x23D0 JUMPI PUSH2 0x257C PUSH2 0x2585 SWAP3 PUSH2 0x2590 SWAP6 PUSH2 0x297 PUSH1 0x20 DUP11 ADD PUSH2 0x2479 JUMP JUMPDEST PUSH2 0xF7B DUP12 PUSH2 0x23C3 JUMP JUMPDEST PUSH2 0x1157 CALLDATASIZE DUP7 DUP7 PUSH2 0x1FA9 JUMP JUMPDEST DUP6 MLOAD SWAP1 DUP2 ADD SWAP1 DUP2 GT PUSH2 0x23AD JUMPI PUSH1 0x0 DUP1 MLOAD PUSH1 0x20 PUSH2 0x33B6 DUP4 CODECOPY DUP2 MLOAD SWAP2 MSTORE SWAP4 PUSH2 0x25B9 PUSH2 0x25C7 SWAP3 DUP9 PUSH2 0x23F6 JUMP JUMPDEST MLOAD SWAP1 PUSH1 0x40 MLOAD SWAP5 DUP6 SWAP5 DUP6 PUSH2 0x248D JUMP JUMPDEST SUB SWAP1 LOG1 JUMP JUMPDEST PUSH1 0x0 NOT DUP2 EQ PUSH2 0x23AD JUMPI PUSH1 0x1 ADD SWAP1 JUMP JUMPDEST PUSH32 0x0 SWAP4 SWAP3 SWAP1 SWAP2 SWAP1 PUSH1 0x0 JUMPDEST DUP3 MLOAD PUSH1 0x0 NOT DUP2 ADD SWAP1 DUP2 GT PUSH2 0x23AD JUMPI DUP2 LT ISZERO PUSH2 0x278E JUMPI PUSH1 0x1 PUSH1 0x1 PUSH1 0xA0 SHL SUB DUP1 PUSH2 0x262C DUP4 DUP7 PUSH2 0x23F6 JUMP JUMPDEST MLOAD AND PUSH1 0x1 DUP4 ADD SWAP2 DUP3 DUP5 GT PUSH2 0x23AD JUMPI DUP1 PUSH2 0x2645 DUP5 DUP9 PUSH2 0x23F6 JUMP JUMPDEST MLOAD AND DUP2 PUSH2 0x265D PUSH2 0x2655 DUP4 DUP7 PUSH2 0x2E01 JUMP JUMPDEST POP SWAP6 DUP11 PUSH2 0x23F6 JUMP JUMPDEST MLOAD SWAP5 AND DUP4 SUB PUSH2 0x2786 JUMPI PUSH1 0x0 SWAP4 SWAP1 JUMPDEST DUP8 MLOAD PUSH1 0x1 NOT DUP2 ADD SWAP1 DUP2 GT PUSH2 0x23AD JUMPI DUP4 SWAP1 DUP8 LT ISZERO PUSH2 0x277A JUMPI POP PUSH1 0x2 DUP7 ADD DUP1 DUP8 GT PUSH2 0x23AD JUMPI DUP2 PUSH2 0x26AB DUP14 DUP7 SWAP5 DUP6 PUSH2 0x26A3 PUSH2 0x26B3 SWAP7 DUP16 PUSH2 0x23F6 JUMP JUMPDEST MLOAD AND SWAP2 PUSH2 0x2EC6 JUMP JUMPDEST SWAP6 JUMPDEST DUP14 PUSH2 0x2EC6 JUMP JUMPDEST AND SWAP2 PUSH1 0x40 SWAP4 DUP5 MLOAD SWAP3 PUSH2 0x26C4 DUP5 PUSH2 0x1F20 JUMP JUMPDEST PUSH1 0x0 DUP5 MSTORE DUP5 EXTCODESIZE ISZERO PUSH2 0x655 JUMPI DUP6 MLOAD PUSH4 0x22C0D9F PUSH1 0xE0 SHL DUP2 MSTORE PUSH1 0x4 DUP2 ADD SWAP8 SWAP1 SWAP8 MSTORE PUSH1 0x24 DUP8 ADD MSTORE AND PUSH1 0x44 DUP6 ADD MSTORE PUSH1 0x80 PUSH1 0x64 DUP6 ADD MSTORE DUP1 MLOAD PUSH1 0x84 DUP6 ADD DUP2 SWAP1 MSTORE DUP5 SWAP2 PUSH1 0x0 JUMPDEST DUP3 DUP2 LT PUSH2 0x2762 JUMPI POP POP SWAP2 DUP2 PUSH1 0x0 DUP1 SWAP5 DUP3 PUSH1 0xA4 SWAP2 DUP4 DUP4 DUP3 DUP5 ADD ADD MSTORE PUSH1 0x1F DUP1 NOT SWAP2 ADD AND DUP2 ADD SUB ADD SWAP3 GAS CALL SWAP1 DUP2 ISZERO PUSH2 0x2758 JUMPI POP SWAP1 PUSH2 0x2744 SWAP3 SWAP2 PUSH2 0x2749 JUMPI JUMPDEST POP PUSH2 0x25CC JUMP JUMPDEST PUSH2 0x2604 JUMP JUMPDEST PUSH2 0x2752 SWAP1 PUSH2 0x1EF7 JUMP JUMPDEST CODESIZE PUSH2 0x273E JUMP JUMPDEST MLOAD RETURNDATASIZE PUSH1 0x0 DUP3 RETURNDATACOPY RETURNDATASIZE SWAP1 REVERT JUMPDEST PUSH1 0x20 DUP3 DUP3 ADD DUP2 ADD MLOAD PUSH1 0xA4 DUP10 DUP5 ADD ADD MSTORE DUP8 SWAP5 POP ADD PUSH2 0x2703 JUMP JUMPDEST SWAP1 PUSH2 0x26B3 SWAP1 DUP9 SWAP6 PUSH2 0x26AD JUMP JUMPDEST PUSH1 0x0 SWAP1 PUSH2 0x266B JUMP JUMPDEST POP POP POP POP SWAP1 POP JUMP JUMPDEST ISZERO PUSH2 0x279D JUMPI JUMP JUMPDEST PUSH1 0x40 MLOAD PUSH3 0x461BCD PUSH1 0xE5 SHL DUP2 MSTORE PUSH1 0x20 PUSH1 0x4 DUP3 ADD MSTORE PUSH1 0x26 PUSH1 0x24 DUP3 ADD MSTORE PUSH32 0x5368616853776170526F757465723A204558434553534956455F494E5055545F PUSH1 0x44 DUP3 ADD MSTORE PUSH6 0x105353D55395 PUSH1 0xD2 SHL PUSH1 0x64 DUP3 ADD MSTORE PUSH1 0x84 SWAP1 REVERT JUMPDEST ISZERO PUSH2 0x27F8 JUMPI JUMP JUMPDEST PUSH1 0x40 MLOAD PUSH3 0x461BCD PUSH1 0xE5 SHL DUP2 MSTORE PUSH1 0x20 PUSH1 0x4 DUP3 ADD MSTORE PUSH1 0x1C PUSH1 0x24 DUP3 ADD MSTORE PUSH32 0x5368616853776170526F757465723A20494E56414C49445F5041544800000000 PUSH1 0x44 DUP3 ADD MSTORE PUSH1 0x64 SWAP1 REVERT JUMPDEST SWAP1 CALLDATALOAD SWAP1 PUSH1 0x1E NOT DUP2 CALLDATASIZE SUB ADD DUP3 SLT ISZERO PUSH2 0x655 JUMPI ADD DUP1 CALLDATALOAD SWAP1 PUSH1 0x1 PUSH1 0x1 PUSH1 0x40 SHL SUB DUP3 GT PUSH2 0x655 JUMPI PUSH1 0x20 ADD SWAP2 DUP2 PUSH1 0x5 SHL CALLDATASIZE SUB DUP4 SGT PUSH2 0x655 JUMPI JUMP JUMPDEST ISZERO PUSH2 0x2879 JUMPI JUMP JUMPDEST PUSH1 0x40 MLOAD PUSH3 0x461BCD PUSH1 0xE5 SHL DUP2 MSTORE PUSH1 0x20 PUSH1 0x4 DUP3 ADD MSTORE PUSH1 0x26 PUSH1 0x24 DUP3 ADD MSTORE PUSH32 0x5368616853776170526F757465723A20494E53554646494349454E545F4C4951 PUSH1 0x44 DUP3 ADD MSTORE PUSH6 0x554944495459 PUSH1 0xD0 SHL PUSH1 0x64 DUP3 ADD MSTORE PUSH1 0x84 SWAP1 REVERT JUMPDEST DUP2 DUP2 MUL SWAP3 SWAP2 DUP2 ISZERO SWAP2 DUP5 DIV EQ OR ISZERO PUSH2 0x23AD JUMPI JUMP JUMPDEST DUP2 ISZERO PUSH2 0x28EA JUMPI DIV SWAP1 JUMP JUMPDEST PUSH4 0x4E487B71 PUSH1 0xE0 SHL PUSH1 0x0 MSTORE PUSH1 0x12 PUSH1 0x4 MSTORE PUSH1 0x24 PUSH1 0x0 REVERT JUMPDEST DUP1 ISZERO PUSH2 0x2933 JUMPI PUSH2 0x203F SWAP3 PUSH2 0x2925 SWAP2 DUP4 ISZERO ISZERO DUP1 PUSH2 0x292A JUMPI JUMPDEST PUSH2 0x2920 SWAP1 PUSH2 0x2872 JUMP JUMPDEST PUSH2 0x28CD JUMP JUMPDEST PUSH2 0x28E0 JUMP JUMPDEST POP DUP2 ISZERO ISZERO PUSH2 0x2917 JUMP JUMPDEST PUSH1 0x40 MLOAD PUSH3 0x461BCD PUSH1 0xE5 SHL DUP2 MSTORE PUSH1 0x20 PUSH1 0x4 DUP3 ADD MSTORE PUSH1 0x23 PUSH1 0x24 DUP3 ADD MSTORE PUSH32 0x5368616853776170526F757465723A20494E53554646494349454E545F414D4F PUSH1 0x44 DUP3 ADD MSTORE PUSH3 0x155395 PUSH1 0xEA SHL PUSH1 0x64 DUP3 ADD MSTORE PUSH1 0x84 SWAP1 REVERT JUMPDEST DUP1 ISZERO PUSH2 0x29E2 JUMPI DUP2 ISZERO SWAP3 DUP4 ISZERO DUP1 PUSH2 0x29D9 JUMPI JUMPDEST PUSH2 0x299E SWAP1 PUSH2 0x2872 JUMP JUMPDEST PUSH2 0x3E5 DUP1 DUP4 MUL SWAP3 DUP4 DIV SUB PUSH2 0x23AD JUMPI PUSH2 0x29B6 SWAP1 DUP3 PUSH2 0x28CD JUMP JUMPDEST SWAP3 PUSH2 0x3E8 DUP1 DUP5 MUL SWAP4 DUP5 DIV EQ OR ISZERO PUSH2 0x23AD JUMPI DUP2 ADD DUP1 SWAP2 GT PUSH2 0x23AD JUMPI PUSH2 0x203F SWAP2 PUSH2 0x28E0 JUMP JUMPDEST POP DUP1 ISZERO ISZERO PUSH2 0x2995 JUMP JUMPDEST PUSH1 0x40 MLOAD PUSH3 0x461BCD PUSH1 0xE5 SHL DUP2 MSTORE PUSH1 0x20 PUSH1 0x4 DUP3 ADD MSTORE PUSH1 0x29 PUSH1 0x24 DUP3 ADD MSTORE PUSH32 0x5368616853776170526F757465723A20494E53554646494349454E545F494E50 PUSH1 0x44 DUP3 ADD MSTORE PUSH9 0x155517D05353D55395 PUSH1 0xBA SHL PUSH1 0x64 DUP3 ADD MSTORE PUSH1 0x84 SWAP1 REVERT JUMPDEST SWAP2 SWAP1 DUP3 PUSH2 0x2A5C SWAP2 PUSH2 0x2A4B DUP3 ISZERO ISZERO PUSH2 0x240A JUMP JUMPDEST DUP1 ISZERO ISZERO DUP1 PUSH2 0x2AA5 JUMPI PUSH2 0x2920 SWAP1 PUSH2 0x2872 JUMP JUMPDEST SWAP2 PUSH2 0x3E8 SWAP3 DUP4 DUP2 MUL SWAP4 DUP2 DUP6 DIV EQ SWAP1 ISZERO OR ISZERO PUSH2 0x23AD JUMPI PUSH2 0x2A7A SWAP2 PUSH2 0x23A0 JUMP JUMPDEST PUSH2 0x3E5 SWAP1 DUP2 DUP2 MUL SWAP2 DUP2 DUP4 DIV EQ SWAP1 ISZERO OR ISZERO PUSH2 0x23AD JUMPI PUSH2 0x2A97 SWAP2 PUSH2 0x28E0 JUMP JUMPDEST PUSH1 0x1 DUP2 ADD DUP1 SWAP2 GT PUSH2 0x23AD JUMPI SWAP1 JUMP JUMPDEST POP DUP4 ISZERO ISZERO PUSH2 0x2917 JUMP JUMPDEST SWAP1 PUSH1 0x40 SWAP1 DUP2 MLOAD PUSH2 0x2ABD DUP2 PUSH2 0x1F3B JUMP JUMPDEST PUSH1 0x2 DUP2 MSTORE PUSH1 0x20 SWAP4 DUP4 CALLDATASIZE DUP7 DUP5 ADD CALLDATACOPY PUSH2 0x2AD3 DUP3 PUSH2 0x23C3 JUMP JUMPDEST PUSH1 0x1 PUSH1 0x1 PUSH1 0xA0 SHL SUB DUP3 DUP2 AND SWAP2 DUP3 SWAP1 MSTORE SWAP1 SWAP4 SWAP1 SWAP2 PUSH2 0x2AEF DUP5 PUSH2 0x23E6 JUMP JUMPDEST DUP4 DUP4 AND SWAP1 DUP2 SWAP1 MSTORE DUP7 MLOAD PUSH4 0xE6A43905 PUSH1 0xE0 SHL DUP1 DUP3 MSTORE PUSH1 0x1 PUSH1 0x1 PUSH1 0xA0 SHL SUB DUP5 DUP2 AND PUSH1 0x4 DUP5 ADD MSTORE DUP6 AND PUSH1 0x24 DUP4 ADD MSTORE SWAP6 PUSH32 0x0 DUP7 AND SWAP4 SWAP3 SWAP2 DUP11 DUP2 PUSH1 0x44 DUP2 DUP9 GAS STATICCALL SWAP1 DUP2 ISZERO PUSH2 0x2D20 JUMPI SWAP1 DUP8 SWAP2 PUSH1 0x0 SWAP2 PUSH2 0x2D03 JUMPI JUMPDEST POP AND PUSH2 0x2CF6 JUMPI POP DUP8 MLOAD SWAP7 PUSH2 0x2B6E DUP9 PUSH2 0x1F56 JUMP JUMPDEST PUSH1 0x3 DUP9 MSTORE PUSH1 0x60 CALLDATASIZE DUP12 DUP11 ADD CALLDATACOPY PUSH2 0x2B82 DUP9 PUSH2 0x23C3 JUMP JUMPDEST MSTORE PUSH32 0x0 SWAP2 PUSH2 0x2BAE DUP9 PUSH2 0x23E6 JUMP JUMPDEST DUP7 DUP5 AND SWAP1 MSTORE DUP8 MLOAD PUSH1 0x2 LT ISZERO PUSH2 0x23D0 JUMPI PUSH1 0x60 DUP9 ADD SWAP2 SWAP1 SWAP2 MSTORE DUP8 MLOAD DUP7 DUP2 MSTORE PUSH1 0x1 PUSH1 0x1 PUSH1 0xA0 SHL SUB SWAP2 DUP3 AND PUSH1 0x4 DUP3 ADD MSTORE SWAP1 DUP3 AND PUSH1 0x24 DUP3 ADD MSTORE DUP9 DUP2 PUSH1 0x44 DUP2 DUP7 GAS STATICCALL SWAP1 DUP2 ISZERO PUSH2 0x2CEB JUMPI DUP10 SWAP5 SWAP4 SWAP3 SWAP2 DUP7 SWAP2 PUSH1 0x0 SWAP2 PUSH2 0x2CCE JUMPI JUMPDEST POP AND ISZERO ISZERO SWAP6 DUP7 PUSH2 0x2C5F JUMPI JUMPDEST POP POP POP POP POP POP PUSH2 0x2C59 JUMPI DUP2 MLOAD PUSH3 0x461BCD PUSH1 0xE5 SHL DUP2 MSTORE PUSH1 0x4 DUP2 ADD DUP5 SWAP1 MSTORE PUSH1 0x18 PUSH1 0x24 DUP3 ADD MSTORE PUSH32 0x5368616853776170526F757465723A204E4F5F524F5554450000000000000000 PUSH1 0x44 DUP3 ADD MSTORE PUSH1 0x64 SWAP1 REVERT JUMPDEST SWAP2 POP POP SWAP1 JUMP JUMPDEST DUP9 MLOAD SWAP1 DUP2 MSTORE PUSH1 0x1 PUSH1 0x1 PUSH1 0xA0 SHL SUB SWAP2 DUP3 AND PUSH1 0x4 DUP3 ADD MSTORE SWAP3 AND PUSH1 0x24 DUP4 ADD MSTORE SWAP3 SWAP4 POP SWAP2 DUP3 SWAP1 PUSH1 0x44 SWAP1 DUP3 SWAP1 GAS STATICCALL SWAP1 DUP2 ISZERO PUSH2 0x2CC3 JUMPI PUSH1 0x0 SWAP2 PUSH2 0x2CA6 JUMPI JUMPDEST POP AND ISZERO ISZERO CODESIZE DUP5 DUP2 DUP1 DUP1 DUP1 PUSH2 0x2C0B JUMP JUMPDEST PUSH2 0x2CBD SWAP2 POP DUP6 RETURNDATASIZE DUP8 GT PUSH2 0x2358 JUMPI PUSH2 0x2348 DUP2 DUP4 PUSH2 0x1F71 JUMP JUMPDEST CODESIZE PUSH2 0x2C97 JUMP JUMPDEST DUP5 MLOAD RETURNDATASIZE PUSH1 0x0 DUP3 RETURNDATACOPY RETURNDATASIZE SWAP1 REVERT JUMPDEST PUSH2 0x2CE5 SWAP2 POP DUP7 RETURNDATASIZE DUP9 GT PUSH2 0x2358 JUMPI PUSH2 0x2348 DUP2 DUP4 PUSH2 0x1F71 JUMP JUMPDEST CODESIZE PUSH2 0x2C00 JUMP JUMPDEST DUP9 MLOAD RETURNDATASIZE PUSH1 0x0 DUP3 RETURNDATACOPY RETURNDATASIZE SWAP1 REVERT JUMPDEST SWAP9 POP POP POP POP POP POP POP POP POP SWAP1 JUMP JUMPDEST PUSH2 0x2D1A SWAP2 POP DUP13 DUP14 RETURNDATASIZE LT PUSH2 0x2358 JUMPI PUSH2 0x2348 DUP2 DUP4 PUSH2 0x1F71 JUMP JUMPDEST CODESIZE PUSH2 0x2B5B JUMP JUMPDEST DUP11 MLOAD RETURNDATASIZE PUSH1 0x0 DUP3 RETURNDATACOPY RETURNDATASIZE SWAP1 REVERT JUMPDEST MLOAD SWAP1 PUSH1 0x1 PUSH1 0x1 PUSH1 0x70 SHL SUB DUP3 AND DUP3 SUB PUSH2 0x655 JUMPI JUMP JUMPDEST SWAP1 DUP1 PUSH1 0x60 PUSH1 0x4 SWAP4 PUSH2 0x2D65 PUSH2 0x2D53 DUP8 DUP6 PUSH2 0x2E01 JUMP JUMPDEST POP SWAP7 PUSH1 0x1 PUSH1 0x1 PUSH1 0xA0 SHL SUB SWAP5 DUP6 SWAP4 PUSH2 0x2EC6 JUMP JUMPDEST AND PUSH1 0x40 MLOAD SWAP5 DUP6 DUP1 SWAP3 PUSH4 0x240BC6B PUSH1 0xE2 SHL DUP3 MSTORE GAS STATICCALL SWAP3 DUP4 ISZERO PUSH2 0x235F JUMPI PUSH1 0x0 SWAP1 DUP2 SWAP5 PUSH2 0x2DA9 JUMPI JUMPDEST POP DUP2 SWAP1 PUSH1 0x1 PUSH1 0x1 PUSH1 0x70 SHL SUB DUP1 SWAP2 AND SWAP5 AND SWAP5 AND SWAP2 AND EQ PUSH1 0x0 EQ PUSH2 0x22B4 JUMPI SWAP2 JUMP JUMPDEST SWAP4 POP PUSH1 0x60 DUP5 RETURNDATASIZE DUP3 GT PUSH2 0x2DF9 JUMPI JUMPDEST DUP2 PUSH2 0x2DC3 PUSH1 0x60 SWAP4 DUP4 PUSH2 0x1F71 JUMP JUMPDEST DUP2 ADD SUB SLT PUSH2 0xB0E JUMPI PUSH2 0x2DD4 DUP5 PUSH2 0x2D2B JUMP JUMPDEST SWAP1 PUSH1 0x40 PUSH2 0x2DE3 PUSH1 0x20 DUP8 ADD PUSH2 0x2D2B JUMP JUMPDEST SWAP6 ADD MLOAD PUSH4 0xFFFFFFFF DUP2 AND SUB PUSH2 0xB0E JUMPI POP DUP2 PUSH2 0x2D8A JUMP JUMPDEST RETURNDATASIZE SWAP2 POP PUSH2 0x2DB6 JUMP JUMPDEST SWAP1 SWAP2 PUSH1 0x1 PUSH1 0x1 PUSH1 0xA0 SHL SUB SWAP2 DUP3 DUP5 AND DUP4 DUP3 AND DUP1 DUP3 EQ PUSH2 0x2E75 JUMPI LT ISZERO PUSH2 0x2E70 JUMPI SWAP3 JUMPDEST SWAP2 DUP4 AND ISZERO PUSH2 0x2E2B JUMPI JUMP JUMPDEST PUSH1 0x40 MLOAD PUSH3 0x461BCD PUSH1 0xE5 SHL DUP2 MSTORE PUSH1 0x20 PUSH1 0x4 DUP3 ADD MSTORE PUSH1 0x1C PUSH1 0x24 DUP3 ADD MSTORE PUSH32 0x5368616853776170526F757465723A205A45524F5F4144445245535300000000 PUSH1 0x44 DUP3 ADD MSTORE PUSH1 0x64 SWAP1 REVERT JUMPDEST PUSH2 0x2E21 JUMP JUMPDEST PUSH1 0x40 MLOAD PUSH3 0x461BCD PUSH1 0xE5 SHL DUP2 MSTORE PUSH1 0x20 PUSH1 0x4 DUP3 ADD MSTORE PUSH1 0x23 PUSH1 0x24 DUP3 ADD MSTORE PUSH32 0x5368616853776170526F757465723A204944454E544943414C5F414444524553 PUSH1 0x44 DUP3 ADD MSTORE PUSH3 0x534553 PUSH1 0xE8 SHL PUSH1 0x64 DUP3 ADD MSTORE PUSH1 0x84 SWAP1 REVERT JUMPDEST SWAP2 PUSH2 0x2ED0 SWAP2 PUSH2 0x2E01 JUMP JUMPDEST SWAP2 SWAP1 PUSH1 0x40 MLOAD PUSH1 0x20 DUP2 ADD SWAP2 PUSH1 0x1 PUSH1 0x1 PUSH1 0x60 SHL SUB NOT SWAP5 DUP6 DUP1 SWAP3 PUSH1 0x60 SHL AND DUP5 MSTORE PUSH1 0x60 SHL AND PUSH1 0x34 DUP3 ADD MSTORE PUSH1 0x28 DUP2 MSTORE PUSH2 0x2F03 DUP2 PUSH2 0x1F3B JUMP JUMPDEST MLOAD SWAP1 KECCAK256 PUSH1 0x40 MLOAD SWAP3 PUSH1 0x20 DUP5 ADD SWAP3 PUSH1 0xFF PUSH1 0xF8 SHL DUP5 MSTORE PUSH1 0x60 SHL AND PUSH1 0x21 DUP5 ADD MSTORE PUSH1 0x35 DUP4 ADD MSTORE PUSH32 0x5D59EE5B4A031065F4EEA90C908632A8D5368F79AE9915560D3359BE24DE471C PUSH1 0x55 DUP4 ADD MSTORE PUSH1 0x55 DUP3 MSTORE PUSH2 0x2F57 DUP3 PUSH2 0x1F56 JUMP JUMPDEST SWAP1 MLOAD SWAP1 KECCAK256 PUSH1 0x1 PUSH1 0x1 PUSH1 0xA0 SHL SUB AND SWAP1 JUMP JUMPDEST SWAP1 PUSH2 0x2F71 DUP3 PUSH2 0x1F92 JUMP JUMPDEST PUSH2 0x2F7E PUSH1 0x40 MLOAD SWAP2 DUP3 PUSH2 0x1F71 JUMP JUMPDEST DUP3 DUP2 MSTORE DUP1 SWAP3 PUSH2 0x2F8F PUSH1 0x1F NOT SWAP2 PUSH2 0x1F92 JUMP JUMPDEST ADD SWAP1 PUSH1 0x20 CALLDATASIZE SWAP2 ADD CALLDATACOPY JUMP JUMPDEST SWAP3 SWAP2 PUSH2 0x2FA9 PUSH1 0x2 DUP3 MLOAD LT ISZERO PUSH2 0x27F1 JUMP JUMPDEST PUSH2 0x2FB3 DUP2 MLOAD PUSH2 0x2F67 JUMP JUMPDEST SWAP2 PUSH2 0x2FBD DUP4 PUSH2 0x23C3 JUMP JUMPDEST MSTORE PUSH1 0x0 JUMPDEST DUP2 MLOAD PUSH1 0x0 NOT DUP2 ADD SWAP1 DUP2 GT PUSH2 0x23AD JUMPI DUP2 LT ISZERO PUSH2 0x303D JUMPI PUSH1 0x1 PUSH1 0x1 PUSH1 0xA0 SHL SUB SWAP1 DUP2 PUSH2 0x2FEA DUP3 DUP6 PUSH2 0x23F6 JUMP JUMPDEST MLOAD AND SWAP2 PUSH1 0x1 DUP3 ADD SWAP1 DUP2 DUP4 GT PUSH2 0x23AD JUMPI PUSH2 0x302B PUSH2 0x301A PUSH2 0x3038 SWAP6 PUSH2 0x3032 SWAP4 PUSH2 0x3011 DUP7 DUP11 PUSH2 0x23F6 JUMP JUMPDEST MLOAD AND SWAP1 DUP12 PUSH2 0x2D3F JUMP JUMPDEST SWAP1 PUSH2 0x3025 DUP7 DUP11 PUSH2 0x23F6 JUMP JUMPDEST MLOAD PUSH2 0x2984 JUMP JUMPDEST SWAP2 DUP7 PUSH2 0x23F6 JUMP JUMPDEST MSTORE PUSH2 0x25CC JUMP JUMPDEST PUSH2 0x2FC1 JUMP JUMPDEST POP POP SWAP2 POP JUMP JUMPDEST SWAP3 SWAP2 SWAP3 PUSH2 0x3054 PUSH1 0x2 DUP6 MLOAD LT ISZERO PUSH2 0x27F1 JUMP JUMPDEST PUSH2 0x305E DUP5 MLOAD PUSH2 0x2F67 JUMP JUMPDEST SWAP4 DUP5 MLOAD SWAP3 PUSH1 0x0 NOT SWAP4 DUP5 DUP2 ADD SWAP1 DUP2 GT PUSH2 0x23AD JUMPI PUSH2 0x307A SWAP1 DUP8 PUSH2 0x23F6 JUMP JUMPDEST MSTORE DUP1 MLOAD DUP4 DUP2 ADD SWAP1 DUP2 GT PUSH2 0x23AD JUMPI DUP1 JUMPDEST PUSH2 0x3093 JUMPI POP POP POP POP JUMP JUMPDEST DUP4 DUP2 ADD DUP2 DUP2 GT PUSH2 0x30F6 JUMPI PUSH2 0x30E7 PUSH2 0x30E0 PUSH2 0x30CF PUSH1 0x1 PUSH1 0x1 PUSH1 0xA0 SHL SUB DUP1 PUSH2 0x30B9 DUP7 DUP10 PUSH2 0x23F6 JUMP JUMPDEST MLOAD AND SWAP1 PUSH2 0x30C6 DUP8 DUP10 PUSH2 0x23F6 JUMP JUMPDEST MLOAD AND SWAP1 DUP9 PUSH2 0x2D3F JUMP JUMPDEST SWAP1 PUSH2 0x30DA DUP7 DUP13 PUSH2 0x23F6 JUMP JUMPDEST MLOAD PUSH2 0x2A39 JUMP JUMPDEST SWAP2 DUP9 PUSH2 0x23F6 JUMP JUMPDEST MSTORE DUP1 ISZERO PUSH2 0x30F6 JUMPI DUP4 ADD DUP1 PUSH2 0x3089 JUMP JUMPDEST PUSH1 0x24 PUSH1 0x0 PUSH4 0x4E487B71 PUSH1 0xE0 SHL DUP2 MSTORE PUSH1 0x11 PUSH1 0x4 MSTORE REVERT JUMPDEST RETURNDATASIZE ISZERO PUSH2 0x3145 JUMPI RETURNDATASIZE SWAP1 PUSH1 0x1 PUSH1 0x1 PUSH1 0x40 SHL SUB DUP3 GT PUSH2 0x1F0A JUMPI PUSH1 0x40 MLOAD SWAP2 PUSH2 0x3139 PUSH1 0x1F DUP3 ADD PUSH1 0x1F NOT AND PUSH1 0x20 ADD DUP5 PUSH2 0x1F71 JUMP JUMPDEST DUP3 MSTORE RETURNDATASIZE PUSH1 0x0 PUSH1 0x20 DUP5 ADD RETURNDATACOPY JUMP JUMPDEST PUSH1 0x60 SWAP1 JUMP JUMPDEST PUSH1 0x40 MLOAD PUSH4 0xA9059CBB PUSH1 0xE0 SHL PUSH1 0x20 DUP3 ADD SWAP1 DUP2 MSTORE PUSH1 0x1 PUSH1 0x1 PUSH1 0xA0 SHL SUB SWAP1 SWAP4 AND PUSH1 0x24 DUP3 ADD MSTORE PUSH1 0x44 DUP2 ADD SWAP4 SWAP1 SWAP4 MSTORE PUSH1 0x0 SWAP3 DUP4 SWAP3 SWAP1 DUP4 SWAP1 PUSH2 0x3193 DUP2 PUSH1 0x64 DUP2 ADD JUMPDEST SUB PUSH1 0x1F NOT DUP2 ADD DUP4 MSTORE DUP3 PUSH2 0x1F71 JUMP JUMPDEST MLOAD SWAP3 GAS CALL PUSH2 0x319F PUSH2 0x310B JUMP JUMPDEST DUP2 PUSH2 0x3208 JUMPI JUMPDEST POP ISZERO PUSH2 0x31AD JUMPI JUMP JUMPDEST PUSH1 0x40 MLOAD PUSH3 0x461BCD PUSH1 0xE5 SHL DUP2 MSTORE PUSH1 0x20 PUSH1 0x4 DUP3 ADD MSTORE PUSH1 0x2D PUSH1 0x24 DUP3 ADD MSTORE PUSH32 0x5472616E7366657248656C7065723A3A736166655472616E736665723A207472 PUSH1 0x44 DUP3 ADD MSTORE PUSH13 0x185B9CD9995C8819985A5B1959 PUSH1 0x9A SHL PUSH1 0x64 DUP3 ADD MSTORE PUSH1 0x84 SWAP1 REVERT JUMPDEST DUP1 MLOAD DUP1 ISZERO SWAP3 POP DUP3 ISZERO PUSH2 0x321D JUMPI JUMPDEST POP POP CODESIZE PUSH2 0x31A5 JUMP JUMPDEST PUSH2 0x3230 SWAP3 POP PUSH1 0x20 DUP1 SWAP2 DUP4 ADD ADD SWAP2 ADD PUSH2 0x2388 JUMP JUMPDEST CODESIZE DUP1 PUSH2 0x3215 JUMP JUMPDEST PUSH1 0x40 MLOAD PUSH4 0x23B872DD PUSH1 0xE0 SHL PUSH1 0x20 DUP3 ADD SWAP1 DUP2 MSTORE PUSH1 0x1 PUSH1 0x1 PUSH1 0xA0 SHL SUB SWAP4 DUP5 AND PUSH1 0x24 DUP4 ADD MSTORE SWAP4 SWAP1 SWAP3 AND PUSH1 0x44 DUP4 ADD MSTORE PUSH1 0x64 DUP3 ADD SWAP4 SWAP1 SWAP4 MSTORE PUSH1 0x0 SWAP3 DUP4 SWAP3 SWAP1 SWAP2 DUP4 SWAP1 PUSH2 0x3280 DUP2 PUSH1 0x84 DUP2 ADD PUSH2 0x3185 JUMP JUMPDEST MLOAD SWAP3 GAS CALL PUSH2 0x328C PUSH2 0x310B JUMP JUMPDEST DUP2 PUSH2 0x32FD JUMPI JUMPDEST POP ISZERO PUSH2 0x329A JUMPI JUMP JUMPDEST PUSH1 0x40 MLOAD PUSH3 0x461BCD PUSH1 0xE5 SHL DUP2 MSTORE PUSH1 0x20 PUSH1 0x4 DUP3 ADD MSTORE PUSH1 0x35 PUSH1 0x24 DUP3 ADD MSTORE PUSH32 0x5472616E7366657248656C7065723A3A736166655472616E7366657246726F6D PUSH1 0x44 DUP3 ADD MSTORE PUSH21 0xE881D1C985B9CD9995C919C9BDB4819985A5B1959 PUSH1 0x5A SHL PUSH1 0x64 DUP3 ADD MSTORE PUSH1 0x84 SWAP1 REVERT JUMPDEST DUP1 MLOAD DUP1 ISZERO SWAP3 POP DUP3 ISZERO PUSH2 0x3312 JUMPI JUMPDEST POP POP CODESIZE PUSH2 0x3292 JUMP JUMPDEST PUSH2 0x3325 SWAP3 POP PUSH1 0x20 DUP1 SWAP2 DUP4 ADD ADD SWAP2 ADD PUSH2 0x2388 JUMP JUMPDEST CODESIZE DUP1 PUSH2 0x330A JUMP JUMPDEST PUSH1 0x0 DUP1 DUP1 SWAP4 DUP2 SWAP4 DUP3 PUSH1 0x40 MLOAD PUSH2 0x3340 DUP2 PUSH2 0x1F20 JUMP JUMPDEST MSTORE GAS CALL PUSH2 0x334B PUSH2 0x310B JUMP JUMPDEST POP ISZERO PUSH2 0x3353 JUMPI JUMP JUMPDEST PUSH1 0x40 MLOAD PUSH3 0x461BCD PUSH1 0xE5 SHL DUP2 MSTORE PUSH1 0x20 PUSH1 0x4 DUP3 ADD MSTORE PUSH1 0x34 PUSH1 0x24 DUP3 ADD MSTORE PUSH32 0x5472616E7366657248656C7065723A3A736166655472616E736665724554483A PUSH1 0x44 DUP3 ADD MSTORE PUSH20 0x8115512081D1C985B9CD9995C8819985A5B1959 PUSH1 0x62 SHL PUSH1 0x64 DUP3 ADD MSTORE PUSH1 0x84 SWAP1 REVERT INVALID CHAINID 0xD3 PUSH14 0x3D18D9BCD63FF8BE3E4C69D3939F 0x4A 0xF7 PUSH16 0xE86599F2E7F0F027D0E273054A1A2A61 PUSH23 0xE9646D9E3157F7C2AB3C499F18337C0B0828CFB28E0A61 0xDE 0x4A GT 0xF7 0xBC PUSH30 0x19D505C7EC4DB83F3B51F19FB98C4C8A99922E7839D1EE608DFBEE29501B LOG2 PUSH5 0x6970667358 0x22 SLT KECCAK256 0x1F BYTE CODECOPY 0xB4 CALLDATASIZE DUP3 SWAP12 0x2E ORIGIN DUP15 0x4C MOD 0xC6 0x4E 0xD JUMPDEST 0xF 0xBB 0xC4 0x2B MUL 0xE7 NUMBER RETURNDATASIZE DELEGATECALL SWAP5 0xE2 0x28 0xF8 RETURNDATASIZE REVERT 0xD8 PUSH5 0x736F6C6343 STOP ADDMOD EQ STOP CALLER "},"methodIdentifiers":{"WETH()":"ad5c4648","addLiquidity(address,address,uint256,uint256,uint256,uint256,address,uint256)":"e8e33700","addLiquidityETH(address,uint256,uint256,uint256,address,uint256)":"f305d719","batchSwapExactTokensForTokens((address[],uint256,uint256)[],address,uint256)":"6ede1b87","factory()":"c45a0155","getAmountIn(uint256,uint256,uint256)":"85f8c259","getAmountOut(uint256,uint256,uint256)":"054d50d4","getAmountsIn(uint256,address[])":"1f00ca74","getAmountsOut(uint256,address[])":"d06ca61f","getBestRoute(address,address,uint256)":"faa55b6d","oracle()":"7dc0d1d0","owner()":"8da5cb5b","quote(uint256,uint256,uint256)":"ad615dec","removeLiquidity(address,address,uint256,uint256,uint256,address,uint256)":"baa2abde","removeLiquidityETH(address,uint256,uint256,uint256,address,uint256)":"02751cec","removeLiquidityETHSupportingFeeOnTransferTokens(address,uint256,uint256,uint256,address,uint256)":"af2979eb","renounceOwnership()":"715018a6","setOracle(address)":"7adbf973","swapETHForExactTokens(uint256,address[],address,uint256)":"fb3bdb41","swapExactETHForTokens(uint256,address[],address,uint256)":"7ff36ab5","swapExactTokensForETH(uint256,uint256,address[],address,uint256)":"18cbafe5","swapExactTokensForTokens(uint256,uint256,address[],address,uint256)":"38ed1739","swapExactTokensForTokensMultiHop(uint256,uint256,address[],address,uint256)":"9e15703c","swapExactTokensForTokensWithPermit(uint256,uint256,address[],address,uint256,uint8,bytes32,bytes32)":"5ebe30c7","swapTokensForExactETH(uint256,uint256,address[],address,uint256)":"4a25d94a","swapTokensForExactTokens(uint256,uint256,address[],address,uint256)":"8803dbee","transferOwnership(address)":"f2fde38b"}}}}}