{
  "_format": "hh-sol-artifact-1",
  "contractName": "ShahFarm",
  "sourceName": "contracts/farming/ShahFarm.sol",
  "abi": [
    {
      "inputs": [
        {
          "internalType": "address",
          "name": "_rewardToken",
          "type": "address"
        },
        {
          "internalType": "address",
          "name": "_owner",
          "type": "address"
        }
      ],
      "stateMutability": "nonpayable",
      "type": "constructor"
    },
    {
      "inputs": [],
      "name": "EnforcedPause",
      "type": "error"
    },
    {
      "inputs": [],
      "name": "ExpectedPause",
      "type": "error"
    },
    {
      "inputs": [
        {
          "internalType": "address",
          "name": "owner",
          "type": "address"
        }
      ],
      "name": "OwnableInvalidOwner",
      "type": "error"
    },
    {
      "inputs": [
        {
          "internalType": "address",
          "name": "account",
          "type": "address"
        }
      ],
      "name": "OwnableUnauthorizedAccount",
      "type": "error"
    },
    {
      "inputs": [],
      "name": "ReentrancyGuardReentrantCall",
      "type": "error"
    },
    {
      "inputs": [
        {
          "internalType": "address",
          "name": "token",
          "type": "address"
        }
      ],
      "name": "SafeERC20FailedOperation",
      "type": "error"
    },
    {
      "anonymous": false,
      "inputs": [
        {
          "indexed": true,
          "internalType": "uint256",
          "name": "pid",
          "type": "uint256"
        },
        {
          "indexed": false,
          "internalType": "uint256",
          "name": "oldAllocPoint",
          "type": "uint256"
        },
        {
          "indexed": false,
          "internalType": "uint256",
          "name": "newAllocPoint",
          "type": "uint256"
        }
      ],
      "name": "AllocPointUpdated",
      "type": "event"
    },
    {
      "anonymous": false,
      "inputs": [
        {
          "indexed": true,
          "internalType": "address",
          "name": "user",
          "type": "address"
        },
        {
          "indexed": true,
          "internalType": "uint256",
          "name": "pid",
          "type": "uint256"
        },
        {
          "indexed": false,
          "internalType": "uint256",
          "name": "amount",
          "type": "uint256"
        }
      ],
      "name": "Deposit",
      "type": "event"
    },
    {
      "anonymous": false,
      "inputs": [
        {
          "indexed": true,
          "internalType": "address",
          "name": "user",
          "type": "address"
        },
        {
          "indexed": true,
          "internalType": "uint256",
          "name": "pid",
          "type": "uint256"
        },
        {
          "indexed": false,
          "internalType": "uint256",
          "name": "amount",
          "type": "uint256"
        }
      ],
      "name": "EmergencyWithdraw",
      "type": "event"
    },
    {
      "anonymous": false,
      "inputs": [
        {
          "indexed": true,
          "internalType": "address",
          "name": "user",
          "type": "address"
        },
        {
          "indexed": true,
          "internalType": "uint256",
          "name": "pid",
          "type": "uint256"
        },
        {
          "indexed": false,
          "internalType": "uint256",
          "name": "amount",
          "type": "uint256"
        }
      ],
      "name": "Harvest",
      "type": "event"
    },
    {
      "anonymous": false,
      "inputs": [
        {
          "indexed": true,
          "internalType": "address",
          "name": "previousOwner",
          "type": "address"
        },
        {
          "indexed": true,
          "internalType": "address",
          "name": "newOwner",
          "type": "address"
        }
      ],
      "name": "OwnershipTransferred",
      "type": "event"
    },
    {
      "anonymous": false,
      "inputs": [
        {
          "indexed": false,
          "internalType": "address",
          "name": "account",
          "type": "address"
        }
      ],
      "name": "Paused",
      "type": "event"
    },
    {
      "anonymous": false,
      "inputs": [
        {
          "indexed": true,
          "internalType": "uint256",
          "name": "pid",
          "type": "uint256"
        },
        {
          "indexed": true,
          "internalType": "address",
          "name": "lpToken",
          "type": "address"
        },
        {
          "indexed": false,
          "internalType": "uint256",
          "name": "allocPoint",
          "type": "uint256"
        }
      ],
      "name": "PoolAdded",
      "type": "event"
    },
    {
      "anonymous": false,
      "inputs": [
        {
          "indexed": true,
          "internalType": "uint256",
          "name": "pid",
          "type": "uint256"
        },
        {
          "indexed": false,
          "internalType": "uint256",
          "name": "lastRewardTime",
          "type": "uint256"
        },
        {
          "indexed": false,
          "internalType": "uint256",
          "name": "lpSupply",
          "type": "uint256"
        },
        {
          "indexed": false,
          "internalType": "uint256",
          "name": "accRewardPerShare",
          "type": "uint256"
        }
      ],
      "name": "PoolUpdated",
      "type": "event"
    },
    {
      "anonymous": false,
      "inputs": [
        {
          "indexed": false,
          "internalType": "uint256",
          "name": "amount",
          "type": "uint256"
        },
        {
          "indexed": false,
          "internalType": "uint256",
          "name": "duration",
          "type": "uint256"
        }
      ],
      "name": "RewardAdded",
      "type": "event"
    },
    {
      "anonymous": false,
      "inputs": [
        {
          "indexed": false,
          "internalType": "uint256",
          "name": "oldRate",
          "type": "uint256"
        },
        {
          "indexed": false,
          "internalType": "uint256",
          "name": "newRate",
          "type": "uint256"
        }
      ],
      "name": "RewardRateUpdated",
      "type": "event"
    },
    {
      "anonymous": false,
      "inputs": [
        {
          "indexed": false,
          "internalType": "address",
          "name": "account",
          "type": "address"
        }
      ],
      "name": "Unpaused",
      "type": "event"
    },
    {
      "anonymous": false,
      "inputs": [
        {
          "indexed": true,
          "internalType": "address",
          "name": "user",
          "type": "address"
        },
        {
          "indexed": true,
          "internalType": "uint256",
          "name": "pid",
          "type": "uint256"
        },
        {
          "indexed": false,
          "internalType": "uint256",
          "name": "amount",
          "type": "uint256"
        }
      ],
      "name": "Withdraw",
      "type": "event"
    },
    {
      "inputs": [
        {
          "internalType": "address",
          "name": "_lpToken",
          "type": "address"
        },
        {
          "internalType": "uint256",
          "name": "_allocPoint",
          "type": "uint256"
        },
        {
          "internalType": "bool",
          "name": "_withUpdate",
          "type": "bool"
        }
      ],
      "name": "addPool",
      "outputs": [],
      "stateMutability": "nonpayable",
      "type": "function"
    },
    {
      "inputs": [
        {
          "internalType": "uint256",
          "name": "_pid",
          "type": "uint256"
        },
        {
          "internalType": "uint256",
          "name": "_amount",
          "type": "uint256"
        }
      ],
      "name": "deposit",
      "outputs": [],
      "stateMutability": "nonpayable",
      "type": "function"
    },
    {
      "inputs": [
        {
          "internalType": "uint256",
          "name": "_pid",
          "type": "uint256"
        },
        {
          "internalType": "uint256",
          "name": "_amount",
          "type": "uint256"
        }
      ],
      "name": "depositAndHarvest",
      "outputs": [],
      "stateMutability": "nonpayable",
      "type": "function"
    },
    {
      "inputs": [
        {
          "internalType": "uint256",
          "name": "_pid",
          "type": "uint256"
        }
      ],
      "name": "emergencyWithdraw",
      "outputs": [],
      "stateMutability": "nonpayable",
      "type": "function"
    },
    {
      "inputs": [],
      "name": "finishAt",
      "outputs": [
        {
          "internalType": "uint256",
          "name": "",
          "type": "uint256"
        }
      ],
      "stateMutability": "view",
      "type": "function"
    },
    {
      "inputs": [
        {
          "internalType": "uint256",
          "name": "_from",
          "type": "uint256"
        },
        {
          "internalType": "uint256",
          "name": "_to",
          "type": "uint256"
        }
      ],
      "name": "getMultiplier",
      "outputs": [
        {
          "internalType": "uint256",
          "name": "",
          "type": "uint256"
        }
      ],
      "stateMutability": "view",
      "type": "function"
    },
    {
      "inputs": [
        {
          "internalType": "uint256",
          "name": "_pid",
          "type": "uint256"
        }
      ],
      "name": "getPoolInfo",
      "outputs": [
        {
          "internalType": "address",
          "name": "lpToken",
          "type": "address"
        },
        {
          "internalType": "uint256",
          "name": "allocPoint",
          "type": "uint256"
        },
        {
          "internalType": "uint256",
          "name": "lastRewardTime",
          "type": "uint256"
        },
        {
          "internalType": "uint256",
          "name": "accRewardPerShare",
          "type": "uint256"
        },
        {
          "internalType": "uint256",
          "name": "totalStaked",
          "type": "uint256"
        }
      ],
      "stateMutability": "view",
      "type": "function"
    },
    {
      "inputs": [
        {
          "internalType": "uint256",
          "name": "_pid",
          "type": "uint256"
        },
        {
          "internalType": "address",
          "name": "_user",
          "type": "address"
        }
      ],
      "name": "getUserInfo",
      "outputs": [
        {
          "internalType": "uint256",
          "name": "amount",
          "type": "uint256"
        },
        {
          "internalType": "uint256",
          "name": "rewardDebt",
          "type": "uint256"
        },
        {
          "internalType": "uint256",
          "name": "lastHarvest",
          "type": "uint256"
        }
      ],
      "stateMutability": "view",
      "type": "function"
    },
    {
      "inputs": [
        {
          "internalType": "uint256",
          "name": "_pid",
          "type": "uint256"
        }
      ],
      "name": "harvest",
      "outputs": [],
      "stateMutability": "nonpayable",
      "type": "function"
    },
    {
      "inputs": [],
      "name": "lastUpdateTime",
      "outputs": [
        {
          "internalType": "uint256",
          "name": "",
          "type": "uint256"
        }
      ],
      "stateMutability": "view",
      "type": "function"
    },
    {
      "inputs": [
        {
          "internalType": "address",
          "name": "",
          "type": "address"
        }
      ],
      "name": "lpTokenToPid",
      "outputs": [
        {
          "internalType": "uint256",
          "name": "",
          "type": "uint256"
        }
      ],
      "stateMutability": "view",
      "type": "function"
    },
    {
      "inputs": [],
      "name": "massUpdatePools",
      "outputs": [],
      "stateMutability": "nonpayable",
      "type": "function"
    },
    {
      "inputs": [
        {
          "internalType": "uint256",
          "name": "_amount",
          "type": "uint256"
        },
        {
          "internalType": "uint256",
          "name": "_duration",
          "type": "uint256"
        }
      ],
      "name": "notifyRewardAmount",
      "outputs": [],
      "stateMutability": "nonpayable",
      "type": "function"
    },
    {
      "inputs": [],
      "name": "owner",
      "outputs": [
        {
          "internalType": "address",
          "name": "",
          "type": "address"
        }
      ],
      "stateMutability": "view",
      "type": "function"
    },
    {
      "inputs": [],
      "name": "pause",
      "outputs": [],
      "stateMutability": "nonpayable",
      "type": "function"
    },
    {
      "inputs": [],
      "name": "paused",
      "outputs": [
        {
          "internalType": "bool",
          "name": "",
          "type": "bool"
        }
      ],
      "stateMutability": "view",
      "type": "function"
    },
    {
      "inputs": [
        {
          "internalType": "uint256",
          "name": "_pid",
          "type": "uint256"
        },
        {
          "internalType": "address",
          "name": "_user",
          "type": "address"
        }
      ],
      "name": "pendingReward",
      "outputs": [
        {
          "internalType": "uint256",
          "name": "",
          "type": "uint256"
        }
      ],
      "stateMutability": "view",
      "type": "function"
    },
    {
      "inputs": [
        {
          "internalType": "uint256",
          "name": "",
          "type": "uint256"
        }
      ],
      "name": "poolInfo",
      "outputs": [
        {
          "internalType": "contract IERC20",
          "name": "lpToken",
          "type": "address"
        },
        {
          "internalType": "uint256",
          "name": "allocPoint",
          "type": "uint256"
        },
        {
          "internalType": "uint256",
          "name": "lastRewardTime",
          "type": "uint256"
        },
        {
          "internalType": "uint256",
          "name": "accRewardPerShare",
          "type": "uint256"
        },
        {
          "internalType": "uint256",
          "name": "totalStaked",
          "type": "uint256"
        }
      ],
      "stateMutability": "view",
      "type": "function"
    },
    {
      "inputs": [],
      "name": "poolLength",
      "outputs": [
        {
          "internalType": "uint256",
          "name": "",
          "type": "uint256"
        }
      ],
      "stateMutability": "view",
      "type": "function"
    },
    {
      "inputs": [
        {
          "internalType": "address",
          "name": "_token",
          "type": "address"
        },
        {
          "internalType": "uint256",
          "name": "_amount",
          "type": "uint256"
        }
      ],
      "name": "recoverERC20",
      "outputs": [],
      "stateMutability": "nonpayable",
      "type": "function"
    },
    {
      "inputs": [],
      "name": "renounceOwnership",
      "outputs": [],
      "stateMutability": "nonpayable",
      "type": "function"
    },
    {
      "inputs": [],
      "name": "rewardRate",
      "outputs": [
        {
          "internalType": "uint256",
          "name": "",
          "type": "uint256"
        }
      ],
      "stateMutability": "view",
      "type": "function"
    },
    {
      "inputs": [],
      "name": "rewardToken",
      "outputs": [
        {
          "internalType": "contract IERC20",
          "name": "",
          "type": "address"
        }
      ],
      "stateMutability": "view",
      "type": "function"
    },
    {
      "inputs": [
        {
          "internalType": "uint256",
          "name": "_pid",
          "type": "uint256"
        },
        {
          "internalType": "uint256",
          "name": "_allocPoint",
          "type": "uint256"
        },
        {
          "internalType": "bool",
          "name": "_withUpdate",
          "type": "bool"
        }
      ],
      "name": "setAllocPoint",
      "outputs": [],
      "stateMutability": "nonpayable",
      "type": "function"
    },
    {
      "inputs": [
        {
          "internalType": "uint256",
          "name": "_rewardRate",
          "type": "uint256"
        }
      ],
      "name": "setRewardRate",
      "outputs": [],
      "stateMutability": "nonpayable",
      "type": "function"
    },
    {
      "inputs": [],
      "name": "totalAllocPoint",
      "outputs": [
        {
          "internalType": "uint256",
          "name": "",
          "type": "uint256"
        }
      ],
      "stateMutability": "view",
      "type": "function"
    },
    {
      "inputs": [
        {
          "internalType": "address",
          "name": "newOwner",
          "type": "address"
        }
      ],
      "name": "transferOwnership",
      "outputs": [],
      "stateMutability": "nonpayable",
      "type": "function"
    },
    {
      "inputs": [],
      "name": "unpause",
      "outputs": [],
      "stateMutability": "nonpayable",
      "type": "function"
    },
    {
      "inputs": [
        {
          "internalType": "uint256",
          "name": "_pid",
          "type": "uint256"
        }
      ],
      "name": "updatePool",
      "outputs": [],
      "stateMutability": "nonpayable",
      "type": "function"
    },
    {
      "inputs": [
        {
          "internalType": "uint256",
          "name": "",
          "type": "uint256"
        },
        {
          "internalType": "address",
          "name": "",
          "type": "address"
        }
      ],
      "name": "userInfo",
      "outputs": [
        {
          "internalType": "uint256",
          "name": "amount",
          "type": "uint256"
        },
        {
          "internalType": "uint256",
          "name": "rewardDebt",
          "type": "uint256"
        },
        {
          "internalType": "uint256",
          "name": "lastHarvest",
          "type": "uint256"
        }
      ],
      "stateMutability": "view",
      "type": "function"
    },
    {
      "inputs": [
        {
          "internalType": "uint256",
          "name": "_pid",
          "type": "uint256"
        },
        {
          "internalType": "uint256",
          "name": "_amount",
          "type": "uint256"
        }
      ],
      "name": "withdraw",
      "outputs": [],
      "stateMutability": "nonpayable",
      "type": "function"
    },
    {
      "inputs": [
        {
          "internalType": "uint256",
          "name": "_pid",
          "type": "uint256"
        },
        {
          "internalType": "uint256",
          "name": "_amount",
          "type": "uint256"
        }
      ],
      "name": "withdrawAndHarvest",
      "outputs": [],
      "stateMutability": "nonpayable",
      "type": "function"
    }
  ],
  "bytecode": "0x60a0346200014957601f6200190a38819003918201601f19168301916001600160401b038311848410176200014e578084926040948552833981010312620001495760206200004e8262000164565b916001600160a01b0391829162000066910162000164565b169182156200013057600080546001600160a01b03198116851782556040519491908416907f8be0079c531659141344cd1fd0a4f28419497f9722a3daafe3b4186f6b6457e09080a36001805516908115620000ee575060805260405161179090816200017a82396080518181816101980152818161099801528181610f1901526116a10152f35b62461bcd60e51b815260206004820152601460248201527f496e76616c69642072657761726420746f6b656e0000000000000000000000006044820152606490fd5b604051631e4fbdf760e01b815260006004820152602490fd5b600080fd5b634e487b7160e01b600052604160045260246000fd5b51906001600160a01b0382168203620001495756fe608060408181526004918236101561001657600080fd5b600092833560e01c918263081e3eda14611114575081630ff0bc3b146110dc5781631069f3b5146108c15781631526fe27146110af57816317caf6f114611090578163246132f914610eba5781632f380b3514610e5f578163348b597f14610c965781633f4ba83a14610df55781633f8e032414610cbd578163441a3e7014610c9657816351eb05a614610c795781635312ea8e14610b9a5781635c975abb14610b76578163630b5ba114610b5d57816367d3b48814610b3f578163715018a614610ae55781637b0a47ee14610ac65781638456cb5914610a6b5781638980f11f146109665781638da5cb5b1461093e5781638dbb1e3a1461092257816393f1a40b146108c15781639416c7cd146106a557816398969e82146105805781639e447fc61461051f578163a0f992031461047f578163c8f33c9114610460578163ddc6326214610392578163e2bbb15814610256578163f2fde38b146101cb575063f7c618c11461018557600080fd5b346101c757816003193601126101c757517f00000000000000000000000000000000000000000000000000000000000000006001600160a01b03168152602090f35b5080fd5b905034610252576020366003190112610252576101e6611130565b906101ef6111d7565b6001600160a01b0391821692831561023c57505082546001600160a01b0319811683178455167f8be0079c531659141344cd1fd0a4f28419497f9722a3daafe3b4186f6b6457e08380a380f35b51631e4fbdf760e01b8152908101849052602490fd5b8280fd5b9190503461025257610267366111b2565b91909261027261148d565b61027a61146f565b64e8d4a510006102ca61028c86611161565b508688526008602052848820338952602052848820936102ab886112df565b87855480610343575b505086610307575b5060038454910154906112ac565b046001820155600242910155519081527f90890809c654f11d6e72a28fa60149770a0d11ec6c92319d6ceb2bb0a4ea1a1560203392a36001805580f35b8154610321908890309033906001600160a01b03166113ac565b61032c878654611203565b8555810161033b878254611203565b9055386102bc565b85610356610362926003870154906112ac565b0460018801549061125e565b80156102b457610372813361168c565b875190815260008051602061173b83398151915260203392a387386102b4565b9050346102525760203660031901126102525735906103af61148d565b6103b761146f565b6103c082611161565b509082845260086020528084203385526020528084206103df846112df565b6103fa6003825494019364e8d4a510009182918654906112ac565b049061040c600184019283549061125e565b948561041b575b876001805580f35b61043390610429873361168c565b84549054906112ac565b0490556002429101555190815260008051602061173b83398151915260203392a338808080808080610413565b5050346101c757816003193601126101c7576020906005549051908152f35b905034610252576060366003190112610252577f8e237abef7f5690c90051ba4a66eaf617de3c99abd1f8762eac2b6e63235bb769035916024356104c16111c8565b6104c96111d7565b610512575b60016104d985611161565b500154906104f2816104ed8460065461125e565b611203565b60065580600161050187611161565b50015582519182526020820152a280f35b61051a61126b565b6104ce565b91905034610252576020366003190112610252577fc390a98ace15a7bb6bab611eedfdbb2685043b241a869420043cdfb23ccfee50913561055e6111d7565b61056661126b565b60035490806003554260055582519182526020820152a180f35b8284346106a257816003193601126106a25782359061059d61114b565b6105a683611161565b5092825260086020528382209060018060a01b03168252602052828120916003810154918582015491600281015480421180610699575b61060d575b60208761060688600164e8d4a510006105fc8b84546112ac565b049101549061125e565b9051908152f35b61063f91600161062d610624610636944290611647565b600354906112ac565b910154906112ac565b600654906112bf565b9064e8d4a51000918281029281840414901517156106865750602095506105fc61067f610606959461067960019564e8d4a51000956112bf565b90611203565b93946105e2565b634e487b7160e01b815260118752602490fd5b508315156105dd565b80fd5b905034610252576060366003190112610252576106c0611130565b916024908135916106cf6111c8565b946106d86111d7565b6001600160a01b0390811695861561088c5786885260096020528388205461085457610847575b429060035461083d575b61071585600654611203565b60065583519160a0830183811067ffffffffffffffff82111761082b578552878352602083019086825285840190815260608401918a835260808501938b855260075468010000000000000000811015610819578060016107799201600755611161565b969096610808575186546001600160a01b031916911617855551600185015551600284015551600383015551908501556007546000198101949091908286116107f7575050916020917f6c5d0ef1d0199b6de41ecbce95f59643be4d723ca363faf92d756e61e82fb13e93868852600984528188205551908152a380f35b634e487b7160e01b88526011905286fd5b634e487b7160e01b8d528c8b52878dfd5b634e487b7160e01b8d5260418b52878dfd5b634e487b7160e01b8a5260418852848afd5b6005549150610709565b61084f61126b565b6106ff565b835162461bcd60e51b815260208188015260138185015272506f6f6c20616c72656164792065786973747360681b6044820152606490fd5b835162461bcd60e51b81526020818801526010818501526f24b73b30b634b2102628103a37b5b2b760811b6044820152606490fd5b9050346102525781600319360112610252579181926108de61114b565b90358252600860209081528383206001600160a01b039092168352908152919020805460018201546002909201549351908152918201526040810191909152606090f35b5050346101c757602090610606610938366111b2565b90611647565b5050346101c757816003193601126101c757905490516001600160a01b039091168152602090f35b839150346101c757826003193601126101c757610981611130565b9061098a6111d7565b6001600160a01b03918216907f000000000000000000000000000000000000000000000000000000000000000083168214610a28578184526009602052848420546109e55750906109e29160243591845416906115f7565b80f35b606490602086519162461bcd60e51b8352820152601860248201527f43616e6e6f74207265636f766572204c5020746f6b656e7300000000000000006044820152fd5b606490602086519162461bcd60e51b8352820152601b60248201527f43616e6e6f74207265636f7665722072657761726420746f6b656e00000000006044820152fd5b5050346101c757816003193601126101c75760207f62e78cea01bee320cd4e420270b5ea74000d11b0c9f74754ebdbfc544b05a25891610aa96111d7565b610ab161146f565b600160ff19600254161760025551338152a180f35b5050346101c757816003193601126101c7576020906003549051908152f35b83346106a257806003193601126106a257610afe6111d7565b80546001600160a01b03198116825581906001600160a01b03167f8be0079c531659141344cd1fd0a4f28419497f9722a3daafe3b4186f6b6457e08280a380f35b90503461025257826003193601126102525760209250549051908152f35b83346106a257806003193601126106a2576109e261126b565b5050346101c757816003193601126101c75760209060ff6002541690519015158152f35b90503461025257602036600319011261025257803591610bb861148d565b610bc183611161565b508385526008602052818520338652602052818520928354938415610c40579184918760018582610c0f975501558101610bfc83825461125e565b90555433906001600160a01b03166115f7565b519081527fbb757047c2b5f3974fe26b7c10f732e7bce710b0952a71082702781e62ae059560203392a36001805580f35b835162461bcd60e51b81526020818401526013602482015272139bc81314081d1bdad95b9cc81cdd185ad959606a1b6044820152606490fd5b8390346101c75760203660031901126101c7576109e290356112df565b83346106a257610cb6610ca8366111b2565b90610cb161148d565b6114b0565b6001805580f35b9190503461025257610cce366111b2565b919092610cd961148d565b610ce161146f565b610cea84611161565b508486526008602052828620338752602052610d28610d5584882093610d0f886112df565b845490600385019164e8d4a510009485918454906112ac565b049489610d3b600189019788549061125e565b80610dcb575b505088610d8f575b505084549054906112ac565b049055600242910155519081527f90890809c654f11d6e72a28fa60149770a0d11ec6c92319d6ceb2bb0a4ea1a1560203392a36001805580f35b8054610da9908a90309033906001600160a01b03166113ac565b610db4898854611203565b875501610dc2888254611203565b90553880610d49565b610dd5813361168c565b895190815260008051602061173b83398151915260203392a38938610d41565b905034610252578260031936011261025257610e0f6111d7565b6002549060ff821615610e51575060ff1916600255513381527f5db9ee0a495bf2e6ff9c91a7834c1ba4fdd244a5e8aa4e537bd38aeae4b073aa90602090a180f35b8251638dfc202b60e01b8152fd5b919050346102525760203660031901126102525760a09250610e818235611161565b50600180851b03815416926001820154926002830154916003840154930154938151958652602086015284015260608301526080820152f35b8383346101c757610eca366111b2565b610ed26111d7565b610eda61126b565b84548142821161105f57610eef9150836112bf565b6003555b6003549485156110265783516370a0823160e01b815230828201526020969087816024817f00000000000000000000000000000000000000000000000000000000000000006001600160a01b03165afa90811561101c5784908892610fe6575b50610f5e91926112ac565b11610fa357947f6c07ee05dcf262f13abf9d87b846ee789d2f90fe991d495acd7d7fc109ee1f55949542600555610f958342611203565b90558351928352820152a180f35b835162461bcd60e51b8152908101869052601b60248201527f496e73756666696369656e74207265776172642062616c616e636500000000006044820152606490fd5b809250898092503d8311611015575b610fff8183611226565b81010312611011575183610f5e610f53565b8680fd5b503d610ff5565b86513d89823e3d90fd5b606490602085519162461bcd60e51b83528201526013602482015272496e76616c696420726577617264207261746560681b6044820152fd5b61108361107d6110889361107760035491429061125e565b906112ac565b85611203565b6112bf565b600355610ef3565b5050346101c757816003193601126101c7576020906006549051908152f35b91905034610252576020366003190112610252578135926007548410156106a25750610e8160a093611161565b5050346101c75760203660031901126101c75760209181906001600160a01b03611104611130565b1681526009845220549051908152f35b8490346101c757816003193601126101c7576020906007548152f35b600435906001600160a01b038216820361114657565b600080fd5b602435906001600160a01b038216820361114657565b60075481101561119c576005906007600052027fa66cc928b5edb82af9bd49922954155ab7b0942694bea4ce44661d9a8736c6880190600090565b634e487b7160e01b600052603260045260246000fd5b6040906003190112611146576004359060243590565b60443590811515820361114657565b6000546001600160a01b031633036111eb57565b60405163118cdaa760e01b8152336004820152602490fd5b9190820180921161121057565b634e487b7160e01b600052601160045260246000fd5b90601f8019910116810190811067ffffffffffffffff82111761124857604052565b634e487b7160e01b600052604160045260246000fd5b9190820391821161121057565b6007546000805b82811061127e57505050565b611287816112df565b600019811461129857600101611272565b634e487b7160e01b82526011600452602482fd5b8181029291811591840414171561121057565b81156112c9570490565b634e487b7160e01b600052601260045260246000fd5b6112e881611161565b50600281019081544211156113a7576004810154801561139f57611321610636611316610624428754611647565b6001850154906112ac565b9264e8d4a5100093848102948186041490151715611210576113736003611369847fb0a2ded49817748754bcca0474b24011f01d4574dd5c40e14197ffa2e6540fef976112bf565b9401938454611203565b80935542905561139a60405192839242846040919493926060820195825260208201520152565b0390a2565b505042905550565b505050565b6040516323b872dd60e01b60208201526001600160a01b03928316602482015292909116604483015260648083019390935291815260a081019181831067ffffffffffffffff8411176112485761140592604052611407565b565b906000602091828151910182855af115611463576000513d61145a57506001600160a01b0381163b155b6114385750565b604051635274afe760e01b81526001600160a01b039091166004820152602490fd5b60011415611431565b6040513d6000823e3d90fd5b60ff6002541661147b57565b60405163d93c066560e01b8152600490fd5b60026001541461149e576002600155565b604051633ee5aeb560e01b8152600490fd5b906114ba82611161565b50826000526008602052604060002033600052602052604060002090828254106115bb576114e7846112df565b6115056115328354600384019064e8d4a510009384918354906112ac565b049387611518600188019687549061125e565b80611590575b5050868061156957505084549054906112ac565b0490556002429101556040519081527ff279e6a1f5e320cca91135676d9cb6e44ca8a08c0b88342bcdb1144f6511b56860203392a3565b6115899161157882895461125e565b885560048101610bfc83825461125e565b3886610d49565b61159a813361168c565b60405190815260008051602061173b83398151915260203392a3873861151e565b60405162461bcd60e51b8152602060048201526014602482015273496e73756666696369656e742062616c616e636560601b6044820152606490fd5b60405163a9059cbb60e01b60208201526001600160a01b039092166024830152604480830193909352918152608081019167ffffffffffffffff8311828410176112485761140592604052611407565b6005548082111561168557505b60045480831161167d575b506000918181111561167857611675925061125e565b90565b505090565b91503861165f565b9050611654565b6040516370a0823160e01b81523060048201527f00000000000000000000000000000000000000000000000000000000000000009291906020816024816001600160a01b0388165afa90811561146357600091611709575b50808311611701575b50816116f857505050565b611405926115f7565b9150386116ed565b906020823d8211611732575b8161172260209383611226565b810103126106a2575051386116e4565b3d915061171556fe71bab65ced2e5750775a0613be067df48ef06cf92a496ebf7663ae0660924954a2646970667358221220767566b86ceee4f96eab95bf673a8bcd6dbb8bf1a25c48bfed6a54a5de618f7c64736f6c63430008140033",
  "linkReferences": {},
  "deployedLinkReferences": {}
}