{
  "_format": "hh-sol-artifact-1",
  "contractName": "ShahSwapFactoryV3",
  "sourceName": "contracts/shahswap/ShahSwapFactoryV3.sol",
  "abi": [
    {
      "inputs": [],
      "stateMutability": "nonpayable",
      "type": "constructor"
    },
    {
      "inputs": [
        {
          "internalType": "address",
          "name": "owner",
          "type": "address"
        }
      ],
      "name": "OwnableInvalidOwner",
      "type": "error"
    },
    {
      "inputs": [
        {
          "internalType": "address",
          "name": "account",
          "type": "address"
        }
      ],
      "name": "OwnableUnauthorizedAccount",
      "type": "error"
    },
    {
      "anonymous": false,
      "inputs": [
        {
          "indexed": true,
          "internalType": "address",
          "name": "previousOwner",
          "type": "address"
        },
        {
          "indexed": true,
          "internalType": "address",
          "name": "newOwner",
          "type": "address"
        }
      ],
      "name": "OwnershipTransferred",
      "type": "event"
    },
    {
      "anonymous": false,
      "inputs": [
        {
          "indexed": true,
          "internalType": "address",
          "name": "token0",
          "type": "address"
        },
        {
          "indexed": true,
          "internalType": "address",
          "name": "token1",
          "type": "address"
        },
        {
          "indexed": false,
          "internalType": "address",
          "name": "pair",
          "type": "address"
        },
        {
          "indexed": false,
          "internalType": "uint256",
          "name": "",
          "type": "uint256"
        }
      ],
      "name": "PairCreated",
      "type": "event"
    },
    {
      "inputs": [],
      "name": "INIT_CODE_PAIR_HASH",
      "outputs": [
        {
          "internalType": "bytes32",
          "name": "",
          "type": "bytes32"
        }
      ],
      "stateMutability": "view",
      "type": "function"
    },
    {
      "inputs": [
        {
          "internalType": "uint256",
          "name": "",
          "type": "uint256"
        }
      ],
      "name": "allPairs",
      "outputs": [
        {
          "internalType": "address",
          "name": "",
          "type": "address"
        }
      ],
      "stateMutability": "view",
      "type": "function"
    },
    {
      "inputs": [],
      "name": "allPairsLength",
      "outputs": [
        {
          "internalType": "uint256",
          "name": "",
          "type": "uint256"
        }
      ],
      "stateMutability": "view",
      "type": "function"
    },
    {
      "inputs": [
        {
          "internalType": "address",
          "name": "tokenA",
          "type": "address"
        },
        {
          "internalType": "address",
          "name": "tokenB",
          "type": "address"
        }
      ],
      "name": "createPair",
      "outputs": [
        {
          "internalType": "address",
          "name": "pair",
          "type": "address"
        }
      ],
      "stateMutability": "nonpayable",
      "type": "function"
    },
    {
      "inputs": [],
      "name": "feeTo",
      "outputs": [
        {
          "internalType": "address",
          "name": "",
          "type": "address"
        }
      ],
      "stateMutability": "view",
      "type": "function"
    },
    {
      "inputs": [],
      "name": "feeToSetter",
      "outputs": [
        {
          "internalType": "address",
          "name": "",
          "type": "address"
        }
      ],
      "stateMutability": "view",
      "type": "function"
    },
    {
      "inputs": [
        {
          "internalType": "address",
          "name": "",
          "type": "address"
        },
        {
          "internalType": "address",
          "name": "",
          "type": "address"
        }
      ],
      "name": "getPair",
      "outputs": [
        {
          "internalType": "address",
          "name": "",
          "type": "address"
        }
      ],
      "stateMutability": "view",
      "type": "function"
    },
    {
      "inputs": [],
      "name": "owner",
      "outputs": [
        {
          "internalType": "address",
          "name": "",
          "type": "address"
        }
      ],
      "stateMutability": "view",
      "type": "function"
    },
    {
      "inputs": [],
      "name": "renounceOwnership",
      "outputs": [],
      "stateMutability": "nonpayable",
      "type": "function"
    },
    {
      "inputs": [
        {
          "internalType": "address",
          "name": "_feeTo",
          "type": "address"
        }
      ],
      "name": "setFeeTo",
      "outputs": [],
      "stateMutability": "nonpayable",
      "type": "function"
    },
    {
      "inputs": [
        {
          "internalType": "address",
          "name": "_feeToSetter",
          "type": "address"
        }
      ],
      "name": "setFeeToSetter",
      "outputs": [],
      "stateMutability": "nonpayable",
      "type": "function"
    },
    {
      "inputs": [
        {
          "internalType": "address",
          "name": "newOwner",
          "type": "address"
        }
      ],
      "name": "transferOwnership",
      "outputs": [],
      "stateMutability": "nonpayable",
      "type": "function"
    }
  ],
  "bytecode": "0x608080604052346100d35733156100bd57600080546001600160a01b0319808216339081178455604051926001600160a01b03167f8be0079c531659141344cd1fd0a4f28419497f9722a3daafe3b4186f6b6457e08580a36002805490911633179055612d2a91603f8301601f19168201906001600160401b038211838310176100a95750604052818152602081019161373a833951902060055560405161366190816100d98239f35b634e487b7160e01b81526041600452602490fd5b631e4fbdf760e01b815260006004820152602490fd5b600080fdfe608060405260043610156200001357600080fd5b60003560e01c8063017e7e5814620000ef578063094b741514620000e95780631e3dd18b14620000e3578063574f2ba314620000dd5780635855a25a14620000d7578063715018a614620000d15780638da5cb5b14620000cb578063a2e74af614620000c5578063c9c6539614620000bf578063e6a4390514620000b9578063f2fde38b14620000b35763f46901ed14620000ad57600080fd5b6200066f565b620005e0565b62000581565b62000302565b620002b5565b6200025c565b620001fa565b620001da565b620001ba565b6200015c565b62000131565b62000106565b60009103126200010157565b600080fd5b346200010157600036600319011262000101576001546040516001600160a01b039091168152602090f35b346200010157600036600319011262000101576002546040516001600160a01b039091168152602090f35b34620001015760203660031901126200010157600435600454811015620001015760046000527f8a35acfbc15ff81a39ae7d344fd709f28e8600b4aa8c65c6b64bfe7fe36bd19b01546040516001600160a01b039091168152602090f35b346200010157600036600319011262000101576020600454604051908152f35b346200010157600036600319011262000101576020600554604051908152f35b346200010157600080600319360112620002595762000218620006c6565b80546001600160a01b03198116825581906001600160a01b03167f8be0079c531659141344cd1fd0a4f28419497f9722a3daafe3b4186f6b6457e08280a380f35b80fd5b346200010157600036600319011262000101576000546040516001600160a01b039091168152602090f35b600435906001600160a01b03821682036200010157565b602435906001600160a01b03821682036200010157565b34620001015760203660031901126200010157620002d262000287565b600254906001600160a01b0390620002ee3383851614620008be565b6001600160a01b0319909216911617600255005b346200010157604036600319011262000101576200031f62000287565b620003296200029e565b6001600160a01b03918183168184166200034681831415620006f3565b10156200057b57905b8282166200035f81151562000740565b620003c4620003bd620003b1620003a4856200038d8860018060a01b03166000526003602052604060002090565b9060018060a01b0316600052602052604060002090565b546001600160a01b031690565b6001600160a01b031690565b1562000786565b612d2a620003d5602082016200081f565b908082526020820190620009028239604051606086811b6bffffffffffffffffffffffff19908116602084019081529187901b166034830152602882529062000420604882620007fc565b5190209151906000f59284841694853b15620001015760405163485cc95560e01b81526001600160a01b03838116600483015285166024820152956000908790604490829084905af1918215620005755785620004d06200050d9262000553997f0d3648bd0f6ba80134a33ba9275ac585d9d315f0ad8355cddefde31afa28d0e99662000557575b50620004ef83620004d08a6200038d8560018060a01b03166000526003602052604060002090565b80546001600160a01b0319166001600160a01b03909216919091179055565b6001600160a01b03881660009081526003602052604090206200038d565b62000518856200083d565b600454604080516001600160a01b038816815260208101929092529190941693a36040516001600160a01b0390911681529081906020820190565b0390f35b80620005676200056e92620007e1565b80620000f5565b38620004a8565b62000831565b6200034f565b346200010157604036600319011262000101576020620005a062000287565b620005d6620005ae6200029e565b6001600160a01b03928316600090815260038552604080822092851682526020929092522090565b5416604051908152f35b34620001015760203660031901126200010157620005fd62000287565b62000607620006c6565b6001600160a01b0390811680156200065657600080546001600160a01b03198116831782559092167f8be0079c531659141344cd1fd0a4f28419497f9722a3daafe3b4186f6b6457e08380a380f35b604051631e4fbdf760e01b815260006004820152602490fd5b346200010157602036600319011262000101576200068c62000287565b6002546001600160a01b039190620006a89083163314620008be565b166bffffffffffffffffffffffff60a01b6001541617600155600080f35b6000546001600160a01b03163303620006db57565b60405163118cdaa760e01b8152336004820152602490fd5b15620006fb57565b60405162461bcd60e51b815260206004820152601d60248201527f53686168537761703a204944454e544943414c5f4144445245535345530000006044820152606490fd5b156200074857565b60405162461bcd60e51b815260206004820152601660248201527553686168537761703a205a45524f5f4144445245535360501b6044820152606490fd5b156200078e57565b60405162461bcd60e51b815260206004820152601560248201527453686168537761703a20504149525f45584953545360581b6044820152606490fd5b634e487b7160e01b600052604160045260246000fd5b67ffffffffffffffff8111620007f657604052565b620007cb565b90601f8019910116810190811067ffffffffffffffff821117620007f657604052565b906200082f6040519283620007fc565b565b6040513d6000823e3d90fd5b60045468010000000000000000811015620007f6576001810180600455811015620008a85760046000527f8a35acfbc15ff81a39ae7d344fd709f28e8600b4aa8c65c6b64bfe7fe36bd19b0180546001600160a01b0319166001600160a01b03909216919091179055565b634e487b7160e01b600052603260045260246000fd5b15620008c657565b60405162461bcd60e51b815260206004820152601360248201527229b430b429bbb0b81d102327a92124a22222a760691b6044820152606490fdfe6101606040818152346200045b57620000188262000460565b6008825260209182810167053686168537761760c41b815282516200003d8162000460565b60019081815285810195603160f81b87528551956200005c8762000460565b601187527029b430b429bbb0b8102628102a37b5b2b760791b82880152805197620000878962000460565b60078952660534841482d4c560cc1b838a015287516001600160401b0398908981116200035b576003908154928884811c9416801562000450575b878510146200043a578190601f94858111620003e4575b5087908583116001146200037d5760009262000371575b505060001982841b1c191690881b1781555b8a51918a83116200035b5760049b8c548981811c9116801562000350575b888210146200033b579081838695949311620002e1575b508791841160011462000277576000936200026b575b505082881b92600019911b1c19161789555b6200016a876200047c565b956101209687526200017c8562000640565b97610140988952519020938460e0525190209761010098808a524660a0528251938401947f8b73c3c69bb8fe3d512ecc4cf759cc79239f7b179b0ffacaa9a75d522b39400f86528385015260608401524660808401523060a084015260a0835260c0830197838910908911176200025657508690525190206080523060c052600e55600780546001600160a01b031916331790556125319384620007f9853960805184612362015260a0518461242e015260c0518461232c015260e051846123b1015251836123d701525182610b8b01525181610bb50152f35b604190634e487b7160e01b6000525260246000fd5b0151915038806200014d565b60008e81528881208b965093929190601f198616905b8a828210620002ca5750508511620002af575b50505050811b0189556200015f565b01519060f884600019921b161c1916905538808080620002a0565b8385015187558d989096019593840193016200028d565b90919293508d600052876000208380870160051c8201928a881062000331575b918c918897969594930160051c01915b8281106200032157505062000137565b600081558796508c910162000311565b9250819262000301565b60228e634e487b7160e01b6000525260246000fd5b90607f169062000120565b634e487b7160e01b600052604160045260246000fd5b015190503880620000f0565b908a9350601f1983169185600052896000209260005b8b828210620003cd5750508411620003b4575b505050811b01815562000102565b015160001983861b60f8161c19169055388080620003a6565b8385015186558e9790950194938401930162000393565b90915083600052876000208580850160051c8201928a861062000430575b918c91869594930160051c01915b82811062000420575050620000d9565b600081558594508c910162000410565b9250819262000402565b634e487b7160e01b600052602260045260246000fd5b93607f1693620000c2565b600080fd5b604081019081106001600160401b038211176200035b57604052565b805160209190828110156200051b575090601f825111620004ba5780825192015190808310620004ab57501790565b82600019910360031b1b161790565b90604051809263305a27a960e01b82528060048301528251908160248401526000935b82851062000501575050604492506000838284010152601f80199101168101030190fd5b8481018201518686016044015293810193859350620004dd565b6001600160401b0381116200035b576005928354926001938481811c9116801562000635575b838210146200043a57601f8111620005fe575b5081601f841160011462000594575092829391839260009462000588575b50501b916000199060031b1c191617905560ff90565b01519250388062000572565b919083601f1981168760005284600020946000905b88838310620005e35750505010620005c9575b505050811b01905560ff90565b015160001960f88460031b161c19169055388080620005bc565b858701518855909601959485019487935090810190620005a9565b8560005284601f846000209201871c820191601f8601881c015b8281106200062857505062000554565b6000815501859062000618565b90607f169062000541565b805160209081811015620006ce5750601f8251116200066d5780825192015190808310620004ab57501790565b90604051809263305a27a960e01b82528060048301528251908160248401526000935b828510620006b4575050604492506000838284010152601f80199101168101030190fd5b848101820151868601604401529381019385935062000690565b906001600160401b0382116200035b57600654926001938481811c91168015620007ed575b838210146200043a57601f8111620007b3575b5081601f84116001146200074757509282939183926000946200073b575b50501b916000199060031b1c19161760065560ff90565b01519250388062000724565b919083601f198116600660005284600020946000905b888383106200079857505050106200077e575b505050811b0160065560ff90565b015160001960f88460031b161c1916905538808062000770565b8587015188559096019594850194879350908101906200075d565b600660005284601f84600020920160051c820191601f860160051c015b828110620007e057505062000706565b60008155018590620007d0565b90607f1690620006f356fe6080604052600436101561001257600080fd5b6000803560e01c8063022c0d9f1461134a57806306fdde03146112a45780630902f1ac1461124b578063095ea7b3146112245780630dfe1681146111fb57806318160ddd146111dd57806323b872dd146110ed57806330adf81f146110b2578063313ce56714611096578063485cc95514610ffb5780635909c0d514610fdd5780635a3d549314610fbf5780636a62784214610d0f57806370a0823114610cd75780637464fc3d14610cb95780637ecebe0014610c8057806384b0196e14610b7557806389afcb441461076e57806395d89b4114610688578063a9059cbb14610656578063ba9a7a5614610639578063bc25cf77146104f0578063c45a0155146104c7578063d21220a71461049e578063d505accf146102c9578063dd62ed3e1461027a5763fff6cae91461014657600080fd5b346102775780600319360112610277576101646001600e5414611d53565b600e8190556008546040516370a0823160e01b808252306004830152916020916001600160a01b039183908290602490829086165afa91821561026c578391869361023b575b50600954169360246040518096819382523060048301525afa9182156102305784926101f9575b506101f19250600a54916001600160701b03808460701c16931691611e30565b6001600e5580f35b90915082813d8311610229575b6102108183611a19565b81010312610224576101f1915190386101d1565b600080fd5b503d610206565b6040513d86823e3d90fd5b8281939294503d8311610265575b6102538183611a19565b810103126102245782905191386101aa565b503d610249565b6040513d87823e3d90fd5b80fd5b503461027757604036600319011261027757610294611957565b604061029e61196d565b9260018060a01b03809316815260016020522091166000526020526020604060002054604051908152f35b50346102775760e0366003190112610277576102e3611957565b6102eb61196d565b6044359060843560643560ff8216820361049a57428110610461576001600160a01b03858116808852600f602052604088208054919492939290600019831461044d576001830190556040519260208401927f6e71edae12b1b97f4d1f60370fef10105fa2faae0126114a169c64845d6126c98452866040860152858816606086015288608086015260a085015260c084015260c0835260e083019183831067ffffffffffffffff841117610437576103e0936103d7936040525190206103b0612329565b906040519161190160f01b83526002830152602282015260c43591604260a4359220612220565b909291926122a4565b16036103f2576103ef92611b3c565b80f35b60405162461bcd60e51b815260206004820152601b60248201527f53686168537761703a20494e56414c49445f5349474e415455524500000000006044820152606490fd5b634e487b7160e01b600052604160045260246000fd5b634e487b7160e01b8a52601160045260248afd5b60405162461bcd60e51b815260206004820152601160248201527014da185a14ddd85c0e8811561412549151607a1b6044820152606490fd5b8580fd5b50346102775780600319360112610277576009546040516001600160a01b039091168152602090f35b50346102775780600319360112610277576007546040516001600160a01b039091168152602090f35b5034610277576020806003193601126106355761050b611957565b9061051a6001600e5414611d53565b600e8390556008546009546040516370a0823160e01b80825230600483015290946001600160a01b039283169490939092168286602481845afa95861561062a5787966105f9575b50610585908461057f6001600160701b039889600a541690611d92565b916120c7565b6040519081523060048201528181602481875afa9182156105ee5786926105be575b505061057f906101f194600a5460701c1690611d92565b90809250813d83116105e7575b6105d58183611a19565b8101031261022457518361057f6105a7565b503d6105cb565b6040513d88823e3d90fd5b9095508281813d8311610623575b6106118183611a19565b81010312610224575194610585610562565b503d610607565b6040513d89823e3d90fd5b5080fd5b503461027757806003193601126102775760206040516103e88152f35b50346102775760403660031901126102775761067d610673611957565b6024359033611a3b565b602060405160018152f35b503461027757806003193601126102775760405160006004546106aa816119c3565b8084529060019081811690811561074757506001146106ec575b6106e8846106d481860382611a19565b604051918291602083526020830190611983565b0390f35b6004600090815292507f8a35acfbc15ff81a39ae7d344fd709f28e8600b4aa8c65c6b64bfe7fe36bd19b5b82841061072f5750505081016020016106d4826106c4565b80546020858701810191909152909301928101610717565b60ff191660208087019190915292151560051b850190920192506106d491508390506106c4565b503461027757602036600319011261027757610788611957565b6107966001600e5414611d53565b81600e556107b9600a546001600160701b0391828216928260701c169160e01c90565b506008546009546040516370a0823160e01b81523060048201526001600160a01b039182169694959190921693909290602083602481885afa928315610b68578193610b34575b506040516370a0823160e01b815230600482015296602088602481845afa958615610b29578798839897610af2575b503083528260205261086b61085f61085f6108646108528860408920549c611f8f565b986002549384918d611d9f565b611db2565b9a8a611d9f565b9688151580610ae9575b15610a94573015610a7b57306000526000602052604060002054818110610a5357916000826020936024969530845283865203604083205580600254036002556040519081527fddf252ad1be2c89b69c2b068fc378daa952ba7f163c4a11628f55a4df523b3ef843092a36108eb8a89836120c7565b6108f68989856120c7565b6040516370a0823160e01b815230600482015293849182905afa918215610a48578392610a13575b506020602491604051928380926370a0823160e01b82523060048301525afa928315610a0757926109cc575b50966109599291604098611e30565b6109a9575b83519083825282602083015260018060a01b0316907fdccd412f0b1252819cb1fd330b93224ca42612892bb3f4f789976e6d81936496853392a36001600e5582519182526020820152f35b6109c4600a546001600160701b03808260701c169116611d9f565b600d5561095e565b929150966020833d6020116109ff575b816109e960209383611a19565b810103126102245791519196909190604061094a565b3d91506109dc565b604051903d90823e3d90fd5b9091506020813d602011610a40575b81610a2f60209383611a19565b81010312610224575190602061091e565b3d9150610a22565b6040513d85823e3d90fd5b60405163391434e360e21b815230600482015260248101919091526044810191909152606490fd5b604051634b637e8f60e11b815260048101859052602490fd5b60405162461bcd60e51b815260206004820152602760248201527f53686168537761703a20494e53554646494349454e545f4c495155494449545960448201526617d0955493915160ca1b6064820152608490fd5b50871515610875565b965096506020863d602011610b21575b81610b0f60209383611a19565b8101031261022457879551963861082f565b3d9150610b02565b6040513d84823e3d90fd5b9092506020813d602011610b60575b81610b5060209383611a19565b8101031261022457519138610800565b3d9150610b43565b50604051903d90823e3d90fd5b5034610277578060031936011261027757610baf7f0000000000000000000000000000000000000000000000000000000000000000611b9d565b90610bd97f0000000000000000000000000000000000000000000000000000000000000000611c99565b90604051906020908183019383851067ffffffffffffffff8611176104375792828593610c368896610c2898604052858552604051988998600f60f81b8a5260e0858b015260e08a0190611983565b9088820360408a0152611983565b924660608801523060808801528460a088015286840360c088015251928381520193925b828110610c6957505050500390f35b835185528695509381019392810192600101610c5a565b5034610277576020366003190112610277576020906040906001600160a01b03610ca8611957565b168152600f83522054604051908152f35b50346102775780600319360112610277576020600d54604051908152f35b5034610277576020366003190112610277576020906040906001600160a01b03610cff611957565b1681528083522054604051908152f35b50346102775760208060031936011261063557610d2a611957565b90610d396001600e5414611d53565b82600e55610d5c600a546001600160701b0391828216928260701c169160e01c90565b5091909260018060a01b039283600854169360405184816024816370a0823160e01b998a82523060048301525afa918215610fb45785918993610f83575b50600954169560246040518098819382523060048301525afa94851561062a578795610f54575b506001600160701b039182871696610dd98884611d92565b9684831693610de88583611d92565b99610df38585611f8f565b95600254918215600014610e4c578d610e14610e0f8f8f611d9f565b612454565b6103e719810111610e385760405163ec442f0560e01b815260006004820152602490fd5b634e487b7160e01b81526011600452602490fd5b8d9161085f610e678e9d9f9c9e9361085f87610e6e96611d9f565b948c611d9f565b905080821015610f4d57505b988915610ef85790610e928a610e9796959493611dd2565b611e30565b610eda575b50604051918252838201527f4c209b5fc8ad50758f13e2e1088ba56a560dff690a1c6fef26394f4c03821c4f60403392a26001600e55604051908152f35b610eef90600a5490808260701c169116611d9f565b600d5584610e9c565b60405162461bcd60e51b8152600481018c9052602760248201527f53686168537761703a20494e53554646494349454e545f4c495155494449545960448201526617d3525395115160ca1b6064820152608490fd5b9050610e7a565b9094508381813d8311610f7c575b610f6c8183611a19565b8101031261022457519338610dc1565b503d610f62565b8281939294503d8311610fad575b610f9b8183611a19565b81010312610224578490519138610d9a565b503d610f91565b6040513d8a823e3d90fd5b50346102775780600319360112610277576020600c54604051908152f35b50346102775780600319360112610277576020600b54604051908152f35b503461027757604036600319011261027757611015611957565b61101d61196d565b6007546001600160a01b0391908216330361105b57816bffffffffffffffffffffffff60a01b93168360085416176008551690600954161760095580f35b60405162461bcd60e51b815260206004820152601360248201527229b430b429bbb0b81d102327a92124a22222a760691b6044820152606490fd5b5034610277578060031936011261027757602060405160128152f35b503461027757806003193601126102775760206040517f6e71edae12b1b97f4d1f60370fef10105fa2faae0126114a169c64845d6126c98152f35b503461027757606036600319011261027757611107611957565b61110f61196d565b60443591604060018060a01b038216948581526001602052203360005260205260406000205493600019851061114b575b5061067d9350611a3b565b8385106111b757801561119e5733156111855761067d94849160005260016020526040600020336000526020520360406000205538611140565b604051634a1406b160e11b815260006004820152602490fd5b60405163e602df0560e01b815260006004820152602490fd5b604051637dc7a0d960e11b81523360048201526024810186905260448101859052606490fd5b50346102775780600319360112610277576020600254604051908152f35b50346102775780600319360112610277576008546040516001600160a01b039091168152602090f35b50346102775760403660031901126102775761067d611241611957565b6024359033611b3c565b5034610277578060031936011261027757606063ffffffff611282600a546001600160701b0391828216928260701c169160e01c90565b909291604051936001600160701b038092168552166020840152166040820152f35b503461027757806003193601126102775760405160006003546112c6816119c3565b8084529060019081811690811561074757506001146112ef576106e8846106d481860382611a19565b6003600090815292507fc2575a0e9e593c00f959f8c92f12db2869c3395a3b0502d05e2516446f71f85b5b8284106113325750505081016020016106d4826106c4565b8054602085870181019190915290930192810161131a565b5034610277576080366003190112610277576001600160a01b0360443580821690036106355767ffffffffffffffff60643511610635573660236064350112156106355767ffffffffffffffff60643560040135116106355736602460643560040135606435010111610635576113c56001600e5414611d53565b81600e5560043515908115809261194c575b156118fb576113fb600a546001600160701b0391828216928260701c169160e01c90565b506001600160701b038294921660043510806118e7575b156118a3578260085416836009541692818560443516141580611895575b1561185957611845575b602435611831575b6064356004013561176e575b906020602492604051938480926370a0823160e01b82523060048301525afa9182156105ee578692611737575b506020602493604051948580926370a0823160e01b82523060048301525afa9283156105ee578693611703575b506114be6004356001600160701b038716611d92565b8211156116fc576114e36114dd6004356001600160701b038816611d92565b83611d92565b945b6114fa6024356001600160701b038416611d92565b8411156116f55761151f6115196024356001600160701b038516611d92565b85611d92565b935b86151587156116ec575b1561169b57836103e88102046103e8148415171561168757600387028781046003148815171561167357611563906103e88602611d92565b6103e882028281046103e8148315171561044d5760038702908782046003148815171561165f5761159e929161159891611d92565b90611d9f565b6115ba6001600160701b0385166001600160701b038516611d9f565b90620f42409182810292818404149015171561044d571061162c576115de93611e30565b60405192835260208301526004356040830152602435606083015260443516907fd78ad95fa46c994b6551d0da85fc275fe613ce37657fb8d5e3d130840159d82260803392a36001600e5580f35b60405162461bcd60e51b815260206004820152600b60248201526a53686168537761703a204b60a81b6044820152606490fd5b634e487b7160e01b8b52601160045260248bfd5b634e487b7160e01b89526011600452602489fd5b634e487b7160e01b88526011600452602488fd5b60405162461bcd60e51b815260206004820152602360248201527f53686168537761703a20494e53554646494349454e545f494e5055545f414d4f60448201526215539560ea1b6064820152608490fd5b5084151561152b565b8693611521565b85946114e5565b9092506020813d60201161172f575b8161171f60209383611a19565b81010312610224575191386114a8565b3d9150611712565b9291506020833d602011611766575b8161175360209383611a19565b810103126102245791519091602061147b565b3d9150611746565b83604435163b1561049a57604051632e49fffb60e01b815233600482015260043560248201526024356044820152608060648201526064356004013560848201526064356004013560246064350160a48301378660a46064356004013583010152868160a481601f19601f60643560040135011681010301818389604435165af1801561062a57611800575b5061144e565b67ffffffffffffffff819792971161181d576040529460206117fa565b634e487b7160e01b82526041600452602482fd5b611840602435604435856120c7565b611442565b611854600435604435836120c7565b61143a565b60405162461bcd60e51b815260206004820152601460248201527353686168537761703a20494e56414c49445f544f60601b6044820152606490fd5b508385604435161415611430565b606460405162461bcd60e51b815260206004820152602060248201527f53686168537761703a20494e53554646494349454e545f4c49515549444954596044820152fd5b506001600160701b03811660243510611412565b60405162461bcd60e51b8152602060048201526024808201527f53686168537761703a20494e53554646494349454e545f4f55545055545f414d60448201526313d5539560e21b6064820152608490fd5b5060243515156113d7565b600435906001600160a01b038216820361022457565b602435906001600160a01b038216820361022457565b919082519283825260005b8481106119af575050826000602080949584010152601f8019910116010190565b60208183018101518483018201520161198e565b90600182811c921680156119f3575b60208310146119dd57565b634e487b7160e01b600052602260045260246000fd5b91607f16916119d2565b6040810190811067ffffffffffffffff82111761043757604052565b90601f8019910116810190811067ffffffffffffffff82111761043757604052565b916001600160a01b03808416928315611b005716928315611ae75760009083825281602052604082205490838210611ab5575091604082827fddf252ad1be2c89b69c2b068fc378daa952ba7f163c4a11628f55a4df523b3ef958760209652828652038282205586815220818154019055604051908152a3565b60405163391434e360e21b81526001600160a01b03919091166004820152602481019190915260448101839052606490fd5b60405163ec442f0560e01b815260006004820152602490fd5b604051634b637e8f60e11b815260006004820152602490fd5b91908201809211611b2657565b634e487b7160e01b600052601160045260246000fd5b6001600160a01b0390811691821561119e57169182156111855760207f8c5be1e5ebec7d5bd14f71427d1e84f3dd0314c0f7b2291e5b200ac8c7c3b925918360005260018252604060002085600052825280604060002055604051908152a3565b60ff8114611bdb5760ff811690601f8211611bc95760405191611bbf836119fd565b8252602082015290565b604051632cd44ac360e21b8152600490fd5b50604051600554816000611bee836119c3565b80835292600190818116908115611c775750600114611c18575b50611c1592500382611a19565b90565b6005600090815291507f036b6384b5eca791c62761152d0c79bb0604c104a5fb6f4eb0703f3154bb3db05b848310611c5c5750611c15935050810160200138611c08565b81935090816020925483858901015201910190918492611c43565b905060209250611c1594915060ff191682840152151560051b82010138611c08565b60ff8114611cbb5760ff811690601f8211611bc95760405191611bbf836119fd565b50604051600654816000611cce836119c3565b80835292600190818116908115611c775750600114611cf45750611c1592500382611a19565b6006600090815291507ff652222313e28459528d920b65115c16c04f3efc82aaedc97be59f3f377c0d3f5b848310611d385750611c15935050810160200138611c08565b81935090816020925483858901015201910190918492611d1f565b15611d5a57565b60405162461bcd60e51b815260206004820152601060248201526f14da185a14ddd85c0e881313d0d2d15160821b6044820152606490fd5b91908203918211611b2657565b81810292918115918404141715611b2657565b8115611dbc570490565b634e487b7160e01b600052601260045260246000fd5b6001600160a01b0316908115611ae7577fddf252ad1be2c89b69c2b068fc378daa952ba7f163c4a11628f55a4df523b3ef602082611e14600094600254611b19565b60025584845283825260408420818154019055604051908152a3565b916001600160701b03908184111580611f85575b15611f4b57600a549363ffffffff9460e01c8542160391858311611b26577f1c411e9a96e071241c2f21f7726b17ae89e3cab4c78be50e062b03a9fffbbad19660409685941680151580611f40575b80611f35575b611edc575b505050607093841b600160701b600160e01b031691169081174260e01b6001600160e01b03191617600a819055845191825290921c166020820152a1565b611f2a92611f22926001600160e01b0391611f0c9190611f0790611f1a611f128787878587896124ae565b6124dd565b16611d9f565b600b54611b19565b600b556124ae565b600c54611b19565b600c55388080611e9e565b508482161515611e99565b508483161515611e93565b60405162461bcd60e51b815260206004820152601260248201527153686168537761703a204f564552464c4f5760701b6044820152606490fd5b5081831115611e44565b600754604051622fcfcb60e31b815292939291906001600160a01b03906020908490600490829085165afa9283156120bb5760009361207d575b508216151593600d54918560001461206c5782611fe7575b50505050565b610e0f6120049161200a936001600160701b038091169116611d9f565b91612454565b90818111612019575b80611fe1565b6120296002546115988484611d92565b90600581029080820460051490151715611b26576120509261204a91611b19565b90611db2565b8061205c575b80612013565b61206591611dd2565b3880612056565b5050905061207657565b6000600d55565b6020939193813d82116120b3575b8161209860209383611a19565b81010312610635575190838216820361027757509138611fc9565b3d915061208b565b6040513d6000823e3d90fd5b60405192916120d5846119fd565b601984527f7472616e7366657228616464726573732c75696e74323536290000000000000060209485015260405163a9059cbb60e01b8186019081526001600160a01b03909216602482015260448082019490945292835267ffffffffffffffff92608081018481118282101761043757604052600092839283809351925af1913d15612218573d90811161181d576040519061217b601f8201601f1916860183611a19565b81523d828583013e5b826121d8575b5050156121945750565b6064906040519062461bcd60e51b82526004820152601960248201527f53686168537761703a205452414e534645525f4641494c4544000000000000006044820152fd5b80519250821591908483156121f4575b5050509050388061218a565b919381809450010312610635578201519081151582036102775750803880846121e8565b506060612184565b91907f7fffffffffffffffffffffffffffffff5d576e7357a4501ddfe92f46681b20a0841161229857926020929160ff608095604051948552168484015260408301526060820152600092839182805260015afa15610a075780516001600160a01b0381161561228f57918190565b50809160019190565b50505060009160039190565b600481101561231357806122b6575050565b600181036122d05760405163f645eedf60e01b8152600490fd5b600281036122f15760405163fce698f760e01b815260048101839052602490fd5b6003146122fb5750565b602490604051906335e2f38360e21b82526004820152fd5b634e487b7160e01b600052602160045260246000fd5b307f00000000000000000000000000000000000000000000000000000000000000006001600160a01b0316148061242b575b15612384577f000000000000000000000000000000000000000000000000000000000000000090565b60405160208101907f8b73c3c69bb8fe3d512ecc4cf759cc79239f7b179b0ffacaa9a75d522b39400f82527f000000000000000000000000000000000000000000000000000000000000000060408201527f000000000000000000000000000000000000000000000000000000000000000060608201524660808201523060a082015260a0815260c0810181811067ffffffffffffffff8211176104375760405251902090565b507f0000000000000000000000000000000000000000000000000000000000000000461461235b565b90600060038311156124a157508160019080821c828101809111611b265791905b84831061248157505050565b90919350612498846124938184611db2565b611b19565b821c9190612475565b916124a857565b60019150565b600160701b600160e01b03607082901b16906001600160701b0316808204600160701b1490151715611b265790565b906001600160701b0316908115611dbc576001600160e01b0316049056fea264697066735822122031f3c58986b407fa0dce9482efafb05a13593599acb2910348234c21fc6e0ec064736f6c63430008140033a2646970667358221220757cd54ca8f335c278c5a6bf3036d9bf4322674afb30e5d7296c4c72850f02c064736f6c634300081400336101606040818152346200045b57620000188262000460565b6008825260209182810167053686168537761760c41b815282516200003d8162000460565b60019081815285810195603160f81b87528551956200005c8762000460565b601187527029b430b429bbb0b8102628102a37b5b2b760791b82880152805197620000878962000460565b60078952660534841482d4c560cc1b838a015287516001600160401b0398908981116200035b576003908154928884811c9416801562000450575b878510146200043a578190601f94858111620003e4575b5087908583116001146200037d5760009262000371575b505060001982841b1c191690881b1781555b8a51918a83116200035b5760049b8c548981811c9116801562000350575b888210146200033b579081838695949311620002e1575b508791841160011462000277576000936200026b575b505082881b92600019911b1c19161789555b6200016a876200047c565b956101209687526200017c8562000640565b97610140988952519020938460e0525190209761010098808a524660a0528251938401947f8b73c3c69bb8fe3d512ecc4cf759cc79239f7b179b0ffacaa9a75d522b39400f86528385015260608401524660808401523060a084015260a0835260c0830197838910908911176200025657508690525190206080523060c052600e55600780546001600160a01b031916331790556125319384620007f9853960805184612362015260a0518461242e015260c0518461232c015260e051846123b1015251836123d701525182610b8b01525181610bb50152f35b604190634e487b7160e01b6000525260246000fd5b0151915038806200014d565b60008e81528881208b965093929190601f198616905b8a828210620002ca5750508511620002af575b50505050811b0189556200015f565b01519060f884600019921b161c1916905538808080620002a0565b8385015187558d989096019593840193016200028d565b90919293508d600052876000208380870160051c8201928a881062000331575b918c918897969594930160051c01915b8281106200032157505062000137565b600081558796508c910162000311565b9250819262000301565b60228e634e487b7160e01b6000525260246000fd5b90607f169062000120565b634e487b7160e01b600052604160045260246000fd5b015190503880620000f0565b908a9350601f1983169185600052896000209260005b8b828210620003cd5750508411620003b4575b505050811b01815562000102565b015160001983861b60f8161c19169055388080620003a6565b8385015186558e9790950194938401930162000393565b90915083600052876000208580850160051c8201928a861062000430575b918c91869594930160051c01915b82811062000420575050620000d9565b600081558594508c910162000410565b9250819262000402565b634e487b7160e01b600052602260045260246000fd5b93607f1693620000c2565b600080fd5b604081019081106001600160401b038211176200035b57604052565b805160209190828110156200051b575090601f825111620004ba5780825192015190808310620004ab57501790565b82600019910360031b1b161790565b90604051809263305a27a960e01b82528060048301528251908160248401526000935b82851062000501575050604492506000838284010152601f80199101168101030190fd5b8481018201518686016044015293810193859350620004dd565b6001600160401b0381116200035b576005928354926001938481811c9116801562000635575b838210146200043a57601f8111620005fe575b5081601f841160011462000594575092829391839260009462000588575b50501b916000199060031b1c191617905560ff90565b01519250388062000572565b919083601f1981168760005284600020946000905b88838310620005e35750505010620005c9575b505050811b01905560ff90565b015160001960f88460031b161c19169055388080620005bc565b858701518855909601959485019487935090810190620005a9565b8560005284601f846000209201871c820191601f8601881c015b8281106200062857505062000554565b6000815501859062000618565b90607f169062000541565b805160209081811015620006ce5750601f8251116200066d5780825192015190808310620004ab57501790565b90604051809263305a27a960e01b82528060048301528251908160248401526000935b828510620006b4575050604492506000838284010152601f80199101168101030190fd5b848101820151868601604401529381019385935062000690565b906001600160401b0382116200035b57600654926001938481811c91168015620007ed575b838210146200043a57601f8111620007b3575b5081601f84116001146200074757509282939183926000946200073b575b50501b916000199060031b1c19161760065560ff90565b01519250388062000724565b919083601f198116600660005284600020946000905b888383106200079857505050106200077e575b505050811b0160065560ff90565b015160001960f88460031b161c1916905538808062000770565b8587015188559096019594850194879350908101906200075d565b600660005284601f84600020920160051c820191601f860160051c015b828110620007e057505062000706565b60008155018590620007d0565b90607f1690620006f356fe6080604052600436101561001257600080fd5b6000803560e01c8063022c0d9f1461134a57806306fdde03146112a45780630902f1ac1461124b578063095ea7b3146112245780630dfe1681146111fb57806318160ddd146111dd57806323b872dd146110ed57806330adf81f146110b2578063313ce56714611096578063485cc95514610ffb5780635909c0d514610fdd5780635a3d549314610fbf5780636a62784214610d0f57806370a0823114610cd75780637464fc3d14610cb95780637ecebe0014610c8057806384b0196e14610b7557806389afcb441461076e57806395d89b4114610688578063a9059cbb14610656578063ba9a7a5614610639578063bc25cf77146104f0578063c45a0155146104c7578063d21220a71461049e578063d505accf146102c9578063dd62ed3e1461027a5763fff6cae91461014657600080fd5b346102775780600319360112610277576101646001600e5414611d53565b600e8190556008546040516370a0823160e01b808252306004830152916020916001600160a01b039183908290602490829086165afa91821561026c578391869361023b575b50600954169360246040518096819382523060048301525afa9182156102305784926101f9575b506101f19250600a54916001600160701b03808460701c16931691611e30565b6001600e5580f35b90915082813d8311610229575b6102108183611a19565b81010312610224576101f1915190386101d1565b600080fd5b503d610206565b6040513d86823e3d90fd5b8281939294503d8311610265575b6102538183611a19565b810103126102245782905191386101aa565b503d610249565b6040513d87823e3d90fd5b80fd5b503461027757604036600319011261027757610294611957565b604061029e61196d565b9260018060a01b03809316815260016020522091166000526020526020604060002054604051908152f35b50346102775760e0366003190112610277576102e3611957565b6102eb61196d565b6044359060843560643560ff8216820361049a57428110610461576001600160a01b03858116808852600f602052604088208054919492939290600019831461044d576001830190556040519260208401927f6e71edae12b1b97f4d1f60370fef10105fa2faae0126114a169c64845d6126c98452866040860152858816606086015288608086015260a085015260c084015260c0835260e083019183831067ffffffffffffffff841117610437576103e0936103d7936040525190206103b0612329565b906040519161190160f01b83526002830152602282015260c43591604260a4359220612220565b909291926122a4565b16036103f2576103ef92611b3c565b80f35b60405162461bcd60e51b815260206004820152601b60248201527f53686168537761703a20494e56414c49445f5349474e415455524500000000006044820152606490fd5b634e487b7160e01b600052604160045260246000fd5b634e487b7160e01b8a52601160045260248afd5b60405162461bcd60e51b815260206004820152601160248201527014da185a14ddd85c0e8811561412549151607a1b6044820152606490fd5b8580fd5b50346102775780600319360112610277576009546040516001600160a01b039091168152602090f35b50346102775780600319360112610277576007546040516001600160a01b039091168152602090f35b5034610277576020806003193601126106355761050b611957565b9061051a6001600e5414611d53565b600e8390556008546009546040516370a0823160e01b80825230600483015290946001600160a01b039283169490939092168286602481845afa95861561062a5787966105f9575b50610585908461057f6001600160701b039889600a541690611d92565b916120c7565b6040519081523060048201528181602481875afa9182156105ee5786926105be575b505061057f906101f194600a5460701c1690611d92565b90809250813d83116105e7575b6105d58183611a19565b8101031261022457518361057f6105a7565b503d6105cb565b6040513d88823e3d90fd5b9095508281813d8311610623575b6106118183611a19565b81010312610224575194610585610562565b503d610607565b6040513d89823e3d90fd5b5080fd5b503461027757806003193601126102775760206040516103e88152f35b50346102775760403660031901126102775761067d610673611957565b6024359033611a3b565b602060405160018152f35b503461027757806003193601126102775760405160006004546106aa816119c3565b8084529060019081811690811561074757506001146106ec575b6106e8846106d481860382611a19565b604051918291602083526020830190611983565b0390f35b6004600090815292507f8a35acfbc15ff81a39ae7d344fd709f28e8600b4aa8c65c6b64bfe7fe36bd19b5b82841061072f5750505081016020016106d4826106c4565b80546020858701810191909152909301928101610717565b60ff191660208087019190915292151560051b850190920192506106d491508390506106c4565b503461027757602036600319011261027757610788611957565b6107966001600e5414611d53565b81600e556107b9600a546001600160701b0391828216928260701c169160e01c90565b506008546009546040516370a0823160e01b81523060048201526001600160a01b039182169694959190921693909290602083602481885afa928315610b68578193610b34575b506040516370a0823160e01b815230600482015296602088602481845afa958615610b29578798839897610af2575b503083528260205261086b61085f61085f6108646108528860408920549c611f8f565b986002549384918d611d9f565b611db2565b9a8a611d9f565b9688151580610ae9575b15610a94573015610a7b57306000526000602052604060002054818110610a5357916000826020936024969530845283865203604083205580600254036002556040519081527fddf252ad1be2c89b69c2b068fc378daa952ba7f163c4a11628f55a4df523b3ef843092a36108eb8a89836120c7565b6108f68989856120c7565b6040516370a0823160e01b815230600482015293849182905afa918215610a48578392610a13575b506020602491604051928380926370a0823160e01b82523060048301525afa928315610a0757926109cc575b50966109599291604098611e30565b6109a9575b83519083825282602083015260018060a01b0316907fdccd412f0b1252819cb1fd330b93224ca42612892bb3f4f789976e6d81936496853392a36001600e5582519182526020820152f35b6109c4600a546001600160701b03808260701c169116611d9f565b600d5561095e565b929150966020833d6020116109ff575b816109e960209383611a19565b810103126102245791519196909190604061094a565b3d91506109dc565b604051903d90823e3d90fd5b9091506020813d602011610a40575b81610a2f60209383611a19565b81010312610224575190602061091e565b3d9150610a22565b6040513d85823e3d90fd5b60405163391434e360e21b815230600482015260248101919091526044810191909152606490fd5b604051634b637e8f60e11b815260048101859052602490fd5b60405162461bcd60e51b815260206004820152602760248201527f53686168537761703a20494e53554646494349454e545f4c495155494449545960448201526617d0955493915160ca1b6064820152608490fd5b50871515610875565b965096506020863d602011610b21575b81610b0f60209383611a19565b8101031261022457879551963861082f565b3d9150610b02565b6040513d84823e3d90fd5b9092506020813d602011610b60575b81610b5060209383611a19565b8101031261022457519138610800565b3d9150610b43565b50604051903d90823e3d90fd5b5034610277578060031936011261027757610baf7f0000000000000000000000000000000000000000000000000000000000000000611b9d565b90610bd97f0000000000000000000000000000000000000000000000000000000000000000611c99565b90604051906020908183019383851067ffffffffffffffff8611176104375792828593610c368896610c2898604052858552604051988998600f60f81b8a5260e0858b015260e08a0190611983565b9088820360408a0152611983565b924660608801523060808801528460a088015286840360c088015251928381520193925b828110610c6957505050500390f35b835185528695509381019392810192600101610c5a565b5034610277576020366003190112610277576020906040906001600160a01b03610ca8611957565b168152600f83522054604051908152f35b50346102775780600319360112610277576020600d54604051908152f35b5034610277576020366003190112610277576020906040906001600160a01b03610cff611957565b1681528083522054604051908152f35b50346102775760208060031936011261063557610d2a611957565b90610d396001600e5414611d53565b82600e55610d5c600a546001600160701b0391828216928260701c169160e01c90565b5091909260018060a01b039283600854169360405184816024816370a0823160e01b998a82523060048301525afa918215610fb45785918993610f83575b50600954169560246040518098819382523060048301525afa94851561062a578795610f54575b506001600160701b039182871696610dd98884611d92565b9684831693610de88583611d92565b99610df38585611f8f565b95600254918215600014610e4c578d610e14610e0f8f8f611d9f565b612454565b6103e719810111610e385760405163ec442f0560e01b815260006004820152602490fd5b634e487b7160e01b81526011600452602490fd5b8d9161085f610e678e9d9f9c9e9361085f87610e6e96611d9f565b948c611d9f565b905080821015610f4d57505b988915610ef85790610e928a610e9796959493611dd2565b611e30565b610eda575b50604051918252838201527f4c209b5fc8ad50758f13e2e1088ba56a560dff690a1c6fef26394f4c03821c4f60403392a26001600e55604051908152f35b610eef90600a5490808260701c169116611d9f565b600d5584610e9c565b60405162461bcd60e51b8152600481018c9052602760248201527f53686168537761703a20494e53554646494349454e545f4c495155494449545960448201526617d3525395115160ca1b6064820152608490fd5b9050610e7a565b9094508381813d8311610f7c575b610f6c8183611a19565b8101031261022457519338610dc1565b503d610f62565b8281939294503d8311610fad575b610f9b8183611a19565b81010312610224578490519138610d9a565b503d610f91565b6040513d8a823e3d90fd5b50346102775780600319360112610277576020600c54604051908152f35b50346102775780600319360112610277576020600b54604051908152f35b503461027757604036600319011261027757611015611957565b61101d61196d565b6007546001600160a01b0391908216330361105b57816bffffffffffffffffffffffff60a01b93168360085416176008551690600954161760095580f35b60405162461bcd60e51b815260206004820152601360248201527229b430b429bbb0b81d102327a92124a22222a760691b6044820152606490fd5b5034610277578060031936011261027757602060405160128152f35b503461027757806003193601126102775760206040517f6e71edae12b1b97f4d1f60370fef10105fa2faae0126114a169c64845d6126c98152f35b503461027757606036600319011261027757611107611957565b61110f61196d565b60443591604060018060a01b038216948581526001602052203360005260205260406000205493600019851061114b575b5061067d9350611a3b565b8385106111b757801561119e5733156111855761067d94849160005260016020526040600020336000526020520360406000205538611140565b604051634a1406b160e11b815260006004820152602490fd5b60405163e602df0560e01b815260006004820152602490fd5b604051637dc7a0d960e11b81523360048201526024810186905260448101859052606490fd5b50346102775780600319360112610277576020600254604051908152f35b50346102775780600319360112610277576008546040516001600160a01b039091168152602090f35b50346102775760403660031901126102775761067d611241611957565b6024359033611b3c565b5034610277578060031936011261027757606063ffffffff611282600a546001600160701b0391828216928260701c169160e01c90565b909291604051936001600160701b038092168552166020840152166040820152f35b503461027757806003193601126102775760405160006003546112c6816119c3565b8084529060019081811690811561074757506001146112ef576106e8846106d481860382611a19565b6003600090815292507fc2575a0e9e593c00f959f8c92f12db2869c3395a3b0502d05e2516446f71f85b5b8284106113325750505081016020016106d4826106c4565b8054602085870181019190915290930192810161131a565b5034610277576080366003190112610277576001600160a01b0360443580821690036106355767ffffffffffffffff60643511610635573660236064350112156106355767ffffffffffffffff60643560040135116106355736602460643560040135606435010111610635576113c56001600e5414611d53565b81600e5560043515908115809261194c575b156118fb576113fb600a546001600160701b0391828216928260701c169160e01c90565b506001600160701b038294921660043510806118e7575b156118a3578260085416836009541692818560443516141580611895575b1561185957611845575b602435611831575b6064356004013561176e575b906020602492604051938480926370a0823160e01b82523060048301525afa9182156105ee578692611737575b506020602493604051948580926370a0823160e01b82523060048301525afa9283156105ee578693611703575b506114be6004356001600160701b038716611d92565b8211156116fc576114e36114dd6004356001600160701b038816611d92565b83611d92565b945b6114fa6024356001600160701b038416611d92565b8411156116f55761151f6115196024356001600160701b038516611d92565b85611d92565b935b86151587156116ec575b1561169b57836103e88102046103e8148415171561168757600387028781046003148815171561167357611563906103e88602611d92565b6103e882028281046103e8148315171561044d5760038702908782046003148815171561165f5761159e929161159891611d92565b90611d9f565b6115ba6001600160701b0385166001600160701b038516611d9f565b90620f42409182810292818404149015171561044d571061162c576115de93611e30565b60405192835260208301526004356040830152602435606083015260443516907fd78ad95fa46c994b6551d0da85fc275fe613ce37657fb8d5e3d130840159d82260803392a36001600e5580f35b60405162461bcd60e51b815260206004820152600b60248201526a53686168537761703a204b60a81b6044820152606490fd5b634e487b7160e01b8b52601160045260248bfd5b634e487b7160e01b89526011600452602489fd5b634e487b7160e01b88526011600452602488fd5b60405162461bcd60e51b815260206004820152602360248201527f53686168537761703a20494e53554646494349454e545f494e5055545f414d4f60448201526215539560ea1b6064820152608490fd5b5084151561152b565b8693611521565b85946114e5565b9092506020813d60201161172f575b8161171f60209383611a19565b81010312610224575191386114a8565b3d9150611712565b9291506020833d602011611766575b8161175360209383611a19565b810103126102245791519091602061147b565b3d9150611746565b83604435163b1561049a57604051632e49fffb60e01b815233600482015260043560248201526024356044820152608060648201526064356004013560848201526064356004013560246064350160a48301378660a46064356004013583010152868160a481601f19601f60643560040135011681010301818389604435165af1801561062a57611800575b5061144e565b67ffffffffffffffff819792971161181d576040529460206117fa565b634e487b7160e01b82526041600452602482fd5b611840602435604435856120c7565b611442565b611854600435604435836120c7565b61143a565b60405162461bcd60e51b815260206004820152601460248201527353686168537761703a20494e56414c49445f544f60601b6044820152606490fd5b508385604435161415611430565b606460405162461bcd60e51b815260206004820152602060248201527f53686168537761703a20494e53554646494349454e545f4c49515549444954596044820152fd5b506001600160701b03811660243510611412565b60405162461bcd60e51b8152602060048201526024808201527f53686168537761703a20494e53554646494349454e545f4f55545055545f414d60448201526313d5539560e21b6064820152608490fd5b5060243515156113d7565b600435906001600160a01b038216820361022457565b602435906001600160a01b038216820361022457565b919082519283825260005b8481106119af575050826000602080949584010152601f8019910116010190565b60208183018101518483018201520161198e565b90600182811c921680156119f3575b60208310146119dd57565b634e487b7160e01b600052602260045260246000fd5b91607f16916119d2565b6040810190811067ffffffffffffffff82111761043757604052565b90601f8019910116810190811067ffffffffffffffff82111761043757604052565b916001600160a01b03808416928315611b005716928315611ae75760009083825281602052604082205490838210611ab5575091604082827fddf252ad1be2c89b69c2b068fc378daa952ba7f163c4a11628f55a4df523b3ef958760209652828652038282205586815220818154019055604051908152a3565b60405163391434e360e21b81526001600160a01b03919091166004820152602481019190915260448101839052606490fd5b60405163ec442f0560e01b815260006004820152602490fd5b604051634b637e8f60e11b815260006004820152602490fd5b91908201809211611b2657565b634e487b7160e01b600052601160045260246000fd5b6001600160a01b0390811691821561119e57169182156111855760207f8c5be1e5ebec7d5bd14f71427d1e84f3dd0314c0f7b2291e5b200ac8c7c3b925918360005260018252604060002085600052825280604060002055604051908152a3565b60ff8114611bdb5760ff811690601f8211611bc95760405191611bbf836119fd565b8252602082015290565b604051632cd44ac360e21b8152600490fd5b50604051600554816000611bee836119c3565b80835292600190818116908115611c775750600114611c18575b50611c1592500382611a19565b90565b6005600090815291507f036b6384b5eca791c62761152d0c79bb0604c104a5fb6f4eb0703f3154bb3db05b848310611c5c5750611c15935050810160200138611c08565b81935090816020925483858901015201910190918492611c43565b905060209250611c1594915060ff191682840152151560051b82010138611c08565b60ff8114611cbb5760ff811690601f8211611bc95760405191611bbf836119fd565b50604051600654816000611cce836119c3565b80835292600190818116908115611c775750600114611cf45750611c1592500382611a19565b6006600090815291507ff652222313e28459528d920b65115c16c04f3efc82aaedc97be59f3f377c0d3f5b848310611d385750611c15935050810160200138611c08565b81935090816020925483858901015201910190918492611d1f565b15611d5a57565b60405162461bcd60e51b815260206004820152601060248201526f14da185a14ddd85c0e881313d0d2d15160821b6044820152606490fd5b91908203918211611b2657565b81810292918115918404141715611b2657565b8115611dbc570490565b634e487b7160e01b600052601260045260246000fd5b6001600160a01b0316908115611ae7577fddf252ad1be2c89b69c2b068fc378daa952ba7f163c4a11628f55a4df523b3ef602082611e14600094600254611b19565b60025584845283825260408420818154019055604051908152a3565b916001600160701b03908184111580611f85575b15611f4b57600a549363ffffffff9460e01c8542160391858311611b26577f1c411e9a96e071241c2f21f7726b17ae89e3cab4c78be50e062b03a9fffbbad19660409685941680151580611f40575b80611f35575b611edc575b505050607093841b600160701b600160e01b031691169081174260e01b6001600160e01b03191617600a819055845191825290921c166020820152a1565b611f2a92611f22926001600160e01b0391611f0c9190611f0790611f1a611f128787878587896124ae565b6124dd565b16611d9f565b600b54611b19565b600b556124ae565b600c54611b19565b600c55388080611e9e565b508482161515611e99565b508483161515611e93565b60405162461bcd60e51b815260206004820152601260248201527153686168537761703a204f564552464c4f5760701b6044820152606490fd5b5081831115611e44565b600754604051622fcfcb60e31b815292939291906001600160a01b03906020908490600490829085165afa9283156120bb5760009361207d575b508216151593600d54918560001461206c5782611fe7575b50505050565b610e0f6120049161200a936001600160701b038091169116611d9f565b91612454565b90818111612019575b80611fe1565b6120296002546115988484611d92565b90600581029080820460051490151715611b26576120509261204a91611b19565b90611db2565b8061205c575b80612013565b61206591611dd2565b3880612056565b5050905061207657565b6000600d55565b6020939193813d82116120b3575b8161209860209383611a19565b81010312610635575190838216820361027757509138611fc9565b3d915061208b565b6040513d6000823e3d90fd5b60405192916120d5846119fd565b601984527f7472616e7366657228616464726573732c75696e74323536290000000000000060209485015260405163a9059cbb60e01b8186019081526001600160a01b03909216602482015260448082019490945292835267ffffffffffffffff92608081018481118282101761043757604052600092839283809351925af1913d15612218573d90811161181d576040519061217b601f8201601f1916860183611a19565b81523d828583013e5b826121d8575b5050156121945750565b6064906040519062461bcd60e51b82526004820152601960248201527f53686168537761703a205452414e534645525f4641494c4544000000000000006044820152fd5b80519250821591908483156121f4575b5050509050388061218a565b919381809450010312610635578201519081151582036102775750803880846121e8565b506060612184565b91907f7fffffffffffffffffffffffffffffff5d576e7357a4501ddfe92f46681b20a0841161229857926020929160ff608095604051948552168484015260408301526060820152600092839182805260015afa15610a075780516001600160a01b0381161561228f57918190565b50809160019190565b50505060009160039190565b600481101561231357806122b6575050565b600181036122d05760405163f645eedf60e01b8152600490fd5b600281036122f15760405163fce698f760e01b815260048101839052602490fd5b6003146122fb5750565b602490604051906335e2f38360e21b82526004820152fd5b634e487b7160e01b600052602160045260246000fd5b307f00000000000000000000000000000000000000000000000000000000000000006001600160a01b0316148061242b575b15612384577f000000000000000000000000000000000000000000000000000000000000000090565b60405160208101907f8b73c3c69bb8fe3d512ecc4cf759cc79239f7b179b0ffacaa9a75d522b39400f82527f000000000000000000000000000000000000000000000000000000000000000060408201527f000000000000000000000000000000000000000000000000000000000000000060608201524660808201523060a082015260a0815260c0810181811067ffffffffffffffff8211176104375760405251902090565b507f0000000000000000000000000000000000000000000000000000000000000000461461235b565b90600060038311156124a157508160019080821c828101809111611b265791905b84831061248157505050565b90919350612498846124938184611db2565b611b19565b821c9190612475565b916124a857565b60019150565b600160701b600160e01b03607082901b16906001600160701b0316808204600160701b1490151715611b265790565b906001600160701b0316908115611dbc576001600160e01b0316049056fea264697066735822122031f3c58986b407fa0dce9482efafb05a13593599acb2910348234c21fc6e0ec064736f6c63430008140033",
  "linkReferences": {},
  "deployedLinkReferences": {}
}