{
  "_format": "hh-sol-artifact-1",
  "contractName": "ShahSwapOracle",
  "sourceName": "contracts/ShahSwapOracle.sol",
  "abi": [
    {
      "inputs": [
        {
          "internalType": "address",
          "name": "_factory",
          "type": "address"
        },
        {
          "internalType": "address",
          "name": "_WETH",
          "type": "address"
        }
      ],
      "stateMutability": "nonpayable",
      "type": "constructor"
    },
    {
      "inputs": [
        {
          "internalType": "address",
          "name": "owner",
          "type": "address"
        }
      ],
      "name": "OwnableInvalidOwner",
      "type": "error"
    },
    {
      "inputs": [
        {
          "internalType": "address",
          "name": "account",
          "type": "address"
        }
      ],
      "name": "OwnableUnauthorizedAccount",
      "type": "error"
    },
    {
      "inputs": [],
      "name": "ReentrancyGuardReentrantCall",
      "type": "error"
    },
    {
      "anonymous": false,
      "inputs": [
        {
          "indexed": true,
          "internalType": "address",
          "name": "pair",
          "type": "address"
        },
        {
          "indexed": false,
          "internalType": "uint256",
          "name": "price0Cumulative",
          "type": "uint256"
        },
        {
          "indexed": false,
          "internalType": "uint256",
          "name": "price1Cumulative",
          "type": "uint256"
        },
        {
          "indexed": false,
          "internalType": "uint32",
          "name": "timestamp",
          "type": "uint32"
        }
      ],
      "name": "OracleUpdated",
      "type": "event"
    },
    {
      "anonymous": false,
      "inputs": [
        {
          "indexed": true,
          "internalType": "address",
          "name": "previousOwner",
          "type": "address"
        },
        {
          "indexed": true,
          "internalType": "address",
          "name": "newOwner",
          "type": "address"
        }
      ],
      "name": "OwnershipTransferred",
      "type": "event"
    },
    {
      "anonymous": false,
      "inputs": [
        {
          "indexed": true,
          "internalType": "address",
          "name": "pair",
          "type": "address"
        },
        {
          "indexed": true,
          "internalType": "address",
          "name": "token0",
          "type": "address"
        },
        {
          "indexed": true,
          "internalType": "address",
          "name": "token1",
          "type": "address"
        }
      ],
      "name": "PairAdded",
      "type": "event"
    },
    {
      "anonymous": false,
      "inputs": [
        {
          "indexed": true,
          "internalType": "address",
          "name": "pair",
          "type": "address"
        }
      ],
      "name": "PairRemoved",
      "type": "event"
    },
    {
      "inputs": [],
      "name": "DEFAULT_TWAP_PERIOD",
      "outputs": [
        {
          "internalType": "uint32",
          "name": "",
          "type": "uint32"
        }
      ],
      "stateMutability": "view",
      "type": "function"
    },
    {
      "inputs": [],
      "name": "MINIMUM_LIQUIDITY",
      "outputs": [
        {
          "internalType": "uint256",
          "name": "",
          "type": "uint256"
        }
      ],
      "stateMutability": "view",
      "type": "function"
    },
    {
      "inputs": [],
      "name": "WETH",
      "outputs": [
        {
          "internalType": "address",
          "name": "",
          "type": "address"
        }
      ],
      "stateMutability": "view",
      "type": "function"
    },
    {
      "inputs": [
        {
          "internalType": "address",
          "name": "pair",
          "type": "address"
        },
        {
          "internalType": "address",
          "name": "token0",
          "type": "address"
        },
        {
          "internalType": "address",
          "name": "token1",
          "type": "address"
        }
      ],
      "name": "addPair",
      "outputs": [],
      "stateMutability": "nonpayable",
      "type": "function"
    },
    {
      "inputs": [
        {
          "internalType": "address",
          "name": "tokenIn",
          "type": "address"
        },
        {
          "internalType": "address",
          "name": "tokenOut",
          "type": "address"
        },
        {
          "internalType": "uint256",
          "name": "amountIn",
          "type": "uint256"
        },
        {
          "internalType": "uint32",
          "name": "period",
          "type": "uint32"
        }
      ],
      "name": "consult",
      "outputs": [
        {
          "internalType": "uint256",
          "name": "amountOut",
          "type": "uint256"
        },
        {
          "internalType": "uint256",
          "name": "priceTWAP",
          "type": "uint256"
        }
      ],
      "stateMutability": "view",
      "type": "function"
    },
    {
      "inputs": [
        {
          "internalType": "address",
          "name": "",
          "type": "address"
        }
      ],
      "name": "cumulativePrices",
      "outputs": [
        {
          "internalType": "uint256",
          "name": "price0CumulativeLast",
          "type": "uint256"
        },
        {
          "internalType": "uint256",
          "name": "price1CumulativeLast",
          "type": "uint256"
        },
        {
          "internalType": "uint32",
          "name": "blockTimestampLast",
          "type": "uint32"
        },
        {
          "internalType": "bool",
          "name": "initialized",
          "type": "bool"
        }
      ],
      "stateMutability": "view",
      "type": "function"
    },
    {
      "inputs": [
        {
          "internalType": "address",
          "name": "token",
          "type": "address"
        },
        {
          "internalType": "uint256",
          "name": "amount",
          "type": "uint256"
        }
      ],
      "name": "emergencyRecover",
      "outputs": [],
      "stateMutability": "nonpayable",
      "type": "function"
    },
    {
      "inputs": [],
      "name": "factory",
      "outputs": [
        {
          "internalType": "address",
          "name": "",
          "type": "address"
        }
      ],
      "stateMutability": "view",
      "type": "function"
    },
    {
      "inputs": [
        {
          "internalType": "address",
          "name": "pair",
          "type": "address"
        }
      ],
      "name": "getCumulativePrices",
      "outputs": [
        {
          "internalType": "uint256",
          "name": "price0CumulativeLast",
          "type": "uint256"
        },
        {
          "internalType": "uint256",
          "name": "price1CumulativeLast",
          "type": "uint256"
        },
        {
          "internalType": "uint32",
          "name": "blockTimestampLast",
          "type": "uint32"
        }
      ],
      "stateMutability": "view",
      "type": "function"
    },
    {
      "inputs": [
        {
          "internalType": "address",
          "name": "tokenIn",
          "type": "address"
        },
        {
          "internalType": "address",
          "name": "tokenOut",
          "type": "address"
        },
        {
          "internalType": "uint256",
          "name": "amountIn",
          "type": "uint256"
        }
      ],
      "name": "getPriceImpact",
      "outputs": [
        {
          "internalType": "uint256",
          "name": "priceImpact",
          "type": "uint256"
        }
      ],
      "stateMutability": "view",
      "type": "function"
    },
    {
      "inputs": [
        {
          "internalType": "address",
          "name": "tokenIn",
          "type": "address"
        },
        {
          "internalType": "address",
          "name": "tokenOut",
          "type": "address"
        },
        {
          "internalType": "uint256",
          "name": "amountIn",
          "type": "uint256"
        }
      ],
      "name": "getSpotPrice",
      "outputs": [
        {
          "internalType": "uint256",
          "name": "amountOut",
          "type": "uint256"
        },
        {
          "internalType": "uint256",
          "name": "priceSpot",
          "type": "uint256"
        }
      ],
      "stateMutability": "view",
      "type": "function"
    },
    {
      "inputs": [
        {
          "internalType": "address",
          "name": "pair",
          "type": "address"
        }
      ],
      "name": "isPairSupported",
      "outputs": [
        {
          "internalType": "bool",
          "name": "isSupported",
          "type": "bool"
        }
      ],
      "stateMutability": "view",
      "type": "function"
    },
    {
      "inputs": [],
      "name": "owner",
      "outputs": [
        {
          "internalType": "address",
          "name": "",
          "type": "address"
        }
      ],
      "stateMutability": "view",
      "type": "function"
    },
    {
      "inputs": [
        {
          "internalType": "address",
          "name": "",
          "type": "address"
        },
        {
          "internalType": "uint256",
          "name": "",
          "type": "uint256"
        }
      ],
      "name": "pairTokens",
      "outputs": [
        {
          "internalType": "address",
          "name": "",
          "type": "address"
        }
      ],
      "stateMutability": "view",
      "type": "function"
    },
    {
      "inputs": [
        {
          "internalType": "address",
          "name": "pair",
          "type": "address"
        }
      ],
      "name": "removePair",
      "outputs": [],
      "stateMutability": "nonpayable",
      "type": "function"
    },
    {
      "inputs": [],
      "name": "renounceOwnership",
      "outputs": [],
      "stateMutability": "nonpayable",
      "type": "function"
    },
    {
      "inputs": [
        {
          "internalType": "address",
          "name": "",
          "type": "address"
        }
      ],
      "name": "supportedPairs",
      "outputs": [
        {
          "internalType": "bool",
          "name": "",
          "type": "bool"
        }
      ],
      "stateMutability": "view",
      "type": "function"
    },
    {
      "inputs": [
        {
          "internalType": "address",
          "name": "newOwner",
          "type": "address"
        }
      ],
      "name": "transferOwnership",
      "outputs": [],
      "stateMutability": "nonpayable",
      "type": "function"
    },
    {
      "inputs": [
        {
          "internalType": "address",
          "name": "pair",
          "type": "address"
        }
      ],
      "name": "update",
      "outputs": [],
      "stateMutability": "nonpayable",
      "type": "function"
    }
  ],
  "bytecode": "0x60c0346200018e576200186a90601f38839003908101601f19168201906001600160401b038211838310176200019357808391604095869485528339810103126200018e576200005d60206200005583620001a9565b9201620001a9565b903315620001765760008054336001600160a01b031982168117835585516001600160a01b039390928416907f8be0079c531659141344cd1fd0a4f28419497f9722a3daafe3b4186f6b6457e09080a36001805581831615620001345750821615620000f05760805260a052516116ab9081620001bf82396080518181816106a701526113dc015260a051816108520152f35b825162461bcd60e51b815260206004820152601460248201527f4f7261636c653a20494e56414c49445f574554480000000000000000000000006044820152606490fd5b62461bcd60e51b815260206004820152601760248201527f4f7261636c653a20494e56414c49445f464143544f52590000000000000000006044820152606490fd5b8251631e4fbdf760e01b815260006004820152602490fd5b600080fd5b634e487b7160e01b600052604160045260246000fd5b51906001600160a01b03821682036200018e5756fe6040608081526004908136101561001557600080fd5b600091823560e01c8063079492d414610f9d5780631c1b877214610ea657806336a3c41d14610e585780633c9c8fb214610a645780634e5ff24814610a005780635ee837691461089e578063715018a6146109a65780638da5cb5b1461097e5780639639011e146108da578063968ec82b1461089e578063a52d692014610881578063ad5c46481461083d578063af6c9c1d14610789578063b1f4a6cb146106f3578063ba9a7a56146106d6578063c45a015514610692578063cf42feac146104e1578063f1ec23cf1461017b5763f2fde38b146100f257600080fd5b346101775760203660031901126101775761010b61111c565b90610114611182565b6001600160a01b0391821692831561016157505082546001600160a01b0319811683178455167f8be0079c531659141344cd1fd0a4f28419497f9722a3daafe3b4186f6b6457e08380a380f35b51631e4fbdf760e01b8152908101849052602490fd5b8280fd5b509190346104dd5760603660031901126104dd5761019761111c565b61019f611137565b6044926001600160a01b038435818116949093918585036104d9576101c2611182565b8082169687156104a0578184169586151580610497575b1561045c57888a526020948b865260ff878c20541661041a576101fe8a928592611395565b16036103d95761020d8361148f565b50906103e890816001600160701b03809216101592836103cc575b5050501561038b5750868852888352838820986001998a60ff198254161790558451908582019082821067ffffffffffffffff83111761037857508552858152868482015287895260038452848920895b600281106103655750505050869761035f9387987f08f680c196588c16b7f5dec385e7fd58fc4ffe25cdf6e01423981c3e069b8d7f986002956102c164ff000000009661150a565b9889919892978751906102d38261129c565b8982528582018b8152898084019963ffffffff8097168b526060850199848b528152858952209251835551908201550194511691845493511515901b169164ffffffffff19161717905551958695897f7f46075c67ca5bbd3aaf82d8e324282141f27b7cba3376e5498a6b70c9931c2a8c80a48452602084015263ffffffff1660408301526060820190565b0390a280f35b8251841682820155918501918b01610279565b634e487b7160e01b8b526041905260248afd5b897f4f7261636c653a20494e53554646494349454e545f4c495155494449545900006064928688519362461bcd60e51b8552840152601e6024840152820152fd5b1610159050388080610228565b897f4f7261636c653a20504149525f4e4f545f494e5f464143544f525900000000006064928688519362461bcd60e51b8552840152601b6024840152820152fd5b865162461bcd60e51b8152808d01879052601e60248201527f4f7261636c653a20504149525f414c52454144595f535550504f52544544000081850152606490fd5b855162461bcd60e51b81526020818d015260166024820152754f7261636c653a20494e56414c49445f544f4b454e5360501b81840152606490fd5b508715156101d9565b897327b930b1b6329d1024a72b20a624a22fa820a4a960611b606492602088519362461bcd60e51b855284015260146024840152820152fd5b8780fd5b5080fd5b509190346104dd576104f23661114d565b6001600160a01b038381169592909190610526906105148482168914156111ae565b82159561052187156111fa565b611395565b958287169081855261054b6020988a8a5261054660ff8a89205416611250565b61148f565b50949092865260038952878620885190818b89915b600283106106795750505050610575816112ce565b511603610667576001600160701b0392831692165b80159283158061065e575b61059e9061160e565b6105bb6105ab828561130c565b6105b58585611668565b90611335565b956103e580850294850414171561064b576105d6908361130c565b926103e880830292830414171561063857916105b56105f8926105fe94611668565b836114fd565b906127109182810292818404149015171561062557509061061e91611335565b9051908152f35b634e487b7160e01b815260118652602490fd5b634e487b7160e01b845260118852602484fd5b634e487b7160e01b855260118952602485fd5b50801515610595565b6001600160701b03908116921661058a565b6001918291878654168152019301910190918c90610560565b5050346104dd57816003193601126104dd57517f00000000000000000000000000000000000000000000000000000000000000006001600160a01b03168152602090f35b5050346104dd57816003193601126104dd57602090516103e88152f35b5050346104dd5760203660031901126104dd579081906001600160a01b0361071961111c565b1681526002602052209061078581516107318161129c565b8354928382526002600186015495866020850152015491606060ff63ffffffff851694858585015260201c161515910152519384938491604091949363ffffffff9160608501968552602085015216910152565b0390f35b5090346101775760203660031901126101775782906107a661111c565b6107ae611182565b60018060a01b031692838352806020526107cd60ff8385205416611250565b83835260205280822060ff198154169055600360205280822060028101905b81811061083057505060029081602052822082815582600182015501557f9493af33d363a70a1cd9cc0ceb347e3c0e16b5d9371695618e1ac5fb1c255b7c8280a280f35b92835584926001016107ec565b5050346104dd57816003193601126104dd57517f00000000000000000000000000000000000000000000000000000000000000006001600160a01b03168152602090f35b5050346104dd57816003193601126104dd57602090516107088152f35b50346101775760203660031901126101775760209260ff918391906001600160a01b036108c961111c565b168252855220541690519015158152f35b50903461017757806003193601126101775760206108f661111c565b926108ff611182565b604460018060a01b03918683815416938651978895869463a9059cbb60e01b86528501526024356024850152165af1908115610975575061093e575080f35b6020813d821161096d575b81610956602093836112ea565b810103126104dd57518015150361096a5780f35b80fd5b3d9150610949565b513d84823e3d90fd5b5050346104dd57816003193601126104dd57905490516001600160a01b039091168152602090f35b833461096a578060031936011261096a576109bf611182565b80546001600160a01b03198116825581906001600160a01b03167f8be0079c531659141344cd1fd0a4f28419497f9722a3daafe3b4186f6b6457e08280a380f35b5050346104dd5760203660031901126104dd5760809160ff9082906001600160a01b03610a2b61111c565b16815260026020522080549260026001830154920154918151948552602085015263ffffffff82169084015260201c1615156060820152f35b50823461096a57608036600319011261096a57610a7f61111c565b91610a88611137565b9260449384359360649081359663ffffffff97888116809103610177576001600160a01b0386811695909490610ac28187168814156111ae565b610acd8a15156111fa565b610708831097881580610e4b575b15610e11578c94939291610aee91611395565b908682169889875260209c8d928c8452610b0d60ff898b205416611250565b8b8952600296878552888a2093895196610b268861129c565b8554885260ff60019b8b8d890154988a8c01998a520154908a01988782168a521c1615801560608a0152610dc95790610b5f859261150a565b9196909951975198511691610d8057620151808a11610d37578216818110610cef5703818111610cdb5716968710610c80575050610ba79291610ba1916114fd565b926114fd565b988160701b600160701b92808204841490151715610c6d5783610bc991611335565b998060701b928184041490151715610c5a575090610be691611335565b958352600389528983208a5193908a855b848410610c4457505050505050610c0d816112ce565b511603610c2f575080610c20919261130c565b60701c915b8351928352820152f35b610c3b9150809261130c565b60701c91610c25565b82548816815292850192918501918c9101610bf7565b634e487b7160e01b865260119052602485fd5b634e487b7160e01b875260118252602487fd5b91509250608495508b94506717d153105414d15160c21b93507f4f7261636c654c6962726172793a20494e53554646494349454e545f54494d4591508d8f519562461bcd60e51b875286015260286024860152840152820152fd5b8f8c6011602492634e487b7160e01b835252fd5b5050509093508f8f8e94507f4f7261636c654c6962726172793a20494e56414c49445f54494d455354414d5093508091519462461bcd60e51b86528501526024840152820152fd5b505050915093508b92507f4f7261636c654c6962726172793a20504552494f445f544f4f5f4c4f4e47000091508d8f519362461bcd60e51b8552840152601e6024840152820152fd5b505050915093508b92507f4f7261636c654c6962726172793a20504552494f445f544f4f5f53484f52540091508d8f519362461bcd60e51b8552840152601f6024840152820152fd5b5050915093508b92507f4f7261636c653a2050524943455f4e4f545f494e495449414c495a454400000091508d8f519362461bcd60e51b8552840152601d6024840152820152fd5b50508a5162461bcd60e51b81526020818a0152601660248201527513dc9858db194e881253959053125117d411549253d160521b81850152fd5b5062015180841115610adb565b5050346104dd57806003193601126104dd57610e7261111c565b6001600160a01b0390811683526003602052818320602435906002821015610ea257602094500154169051908152f35b8480fd5b5090346101775760203660031901126101775761035f7f08f680c196588c16b7f5dec385e7fd58fc4ffe25cdf6e01423981c3e069b8d7f91610f11610ee961111c565b6001600160a01b03811680885260209690965282872054610f0c9060ff16611250565b61150a565b909391928051610f208161129c565b848152878960026020840193898552858101948663ffffffff94858a16885260608401966001885281528460205220915182555160018201550192511664ff0000000083549251151560201b169164ffffffffff191617179055519384938491604091949363ffffffff9160608501968552602085015216910152565b508290346104dd57610fae3661114d565b6001600160a01b0394909392909185821691610fde9190610fd38883168514156111ae565b6105218715156111fa565b9480861692838152610ffe60209786895261054660ff8b85205416611250565b506001600160701b0391821696871592909116821580611113575b6110229061160e565b670de0b6b3a76400009283890298890484141715611100578281029281840414901517156110ed57600160701b90607083901b8315848204841417156110da578861106c91611335565b978060701b9281840414901517156110c757509061108991611335565b9381526003875287812088519188835b600283106110ae5750505050610c0d816112ce565b6001918291878654168152019301910190918990611099565b634e487b7160e01b845260119052602483fd5b634e487b7160e01b855260118252602485fd5b634e487b7160e01b835260119052602482fd5b634e487b7160e01b845260118252602484fd5b50801515611019565b600435906001600160a01b038216820361113257565b600080fd5b602435906001600160a01b038216820361113257565b6060906003190112611132576001600160a01b0390600435828116810361113257916024359081168103611132579060443590565b6000546001600160a01b0316330361119657565b60405163118cdaa760e01b8152336004820152602490fd5b156111b557565b60405162461bcd60e51b815260206004820152601b60248201527f4f7261636c653a204944454e544943414c5f41444452455353455300000000006044820152606490fd5b1561120157565b60405162461bcd60e51b815260206004820152602160248201527f4f7261636c653a20494e53554646494349454e545f494e5055545f414d4f554e6044820152601560fa1b6064820152608490fd5b1561125757565b60405162461bcd60e51b815260206004820152601a60248201527f4f7261636c653a20504149525f4e4f545f535550504f525445440000000000006044820152606490fd5b6080810190811067ffffffffffffffff8211176112b857604052565b634e487b7160e01b600052604160045260246000fd5b6040810190811067ffffffffffffffff8211176112b857604052565b90601f8019910116810190811067ffffffffffffffff8211176112b857604052565b8181029291811591840414171561131f57565b634e487b7160e01b600052601160045260246000fd5b811561133f570490565b634e487b7160e01b600052601260045260246000fd5b3d15611390573d9067ffffffffffffffff82116112b85760405191611384601f8201601f1916602001846112ea565b82523d6000602084013e565b606090565b60405163e6a4390560e01b602082019081526001600160a01b0392831660248301529282166044808301919091528152600093928491829182916113d88161129c565b51907f00000000000000000000000000000000000000000000000000000000000000005afa611405611355565b9080611439575b61141557505050565b90919293506020818051810103126104dd576020015191821680920361096a575090565b5060208151101561140c565b51906001600160701b038216820361113257565b908160609103126111325761146d81611445565b91604061147c60208401611445565b92015163ffffffff811681036111325790565b9060009160009160008080936040516020810190630240bc6b60e21b8252600481526114ba816112ce565b51915afa6114c6611355565b90806114f1575b6114d45750565b915092506114ec915060208082518301019101611459565b909192565b506060815110156114cd565b9190820391821161131f57565b9060009160009182808063ffffffff4216946040516020810190630240bc6b60e21b82526004815261153b816112ce565b51915afa611547611355565b9080611602575b611556575050565b90945061156e91935060208082518301019101611459565b5090936001600160701b0380831692600160701b929160709190911b6dffffffffffffffffffffffffffff60701b908116918515868404861417156115ee576115ba9089168093611335565b9760701b169281840414901517156115da5750906115d791611335565b91565b634e487b7160e01b81526011600452602490fd5b634e487b7160e01b84526011600452602484fd5b5060608151101561154e565b1561161557565b60405162461bcd60e51b815260206004820152602560248201527f4f7261636c654c6962726172793a20494e53554646494349454e545f4c495155604482015264494449545960d81b6064820152608490fd5b9190820180921161131f5756fea264697066735822122026b4d67ddd4fb5850e447d2a6f3ff0d06667d77b922e90d21a54b0edf92f0d8464736f6c63430008140033",
  "linkReferences": {},
  "deployedLinkReferences": {}
}