{
  "_format": "hh-sol-artifact-1",
  "contractName": "BatchExecutor",
  "sourceName": "contracts/BatchExecutor.sol",
  "abi": [
    {
      "inputs": [
        {
          "internalType": "address",
          "name": "_feeCollector",
          "type": "address"
        }
      ],
      "stateMutability": "nonpayable",
      "type": "constructor"
    },
    {
      "inputs": [],
      "name": "EnforcedPause",
      "type": "error"
    },
    {
      "inputs": [],
      "name": "ExpectedPause",
      "type": "error"
    },
    {
      "inputs": [
        {
          "internalType": "address",
          "name": "owner",
          "type": "address"
        }
      ],
      "name": "OwnableInvalidOwner",
      "type": "error"
    },
    {
      "inputs": [
        {
          "internalType": "address",
          "name": "account",
          "type": "address"
        }
      ],
      "name": "OwnableUnauthorizedAccount",
      "type": "error"
    },
    {
      "inputs": [],
      "name": "ReentrancyGuardReentrantCall",
      "type": "error"
    },
    {
      "anonymous": false,
      "inputs": [
        {
          "indexed": true,
          "internalType": "address",
          "name": "user",
          "type": "address"
        },
        {
          "indexed": true,
          "internalType": "uint256",
          "name": "batchId",
          "type": "uint256"
        },
        {
          "indexed": false,
          "internalType": "uint256",
          "name": "totalGasUsed",
          "type": "uint256"
        },
        {
          "indexed": false,
          "internalType": "uint256",
          "name": "successCount",
          "type": "uint256"
        },
        {
          "indexed": false,
          "internalType": "uint256",
          "name": "failureCount",
          "type": "uint256"
        }
      ],
      "name": "BatchExecuted",
      "type": "event"
    },
    {
      "anonymous": false,
      "inputs": [
        {
          "indexed": true,
          "internalType": "address",
          "name": "previousOwner",
          "type": "address"
        },
        {
          "indexed": true,
          "internalType": "address",
          "name": "newOwner",
          "type": "address"
        }
      ],
      "name": "OwnershipTransferred",
      "type": "event"
    },
    {
      "anonymous": false,
      "inputs": [
        {
          "indexed": false,
          "internalType": "address",
          "name": "account",
          "type": "address"
        }
      ],
      "name": "Paused",
      "type": "event"
    },
    {
      "anonymous": false,
      "inputs": [
        {
          "indexed": true,
          "internalType": "address",
          "name": "user",
          "type": "address"
        },
        {
          "indexed": true,
          "internalType": "uint256",
          "name": "batchId",
          "type": "uint256"
        },
        {
          "indexed": true,
          "internalType": "uint256",
          "name": "txIndex",
          "type": "uint256"
        },
        {
          "indexed": false,
          "internalType": "address",
          "name": "target",
          "type": "address"
        },
        {
          "indexed": false,
          "internalType": "bool",
          "name": "success",
          "type": "bool"
        },
        {
          "indexed": false,
          "internalType": "uint256",
          "name": "gasUsed",
          "type": "uint256"
        }
      ],
      "name": "TransactionExecuted",
      "type": "event"
    },
    {
      "anonymous": false,
      "inputs": [
        {
          "indexed": false,
          "internalType": "address",
          "name": "account",
          "type": "address"
        }
      ],
      "name": "Unpaused",
      "type": "event"
    },
    {
      "inputs": [],
      "name": "GAS_BUFFER",
      "outputs": [
        {
          "internalType": "uint256",
          "name": "",
          "type": "uint256"
        }
      ],
      "stateMutability": "view",
      "type": "function"
    },
    {
      "inputs": [],
      "name": "GAS_BUFFER_DENOMINATOR",
      "outputs": [
        {
          "internalType": "uint256",
          "name": "",
          "type": "uint256"
        }
      ],
      "stateMutability": "view",
      "type": "function"
    },
    {
      "inputs": [
        {
          "internalType": "uint256",
          "name": "",
          "type": "uint256"
        }
      ],
      "name": "batchExecutors",
      "outputs": [
        {
          "internalType": "address",
          "name": "",
          "type": "address"
        }
      ],
      "stateMutability": "view",
      "type": "function"
    },
    {
      "inputs": [
        {
          "internalType": "uint256",
          "name": "_batchId",
          "type": "uint256"
        }
      ],
      "name": "batchExists",
      "outputs": [
        {
          "internalType": "bool",
          "name": "",
          "type": "bool"
        }
      ],
      "stateMutability": "view",
      "type": "function"
    },
    {
      "inputs": [
        {
          "internalType": "uint256",
          "name": "",
          "type": "uint256"
        }
      ],
      "name": "batchFailureCount",
      "outputs": [
        {
          "internalType": "uint256",
          "name": "",
          "type": "uint256"
        }
      ],
      "stateMutability": "view",
      "type": "function"
    },
    {
      "inputs": [
        {
          "internalType": "uint256",
          "name": "",
          "type": "uint256"
        }
      ],
      "name": "batchGasUsed",
      "outputs": [
        {
          "internalType": "uint256",
          "name": "",
          "type": "uint256"
        }
      ],
      "stateMutability": "view",
      "type": "function"
    },
    {
      "inputs": [],
      "name": "batchIdCounter",
      "outputs": [
        {
          "internalType": "uint256",
          "name": "",
          "type": "uint256"
        }
      ],
      "stateMutability": "view",
      "type": "function"
    },
    {
      "inputs": [
        {
          "internalType": "uint256",
          "name": "",
          "type": "uint256"
        }
      ],
      "name": "batchSuccessCount",
      "outputs": [
        {
          "internalType": "uint256",
          "name": "",
          "type": "uint256"
        }
      ],
      "stateMutability": "view",
      "type": "function"
    },
    {
      "inputs": [],
      "name": "emergencyWithdraw",
      "outputs": [],
      "stateMutability": "nonpayable",
      "type": "function"
    },
    {
      "inputs": [
        {
          "components": [
            {
              "internalType": "address",
              "name": "target",
              "type": "address"
            },
            {
              "internalType": "uint256",
              "name": "value",
              "type": "uint256"
            },
            {
              "internalType": "bytes",
              "name": "data",
              "type": "bytes"
            }
          ],
          "internalType": "struct BatchExecutor.Transaction[]",
          "name": "transactions",
          "type": "tuple[]"
        }
      ],
      "name": "estimateBatchGas",
      "outputs": [
        {
          "internalType": "uint256",
          "name": "estimatedGas",
          "type": "uint256"
        }
      ],
      "stateMutability": "view",
      "type": "function"
    },
    {
      "inputs": [
        {
          "components": [
            {
              "internalType": "address",
              "name": "target",
              "type": "address"
            },
            {
              "internalType": "uint256",
              "name": "value",
              "type": "uint256"
            },
            {
              "internalType": "bytes",
              "name": "data",
              "type": "bytes"
            }
          ],
          "internalType": "struct BatchExecutor.Transaction[]",
          "name": "transactions",
          "type": "tuple[]"
        }
      ],
      "name": "executeBatch",
      "outputs": [
        {
          "components": [
            {
              "internalType": "bool",
              "name": "success",
              "type": "bool"
            },
            {
              "internalType": "bytes",
              "name": "returnData",
              "type": "bytes"
            },
            {
              "internalType": "uint256",
              "name": "gasUsed",
              "type": "uint256"
            }
          ],
          "internalType": "struct BatchExecutor.BatchResult[]",
          "name": "results",
          "type": "tuple[]"
        },
        {
          "internalType": "uint256",
          "name": "totalGasUsed",
          "type": "uint256"
        }
      ],
      "stateMutability": "payable",
      "type": "function"
    },
    {
      "inputs": [],
      "name": "executionFee",
      "outputs": [
        {
          "internalType": "uint256",
          "name": "",
          "type": "uint256"
        }
      ],
      "stateMutability": "view",
      "type": "function"
    },
    {
      "inputs": [],
      "name": "feeCollector",
      "outputs": [
        {
          "internalType": "address",
          "name": "",
          "type": "address"
        }
      ],
      "stateMutability": "view",
      "type": "function"
    },
    {
      "inputs": [],
      "name": "getBalance",
      "outputs": [
        {
          "internalType": "uint256",
          "name": "",
          "type": "uint256"
        }
      ],
      "stateMutability": "view",
      "type": "function"
    },
    {
      "inputs": [
        {
          "internalType": "uint256",
          "name": "_batchId",
          "type": "uint256"
        }
      ],
      "name": "getBatchStats",
      "outputs": [
        {
          "internalType": "address",
          "name": "executor",
          "type": "address"
        },
        {
          "internalType": "uint256",
          "name": "gasUsed",
          "type": "uint256"
        },
        {
          "internalType": "uint256",
          "name": "successCount",
          "type": "uint256"
        },
        {
          "internalType": "uint256",
          "name": "failureCount",
          "type": "uint256"
        }
      ],
      "stateMutability": "view",
      "type": "function"
    },
    {
      "inputs": [],
      "name": "maxTransactionsPerBatch",
      "outputs": [
        {
          "internalType": "uint256",
          "name": "",
          "type": "uint256"
        }
      ],
      "stateMutability": "view",
      "type": "function"
    },
    {
      "inputs": [],
      "name": "owner",
      "outputs": [
        {
          "internalType": "address",
          "name": "",
          "type": "address"
        }
      ],
      "stateMutability": "view",
      "type": "function"
    },
    {
      "inputs": [],
      "name": "pause",
      "outputs": [],
      "stateMutability": "nonpayable",
      "type": "function"
    },
    {
      "inputs": [],
      "name": "paused",
      "outputs": [
        {
          "internalType": "bool",
          "name": "",
          "type": "bool"
        }
      ],
      "stateMutability": "view",
      "type": "function"
    },
    {
      "inputs": [],
      "name": "renounceOwnership",
      "outputs": [],
      "stateMutability": "nonpayable",
      "type": "function"
    },
    {
      "inputs": [
        {
          "internalType": "uint256",
          "name": "_fee",
          "type": "uint256"
        }
      ],
      "name": "setExecutionFee",
      "outputs": [],
      "stateMutability": "nonpayable",
      "type": "function"
    },
    {
      "inputs": [
        {
          "internalType": "address",
          "name": "_feeCollector",
          "type": "address"
        }
      ],
      "name": "setFeeCollector",
      "outputs": [],
      "stateMutability": "nonpayable",
      "type": "function"
    },
    {
      "inputs": [
        {
          "internalType": "uint256",
          "name": "_maxTransactions",
          "type": "uint256"
        }
      ],
      "name": "setMaxTransactionsPerBatch",
      "outputs": [],
      "stateMutability": "nonpayable",
      "type": "function"
    },
    {
      "inputs": [
        {
          "internalType": "address",
          "name": "newOwner",
          "type": "address"
        }
      ],
      "name": "transferOwnership",
      "outputs": [],
      "stateMutability": "nonpayable",
      "type": "function"
    },
    {
      "inputs": [],
      "name": "unpause",
      "outputs": [],
      "stateMutability": "nonpayable",
      "type": "function"
    },
    {
      "stateMutability": "payable",
      "type": "receive"
    }
  ],
  "bytecode": "0x6080346100da57601f610fc838819003918201601f19168301916001600160401b038311848410176100df578084926020946040528339810103126100da57516001600160a01b0390818116908190036100da5733156100c15760005460018060a01b0319903382821617600055604051933391167f8be0079c531659141344cd1fd0a4f28419497f9722a3daafe3b4186f6b6457e0600080a360018055600a60085566038d7ea4c68000600955600a541617600a55610ed290816100f68239f35b604051631e4fbdf760e01b815260006004820152602490fd5b600080fd5b634e487b7160e01b600052604160045260246000fdfe608080604052600436101561001d575b50361561001b57600080fd5b005b60003560e01c90816312065fe014610c3e5750806334fcd5be1461082057806337a063d2146107ff5780633f4ba83a1461079557806340e9903b146107775780634279a1861461071457806349cda36f146106e8578063598c8be61461061f5780635c975abb146105fc57806367ec2029146105e05780636eeb088714610562578063715018a61461050957806378bede29146104eb5780638456cb59146104915780638da5cb5b146104685780639ffaa71e14610432578063a42dce8014610395578063b2c63bff14610369578063c023384e1461033d578063c415b95c14610314578063c7e67360146102f8578063ca600aa8146102da578063db2e21bc14610201578063ea4d5bfd146101cd5763f2fde38b1461013d573861000f565b346101c85760203660031901126101c8576004356001600160a01b03818116918290036101c85761016c610ca4565b81156101af57600054826001600160601b0360a01b821617600055167f8be0079c531659141344cd1fd0a4f28419497f9722a3daafe3b4186f6b6457e0600080a3005b604051631e4fbdf760e01b815260006004820152602490fd5b600080fd5b346101c85760203660031901126101c8576004356000526004602052602060018060a01b0360406000205416604051908152f35b346101c85760003660031901126101c85761021a610ca4565b4780156102875760008080809360018060a01b038254165af161023b610e0b565b501561024357005b606460405162461bcd60e51b815260206004820152602060248201527f42617463684578656375746f723a205769746864726177616c206661696c65646044820152fd5b60405162461bcd60e51b815260206004820152602560248201527f42617463684578656375746f723a204e6f2062616c616e636520746f20776974604482015264686472617760d81b6064820152608490fd5b346101c85760003660031901126101c8576020600854604051908152f35b346101c85760003660031901126101c857602060405160788152f35b346101c85760003660031901126101c857600a546040516001600160a01b039091168152602090f35b346101c85760203660031901126101c85760043560005260076020526020604060002054604051908152f35b346101c85760203660031901126101c85760043560005260056020526020604060002054604051908152f35b346101c85760203660031901126101c8576004356001600160a01b038116908190036101c8576103c3610ca4565b80156103e1576001600160601b0360a01b600a541617600a55600080f35b60405162461bcd60e51b8152602060048201526024808201527f42617463684578656375746f723a20496e76616c69642066656520636f6c6c6560448201526331ba37b960e11b6064820152608490fd5b346101c85760203660031901126101c8576004356000526004602052602060018060a01b03604060002054161515604051908152f35b346101c85760003660031901126101c8576000546040516001600160a01b039091168152602090f35b346101c85760003660031901126101c8576104aa610ca4565b6104b2610e7e565b600160ff1960025416176002557f62e78cea01bee320cd4e420270b5ea74000d11b0c9f74754ebdbfc544b05a2586020604051338152a1005b346101c85760003660031901126101c8576020600354604051908152f35b346101c85760003660031901126101c857610522610ca4565b600080546001600160a01b0319811682556001600160a01b03167f8be0079c531659141344cd1fd0a4f28419497f9722a3daafe3b4186f6b6457e08280a3005b346101c85761057036610c57565b8091501561057e8115610cd0565b61058c600854831115610d1c565b6113888083029283041417156105ca576152089081018091116105ca576078810290808204607814901517156105ca57602090606460405191048152f35b634e487b7160e01b600052601160045260246000fd5b346101c85760003660031901126101c857602060405160648152f35b346101c85760003660031901126101c857602060ff600254166040519015158152f35b346101c85760203660031901126101c85760043561063b610ca4565b8015610693576032811161064e57600855005b60405162461bcd60e51b815260206004820152601b60248201527f42617463684578656375746f723a204d617820746f6f206869676800000000006044820152606490fd5b60405162461bcd60e51b815260206004820152602760248201527f42617463684578656375746f723a20496e76616c6964206d6178207472616e73604482015266616374696f6e7360c81b6064820152608490fd5b346101c85760203660031901126101c85760043560005260066020526020604060002054604051908152f35b346101c8576020806003193601126101c8576080906004356000526004815260018060a01b036040600020541690600581526040600020546006825260406000205490600783526040600020549260405194855284015260408301526060820152f35b346101c85760003660031901126101c8576020600954604051908152f35b346101c85760003660031901126101c8576107ae610ca4565b60025460ff8116156107ed5760ff19166002557f5db9ee0a495bf2e6ff9c91a7834c1ba4fdd244a5e8aa4e537bd38aeae4b073aa6020604051338152a1005b604051638dfc202b60e01b8152600490fd5b346101c85760203660031901126101c857610818610ca4565b600435600955005b61082936610c57565b90600260015414610c2c576002600155610841610e7e565b61084c821515610cd0565b61085a600854831115610d1c565b6009543410610be75761086e600354610d74565b806003558060005260046020526040600020336001600160601b0360a01b8254161790555a6000906000946108aa6108a582610ddf565b610db9565b81815294601f196108ba83610ddf565b0160005b818110610bbf57505060005b828110610a73575050506108df905a90610e47565b938260005260056020528460406000205560066020528160406000205560076020528060406000205534610a03575b60405191858352602083015260408201527f70cd69ce28159a2c66b842c169eec4a3876d3f320c3ff816e09ef1db90b447d660603392a36001805560405190604082019260408352815180945260608301602060608660051b8601019301906000905b868210610985578580868660208301520390f35b909193605f1986820301825284519081511515815260208201516060602083015280519081606084015260005b8281106109ed57505060019260209283926040608093600085848601015201516040830152601f801991011601019601920192019091610971565b80602080928401015160808287010152016109b2565b60008080803460018060a01b03600a54165af1610a1e610e0b565b5061090e5760405162461bcd60e51b815260206004820152602260248201527f42617463684578656375746f723a20466565207472616e73666572206661696c604482015261195960f21b6064820152608490fd5b5a948160051b83013595605e19843603018712156101c857610a96878501610df7565b8488016040810135903603601e19018112156101c8578886010167ffffffffffffffff8135116101c8578035360360208201136101c857600091829160405181819235602082018337358101848152039160208c8a010135905af191610b05610afd610e0b565b925a90610e47565b91610b0e610d83565b9084151582526020820152826040820152610b29858c610e54565b52610b34848b610e54565b508215610ba3578392610b9e9492610b58610b4f8c94610d74565b9a5b8801610df7565b916040519260018060a01b031683521515602083015260408201527ff4006bda581163bea4e571726d958dd9bbf565f82f408a933e61cc7cf1179a7360603392a4610d74565b6108ca565b96998392610b9e9492610b58610bb98c94610d74565b9d610b51565b602090610bca610d83565b600081526060838201526000604082015282828b010152016108be565b60405162461bcd60e51b815260206004820152601f60248201527f42617463684578656375746f723a20496e73756666696369656e7420666565006044820152606490fd5b604051633ee5aeb560e01b8152600490fd5b346101c85760003660031901126101c857602090478152f35b9060206003198301126101c85760043567ffffffffffffffff928382116101c857806023830112156101c85781600401359384116101c85760248460051b830101116101c8576024019190565b6000546001600160a01b03163303610cb857565b60405163118cdaa760e01b8152336004820152602490fd5b15610cd757565b60405162461bcd60e51b815260206004820152601a60248201527f42617463684578656375746f723a20456d7074792062617463680000000000006044820152606490fd5b15610d2357565b60405162461bcd60e51b8152602060048201526024808201527f42617463684578656375746f723a20546f6f206d616e79207472616e73616374604482015263696f6e7360e01b6064820152608490fd5b60001981146105ca5760010190565b604051906060820182811067ffffffffffffffff821117610da357604052565b634e487b7160e01b600052604160045260246000fd5b6040519190601f01601f1916820167ffffffffffffffff811183821017610da357604052565b67ffffffffffffffff8111610da35760051b60200190565b356001600160a01b03811681036101c85790565b3d15610e42573d9067ffffffffffffffff8211610da357610e35601f8301601f1916602001610db9565b9182523d6000602084013e565b606090565b919082039182116105ca57565b8051821015610e685760209160051b010190565b634e487b7160e01b600052603260045260246000fd5b60ff60025416610e8a57565b60405163d93c066560e01b8152600490fdfea2646970667358221220874769793f336bbd8e311130b63f488e6eeb67ac17902e8b41917fd9d5708b2664736f6c63430008140033",
  "linkReferences": {},
  "deployedLinkReferences": {}
}