{
  "_format": "hh-sol-artifact-1",
  "contractName": "MockShahSwapRouter",
  "sourceName": "contracts/mocks/MockShahSwapRouter.sol",
  "abi": [
    {
      "inputs": [],
      "stateMutability": "nonpayable",
      "type": "constructor"
    },
    {
      "inputs": [],
      "name": "WETH",
      "outputs": [
        {
          "internalType": "address",
          "name": "",
          "type": "address"
        }
      ],
      "stateMutability": "view",
      "type": "function"
    },
    {
      "inputs": [],
      "name": "factory",
      "outputs": [
        {
          "internalType": "address",
          "name": "",
          "type": "address"
        }
      ],
      "stateMutability": "view",
      "type": "function"
    },
    {
      "inputs": [
        {
          "internalType": "uint256",
          "name": "amountOut",
          "type": "uint256"
        },
        {
          "internalType": "address[]",
          "name": "path",
          "type": "address[]"
        }
      ],
      "name": "getAmountsIn",
      "outputs": [
        {
          "internalType": "uint256[]",
          "name": "amounts",
          "type": "uint256[]"
        }
      ],
      "stateMutability": "pure",
      "type": "function"
    },
    {
      "inputs": [
        {
          "internalType": "uint256",
          "name": "amountIn",
          "type": "uint256"
        },
        {
          "internalType": "address[]",
          "name": "path",
          "type": "address[]"
        }
      ],
      "name": "getAmountsOut",
      "outputs": [
        {
          "internalType": "uint256[]",
          "name": "amounts",
          "type": "uint256[]"
        }
      ],
      "stateMutability": "pure",
      "type": "function"
    },
    {
      "inputs": [
        {
          "internalType": "uint256",
          "name": "amountIn",
          "type": "uint256"
        },
        {
          "internalType": "uint256",
          "name": "amountOutMin",
          "type": "uint256"
        },
        {
          "internalType": "address[]",
          "name": "path",
          "type": "address[]"
        },
        {
          "internalType": "address",
          "name": "to",
          "type": "address"
        },
        {
          "internalType": "uint256",
          "name": "deadline",
          "type": "uint256"
        }
      ],
      "name": "swapExactTokensForTokens",
      "outputs": [
        {
          "internalType": "uint256[]",
          "name": "amounts",
          "type": "uint256[]"
        }
      ],
      "stateMutability": "nonpayable",
      "type": "function"
    }
  ],
  "bytecode": "0x60a080604052346100485773c02aaa39b223fe8d0a0e5c4f27ead9083c756cc2608052600080546001600160a01b0319163017905561048c908161004e823960805181609e0152f35b600080fdfe6040608081526004908136101561001557600080fd5b600090813560e01c9283631f00ca741461005c57836338ed1739146100cd57508263ad5c46481461008b578263c45a01551461006157505063d06ca61f1461005c57600080fd5b610322565b34610087578160031936011261008757905490516001600160a01b039091168152602090f35b5080fd5b34610087578160031936011261008757517f00000000000000000000000000000000000000000000000000000000000000006001600160a01b03168152602090f35b903461028f5760a036600319011261028f57813560248035936044359067ffffffffffffffff9586831161028b573660238401121561028b578282013596871161028b5736848860051b8501011161028b576001600160a01b036064358181169490859003610287578751986101428a610293565b60028a5260209789368a8d0137806101598c6103f7565b52846101648c61041a565b52811561027557888a9160648a8f8861017e838a0161042a565b16955195869485936323b872dd60e01b85528d3390860152309085015260448401525af1801561026b5761024e575b506001101561023c57604492879594926101c9858d940161042a565b16908951978896879563a9059cbb60e01b87528601528401525af18015610232576102009550610204575b505051918291826102e7565b0390f35b8161022392903d1061022b575b61021b81836102c5565b81019061043e565b5083806101f4565b503d610211565b83513d87823e3d90fd5b634e487b7160e01b8a5260328452858afd5b61026490893d8b1161022b5761021b81836102c5565b508b6101ad565b8a513d8e823e3d90fd5b634e487b7160e01b8c5260328652878cfd5b8980fd5b8780fd5b8280fd5b6060810190811067ffffffffffffffff8211176102af57604052565b634e487b7160e01b600052604160045260246000fd5b90601f8019910116810190811067ffffffffffffffff8211176102af57604052565b6020908160408183019282815285518094520193019160005b82811061030e575050505090565b835185529381019392810192600101610300565b346103f25760403660031901126103f25767ffffffffffffffff6004356024358281116103f257366023820112156103f25780600401359283116102af578260051b602460405194602095869161037b838601836102c5565b81520191830101913683116103f257602401905b8282106103d357610200858560408051926103a984610293565b600284523690840137806103bc836103f7565b526103c68261041a565b52604051918291826102e7565b81356001600160a01b03811681036103f257815290840190840161038f565b600080fd5b8051156104045760200190565b634e487b7160e01b600052603260045260246000fd5b8051600110156104045760400190565b356001600160a01b03811681036103f25790565b908160209103126103f2575180151581036103f2579056fea2646970667358221220a2f46663a0f3ae718d5ac99a35643d03145594093c4dd25685b16c8605f6b81864736f6c63430008140033",
  "linkReferences": {},
  "deployedLinkReferences": {}
}