{
  "_format": "hh-sol-artifact-1",
  "contractName": "ShahSwapFactory",
  "sourceName": "contracts/ShahSwapFactory.sol",
  "abi": [
    {
      "inputs": [
        {
          "internalType": "address",
          "name": "_feeToSetter",
          "type": "address"
        }
      ],
      "stateMutability": "nonpayable",
      "type": "constructor"
    },
    {
      "inputs": [
        {
          "internalType": "address",
          "name": "owner",
          "type": "address"
        }
      ],
      "name": "OwnableInvalidOwner",
      "type": "error"
    },
    {
      "inputs": [
        {
          "internalType": "address",
          "name": "account",
          "type": "address"
        }
      ],
      "name": "OwnableUnauthorizedAccount",
      "type": "error"
    },
    {
      "anonymous": false,
      "inputs": [
        {
          "indexed": true,
          "internalType": "address",
          "name": "previousOwner",
          "type": "address"
        },
        {
          "indexed": true,
          "internalType": "address",
          "name": "newOwner",
          "type": "address"
        }
      ],
      "name": "OwnershipTransferred",
      "type": "event"
    },
    {
      "anonymous": false,
      "inputs": [
        {
          "indexed": true,
          "internalType": "address",
          "name": "token0",
          "type": "address"
        },
        {
          "indexed": true,
          "internalType": "address",
          "name": "token1",
          "type": "address"
        },
        {
          "indexed": false,
          "internalType": "address",
          "name": "pair",
          "type": "address"
        },
        {
          "indexed": false,
          "internalType": "uint256",
          "name": "",
          "type": "uint256"
        }
      ],
      "name": "PairCreated",
      "type": "event"
    },
    {
      "inputs": [],
      "name": "INIT_CODE_PAIR_HASH",
      "outputs": [
        {
          "internalType": "bytes32",
          "name": "",
          "type": "bytes32"
        }
      ],
      "stateMutability": "view",
      "type": "function"
    },
    {
      "inputs": [
        {
          "internalType": "uint256",
          "name": "",
          "type": "uint256"
        }
      ],
      "name": "allPairs",
      "outputs": [
        {
          "internalType": "address",
          "name": "",
          "type": "address"
        }
      ],
      "stateMutability": "view",
      "type": "function"
    },
    {
      "inputs": [],
      "name": "allPairsLength",
      "outputs": [
        {
          "internalType": "uint256",
          "name": "",
          "type": "uint256"
        }
      ],
      "stateMutability": "view",
      "type": "function"
    },
    {
      "inputs": [
        {
          "internalType": "address",
          "name": "tokenA",
          "type": "address"
        },
        {
          "internalType": "address",
          "name": "tokenB",
          "type": "address"
        }
      ],
      "name": "createPair",
      "outputs": [
        {
          "internalType": "address",
          "name": "pair",
          "type": "address"
        }
      ],
      "stateMutability": "nonpayable",
      "type": "function"
    },
    {
      "inputs": [],
      "name": "feeTo",
      "outputs": [
        {
          "internalType": "address",
          "name": "",
          "type": "address"
        }
      ],
      "stateMutability": "view",
      "type": "function"
    },
    {
      "inputs": [],
      "name": "feeToSetter",
      "outputs": [
        {
          "internalType": "address",
          "name": "",
          "type": "address"
        }
      ],
      "stateMutability": "view",
      "type": "function"
    },
    {
      "inputs": [
        {
          "internalType": "address",
          "name": "",
          "type": "address"
        },
        {
          "internalType": "address",
          "name": "",
          "type": "address"
        }
      ],
      "name": "getPair",
      "outputs": [
        {
          "internalType": "address",
          "name": "",
          "type": "address"
        }
      ],
      "stateMutability": "view",
      "type": "function"
    },
    {
      "inputs": [],
      "name": "owner",
      "outputs": [
        {
          "internalType": "address",
          "name": "",
          "type": "address"
        }
      ],
      "stateMutability": "view",
      "type": "function"
    },
    {
      "inputs": [],
      "name": "renounceOwnership",
      "outputs": [],
      "stateMutability": "nonpayable",
      "type": "function"
    },
    {
      "inputs": [
        {
          "internalType": "address",
          "name": "_feeTo",
          "type": "address"
        }
      ],
      "name": "setFeeTo",
      "outputs": [],
      "stateMutability": "nonpayable",
      "type": "function"
    },
    {
      "inputs": [
        {
          "internalType": "address",
          "name": "_feeToSetter",
          "type": "address"
        }
      ],
      "name": "setFeeToSetter",
      "outputs": [],
      "stateMutability": "nonpayable",
      "type": "function"
    },
    {
      "inputs": [
        {
          "internalType": "address",
          "name": "newOwner",
          "type": "address"
        }
      ],
      "name": "transferOwnership",
      "outputs": [],
      "stateMutability": "nonpayable",
      "type": "function"
    }
  ],
  "bytecode": "0x6080346100c657601f612ad038819003918201601f19168301916001600160401b038311848410176100cb578084926020946040528339810103126100c657516001600160a01b0390818116908190036100c65780156100ad57600054918160018060a01b031991818386161760005560405194167f8be0079c531659141344cd1fd0a4f28419497f9722a3daafe3b4186f6b6457e0600080a360025416176002556129ee90816100e28239f35b604051631e4fbdf760e01b815260006004820152602490fd5b600080fd5b634e487b7160e01b600052604160045260246000fdfe6080604090808252600491823610156200001857600080fd5b600092833560e01c928363017e7e5814620006d657508263094b741514620006ab5782631e3dd18b1462000666578263574f2ba314620006455782635855a25a14620005db578263715018a6146200057d5782638da5cb5b1462000553578263a2e74af61462000504578263c9c6539614620001fb578263e6a4390514620001a3578263f2fde38b146200010b57505063f46901ed14620000b857600080fd5b34620001085760203660031901126200010857620000d56200074b565b6002546001600160a01b039190620000f19083163314620007ab565b166001600160601b0360a01b600154161760015580f35b80fd5b909150346200019f5760203660031901126200019f576200012b6200074b565b90620001366200077e565b6001600160a01b0391821692831562000189575050600054826001600160601b0360a01b821617600055167f8be0079c531659141344cd1fd0a4f28419497f9722a3daafe3b4186f6b6457e0600080a380f35b51631e4fbdf760e01b8152908101849052602490fd5b8280fd5b838234620001f75780600319360112620001f757602091620001c46200074b565b620001ce62000767565b908360018060a01b03938480931681526003875220911660005283528160002054169051908152f35b5080fd5b9150346200019f57806003193601126200019f57620002196200074b565b6200022362000767565b906001600160a01b0390818316828216808214620004c1571015620004ba5791935b8183169182156200047e5782875260209660038852858120948288169586835289528287832054166200044357865190898201986001600160601b0319809260601b168a5260601b166034820152602881526060810167ffffffffffffffff988282108a831117620004305781895282519020916121ca80820190606082018c8582109111176200041d57620007ef8439039083f580156200041157821696873b15620001f75786519063485cc95560e01b825285858301528660248301528282604481838d5af180156200040757620003e3575b505083815260038852858120856000528852856000206001600160601b0360a01b9088828254161790558582526003895286822085600052895287876000209182541617905582549068010000000000000000821015620003d05750918591620003ab8460017f0d3648bd0f6ba80134a33ba9275ac585d9d315f0ad8355cddefde31afa28d0e996018455620006fd565b819291549060031b918a831b921b19161790555481519087825288820152a351908152f35b634e487b7160e01b815260418452602490fd5b8111620003f457865238806200031a565b634e487b7160e01b825260418452602482fd5b88513d85823e3d90fd5b508551903d90823e3d90fd5b634e487b7160e01b865260418852602486fd5b634e487b7160e01b845260418652602484fd5b865162461bcd60e51b81528085018a9052601560248201527453686168537761703a20504149525f45584953545360581b6044820152606490fd5b845162461bcd60e51b8152602081840152601660248201527553686168537761703a205a45524f5f4144445245535360501b6044820152606490fd5b9362000245565b855162461bcd60e51b8152602081890152601d60248201527f53686168537761703a204944454e544943414c5f4144445245535345530000006044820152606490fd5b8334620001085760203660031901126200010857620005226200074b565b600254906001600160a01b03906200053e3383851614620007ab565b16906001600160601b0360a01b161760025580f35b838234620001f75781600319360112620001f757905490516001600160a01b039091168152602090f35b833462000108578060031936011262000108576200059a6200077e565b80546001600160a01b03198116825581906001600160a01b03167f8be0079c531659141344cd1fd0a4f28419497f9722a3daafe3b4186f6b6457e08280a380f35b908334620001085780600319360112620001085781516121ca91603f8301601f191682019067ffffffffffffffff82118383101762000632575060209450835281815283810191620007ef83395190209051908152f35b634e487b7160e01b815260418652602490fd5b909150346200019f57826003193601126200019f5760209250549051908152f35b9083346200010857602036600319011262000108578235925483101562000108575062000695602092620006fd565b905491519160018060a01b039160031b1c168152f35b838234620001f75781600319360112620001f75760025490516001600160a01b039091168152602090f35b849034620001f75781600319360112620001f7576001546001600160a01b03168152602090f35b600454811015620007355760046000527f8a35acfbc15ff81a39ae7d344fd709f28e8600b4aa8c65c6b64bfe7fe36bd19b0190600090565b634e487b7160e01b600052603260045260246000fd5b600435906001600160a01b03821682036200076257565b600080fd5b602435906001600160a01b03821682036200076257565b6000546001600160a01b031633036200079357565b60405163118cdaa760e01b8152336004820152602490fd5b15620007b357565b60405162461bcd60e51b815260206004820152601360248201527229b430b429bbb0b81d102327a92124a22222a760691b6044820152606490fdfe60803462000342576001600160401b03906040908082018381118282101762000242578252600b81526020926a05368616853776170204c560ac1b84830152825190838201828110828211176200024257845260078252660534841482d4c560cc1b85830152825181811162000242576003908154906001958683811c9316801562000337575b8984101462000321578190601f93848111620002cb575b508990848311600114620002645760009262000258575b505060001982851b1c191690861b1782555b835192831162000242576004938454978689811c9916801562000237575b818a101462000222578883869798999a11620001c6575b50809285116001146200015857506000936200014c575b505082851b92600019911b1c19161790555b6005819055600d55600680546001600160a01b0319163317905551611e829081620003488239f35b01519150388062000112565b929190879550601f1985168760005284600020946000905b828210620001ac575050851162000191575b50505050811b01905562000124565b01519060f884600019921b161c191690553880808062000182565b8484015187558a9890960195938401939081019062000170565b90919293945086600052816000208480880160051c82019284891062000218575b918a91899897969594930160051c01915b82811062000208575050620000fb565b600081558897508a9101620001f8565b92508192620001e7565b602286634e487b7160e01b6000525260246000fd5b98607f1698620000e4565b634e487b7160e01b600052604160045260246000fd5b015190503880620000b4565b90889350601f19831691866000528b6000209260005b8d828210620002b457505084116200029b575b505050811b018255620000c6565b015160001983871b60f8161c191690553880806200028d565b8385015186558c979095019493840193016200027a565b90915084600052896000208480850160051c8201928c861062000317575b918a91869594930160051c01915b828110620003075750506200009d565b600081558594508a9101620002f7565b92508192620002e9565b634e487b7160e01b600052602260045260246000fd5b92607f169262000086565b600080fdfe6080604052600436101561001257600080fd5b6000803560e01c8063022c0d9f1461105f57806306fdde0314610fa45780630902f1ac14610f4b578063095ea7b314610ec45780630dfe168114610e9b57806318160ddd14610e7d57806323b872dd14610d8d578063313ce56714610d71578063485cc95514610cd65780635909c0d514610cb85780635a3d549314610c9a5780636a627842146109e657806370a08231146109ae5780637464fc3d1461099057806389afcb441461058957806395d89b4114610487578063a9059cbb14610455578063ba9a7a5614610438578063bc25cf77146102ef578063c45a0155146102c6578063d21220a71461029d578063dd62ed3e1461024e5763fff6cae91461011a57600080fd5b3461024b578060031936011261024b576101386001600d541461176e565b600d8190556007546040516370a0823160e01b808252306004830152916020916001600160a01b039183908290602490829086165afa918215610240578391869361020f575b50600854169360246040518096819382523060048301525afa9182156102045784926101cd575b506101c59250600954916001600160701b03808460701c1693169161183e565b6001600d5580f35b90915082813d83116101fd575b6101e4818361164b565b810103126101f8576101c5915190386101a5565b600080fd5b503d6101da565b6040513d86823e3d90fd5b8281939294503d8311610239575b610227818361164b565b810103126101f857829051913861017e565b503d61021d565b6040513d87823e3d90fd5b80fd5b503461024b57604036600319011261024b576102686115d6565b60406102726115ec565b9260018060a01b03809316815260016020522091166000526020526020604060002054604051908152f35b503461024b578060031936011261024b576008546040516001600160a01b039091168152602090f35b503461024b578060031936011261024b576006546040516001600160a01b039091168152602090f35b503461024b576020806003193601126104345761030a6115d6565b906103196001600d541461176e565b600d8390556007546008546040516370a0823160e01b80825230600483015290946001600160a01b039283169490939092168286602481845afa9586156104295787966103f8575b50610384908461037e6001600160701b0398896009541690611cde565b91611b26565b6040519081523060048201528181602481875afa9182156103ed5786926103bd575b505061037e906101c59460095460701c1690611cde565b90809250813d83116103e6575b6103d4818361164b565b810103126101f857518361037e6103a6565b503d6103ca565b6040513d88823e3d90fd5b9095508281813d8311610422575b610410818361164b565b810103126101f8575194610384610361565b503d610406565b6040513d89823e3d90fd5b5080fd5b503461024b578060031936011261024b5760206040516103e88152f35b503461024b57604036600319011261024b5761047c6104726115d6565b6024359033611683565b602060405160018152f35b503461024b578060031936011261024b576040518160045490600182811c9181841693841561057f575b602094858510811461056b5784875290811561054957506001146104f0575b6104ec856104e08189038261164b565b60405191829182611602565b0390f35b929450600483527f8a35acfbc15ff81a39ae7d344fd709f28e8600b4aa8c65c6b64bfe7fe36bd19b5b82841061053657505050816104ec936104e09282010193386104d0565b8054858501870152928501928101610519565b60ff191686860152505050151560051b82010191506104e0816104ec386104d0565b634e487b7160e01b83526022600452602483fd5b92607f16926104b1565b503461024b57602036600319011261024b576105a36115d6565b6105b16001600d541461176e565b81600d556105d46009546001600160701b0391828216928260701c169160e01c90565b506007546008546040516370a0823160e01b81523060048201526001600160a01b039182169694959190921693909290602083602481885afa92831561098357819361094f575b506040516370a0823160e01b815230600482015296602088602481845afa95861561094457879883989761090d575b503083528260205261068661067a61067a61067f61066d8860408920549c611964565b986002549384918d611d6e565b6117ad565b9a8a611d6e565b9688151580610904575b156108af5730156108965730600052600060205260406000205481811061086e57916000826020936024969530845283865203604083205580600254036002556040519081527fddf252ad1be2c89b69c2b068fc378daa952ba7f163c4a11628f55a4df523b3ef843092a36107068a8983611b26565b610711898985611b26565b6040516370a0823160e01b815230600482015293849182905afa91821561086357839261082e575b506020602491604051928380926370a0823160e01b82523060048301525afa92831561082257926107e7575b5096610774929160409861183e565b6107c4575b83519083825282602083015260018060a01b0316907fdccd412f0b1252819cb1fd330b93224ca42612892bb3f4f789976e6d81936496853392a36001600d5582519182526020820152f35b6107df6009546001600160701b03808260701c169116611d6e565b600c55610779565b929150966020833d60201161081a575b816108046020938361164b565b810103126101f857915191969091906040610765565b3d91506107f7565b604051903d90823e3d90fd5b9091506020813d60201161085b575b8161084a6020938361164b565b810103126101f85751906020610739565b3d915061083d565b6040513d85823e3d90fd5b60405163391434e360e21b815230600482015260248101919091526044810191909152606490fd5b604051634b637e8f60e11b815260048101859052602490fd5b60405162461bcd60e51b815260206004820152602760248201527f53686168537761703a20494e53554646494349454e545f4c495155494449545960448201526617d0955493915160ca1b6064820152608490fd5b50871515610690565b965096506020863d60201161093c575b8161092a6020938361164b565b810103126101f857879551963861064a565b3d915061091d565b6040513d84823e3d90fd5b9092506020813d60201161097b575b8161096b6020938361164b565b810103126101f85751913861061b565b3d915061095e565b50604051903d90823e3d90fd5b503461024b578060031936011261024b576020600c54604051908152f35b503461024b57602036600319011261024b576020906040906001600160a01b036109d66115d6565b1681528083522054604051908152f35b503461024b5760208060031936011261043457610a016115d6565b90610a106001600d541461176e565b82600d55610a336009546001600160701b0391828216928260701c169160e01c90565b506007546040516370a0823160e01b8082523060048301529095939290916001600160a01b039086908890602490829085165afa968715610c8f578897610c60575b508590600854169260246040518095819382523060048301525afa918215610429578792610c31575b506001600160701b039283811692610ab68489611cde565b9785841694610ac58684611cde565b9a610ad08686611964565b96600254928315600014610b2a57610af0610aeb8f8f611d6e565b611df2565b6103e719810111610b145760405163ec442f0560e01b815260006004820152602490fd5b634e487b7160e01b600052601160045260246000fd5b9061067a610b448e9d9f9c9e9361067a87610b4b96611d6e565b948c611d6e565b905080821015610c2a57505b988915610bd55790610b6f8a610b74969594936117cd565b61183e565b610bb7575b50604051918252838201527f4c209b5fc8ad50758f13e2e1088ba56a560dff690a1c6fef26394f4c03821c4f60403392a26001600d55604051908152f35b610bcc9060095490808260701c169116611d6e565b600c5538610b79565b60405162461bcd60e51b8152600481018c9052602760248201527f53686168537761703a20494e53554646494349454e545f4c495155494449545960448201526617d3525395115160ca1b6064820152608490fd5b9050610b57565b9091508481813d8311610c59575b610c49818361164b565b810103126101f857519038610a9e565b503d610c3f565b9096508581813d8311610c88575b610c78818361164b565b810103126101f857519585610a75565b503d610c6e565b6040513d8a823e3d90fd5b503461024b578060031936011261024b576020600b54604051908152f35b503461024b578060031936011261024b576020600a54604051908152f35b503461024b57604036600319011261024b57610cf06115d6565b610cf86115ec565b6006546001600160a01b03919082163303610d3657816bffffffffffffffffffffffff60a01b93168360075416176007551690600854161760085580f35b60405162461bcd60e51b815260206004820152601360248201527229b430b429bbb0b81d102327a92124a22222a760691b6044820152606490fd5b503461024b578060031936011261024b57602060405160128152f35b503461024b57606036600319011261024b57610da76115d6565b610daf6115ec565b60443591604060018060a01b0382169485815260016020522033600052602052604060002054936000198510610deb575b5061047c9350611683565b838510610e57578015610e3e573315610e255761047c94849160005260016020526040600020336000526020520360406000205538610de0565b604051634a1406b160e11b815260006004820152602490fd5b60405163e602df0560e01b815260006004820152602490fd5b604051637dc7a0d960e11b81523360048201526024810186905260448101859052606490fd5b503461024b578060031936011261024b576020600254604051908152f35b503461024b578060031936011261024b576007546040516001600160a01b039091168152602090f35b503461024b57604036600319011261024b57610ede6115d6565b602435903315610e3e576001600160a01b0316908115610e2557336000526001602052604060002082600052602052806040600020556040519081527f8c5be1e5ebec7d5bd14f71427d1e84f3dd0314c0f7b2291e5b200ac8c7c3b92560203392a3602060405160018152f35b503461024b578060031936011261024b57606063ffffffff610f826009546001600160701b0391828216928260701c169160e01c90565b909291604051936001600160701b038092168552166020840152166040820152f35b503461024b578060031936011261024b576040518160035490600182811c91818416938415611055575b602094858510811461056b578487529081156105495750600114610ffc576104ec856104e08189038261164b565b929450600383527fc2575a0e9e593c00f959f8c92f12db2869c3395a3b0502d05e2516446f71f85b5b82841061104257505050816104ec936104e09282010193386104d0565b8054858501870152928501928101611025565b92607f1692610fce565b503461024b57608036600319011261024b576044356001600160a01b038116900361024b5767ffffffffffffffff6064351161024b5736602360643501121561024b5767ffffffffffffffff606435600401351161024b573660246064356004013560643501011161024b576110d96001600d541461176e565b80600d5560043515801580916115cb575b1561157a5761110e6009546001600160701b0391828216928260701c169160e01c90565b506001600160701b03829392166004351080611566575b61112e90611c86565b6007546008546001600160a01b039081169391811691906044351682141580611551575b61115b90611c86565b61153d575b602435611529575b60643560040135611455575b906020602492604051938480926370a0823160e01b82523060048301525afa91821561024057859261141e575b506020602493604051948580926370a0823160e01b82523060048301525afa9283156102405785936113ea575b506111e46004356001600160701b038616611cd1565b8211156113e3576112096112036004356001600160701b038716611cd1565b83611cd1565b935b6001600160701b0382169361122260243586611cd1565b8111156113dc5761123e61123860243587611cd1565b82611cd1565b945b86158015906113d3575b156113825761129261128261127061126188611d30565b61126a8b611d4f565b90611cde565b61127c61126186611d30565b90611d6e565b916001600160701b038516611d6e565b90620f42409182810292818404811482151715610b14578304036113465710611313576112be9361183e565b60405191825260208201526004356040820152602435606082015260018060a01b0360443516907fd78ad95fa46c994b6551d0da85fc275fe613ce37657fb8d5e3d130840159d82260803392a36001600d5580f35b60405162461bcd60e51b815260206004820152600b60248201526a53686168537761703a204b60a81b6044820152606490fd5b60405162461bcd60e51b815260206004820152601460248201527364732d6d6174682d6d756c2d6f766572666c6f7760601b6044820152606490fd5b60405162461bcd60e51b815260206004820152602360248201527f53686168537761703a20494e53554646494349454e545f494e5055545f414d4f60448201526215539560ea1b6064820152608490fd5b5085151561124a565b8694611240565b849361120b565b9092506020813d602011611416575b816114066020938361164b565b810103126101f8575191386111ce565b3d91506113f9565b9291506020833d60201161144d575b8161143a6020938361164b565b810103126101f8579151909160206111a1565b3d915061142d565b6044356001600160a01b03163b1561152557604051632e49fffb60e01b815233600482015260043560248201526024356044820152608060648201526064356004013560848201526064356004013560246064350160a483013760a460643560040135828101820188905287918391601f19601f9091011682018290030181836001600160a01b03604435165af180156103ed576114f4575b50611174565b67ffffffffffffffff8196929611611511576040529360206114ee565b634e487b7160e01b82526041600452602482fd5b8480fd5b61153860243560443585611b26565b611168565b61154c60043560443583611b26565b611160565b506044356001600160a01b0316841415611152565b506001600160701b03811660243510611125565b60405162461bcd60e51b8152602060048201526024808201527f53686168537761703a20494e53554646494349454e545f4f55545055545f414d60448201526313d5539560e21b6064820152608490fd5b5060243515156110ea565b600435906001600160a01b03821682036101f857565b602435906001600160a01b03821682036101f857565b6020808252825181830181905290939260005b82811061163757505060409293506000838284010152601f8019910116010190565b818101860151848201604001528501611615565b90601f8019910116810190811067ffffffffffffffff82111761166d57604052565b634e487b7160e01b600052604160045260246000fd5b916001600160a01b03808416928315611748571692831561172f57600090838252816020526040822054908382106116fd575091604082827fddf252ad1be2c89b69c2b068fc378daa952ba7f163c4a11628f55a4df523b3ef958760209652828652038282205586815220818154019055604051908152a3565b60405163391434e360e21b81526001600160a01b03919091166004820152602481019190915260448101839052606490fd5b60405163ec442f0560e01b815260006004820152602490fd5b604051634b637e8f60e11b815260006004820152602490fd5b91908201809211610b1457565b1561177557565b60405162461bcd60e51b815260206004820152601060248201526f14da185a14ddd85c0e881313d0d2d15160821b6044820152606490fd5b81156117b7570490565b634e487b7160e01b600052601260045260246000fd5b6001600160a01b031690811561172f577fddf252ad1be2c89b69c2b068fc378daa952ba7f163c4a11628f55a4df523b3ef60208261180f600094600254611761565b60025584845283825260408420818154019055604051908152a3565b81810292918115918404141715610b1457565b9290916001600160701b0391828511158061195a575b156119205760095463ffffffff9060e01c81421603818111610b14571680151580611915575b8061190a575b6118b1575b50505060709190911b600160701b600160e01b03169116174260e01b6001600160e01b03191617600955565b6118ff926118f7926001600160e01b03916118e191906118dc906118ef6118e7878787858789611da5565b611dd4565b1661182b565b600a54611761565b600a55611da5565b600b54611761565b600b55388080611885565b508382161515611880565b50838316151561187a565b60405162461bcd60e51b815260206004820152601260248201527153686168537761703a204f564552464c4f5760701b6044820152606490fd5b5082841115611854565b600654604051622fcfcb60e31b815292939291906020906001600160a01b039082908590600490829085165afa938415611b1a57600094611ae0575b508316151594600c549286600014611ace57836119bf575b5050505050565b610aeb6119dc916119e2936001600160701b038091169116611d6e565b92611df2565b908183116119f1575b806119b8565b611a0160025461127c8486611cde565b91600584029380850460051481151715610b14576005850403611a9257611a289084611761565b928310611a57575090611a3a916117ad565b80611a47575b80806119eb565b611a50916117cd565b3880611a40565b6064906040519062461bcd60e51b82526004820152601460248201527364732d6d6174682d6164642d6f766572666c6f7760601b6044820152fd5b60405162461bcd60e51b815260048101839052601460248201527364732d6d6174682d6d756c2d6f766572666c6f7760601b6044820152606490fd5b5050509050611ad957565b6000600c55565b8281819693963d8311611b13575b611af8818361164b565b81010312610434575190848216820361024b575092386119a0565b503d611aee565b6040513d6000823e3d90fd5b6040805193909267ffffffffffffffff92918585018481118782101761166d578552601986527f7472616e7366657228616464726573732c75696e743235362900000000000000602096870152845163a9059cbb60e01b8188019081526001600160a01b039093166024820152604480820192909252908152608081018481118282101761166d578552600092839283809351925af1913d15611c7e573d90811161151157835190611be1601f8201601f191687018361164b565b81523d828683013e5b82611c3e575b505015611bfb575050565b60649250519062461bcd60e51b82526004820152601960248201527f53686168537761703a205452414e534645525f4641494c4544000000000000006044820152fd5b8051925082159190858315611c5a575b50505090503880611bf0565b9193818094500103126104345783015190811515820361024b575080388085611c4e565b506060611bea565b15611c8d57565b606460405162461bcd60e51b815260206004820152602060248201527f53686168537761703a20494e53554646494349454e545f4c49515549444954596044820152fd5b91908203918211610b1457565b9190611cea9083611cd1565b918211611cf357565b60405162461bcd60e51b815260206004820152601560248201527464732d6d6174682d7375622d756e646572666c6f7760581b6044820152606490fd5b906103e89182810292818404811482151715610b145783040361134657565b90600382029180830460031481151715610b1457600383040361134657565b600092918015918215611d85575b50501561134657565b91509250611d9d611d96848361182b565b93846117ad565b143880611d7c565b600160701b600160e01b03607082901b16906001600160701b0316808204600160701b1490151715610b145790565b906001600160701b03169081156117b7576001600160e01b03160490565b9060006003831115611e3f57508160019080821c828101809111610b145791905b848310611e1f57505050565b90919350611e3684611e3181846117ad565b611761565b821c9190611e13565b91611e4657565b6001915056fea2646970667358221220a5f0ef172db595c0df93208efbb6c727d90d0f1a84f3a994652ee887a19f961d64736f6c63430008140033a26469706673582212206bf3aaaf2805063442a8871535ad6f074a9c9481e86b09a4607a495937a4d3fb64736f6c63430008140033",
  "linkReferences": {},
  "deployedLinkReferences": {}
}