{
  "_format": "hh-sol-artifact-1",
  "contractName": "ShahSwapRouterV3",
  "sourceName": "contracts/shahswap/ShahSwapRouterV3.sol",
  "abi": [
    {
      "inputs": [
        {
          "internalType": "address",
          "name": "_factory",
          "type": "address"
        },
        {
          "internalType": "address",
          "name": "_WETH",
          "type": "address"
        },
        {
          "internalType": "address",
          "name": "_oracle",
          "type": "address"
        }
      ],
      "stateMutability": "nonpayable",
      "type": "constructor"
    },
    {
      "inputs": [
        {
          "internalType": "address",
          "name": "owner",
          "type": "address"
        }
      ],
      "name": "OwnableInvalidOwner",
      "type": "error"
    },
    {
      "inputs": [
        {
          "internalType": "address",
          "name": "account",
          "type": "address"
        }
      ],
      "name": "OwnableUnauthorizedAccount",
      "type": "error"
    },
    {
      "inputs": [],
      "name": "ReentrancyGuardReentrantCall",
      "type": "error"
    },
    {
      "anonymous": false,
      "inputs": [
        {
          "indexed": true,
          "internalType": "address",
          "name": "tokenA",
          "type": "address"
        },
        {
          "indexed": true,
          "internalType": "address",
          "name": "tokenB",
          "type": "address"
        },
        {
          "indexed": false,
          "internalType": "uint256",
          "name": "amountA",
          "type": "uint256"
        },
        {
          "indexed": false,
          "internalType": "uint256",
          "name": "amountB",
          "type": "uint256"
        },
        {
          "indexed": false,
          "internalType": "uint256",
          "name": "liquidity",
          "type": "uint256"
        }
      ],
      "name": "LiquidityAdded",
      "type": "event"
    },
    {
      "anonymous": false,
      "inputs": [
        {
          "indexed": true,
          "internalType": "address",
          "name": "tokenA",
          "type": "address"
        },
        {
          "indexed": true,
          "internalType": "address",
          "name": "tokenB",
          "type": "address"
        },
        {
          "indexed": false,
          "internalType": "uint256",
          "name": "amountA",
          "type": "uint256"
        },
        {
          "indexed": false,
          "internalType": "uint256",
          "name": "amountB",
          "type": "uint256"
        },
        {
          "indexed": false,
          "internalType": "uint256",
          "name": "liquidity",
          "type": "uint256"
        }
      ],
      "name": "LiquidityRemoved",
      "type": "event"
    },
    {
      "anonymous": false,
      "inputs": [
        {
          "indexed": true,
          "internalType": "address",
          "name": "previousOwner",
          "type": "address"
        },
        {
          "indexed": true,
          "internalType": "address",
          "name": "newOwner",
          "type": "address"
        }
      ],
      "name": "OwnershipTransferred",
      "type": "event"
    },
    {
      "anonymous": false,
      "inputs": [
        {
          "indexed": false,
          "internalType": "address[]",
          "name": "path",
          "type": "address[]"
        },
        {
          "indexed": false,
          "internalType": "uint256",
          "name": "amountIn",
          "type": "uint256"
        },
        {
          "indexed": false,
          "internalType": "uint256",
          "name": "amountOut",
          "type": "uint256"
        }
      ],
      "name": "SwapExecuted",
      "type": "event"
    },
    {
      "inputs": [],
      "name": "WETH",
      "outputs": [
        {
          "internalType": "address",
          "name": "",
          "type": "address"
        }
      ],
      "stateMutability": "view",
      "type": "function"
    },
    {
      "inputs": [
        {
          "internalType": "address",
          "name": "tokenA",
          "type": "address"
        },
        {
          "internalType": "address",
          "name": "tokenB",
          "type": "address"
        },
        {
          "internalType": "uint256",
          "name": "amountADesired",
          "type": "uint256"
        },
        {
          "internalType": "uint256",
          "name": "amountBDesired",
          "type": "uint256"
        },
        {
          "internalType": "uint256",
          "name": "amountAMin",
          "type": "uint256"
        },
        {
          "internalType": "uint256",
          "name": "amountBMin",
          "type": "uint256"
        },
        {
          "internalType": "address",
          "name": "to",
          "type": "address"
        },
        {
          "internalType": "uint256",
          "name": "deadline",
          "type": "uint256"
        }
      ],
      "name": "addLiquidity",
      "outputs": [
        {
          "internalType": "uint256",
          "name": "amountA",
          "type": "uint256"
        },
        {
          "internalType": "uint256",
          "name": "amountB",
          "type": "uint256"
        },
        {
          "internalType": "uint256",
          "name": "liquidity",
          "type": "uint256"
        }
      ],
      "stateMutability": "nonpayable",
      "type": "function"
    },
    {
      "inputs": [
        {
          "internalType": "address",
          "name": "token",
          "type": "address"
        },
        {
          "internalType": "uint256",
          "name": "amountTokenDesired",
          "type": "uint256"
        },
        {
          "internalType": "uint256",
          "name": "amountTokenMin",
          "type": "uint256"
        },
        {
          "internalType": "uint256",
          "name": "amountETHMin",
          "type": "uint256"
        },
        {
          "internalType": "address",
          "name": "to",
          "type": "address"
        },
        {
          "internalType": "uint256",
          "name": "deadline",
          "type": "uint256"
        }
      ],
      "name": "addLiquidityETH",
      "outputs": [
        {
          "internalType": "uint256",
          "name": "amountToken",
          "type": "uint256"
        },
        {
          "internalType": "uint256",
          "name": "amountETH",
          "type": "uint256"
        },
        {
          "internalType": "uint256",
          "name": "liquidity",
          "type": "uint256"
        }
      ],
      "stateMutability": "payable",
      "type": "function"
    },
    {
      "inputs": [
        {
          "components": [
            {
              "internalType": "address[]",
              "name": "path",
              "type": "address[]"
            },
            {
              "internalType": "uint256",
              "name": "amountIn",
              "type": "uint256"
            },
            {
              "internalType": "uint256",
              "name": "amountOutMin",
              "type": "uint256"
            }
          ],
          "internalType": "struct ShahSwapRouterV3.BatchStep[]",
          "name": "steps",
          "type": "tuple[]"
        },
        {
          "internalType": "address",
          "name": "to",
          "type": "address"
        },
        {
          "internalType": "uint256",
          "name": "deadline",
          "type": "uint256"
        }
      ],
      "name": "batchSwapExactTokensForTokens",
      "outputs": [],
      "stateMutability": "nonpayable",
      "type": "function"
    },
    {
      "inputs": [],
      "name": "factory",
      "outputs": [
        {
          "internalType": "address",
          "name": "",
          "type": "address"
        }
      ],
      "stateMutability": "view",
      "type": "function"
    },
    {
      "inputs": [
        {
          "internalType": "uint256",
          "name": "amountOut",
          "type": "uint256"
        },
        {
          "internalType": "uint256",
          "name": "reserveIn",
          "type": "uint256"
        },
        {
          "internalType": "uint256",
          "name": "reserveOut",
          "type": "uint256"
        }
      ],
      "name": "getAmountIn",
      "outputs": [
        {
          "internalType": "uint256",
          "name": "amountIn",
          "type": "uint256"
        }
      ],
      "stateMutability": "pure",
      "type": "function"
    },
    {
      "inputs": [
        {
          "internalType": "uint256",
          "name": "amountIn",
          "type": "uint256"
        },
        {
          "internalType": "uint256",
          "name": "reserveIn",
          "type": "uint256"
        },
        {
          "internalType": "uint256",
          "name": "reserveOut",
          "type": "uint256"
        }
      ],
      "name": "getAmountOut",
      "outputs": [
        {
          "internalType": "uint256",
          "name": "amountOut",
          "type": "uint256"
        }
      ],
      "stateMutability": "pure",
      "type": "function"
    },
    {
      "inputs": [
        {
          "internalType": "uint256",
          "name": "amountOut",
          "type": "uint256"
        },
        {
          "internalType": "address[]",
          "name": "path",
          "type": "address[]"
        }
      ],
      "name": "getAmountsIn",
      "outputs": [
        {
          "internalType": "uint256[]",
          "name": "amounts",
          "type": "uint256[]"
        }
      ],
      "stateMutability": "view",
      "type": "function"
    },
    {
      "inputs": [
        {
          "internalType": "uint256",
          "name": "amountIn",
          "type": "uint256"
        },
        {
          "internalType": "address[]",
          "name": "path",
          "type": "address[]"
        }
      ],
      "name": "getAmountsOut",
      "outputs": [
        {
          "internalType": "uint256[]",
          "name": "amounts",
          "type": "uint256[]"
        }
      ],
      "stateMutability": "view",
      "type": "function"
    },
    {
      "inputs": [
        {
          "internalType": "address",
          "name": "tokenIn",
          "type": "address"
        },
        {
          "internalType": "address",
          "name": "tokenOut",
          "type": "address"
        },
        {
          "internalType": "uint256",
          "name": "amountIn",
          "type": "uint256"
        }
      ],
      "name": "getBestRoute",
      "outputs": [
        {
          "internalType": "address[]",
          "name": "bestPath",
          "type": "address[]"
        }
      ],
      "stateMutability": "view",
      "type": "function"
    },
    {
      "inputs": [],
      "name": "oracle",
      "outputs": [
        {
          "internalType": "address",
          "name": "",
          "type": "address"
        }
      ],
      "stateMutability": "view",
      "type": "function"
    },
    {
      "inputs": [],
      "name": "owner",
      "outputs": [
        {
          "internalType": "address",
          "name": "",
          "type": "address"
        }
      ],
      "stateMutability": "view",
      "type": "function"
    },
    {
      "inputs": [
        {
          "internalType": "uint256",
          "name": "amountA",
          "type": "uint256"
        },
        {
          "internalType": "uint256",
          "name": "reserveA",
          "type": "uint256"
        },
        {
          "internalType": "uint256",
          "name": "reserveB",
          "type": "uint256"
        }
      ],
      "name": "quote",
      "outputs": [
        {
          "internalType": "uint256",
          "name": "amountB",
          "type": "uint256"
        }
      ],
      "stateMutability": "pure",
      "type": "function"
    },
    {
      "inputs": [
        {
          "internalType": "address",
          "name": "tokenA",
          "type": "address"
        },
        {
          "internalType": "address",
          "name": "tokenB",
          "type": "address"
        },
        {
          "internalType": "uint256",
          "name": "liquidity",
          "type": "uint256"
        },
        {
          "internalType": "uint256",
          "name": "amountAMin",
          "type": "uint256"
        },
        {
          "internalType": "uint256",
          "name": "amountBMin",
          "type": "uint256"
        },
        {
          "internalType": "address",
          "name": "to",
          "type": "address"
        },
        {
          "internalType": "uint256",
          "name": "deadline",
          "type": "uint256"
        }
      ],
      "name": "removeLiquidity",
      "outputs": [
        {
          "internalType": "uint256",
          "name": "amountA",
          "type": "uint256"
        },
        {
          "internalType": "uint256",
          "name": "amountB",
          "type": "uint256"
        }
      ],
      "stateMutability": "nonpayable",
      "type": "function"
    },
    {
      "inputs": [
        {
          "internalType": "address",
          "name": "token",
          "type": "address"
        },
        {
          "internalType": "uint256",
          "name": "liquidity",
          "type": "uint256"
        },
        {
          "internalType": "uint256",
          "name": "amountTokenMin",
          "type": "uint256"
        },
        {
          "internalType": "uint256",
          "name": "amountETHMin",
          "type": "uint256"
        },
        {
          "internalType": "address",
          "name": "to",
          "type": "address"
        },
        {
          "internalType": "uint256",
          "name": "deadline",
          "type": "uint256"
        }
      ],
      "name": "removeLiquidityETH",
      "outputs": [
        {
          "internalType": "uint256",
          "name": "amountToken",
          "type": "uint256"
        },
        {
          "internalType": "uint256",
          "name": "amountETH",
          "type": "uint256"
        }
      ],
      "stateMutability": "nonpayable",
      "type": "function"
    },
    {
      "inputs": [
        {
          "internalType": "address",
          "name": "token",
          "type": "address"
        },
        {
          "internalType": "uint256",
          "name": "liquidity",
          "type": "uint256"
        },
        {
          "internalType": "uint256",
          "name": "amountTokenMin",
          "type": "uint256"
        },
        {
          "internalType": "uint256",
          "name": "amountETHMin",
          "type": "uint256"
        },
        {
          "internalType": "address",
          "name": "to",
          "type": "address"
        },
        {
          "internalType": "uint256",
          "name": "deadline",
          "type": "uint256"
        }
      ],
      "name": "removeLiquidityETHSupportingFeeOnTransferTokens",
      "outputs": [
        {
          "internalType": "uint256",
          "name": "amountETH",
          "type": "uint256"
        }
      ],
      "stateMutability": "nonpayable",
      "type": "function"
    },
    {
      "inputs": [],
      "name": "renounceOwnership",
      "outputs": [],
      "stateMutability": "nonpayable",
      "type": "function"
    },
    {
      "inputs": [
        {
          "internalType": "address",
          "name": "_oracle",
          "type": "address"
        }
      ],
      "name": "setOracle",
      "outputs": [],
      "stateMutability": "nonpayable",
      "type": "function"
    },
    {
      "inputs": [
        {
          "internalType": "uint256",
          "name": "amountOut",
          "type": "uint256"
        },
        {
          "internalType": "address[]",
          "name": "path",
          "type": "address[]"
        },
        {
          "internalType": "address",
          "name": "to",
          "type": "address"
        },
        {
          "internalType": "uint256",
          "name": "deadline",
          "type": "uint256"
        }
      ],
      "name": "swapETHForExactTokens",
      "outputs": [
        {
          "internalType": "uint256[]",
          "name": "amounts",
          "type": "uint256[]"
        }
      ],
      "stateMutability": "payable",
      "type": "function"
    },
    {
      "inputs": [
        {
          "internalType": "uint256",
          "name": "amountOutMin",
          "type": "uint256"
        },
        {
          "internalType": "address[]",
          "name": "path",
          "type": "address[]"
        },
        {
          "internalType": "address",
          "name": "to",
          "type": "address"
        },
        {
          "internalType": "uint256",
          "name": "deadline",
          "type": "uint256"
        }
      ],
      "name": "swapExactETHForTokens",
      "outputs": [
        {
          "internalType": "uint256[]",
          "name": "amounts",
          "type": "uint256[]"
        }
      ],
      "stateMutability": "payable",
      "type": "function"
    },
    {
      "inputs": [
        {
          "internalType": "uint256",
          "name": "amountIn",
          "type": "uint256"
        },
        {
          "internalType": "uint256",
          "name": "amountOutMin",
          "type": "uint256"
        },
        {
          "internalType": "address[]",
          "name": "path",
          "type": "address[]"
        },
        {
          "internalType": "address",
          "name": "to",
          "type": "address"
        },
        {
          "internalType": "uint256",
          "name": "deadline",
          "type": "uint256"
        }
      ],
      "name": "swapExactTokensForETH",
      "outputs": [
        {
          "internalType": "uint256[]",
          "name": "amounts",
          "type": "uint256[]"
        }
      ],
      "stateMutability": "nonpayable",
      "type": "function"
    },
    {
      "inputs": [
        {
          "internalType": "uint256",
          "name": "amountIn",
          "type": "uint256"
        },
        {
          "internalType": "uint256",
          "name": "amountOutMin",
          "type": "uint256"
        },
        {
          "internalType": "address[]",
          "name": "path",
          "type": "address[]"
        },
        {
          "internalType": "address",
          "name": "to",
          "type": "address"
        },
        {
          "internalType": "uint256",
          "name": "deadline",
          "type": "uint256"
        }
      ],
      "name": "swapExactTokensForTokens",
      "outputs": [
        {
          "internalType": "uint256[]",
          "name": "amounts",
          "type": "uint256[]"
        }
      ],
      "stateMutability": "nonpayable",
      "type": "function"
    },
    {
      "inputs": [
        {
          "internalType": "uint256",
          "name": "amountIn",
          "type": "uint256"
        },
        {
          "internalType": "uint256",
          "name": "amountOutMin",
          "type": "uint256"
        },
        {
          "internalType": "address[]",
          "name": "path",
          "type": "address[]"
        },
        {
          "internalType": "address",
          "name": "to",
          "type": "address"
        },
        {
          "internalType": "uint256",
          "name": "deadline",
          "type": "uint256"
        }
      ],
      "name": "swapExactTokensForTokensMultiHop",
      "outputs": [
        {
          "internalType": "uint256[]",
          "name": "amounts",
          "type": "uint256[]"
        }
      ],
      "stateMutability": "nonpayable",
      "type": "function"
    },
    {
      "inputs": [
        {
          "internalType": "uint256",
          "name": "amountIn",
          "type": "uint256"
        },
        {
          "internalType": "uint256",
          "name": "amountOutMin",
          "type": "uint256"
        },
        {
          "internalType": "address[]",
          "name": "path",
          "type": "address[]"
        },
        {
          "internalType": "address",
          "name": "to",
          "type": "address"
        },
        {
          "internalType": "uint256",
          "name": "deadline",
          "type": "uint256"
        },
        {
          "internalType": "uint8",
          "name": "v",
          "type": "uint8"
        },
        {
          "internalType": "bytes32",
          "name": "r",
          "type": "bytes32"
        },
        {
          "internalType": "bytes32",
          "name": "s",
          "type": "bytes32"
        }
      ],
      "name": "swapExactTokensForTokensWithPermit",
      "outputs": [
        {
          "internalType": "uint256[]",
          "name": "amounts",
          "type": "uint256[]"
        }
      ],
      "stateMutability": "nonpayable",
      "type": "function"
    },
    {
      "inputs": [
        {
          "internalType": "uint256",
          "name": "amountOut",
          "type": "uint256"
        },
        {
          "internalType": "uint256",
          "name": "amountInMax",
          "type": "uint256"
        },
        {
          "internalType": "address[]",
          "name": "path",
          "type": "address[]"
        },
        {
          "internalType": "address",
          "name": "to",
          "type": "address"
        },
        {
          "internalType": "uint256",
          "name": "deadline",
          "type": "uint256"
        }
      ],
      "name": "swapTokensForExactETH",
      "outputs": [
        {
          "internalType": "uint256[]",
          "name": "amounts",
          "type": "uint256[]"
        }
      ],
      "stateMutability": "nonpayable",
      "type": "function"
    },
    {
      "inputs": [
        {
          "internalType": "uint256",
          "name": "amountOut",
          "type": "uint256"
        },
        {
          "internalType": "uint256",
          "name": "amountInMax",
          "type": "uint256"
        },
        {
          "internalType": "address[]",
          "name": "path",
          "type": "address[]"
        },
        {
          "internalType": "address",
          "name": "to",
          "type": "address"
        },
        {
          "internalType": "uint256",
          "name": "deadline",
          "type": "uint256"
        }
      ],
      "name": "swapTokensForExactTokens",
      "outputs": [
        {
          "internalType": "uint256[]",
          "name": "amounts",
          "type": "uint256[]"
        }
      ],
      "stateMutability": "nonpayable",
      "type": "function"
    },
    {
      "inputs": [
        {
          "internalType": "address",
          "name": "newOwner",
          "type": "address"
        }
      ],
      "name": "transferOwnership",
      "outputs": [],
      "stateMutability": "nonpayable",
      "type": "function"
    },
    {
      "stateMutability": "payable",
      "type": "receive"
    }
  ],
  "bytecode": "0x60c034620001c857601f6200364438819003918201601f19168301916001600160401b03831184841017620001cd57808492606094604052833981010312620001c8576200004d81620001e3565b906200006a60406200006260208401620001e3565b9201620001e3565b3315620001af57600080546001600160a01b03198082163390811784556040519691956001600160a01b03959490938616907f8be0079c531659141344cd1fd0a4f28419497f9722a3daafe3b4186f6b6457e09080a36001805560805260a0521690600254161760025561344b9081620001f982396080518181816101ee015281816104cc015281816107b2015281816108b7015281816108fb0152818161097f01528181610b6801528181610ed30152818161102e01528181611348015281816115fa015281816117a801528181611951015281816119f001528181611b8f01528181612222015281816124f0015281816125dd0152612b1d015260a0518181816023015281816101bd0152818161049901528181610b3801528181610e2601528181610ffd01528181611778015281816119c001528181611b630152612b850152f35b604051631e4fbdf760e01b815260006004820152602490fd5b600080fd5b634e487b7160e01b600052604160045260246000fd5b51906001600160a01b0382168203620001c85756fe604060808152600480361015610053575b5050361561001d57600080fd5b610051337f00000000000000000000000000000000000000000000000000000000000000006001600160a01b0316146120b9565b005b600091823560e01c806302751cec14611b37578063054d50d414611b1b57806318cbafe5146119755780631f00ca741461193757806338ed173914610e555780634a25d94a146117395780635ebe30c7146115225780636ede1b87146112ed578063715018a6146112935780637adbf973146112535780637dc0d1d01461122a5780637ff36ab514610fc657806385f8c25914610faa5780638803dbee14610ead5780638da5cb5b14610e855780639e15703c14610e55578063ad5c464814610e11578063ad615dec14610dee578063af2979eb14610b11578063baa2abde1461092a578063c45a0155146108e6578063d06ca61f1461089d578063e8e337001461073f578063f2fde38b146106af578063f305d71914610474578063faa55b6d146103ff5763fb3bdb41146101895750610010565b6101a461019536612042565b949091949392934211156120d6565b83156103ec576101b383612479565b6001600160a01b037f0000000000000000000000000000000000000000000000000000000000000000811697916101ec911688146127f1565b7f00000000000000000000000000000000000000000000000000000000000000009661022361021c368888611fa9565b858a613043565b976102396102308a6123c3565b51341015612796565b896102438a6123c3565b51833b156103e8578185918b5192838092630d0e30db60e41b8252885af180156103de576103c6575b505061027786612479565b87600110156103b3579161029d6102d99492602094610297868b01612479565b91612ec6565b8b6102a78c6123c3565b518b5163a9059cbb60e01b81526001600160a01b03909316948301948552602085015290948593849291839160400190565b03925af19081156103a957610349926103126000805160206133b683398151915297969593610323936103569c9161037b575b506120b9565b61031d368787611fa9565b896125db565b61032c876123c3565b51341161035a575b61033d876123c3565b5186519485948561248d565b0390a15191829182611ebc565b0390f35b610376610370610369896123c3565b51346123a0565b3361332c565b610334565b61039c915060203d81116103a2575b6103948183611f71565b810190612388565b3861030c565b503d61038a565b86513d8a823e3d90fd5b634e487b7160e01b8b526032845260248bfd5b6103cf90611ef7565b6103da57893861026c565b8980fd5b8a513d84823e3d90fd5b5080fd5b634e487b7160e01b875260328652602487fd5b8382346103e85760603660031901126103e85761042b61041d611dba565b610425611da4565b90612aae565b815192839260208080860192818752855180945286019401925b82811061045457505050500390f35b83516001600160a01b031685528695509381019392810192600101610445565b506104c2926104979161048636611de4565b9993979094999291924211156120d6565b7f0000000000000000000000000000000000000000000000000000000000000000963490888b6121f5565b9690956104f086837f0000000000000000000000000000000000000000000000000000000000000000612ec6565b926104fd88853386613237565b6001600160a01b0396871693843b156106a1578551630d0e30db60e41b8152878185818e8a5af180156106a55790889161068d575b5050855163a9059cbb60e01b81526001600160a01b03821684820190815260208181018d90529392919084908290819060400103818c8b5af19081156106835792898b809461058b6024958998859161066c57506120b9565b8b5198899687956335313c2160e11b87521690850152165af1958615610661579561061a575b50506000805160206133d683398151915261035695883411610608575b8451888152602081018a90526040810187905292169180606081015b0390a351938493846040919493926060820195825260208201520152565b6106156103708a346123a0565b6105ce565b9080969550813d831161065a575b6106328183611f71565b81010312610655576000805160206133d6833981519152610356955194956105b1565b600080fd5b503d610628565b8551903d90823e3d90fd5b61039c9150893d8b116103a2576103948183611f71565b88513d8b823e3d90fd5b61069690611ef7565b6106a1578638610532565b8680fd5b87513d8a823e3d90fd5b50903461073b57602036600319011261073b576106ca611dba565b906106d361208d565b6001600160a01b03918216928315610725575050600054826001600160601b0360a01b821617600055167f8be0079c531659141344cd1fd0a4f28419497f9722a3daafe3b4186f6b6457e0600080a380f35b51631e4fbdf760e01b8152908101849052602490fd5b8280fd5b508290346103e8576101003660031901126103e85761075c611dba565b91610765611da4565b6001600160a01b0360c4358181169591949290869003610655576020966107904260e43510156120d6565b6107a660a43560843560643560443586886121f5565b98909760246107d685877f0000000000000000000000000000000000000000000000000000000000000000612ec6565b936107e38b86338a613237565b6107ef8c863389613237565b888a895196879586946335313c2160e11b8652850152165af1948515610892579461084f575b506000805160206133d6833981519152856103569685519316931691806105ea878b8b846040919493926060820195825260208201520152565b9493506020853d821161088a575b8161086a60209383611f71565b8101031261065557935192936000805160206133d6833981519152610815565b3d915061085d565b8451903d90823e3d90fd5b8382346103e857610356906108db6108b436611fff565b907f0000000000000000000000000000000000000000000000000000000000000000612f99565b905191829182611ebc565b8382346103e857816003193601126103e857517f00000000000000000000000000000000000000000000000000000000000000006001600160a01b03168152602090f35b509134610b0e5760e0366003190112610b0e57610945611dba565b9161094e611da4565b91604435916001600160a01b039060a43582811690819003610655576109784260c43510156120d6565b6109a386887f0000000000000000000000000000000000000000000000000000000000000000612ec6565b88516323b872dd60e01b8152338185019081526001600160a01b0383166020828101919091526040820189905292861694929082908190606001038189885af18015610b0457916024918b9493610ae6575b50868451958694859363226bf2d160e21b85528401525af1958615610adc5783918497610aa4575b508083610a2b888294612e01565b5091169450168303610a8d57906000805160206133f68339815191529195945b610a59606435881015612141565b610a6760843587101561219b565b87518781526020810187905260408101959095521692606090a382519182526020820152f35b936000805160206133f68339815191529190610a4b565b88809298508193503d8311610ad5575b610abe8183611f71565b8101031261073b5781602082519201519690610a1d565b503d610ab4565b87513d85823e3d90fd5b610afd9060203d81116103a2576103948183611f71565b50386109f5565b8a513d88823e3d90fd5b80fd5b503461073b57610b2036611de4565b97939296919794909442111590610b36826120d6565b7f000000000000000000000000000000000000000000000000000000000000000091610b61906120d6565b610b8c82827f0000000000000000000000000000000000000000000000000000000000000000612ec6565b87516323b872dd60e01b8152338582019081526001600160a01b039283166020828101829052604083018990529c939290918d908290819060600103818c865af18015610de457918d8c928b969594610dc6575b5050602482518096819363226bf2d160e21b8352308c8401525af18015610dbc578c93928b928a9283958491610d7a575b50610c1c8989612e01565b50888316968795509083168503610d5557909e8f9260249a610c5f6000805160206133f683398151915296610c57610c7e955b871015612141565b86101561219b565b169b8c9651938493846040919493926060820195825260208201520152565b0390a388516370a0823160e01b8152308682015293849182905afa908115610d4b5786908692610d18575b610cb3935061314a565b813b1561073b5785602484928388519586948593632e1a7d4d60e01b85528401525af18015610d0e5790859291610cf6575b5050610cf09161332c565b51908152f35b819250610d0290611ef7565b610b0e57808491610ce5565b84513d84823e3d90fd5b9150508882813d8311610d44575b610d308183611f71565b810103126106555785610cb3925191610ca9565b503d610d26565b87513d87823e3d90fd5b9e8f9260249a610c5f6000805160206133f683398151915296610c57610c7e95610c4f565b96505092859194508092503d8311610db5575b610d978183611f71565b81010312610db1578783928b928e80965195015138610c11565b8780fd5b503d610d8d565b8a513d8a823e3d90fd5b81610ddc92903d106103a2576103948183611f71565b508d38610be0565b8b513d8b823e3d90fd5b8382346103e857602090610e0a610e0436611e24565b91612900565b9051908152f35b8382346103e857816003193601126103e857517f00000000000000000000000000000000000000000000000000000000000000006001600160a01b03168152602090f35b8382346103e857610356906108db610e80610e6f36611e6e565b9590959491949392934211156120d6565b6124e8565b8382346103e857816003193601126103e857905490516001600160a01b039091168152602090f35b508290346103e857610ed1610ec136611e6e565b97919590929493974211156120d6565b7f0000000000000000000000000000000000000000000000000000000000000000610f1c610f0a610f03368989611fa9565b8684613043565b98610f148a6123c3565b511115612796565b8515610f9757610f2b85612479565b91610f3586612479565b908760011015610f84576103568a8a6000805160206133b68339815191528b8b6103498c6103348d6103128e610f728f8f61029760208b01612479565b610f7b8c6123c3565b51913390613237565b634e487b7160e01b815260328b52602490fd5b634e487b7160e01b825260328952602482fd5b8382346103e857602090610e0a610fc036611e24565b91612a39565b508290610fe4610fd536612042565b969193929490964211156120d6565b821561121757610ff384612479565b6001600160a01b037f00000000000000000000000000000000000000000000000000000000000000008116979161102c911688146127f1565b7f00000000000000000000000000000000000000000000000000000000000000009661106361105c368789611fa9565b348a612f99565b9788519460001995868101908111611204579061108361108b928c6123f6565b51101561240a565b611094896123c3565b51823b1561120057848b918a5192838092630d0e30db60e41b8252875af180156111f6579085916111de575b50506110cb87612479565b86600110156111cb57916110ea60209261112c94610297858c01612479565b906110f48b6123c3565b518a5163a9059cbb60e01b81526001600160a01b03909316838e01908152602081019190915291938492839188918391604090910190565b03925af1908115610adc5761115d929161114c9185916111ad57506120b9565b611157368688611fa9565b886125db565b855191820191821161119a5761035686866000805160206133b6833981519152878761034961118c89876123f6565b51855193849334918561248d565b634e487b7160e01b815260118752602490fd5b6111c5915060203d81116103a2576103948183611f71565b8b61030c565b634e487b7160e01b855260328b52602485fd5b6111e790611ef7565b6111f257838b6110c0565b8380fd5b89513d87823e3d90fd5b8480fd5b634e487b7160e01b865260118c52602486fd5b634e487b7160e01b815260328752602490fd5b8382346103e857816003193601126103e85760025490516001600160a01b039091168152602090f35b8334610b0e576020366003190112610b0e5761126d611dba565b61127561208d565b60018060a01b03166001600160601b0360a01b600254161760025580f35b8334610b0e5780600319360112610b0e576112ac61208d565b600080546001600160a01b0319811682556001600160a01b03167f8be0079c531659141344cd1fd0a4f28419497f9722a3daafe3b4186f6b6457e08280a380f35b50903461073b57606036600319011261073b5780356001600160401b0381116111f25761131d9036908301611e3e565b611325611da4565b936113344260443510156120d6565b6001946002865414611512576002865591927f00000000000000000000000000000000000000000000000000000000000000009290875b858110611379578888805580f35b8060051b820135605e19833603018112156103da578201602090818101356113b56113ae6113a7848061283d565b3691611fa9565b828a612f99565b91825193600019948581019081116114ff576113d46113e091866123f6565b518a840135111561240a565b6113ea828061283d565b156114ec576113f890612479565b90611403838061283d565b156114d857906114138f92612479565b9161141e858061283d565b909110156114c3578c6114479361029761146497969461143e9401612479565b610f7b876123c3565b61145e886114586113a7848061283d565b866125db565b8061283d565b93909280519182019182116114b0576114ab9594926114966000805160206133b683398151915295936114a3936123f6565b51908a519485948561248d565b0390a16125cc565b61136b565b634e487b7160e01b8e5260118c5260248efd5b5050634e487b7160e01b8f5260328d5260248ffd5b50634e487b7160e01b8f5260328d5260248ffd5b634e487b7160e01b8f5260328d5260248ffd5b634e487b7160e01b8f5260118d5260248ffd5b8151633ee5aeb560e01b81528590fd5b508290346103e8576101003660031901126103e85782356044356001600160401b0381116111f2576115579036908601611e3e565b606435949092906001600160a01b0380871687036106555760843560a4359160ff83168093036111f25761158d428310156120d6565b86156117265761159c86612479565b16803b156111f2579060e48a8580948b51968795869463d505accf60e01b865233908601523060248601528a60448601526064850152608484015260c43560a4840152833560c48401525af1801561171c57908291611708575b50507f00000000000000000000000000000000000000000000000000000000000000009061162f611628368787611fa9565b8484612f99565b96875192600019938481019081116116f55761165290611083602435918c6123f6565b61165b86612479565b9061166587612479565b88600110156116e25791610f7261168792611692959461029760208c01612479565b61031d368888611fa9565b86519182019182116116cf5761035687876000805160206133b68339815191528888610349896116c28a886123f6565b519086519485948561248d565b634e487b7160e01b815260118852602490fd5b634e487b7160e01b855260328c52602485fd5b634e487b7160e01b845260118b52602484fd5b61171190611ef7565b610b0e5780886115f6565b86513d84823e3d90fd5b634e487b7160e01b845260328a52602484fd5b508290346103e85761174d610ec136611e6e565b600019908582018681116119245761176961176e918888612469565b612479565b6001600160a01b037f00000000000000000000000000000000000000000000000000000000000000008116916117a6911682146127f1565b7f00000000000000000000000000000000000000000000000000000000000000006117e96117df6117d8368b8b611fa9565b8884613043565b9a610f148c6123c3565b8715611911576117f887612479565b9061180288612479565b89600110156118fe576118209291610f729161029760208c01612479565b6118353061182f368a8a611fa9565b8b6125db565b88518381019081116118eb5761184b908a6123f6565b51813b1561073b57829060248c838c519586948593632e1a7d4d60e01b85528401525af180156118e1579082916118cd575b505087519182019182116118ba5761035688886000805160206133b683398151915289896103498a6103348b6118b38c8a6123f6565b519061332c565b634e487b7160e01b815260118952602490fd5b6118d690611ef7565b610b0e57808a61187d565b88513d84823e3d90fd5b634e487b7160e01b835260118b52602483fd5b634e487b7160e01b855260328d52602485fd5b634e487b7160e01b835260328b52602483fd5b634e487b7160e01b825260118a52602482fd5b8382346103e857610356906108db61194e36611fff565b907f0000000000000000000000000000000000000000000000000000000000000000613043565b508290346103e85761199a61198936611e6e565b9792949397959091954211156120d6565b60001991858301868111611924576117696119b6918888612469565b6001600160a01b037f00000000000000000000000000000000000000000000000000000000000000008116916119ee911682146127f1565b7f0000000000000000000000000000000000000000000000000000000000000000611a24611a1d368a8a611fa9565b8783612f99565b998a51868101908111611b085790611083611a3f928d6123f6565b871561191157611a4e87612479565b90611a5888612479565b89600110156118fe57611a769291610f729161029760208c01612479565b611a853061182f368a8a611fa9565b88518481019081116118eb57611a9b908a6123f6565b51813b1561073b57829060248c838c519586948593632e1a7d4d60e01b85528401525af180156118e157611af9575b50908751838101908111611ae657906118b3611692928a6123f6565b634e487b7160e01b835260118a52602483fd5b611b0290611ef7565b89611aca565b634e487b7160e01b855260118d52602485fd5b8382346103e857602090610e0a611b3136611e24565b91612984565b509190346103e857611b4836611de4565b96929396959190949542111593611b5e856120d6565b611b887f0000000000000000000000000000000000000000000000000000000000000000956120d6565b611bb385887f0000000000000000000000000000000000000000000000000000000000000000612ec6565b89516323b872dd60e01b8152338582019081526001600160a01b039283166020828101829052604083018d9052939a939092918290819060600103818a865af18015611d9a57918c918893611d7c575b50602482518094819363226bf2d160e21b8352308b8401525af1928315611d72578892918c9188918996611d33575b50611c3d8a85612e01565b50848d1692908d168303611d0a579c8d96809d611c9f9c611c7f611ca79b611c776000805160206133f6833981519152975b8d1015612141565b84101561219b565b169b8c95519283928a846040919493926060820195825260208201520152565b0390a361314a565b823b156103e8578460248392838a519687948593632e1a7d4d60e01b85528401525af1908115611cff5750918391611ce493611cf0575b5061332c565b82519182526020820152f35b611cf990611ef7565b38611cde565b8651903d90823e3d90fd5b959c8d96809d611c9f9c611c7f611ca79b611c776000805160206133f683398151915297611c6f565b93945094505081813d8311611d6b575b611d4d8183611f71565b81010312611d6757908a8260208a94519101519438611c32565b8580fd5b503d611d43565b8b513d88823e3d90fd5b611d939060203d81116103a2576103948183611f71565b5038611c03565b8c513d89823e3d90fd5b602435906001600160a01b038216820361065557565b600435906001600160a01b038216820361065557565b35906001600160a01b038216820361065557565b60c0906003190112610655576001600160a01b03600435818116810361065557916024359160443591606435916084359081168103610655579060a43590565b606090600319011261065557600435906024359060443590565b9181601f84011215610655578235916001600160401b038311610655576020808501948460051b01011161065557565b60a0600319820112610655576004359160243591604435906001600160401b03821161065557611ea091600401611e3e565b90916064356001600160a01b0381168103610655579060843590565b6020908160408183019282815285518094520193019160005b828110611ee3575050505090565b835185529381019392810192600101611ed5565b6001600160401b038111611f0a57604052565b634e487b7160e01b600052604160045260246000fd5b602081019081106001600160401b03821117611f0a57604052565b606081019081106001600160401b03821117611f0a57604052565b608081019081106001600160401b03821117611f0a57604052565b90601f801991011681019081106001600160401b03821117611f0a57604052565b6001600160401b038111611f0a5760051b60200190565b9291611fb482611f92565b91611fc26040519384611f71565b829481845260208094019160051b810192831161065557905b828210611fe85750505050565b838091611ff484611dd0565b815201910190611fdb565b9060406003198301126106555760043591602435906001600160401b03821161065557806023830112156106555781602461203f93600401359101611fa9565b90565b9060806003198301126106555760043591602435906001600160401b0382116106555761207191600401611e3e565b90916044356001600160a01b0381168103610655579060643590565b6000546001600160a01b031633036120a157565b60405163118cdaa760e01b8152336004820152602490fd5b156120c057565b634e487b7160e01b600052600160045260246000fd5b156120dd57565b60405162461bcd60e51b815260206004820152601760248201527f5368616853776170526f757465723a20455850495245440000000000000000006044820152606490fd5b9081602091031261065557516001600160a01b03811681036106555790565b1561214857565b60405162461bcd60e51b815260206004820152602560248201527f5368616853776170526f757465723a20494e53554646494349454e545f415f416044820152641353d5539560da1b6064820152608490fd5b156121a257565b60405162461bcd60e51b815260206004820152602560248201527f5368616853776170526f757465723a20494e53554646494349454e545f425f416044820152641353d5539560da1b6064820152608490fd5b60405163e6a4390560e01b81526001600160a01b03828116600483015283811660248301529396949594937f0000000000000000000000000000000000000000000000000000000000000000808216949392909160209182816044818a5afa90811561235f5760009161236b575b5016156122e8575b506122769350612d3f565b92908015806122e0575b1561228d57505050509091565b61229c84828897959697612900565b948386116122b857505050506122b49082101561219b565b9091565b8395506122b49450906122cf916122d89394612900565b948511156120b9565b831015612141565b508315612280565b6040516364e329cb60e11b81526001600160a01b03848116600483015285166024820152948190869060449082906000905af194851561235f5761227695612331575b5061226b565b8161235092903d10612358575b6123488183611f71565b810190612122565b50388061232b565b503d61233e565b6040513d6000823e3d90fd5b6123829150833d8511612358576123488183611f71565b38612263565b90816020910312610655575180151581036106555790565b919082039182116123ad57565b634e487b7160e01b600052601160045260246000fd5b8051156123d05760200190565b634e487b7160e01b600052603260045260246000fd5b8051600110156123d05760400190565b80518210156123d05760209160051b010190565b1561241157565b60405162461bcd60e51b815260206004820152602a60248201527f5368616853776170526f757465723a20494e53554646494349454e545f4f555460448201526914155517d05353d5539560b21b6064820152608490fd5b91908110156123d05760051b0190565b356001600160a01b03811681036106555790565b91949392948060608401606085525260808301919060005b8181106124bd57505050906040919460208201520152565b91929091906001906001600160a01b036124d686611dd0565b168152602090810194019291016124a5565b9291909493947f000000000000000000000000000000000000000000000000000000000000000061252461251d368686611fa9565b8683612f99565b968751600019938482019182116123ad57611083612542928b6123f6565b84156123d05761255184612479565b9161255b85612479565b9286600110156123d05761257c612585926125909561029760208a01612479565b610f7b8b6123c3565b611157368686611fa9565b85519081019081116123ad576000805160206133b6833981519152936125b96125c792886123f6565b51906040519485948561248d565b0390a1565b60001981146123ad5760010190565b7f0000000000000000000000000000000000000000000000000000000000000000939290919060005b825160001981019081116123ad5781101561278e576001600160a01b038061262c83866123f6565b511660018301918284116123ad578061264584886123f6565b51168161265d6126558386612e01565b50958a6123f6565b519416830361278657600093905b875160011981019081116123ad57839087101561277a5750600286018087116123ad57816126ab8d8694856126a36126b3968f6123f6565b511691612ec6565b955b8d612ec6565b16916040938451926126c484611f20565b60008452843b1561065557855163022c0d9f60e01b81526004810197909752602487015216604485015260806064850152805160848501819052849160005b8281106127625750509181600080948260a49183838284010152601f801991011681010301925af19081156127585750906127449291612749575b506125cc565b612604565b61275290611ef7565b3861273e565b513d6000823e3d90fd5b602082820181015160a4898401015287945001612703565b906126b39088956126ad565b60009061266b565b505050509050565b1561279d57565b60405162461bcd60e51b815260206004820152602660248201527f5368616853776170526f757465723a204558434553534956455f494e5055545f604482015265105353d5539560d21b6064820152608490fd5b156127f857565b60405162461bcd60e51b815260206004820152601c60248201527f5368616853776170526f757465723a20494e56414c49445f50415448000000006044820152606490fd5b903590601e198136030182121561065557018035906001600160401b03821161065557602001918160051b3603831361065557565b1561287957565b60405162461bcd60e51b815260206004820152602660248201527f5368616853776170526f757465723a20494e53554646494349454e545f4c495160448201526555494449545960d01b6064820152608490fd5b818102929181159184041417156123ad57565b81156128ea570490565b634e487b7160e01b600052601260045260246000fd5b80156129335761203f92612925918315158061292a575b61292090612872565b6128cd565b6128e0565b50811515612917565b60405162461bcd60e51b815260206004820152602360248201527f5368616853776170526f757465723a20494e53554646494349454e545f414d4f60448201526215539560ea1b6064820152608490fd5b80156129e2578115928315806129d9575b61299e90612872565b6103e5808302928304036123ad576129b690826128cd565b926103e88084029384041417156123ad5781018091116123ad5761203f916128e0565b50801515612995565b60405162461bcd60e51b815260206004820152602960248201527f5368616853776170526f757465723a20494e53554646494349454e545f494e50604482015268155517d05353d5539560ba1b6064820152608490fd5b919082612a5c91612a4b82151561240a565b80151580612aa55761292090612872565b916103e8928381029381850414901517156123ad57612a7a916123a0565b6103e5908181029181830414901517156123ad57612a97916128e0565b600181018091116123ad5790565b50831515612917565b906040908151612abd81611f3b565b60028152602093833686840137612ad3826123c3565b6001600160a01b038281169182905290939091612aef846123e6565b83831690819052865163e6a4390560e01b8082526001600160a01b03848116600484015285166024830152957f000000000000000000000000000000000000000000000000000000000000000086169392918a81604481885afa908115612d2057908791600091612d03575b5016612cf65750875196612b6e88611f56565b600388526060368b8a0137612b82886123c3565b527f000000000000000000000000000000000000000000000000000000000000000091612bae886123e6565b86841690528751600210156123d057606088019190915287518681526001600160a01b03918216600482015290821660248201528881604481865afa908115612ceb5789949392918691600091612cce575b501615159586612c5f575b505050505050612c5957815162461bcd60e51b815260048101849052601860248201527f5368616853776170526f757465723a204e4f5f524f55544500000000000000006044820152606490fd5b91505090565b88519081526001600160a01b0391821660048201529216602483015292935091829060449082905afa908115612cc357600091612ca6575b50161515388481808080612c0b565b612cbd9150853d8711612358576123488183611f71565b38612c97565b84513d6000823e3d90fd5b612ce59150863d8811612358576123488183611f71565b38612c00565b88513d6000823e3d90fd5b9850505050505050505090565b612d1a91508c8d3d10612358576123488183611f71565b38612b5b565b8a513d6000823e3d90fd5b51906001600160701b038216820361065557565b90806060600493612d65612d538785612e01565b50966001600160a01b03948593612ec6565b1660405194858092630240bc6b60e21b82525afa92831561235f576000908194612da9575b5081906001600160701b03809116941694169116146000146122b45791565b93506060843d8211612df9575b81612dc360609383611f71565b81010312610b0e57612dd484612d2b565b906040612de360208701612d2b565b95015163ffffffff811603610b0e575081612d8a565b3d9150612db6565b90916001600160a01b0391828416838216808214612e75571015612e7057925b91831615612e2b57565b60405162461bcd60e51b815260206004820152601c60248201527f5368616853776170526f757465723a205a45524f5f41444452455353000000006044820152606490fd5b612e21565b60405162461bcd60e51b815260206004820152602360248201527f5368616853776170526f757465723a204944454e544943414c5f41444452455360448201526253455360e81b6064820152608490fd5b91612ed091612e01565b919060405160208101916001600160601b03199485809260601b16845260601b16603482015260288152612f0381611f3b565b51902060405192602084019260ff60f81b845260601b16602184015260358301527f5d59ee5b4a031065f4eea90c908632a8d5368f79ae9915560d3359be24de471c605583015260558252612f5782611f56565b905190206001600160a01b031690565b90612f7182611f92565b612f7e6040519182611f71565b8281528092612f8f601f1991611f92565b0190602036910137565b9291612fa96002825110156127f1565b612fb38151612f67565b91612fbd836123c3565b5260005b815160001981019081116123ad5781101561303d576001600160a01b039081612fea82856123f6565b51169160018201908183116123ad5761302b61301a6130389561303293613011868a6123f6565b5116908b612d3f565b90613025868a6123f6565b51612984565b91866123f6565b526125cc565b612fc1565b50509150565b9291926130546002855110156127f1565b61305e8451612f67565b93845192600019938481019081116123ad5761307a90876123f6565b5280518381019081116123ad57805b6130935750505050565b8381018181116130f6576130e76130e06130cf6001600160a01b03806130b986896123f6565b5116906130c687896123f6565b51169088612d3f565b906130da868c6123f6565b51612a39565b91886123f6565b5280156130f657830180613089565b60246000634e487b7160e01b81526011600452fd5b3d15613145573d906001600160401b038211611f0a5760405191613139601f8201601f191660200184611f71565b82523d6000602084013e565b606090565b60405163a9059cbb60e01b602082019081526001600160a01b0390931660248201526044810193909352600092839290839061319381606481015b03601f198101835282611f71565b51925af161319f61310b565b81613208575b50156131ad57565b60405162461bcd60e51b815260206004820152602d60248201527f5472616e7366657248656c7065723a3a736166655472616e736665723a20747260448201526c185b9cd9995c8819985a5b1959609a1b6064820152608490fd5b805180159250821561321d575b5050386131a5565b6132309250602080918301019101612388565b3880613215565b6040516323b872dd60e01b602082019081526001600160a01b03938416602483015293909216604483015260648201939093526000928392909183906132808160848101613185565b51925af161328c61310b565b816132fd575b501561329a57565b60405162461bcd60e51b815260206004820152603560248201527f5472616e7366657248656c7065723a3a736166655472616e7366657246726f6d6044820152740e881d1c985b9cd9995c919c9bdb4819985a5b1959605a1b6064820152608490fd5b8051801592508215613312575b505038613292565b6133259250602080918301019101612388565b388061330a565b600080809381938260405161334081611f20565b525af161334b61310b565b501561335357565b60405162461bcd60e51b815260206004820152603460248201527f5472616e7366657248656c7065723a3a736166655472616e736665724554483a60448201527308115512081d1c985b9cd9995c8819985a5b195960621b6064820152608490fdfe46d36d3d18d9bcd63ff8be3e4c69d3939f4af76fe86599f2e7f0f027d0e273054a1a2a6176e9646d9e3157f7c2ab3c499f18337c0b0828cfb28e0a61de4a11f7bc7d19d505c7ec4db83f3b51f19fb98c4c8a99922e7839d1ee608dfbee29501ba26469706673582212201f1a39b436829b2e328e4c06c64e0d5b0fbbc42b02e7433df494e228f83dfdd864736f6c63430008140033",
  "linkReferences": {},
  "deployedLinkReferences": {}
}