{
  "_format": "hh-sol-artifact-1",
  "contractName": "MockUniswapFactory",
  "sourceName": "contracts/mocks/MockUniswapFactory.sol",
  "abi": [
    {
      "inputs": [
        {
          "internalType": "uint256",
          "name": "",
          "type": "uint256"
        }
      ],
      "name": "allPairs",
      "outputs": [
        {
          "internalType": "address",
          "name": "",
          "type": "address"
        }
      ],
      "stateMutability": "view",
      "type": "function"
    },
    {
      "inputs": [],
      "name": "allPairsLength",
      "outputs": [
        {
          "internalType": "uint256",
          "name": "",
          "type": "uint256"
        }
      ],
      "stateMutability": "view",
      "type": "function"
    },
    {
      "inputs": [
        {
          "internalType": "address",
          "name": "tokenA",
          "type": "address"
        },
        {
          "internalType": "address",
          "name": "tokenB",
          "type": "address"
        }
      ],
      "name": "createPair",
      "outputs": [
        {
          "internalType": "address",
          "name": "pair",
          "type": "address"
        }
      ],
      "stateMutability": "nonpayable",
      "type": "function"
    },
    {
      "inputs": [
        {
          "internalType": "address",
          "name": "",
          "type": "address"
        },
        {
          "internalType": "address",
          "name": "",
          "type": "address"
        }
      ],
      "name": "getPair",
      "outputs": [
        {
          "internalType": "address",
          "name": "",
          "type": "address"
        }
      ],
      "stateMutability": "view",
      "type": "function"
    }
  ],
  "bytecode": "0x60808060405234610016576102d8908161001c8239f35b600080fdfe604060808152600436101561001357600080fd5b600090813560e01c80631e3dd18b146101e2578063574f2ba3146101c4578063c9c65396146100985763e6a439051461004b57600080fd5b3461009457806003193601126100945760209181610067610271565b9161007061028c565b6001600160a01b039384168252818652828220908416825285522054915191168152f35b5080fd5b5090346101c157816003193601126101c1576100b2610271565b916100bb61028c565b9181519060209485830160018060a01b0393848316926bffffffffffffffffffffffff19809160601b1683528760601b166034820152426048820152604881526080810181811067ffffffffffffffff8211176101ad578652519020818352828752848320958416835294865283822080546001600160a01b0319908116968516968717909155828752848320918352908652838220805490911685179055600154906801000000000000000082101561019957508060016101809201600155610224565b819291549060031b9185831b921b191617905551908152f35b634e487b7160e01b81526041600452602490fd5b634e487b7160e01b85526041600452602485fd5b80fd5b50346100945781600319360112610094576020906001549051908152f35b503461009457602036600319011261009457600435916001548310156101c1575061020e602092610224565b905491519160018060a01b039160031b1c168152f35b60015481101561025b5760016000527fb10e2d527612073b26eecdfd717e6a320cf44b4afac2b0732d9fcbe2b7fa0cf60190600090565b634e487b7160e01b600052603260045260246000fd5b600435906001600160a01b038216820361028757565b600080fd5b602435906001600160a01b03821682036102875756fea2646970667358221220065e55eb459128b3efca7ac950d5cbf6d9c7070949fd5a7c26f2f82671acdc7164736f6c63430008140033",
  "linkReferences": {},
  "deployedLinkReferences": {}
}