{
  "_format": "hh-sol-artifact-1",
  "contractName": "MockUniswapRouter",
  "sourceName": "contracts/mocks/MockUniswapRouter.sol",
  "abi": [
    {
      "inputs": [],
      "stateMutability": "nonpayable",
      "type": "constructor"
    },
    {
      "inputs": [],
      "name": "WETH",
      "outputs": [
        {
          "internalType": "address",
          "name": "",
          "type": "address"
        }
      ],
      "stateMutability": "view",
      "type": "function"
    },
    {
      "inputs": [
        {
          "internalType": "address",
          "name": "tokenA",
          "type": "address"
        },
        {
          "internalType": "address",
          "name": "tokenB",
          "type": "address"
        },
        {
          "internalType": "uint256",
          "name": "amountADesired",
          "type": "uint256"
        },
        {
          "internalType": "uint256",
          "name": "amountBDesired",
          "type": "uint256"
        },
        {
          "internalType": "uint256",
          "name": "amountAMin",
          "type": "uint256"
        },
        {
          "internalType": "uint256",
          "name": "amountBMin",
          "type": "uint256"
        },
        {
          "internalType": "address",
          "name": "to",
          "type": "address"
        },
        {
          "internalType": "uint256",
          "name": "deadline",
          "type": "uint256"
        }
      ],
      "name": "addLiquidity",
      "outputs": [
        {
          "internalType": "uint256",
          "name": "amountA",
          "type": "uint256"
        },
        {
          "internalType": "uint256",
          "name": "amountB",
          "type": "uint256"
        },
        {
          "internalType": "uint256",
          "name": "liquidity",
          "type": "uint256"
        }
      ],
      "stateMutability": "nonpayable",
      "type": "function"
    },
    {
      "inputs": [
        {
          "internalType": "address",
          "name": "token",
          "type": "address"
        },
        {
          "internalType": "uint256",
          "name": "amountTokenDesired",
          "type": "uint256"
        },
        {
          "internalType": "uint256",
          "name": "amountTokenMin",
          "type": "uint256"
        },
        {
          "internalType": "uint256",
          "name": "amountETHMin",
          "type": "uint256"
        },
        {
          "internalType": "address",
          "name": "to",
          "type": "address"
        },
        {
          "internalType": "uint256",
          "name": "deadline",
          "type": "uint256"
        }
      ],
      "name": "addLiquidityETH",
      "outputs": [
        {
          "internalType": "uint256",
          "name": "amountToken",
          "type": "uint256"
        },
        {
          "internalType": "uint256",
          "name": "amountETH",
          "type": "uint256"
        },
        {
          "internalType": "uint256",
          "name": "liquidity",
          "type": "uint256"
        }
      ],
      "stateMutability": "payable",
      "type": "function"
    },
    {
      "inputs": [],
      "name": "factory",
      "outputs": [
        {
          "internalType": "address",
          "name": "",
          "type": "address"
        }
      ],
      "stateMutability": "view",
      "type": "function"
    },
    {
      "inputs": [
        {
          "internalType": "address",
          "name": "tokenA",
          "type": "address"
        },
        {
          "internalType": "address",
          "name": "tokenB",
          "type": "address"
        },
        {
          "internalType": "uint256",
          "name": "liquidity",
          "type": "uint256"
        },
        {
          "internalType": "uint256",
          "name": "amountAMin",
          "type": "uint256"
        },
        {
          "internalType": "uint256",
          "name": "amountBMin",
          "type": "uint256"
        },
        {
          "internalType": "address",
          "name": "to",
          "type": "address"
        },
        {
          "internalType": "uint256",
          "name": "deadline",
          "type": "uint256"
        }
      ],
      "name": "removeLiquidity",
      "outputs": [
        {
          "internalType": "uint256",
          "name": "amountA",
          "type": "uint256"
        },
        {
          "internalType": "uint256",
          "name": "amountB",
          "type": "uint256"
        }
      ],
      "stateMutability": "nonpayable",
      "type": "function"
    },
    {
      "inputs": [
        {
          "internalType": "address",
          "name": "token",
          "type": "address"
        },
        {
          "internalType": "uint256",
          "name": "liquidity",
          "type": "uint256"
        },
        {
          "internalType": "uint256",
          "name": "amountTokenMin",
          "type": "uint256"
        },
        {
          "internalType": "uint256",
          "name": "amountETHMin",
          "type": "uint256"
        },
        {
          "internalType": "address",
          "name": "to",
          "type": "address"
        },
        {
          "internalType": "uint256",
          "name": "deadline",
          "type": "uint256"
        }
      ],
      "name": "removeLiquidityETH",
      "outputs": [
        {
          "internalType": "uint256",
          "name": "amountToken",
          "type": "uint256"
        },
        {
          "internalType": "uint256",
          "name": "amountETH",
          "type": "uint256"
        }
      ],
      "stateMutability": "nonpayable",
      "type": "function"
    }
  ],
  "bytecode": "0x60a080604052346100495773c02aaa39b223fe8d0a0e5c4f27ead9083c756cc2608052600080546001600160a01b031916301790556107a9908161004f8239608051816104c00152f35b600080fdfe608060408181526004908136101561001657600080fd5b600092833560e01c90816302751cec146104ef57508063ad5c4648146104ab578063baa2abde14610311578063c45a0155146102e5578063e8e337001461019c5763f305d7191461006657600080fd5b61006f366106c0565b50909593919492506100818686610700565b83516323b872dd60e01b815233818701908152306020828101919091526040820189905292969294859183919082908d90829060600103926001600160a01b03165af1801561019257918693918593610175575b50855163a9059cbb60e01b81526001600160a01b03909216908201908152602081019390935291829081906040015b03818a305af1801561016b576101399596975061013d575b505051938493846040919493926060820195825260208201520152565b0390f35b8161015c92903d10610164575b6101548183610723565b81019061075b565b50388061011c565b503d61014a565b83513d89823e3d90fd5b61018b90843d8611610164576101548183610723565b50386100d5565b85513d8b823e3d90fd5b5090346102e1576101003660031901126102e1576101b861068f565b916101c16106aa565b60a43593608435936001600160a01b039392909160c4359185831683036102dd578391896101ef8a8a610700565b87516323b872dd60e01b80825233988201988952306020808b019190915260408a018d9052929a929890948991839190829003606001908290879087165af180156102d3579261026e95928995928e956102b6575b508a5192835233888401908152306020820152604081019590955291958694859391849160600190565b0393165af18015610192579186939185936101755750855163a9059cbb60e01b81526001600160a01b0390921690820190815260208101939093529182908190604001610104565b6102cc90873d8911610164576101548183610723565b5038610244565b89513d85823e3d90fd5b8880fd5b8280fd5b83823461030d578160031936011261030d57905490516001600160a01b039091168152602090f35b5080fd5b5091346104a85760e03660031901126104a85761032c61068f565b6103346106aa565b60643593608435939160a435916001600160a01b0380841684036104a45788516323b872dd60e01b81523383820190815230602082810191909152604435604083015297919088908290819060600103818a305af1801561047d576103d587938c8a8f88968e96610487575b505163a9059cbb60e01b8082526001600160a01b039098168a8201908152602081019390935295869485938491604090910190565b0393165af1801561047d5792879694928a98928a9795610460575b5061041b8d51998a97889687948552840160209093929193604081019460018060a01b031681520152565b0393165af19081156104555750610438575b508351928352820152f35b61044e90823d8411610164576101548183610723565b503861042d565b8651903d90823e3d90fd5b61047690883d8a11610164576101548183610723565b50386103f0565b8b513d89823e3d90fd5b61049d90873d8911610164576101548183610723565b50386103a0565b8480fd5b80fd5b83823461030d578160031936011261030d57517f00000000000000000000000000000000000000000000000000000000000000006001600160a01b03168152602090f35b84915083346102e15761054390610505366106c0565b506323b872dd60e01b885233868901908152306020828101919091526040820195909552929891979396919490939092909187918391829160600190565b038187305af1801561068557610668575b50875163a9059cbb60e01b81526001600160a01b038316858201908152602081018990529091869183919082908790829060400103926001600160a01b03165af1801561065e578387819482948394610641575b505af1903d1561063b573d9067ffffffffffffffff8211610628578751916105d9601f8201601f1916870184610723565b8252843d92013e5b156105f157508351928352820152f35b60649185519162461bcd60e51b83528201526013602482015272115512081d1c985b9cd9995c8819985a5b1959606a1b6044820152fd5b634e487b7160e01b815260418452602490fd5b506105e1565b610657908a3d8c11610164576101548183610723565b508c6105a8565b88513d85823e3d90fd5b61067e90863d8811610164576101548183610723565b5088610554565b89513d86823e3d90fd5b600435906001600160a01b03821682036106a557565b600080fd5b602435906001600160a01b03821682036106a557565b60c09060031901126106a5576001600160a01b0360043581811681036106a5579160243591604435916064359160843590811681036106a5579060a43590565b9190820180921161070d57565b634e487b7160e01b600052601160045260246000fd5b90601f8019910116810190811067ffffffffffffffff82111761074557604052565b634e487b7160e01b600052604160045260246000fd5b908160209103126106a5575180151581036106a5579056fea264697066735822122053854a9be821b23badb9af2aa371b5443e03446eb36c7c81f9ffce105472c0fc64736f6c63430008140033",
  "linkReferences": {},
  "deployedLinkReferences": {}
}