{
  "_format": "hh-sol-artifact-1",
  "contractName": "ShahSwapRouterVS3",
  "sourceName": "contracts/ShahSwapRouterVS3.sol",
  "abi": [
    {
      "inputs": [
        {
          "internalType": "address",
          "name": "_factory",
          "type": "address"
        },
        {
          "internalType": "address",
          "name": "_WETH",
          "type": "address"
        },
        {
          "internalType": "address",
          "name": "_oracle",
          "type": "address"
        }
      ],
      "stateMutability": "nonpayable",
      "type": "constructor"
    },
    {
      "inputs": [],
      "name": "ECDSAInvalidSignature",
      "type": "error"
    },
    {
      "inputs": [
        {
          "internalType": "uint256",
          "name": "length",
          "type": "uint256"
        }
      ],
      "name": "ECDSAInvalidSignatureLength",
      "type": "error"
    },
    {
      "inputs": [
        {
          "internalType": "bytes32",
          "name": "s",
          "type": "bytes32"
        }
      ],
      "name": "ECDSAInvalidSignatureS",
      "type": "error"
    },
    {
      "inputs": [],
      "name": "InvalidShortString",
      "type": "error"
    },
    {
      "inputs": [
        {
          "internalType": "address",
          "name": "owner",
          "type": "address"
        }
      ],
      "name": "OwnableInvalidOwner",
      "type": "error"
    },
    {
      "inputs": [
        {
          "internalType": "address",
          "name": "account",
          "type": "address"
        }
      ],
      "name": "OwnableUnauthorizedAccount",
      "type": "error"
    },
    {
      "inputs": [],
      "name": "ReentrancyGuardReentrantCall",
      "type": "error"
    },
    {
      "inputs": [
        {
          "internalType": "string",
          "name": "str",
          "type": "string"
        }
      ],
      "name": "StringTooLong",
      "type": "error"
    },
    {
      "anonymous": false,
      "inputs": [
        {
          "indexed": true,
          "internalType": "address",
          "name": "user",
          "type": "address"
        },
        {
          "indexed": false,
          "internalType": "uint256",
          "name": "totalAmountIn",
          "type": "uint256"
        },
        {
          "indexed": false,
          "internalType": "uint256",
          "name": "totalAmountOut",
          "type": "uint256"
        },
        {
          "indexed": false,
          "internalType": "uint256",
          "name": "swapsCount",
          "type": "uint256"
        },
        {
          "indexed": false,
          "internalType": "uint256",
          "name": "gasUsed",
          "type": "uint256"
        }
      ],
      "name": "BatchSwapExecuted",
      "type": "event"
    },
    {
      "anonymous": false,
      "inputs": [],
      "name": "EIP712DomainChanged",
      "type": "event"
    },
    {
      "anonymous": false,
      "inputs": [
        {
          "indexed": true,
          "internalType": "address",
          "name": "user",
          "type": "address"
        },
        {
          "indexed": true,
          "internalType": "address",
          "name": "tokenA",
          "type": "address"
        },
        {
          "indexed": true,
          "internalType": "address",
          "name": "tokenB",
          "type": "address"
        },
        {
          "indexed": false,
          "internalType": "uint256",
          "name": "amountA",
          "type": "uint256"
        },
        {
          "indexed": false,
          "internalType": "uint256",
          "name": "amountB",
          "type": "uint256"
        },
        {
          "indexed": false,
          "internalType": "uint256",
          "name": "liquidity",
          "type": "uint256"
        }
      ],
      "name": "LiquidityAdded",
      "type": "event"
    },
    {
      "anonymous": false,
      "inputs": [
        {
          "indexed": true,
          "internalType": "address",
          "name": "user",
          "type": "address"
        },
        {
          "indexed": true,
          "internalType": "address",
          "name": "tokenA",
          "type": "address"
        },
        {
          "indexed": true,
          "internalType": "address",
          "name": "tokenB",
          "type": "address"
        },
        {
          "indexed": false,
          "internalType": "uint256",
          "name": "amountA",
          "type": "uint256"
        },
        {
          "indexed": false,
          "internalType": "uint256",
          "name": "amountB",
          "type": "uint256"
        },
        {
          "indexed": false,
          "internalType": "uint256",
          "name": "liquidity",
          "type": "uint256"
        }
      ],
      "name": "LiquidityRemoved",
      "type": "event"
    },
    {
      "anonymous": false,
      "inputs": [
        {
          "indexed": true,
          "internalType": "address",
          "name": "previousOwner",
          "type": "address"
        },
        {
          "indexed": true,
          "internalType": "address",
          "name": "newOwner",
          "type": "address"
        }
      ],
      "name": "OwnershipTransferred",
      "type": "event"
    },
    {
      "anonymous": false,
      "inputs": [
        {
          "indexed": true,
          "internalType": "address",
          "name": "user",
          "type": "address"
        },
        {
          "indexed": false,
          "internalType": "address[]",
          "name": "path",
          "type": "address[]"
        },
        {
          "indexed": false,
          "internalType": "uint256",
          "name": "amountIn",
          "type": "uint256"
        },
        {
          "indexed": false,
          "internalType": "uint256",
          "name": "amountOut",
          "type": "uint256"
        },
        {
          "indexed": false,
          "internalType": "uint256",
          "name": "deadline",
          "type": "uint256"
        }
      ],
      "name": "PermitSwapExecuted",
      "type": "event"
    },
    {
      "anonymous": false,
      "inputs": [
        {
          "indexed": true,
          "internalType": "address",
          "name": "user",
          "type": "address"
        },
        {
          "indexed": false,
          "internalType": "address[]",
          "name": "path",
          "type": "address[]"
        },
        {
          "indexed": false,
          "internalType": "uint256",
          "name": "amountIn",
          "type": "uint256"
        },
        {
          "indexed": false,
          "internalType": "uint256",
          "name": "amountOut",
          "type": "uint256"
        },
        {
          "indexed": false,
          "internalType": "uint256",
          "name": "gasUsed",
          "type": "uint256"
        }
      ],
      "name": "SwapExecuted",
      "type": "event"
    },
    {
      "inputs": [],
      "name": "PERMIT_TYPEHASH",
      "outputs": [
        {
          "internalType": "bytes32",
          "name": "",
          "type": "bytes32"
        }
      ],
      "stateMutability": "view",
      "type": "function"
    },
    {
      "inputs": [],
      "name": "WETH",
      "outputs": [
        {
          "internalType": "address",
          "name": "",
          "type": "address"
        }
      ],
      "stateMutability": "view",
      "type": "function"
    },
    {
      "inputs": [
        {
          "internalType": "address",
          "name": "tokenA",
          "type": "address"
        },
        {
          "internalType": "address",
          "name": "tokenB",
          "type": "address"
        },
        {
          "internalType": "uint256",
          "name": "amountADesired",
          "type": "uint256"
        },
        {
          "internalType": "uint256",
          "name": "amountBDesired",
          "type": "uint256"
        },
        {
          "internalType": "uint256",
          "name": "amountAMin",
          "type": "uint256"
        },
        {
          "internalType": "uint256",
          "name": "amountBMin",
          "type": "uint256"
        },
        {
          "internalType": "address",
          "name": "to",
          "type": "address"
        },
        {
          "internalType": "uint256",
          "name": "deadline",
          "type": "uint256"
        }
      ],
      "name": "addLiquidity",
      "outputs": [
        {
          "internalType": "uint256",
          "name": "amountA",
          "type": "uint256"
        },
        {
          "internalType": "uint256",
          "name": "amountB",
          "type": "uint256"
        },
        {
          "internalType": "uint256",
          "name": "liquidity",
          "type": "uint256"
        }
      ],
      "stateMutability": "nonpayable",
      "type": "function"
    },
    {
      "inputs": [
        {
          "internalType": "address",
          "name": "token",
          "type": "address"
        },
        {
          "internalType": "uint256",
          "name": "amountTokenDesired",
          "type": "uint256"
        },
        {
          "internalType": "uint256",
          "name": "amountTokenMin",
          "type": "uint256"
        },
        {
          "internalType": "uint256",
          "name": "amountETHMin",
          "type": "uint256"
        },
        {
          "internalType": "address",
          "name": "to",
          "type": "address"
        },
        {
          "internalType": "uint256",
          "name": "deadline",
          "type": "uint256"
        }
      ],
      "name": "addLiquidityETH",
      "outputs": [
        {
          "internalType": "uint256",
          "name": "amountToken",
          "type": "uint256"
        },
        {
          "internalType": "uint256",
          "name": "amountETH",
          "type": "uint256"
        },
        {
          "internalType": "uint256",
          "name": "liquidity",
          "type": "uint256"
        }
      ],
      "stateMutability": "payable",
      "type": "function"
    },
    {
      "inputs": [
        {
          "components": [
            {
              "components": [
                {
                  "internalType": "uint256",
                  "name": "amountIn",
                  "type": "uint256"
                },
                {
                  "internalType": "uint256",
                  "name": "amountOutMin",
                  "type": "uint256"
                },
                {
                  "internalType": "address[]",
                  "name": "path",
                  "type": "address[]"
                },
                {
                  "internalType": "address",
                  "name": "to",
                  "type": "address"
                },
                {
                  "internalType": "uint256",
                  "name": "deadline",
                  "type": "uint256"
                }
              ],
              "internalType": "struct ShahSwapRouterVS3.SwapParams[]",
              "name": "swaps",
              "type": "tuple[]"
            },
            {
              "internalType": "uint256",
              "name": "totalAmountIn",
              "type": "uint256"
            },
            {
              "internalType": "uint256",
              "name": "totalAmountOutMin",
              "type": "uint256"
            },
            {
              "internalType": "address",
              "name": "to",
              "type": "address"
            },
            {
              "internalType": "uint256",
              "name": "deadline",
              "type": "uint256"
            }
          ],
          "internalType": "struct ShahSwapRouterVS3.BatchSwapParams",
          "name": "params",
          "type": "tuple"
        }
      ],
      "name": "batchSwapExactTokensForTokens",
      "outputs": [
        {
          "internalType": "uint256",
          "name": "totalAmountOut",
          "type": "uint256"
        }
      ],
      "stateMutability": "nonpayable",
      "type": "function"
    },
    {
      "inputs": [],
      "name": "eip712Domain",
      "outputs": [
        {
          "internalType": "bytes1",
          "name": "fields",
          "type": "bytes1"
        },
        {
          "internalType": "string",
          "name": "name",
          "type": "string"
        },
        {
          "internalType": "string",
          "name": "version",
          "type": "string"
        },
        {
          "internalType": "uint256",
          "name": "chainId",
          "type": "uint256"
        },
        {
          "internalType": "address",
          "name": "verifyingContract",
          "type": "address"
        },
        {
          "internalType": "bytes32",
          "name": "salt",
          "type": "bytes32"
        },
        {
          "internalType": "uint256[]",
          "name": "extensions",
          "type": "uint256[]"
        }
      ],
      "stateMutability": "view",
      "type": "function"
    },
    {
      "inputs": [
        {
          "internalType": "address",
          "name": "token",
          "type": "address"
        },
        {
          "internalType": "uint256",
          "name": "amount",
          "type": "uint256"
        }
      ],
      "name": "emergencyRecover",
      "outputs": [],
      "stateMutability": "nonpayable",
      "type": "function"
    },
    {
      "inputs": [],
      "name": "emergencyRecoverETH",
      "outputs": [],
      "stateMutability": "nonpayable",
      "type": "function"
    },
    {
      "inputs": [],
      "name": "factory",
      "outputs": [
        {
          "internalType": "address",
          "name": "",
          "type": "address"
        }
      ],
      "stateMutability": "view",
      "type": "function"
    },
    {
      "inputs": [
        {
          "internalType": "uint256",
          "name": "amountOut",
          "type": "uint256"
        },
        {
          "internalType": "uint256",
          "name": "reserveIn",
          "type": "uint256"
        },
        {
          "internalType": "uint256",
          "name": "reserveOut",
          "type": "uint256"
        }
      ],
      "name": "getAmountIn",
      "outputs": [
        {
          "internalType": "uint256",
          "name": "amountIn",
          "type": "uint256"
        }
      ],
      "stateMutability": "pure",
      "type": "function"
    },
    {
      "inputs": [
        {
          "internalType": "uint256",
          "name": "amountIn",
          "type": "uint256"
        },
        {
          "internalType": "uint256",
          "name": "reserveIn",
          "type": "uint256"
        },
        {
          "internalType": "uint256",
          "name": "reserveOut",
          "type": "uint256"
        }
      ],
      "name": "getAmountOut",
      "outputs": [
        {
          "internalType": "uint256",
          "name": "amountOut",
          "type": "uint256"
        }
      ],
      "stateMutability": "pure",
      "type": "function"
    },
    {
      "inputs": [
        {
          "internalType": "uint256",
          "name": "amountOut",
          "type": "uint256"
        },
        {
          "internalType": "address[]",
          "name": "path",
          "type": "address[]"
        }
      ],
      "name": "getAmountsIn",
      "outputs": [
        {
          "internalType": "uint256[]",
          "name": "amounts",
          "type": "uint256[]"
        }
      ],
      "stateMutability": "view",
      "type": "function"
    },
    {
      "inputs": [
        {
          "internalType": "uint256",
          "name": "amountIn",
          "type": "uint256"
        },
        {
          "internalType": "address[]",
          "name": "path",
          "type": "address[]"
        }
      ],
      "name": "getAmountsOut",
      "outputs": [
        {
          "internalType": "uint256[]",
          "name": "amounts",
          "type": "uint256[]"
        }
      ],
      "stateMutability": "view",
      "type": "function"
    },
    {
      "inputs": [
        {
          "internalType": "uint256",
          "name": "amountIn",
          "type": "uint256"
        },
        {
          "internalType": "address[]",
          "name": "path",
          "type": "address[]"
        }
      ],
      "name": "getBestRoute",
      "outputs": [
        {
          "components": [
            {
              "internalType": "address[]",
              "name": "path",
              "type": "address[]"
            },
            {
              "internalType": "uint256",
              "name": "amountOut",
              "type": "uint256"
            },
            {
              "internalType": "uint256",
              "name": "priceImpact",
              "type": "uint256"
            }
          ],
          "internalType": "struct ShahSwapRouterVS3.Route",
          "name": "route",
          "type": "tuple"
        }
      ],
      "stateMutability": "view",
      "type": "function"
    },
    {
      "inputs": [],
      "name": "oracle",
      "outputs": [
        {
          "internalType": "address",
          "name": "",
          "type": "address"
        }
      ],
      "stateMutability": "view",
      "type": "function"
    },
    {
      "inputs": [],
      "name": "owner",
      "outputs": [
        {
          "internalType": "address",
          "name": "",
          "type": "address"
        }
      ],
      "stateMutability": "view",
      "type": "function"
    },
    {
      "inputs": [
        {
          "internalType": "uint256",
          "name": "amountA",
          "type": "uint256"
        },
        {
          "internalType": "uint256",
          "name": "reserveA",
          "type": "uint256"
        },
        {
          "internalType": "uint256",
          "name": "reserveB",
          "type": "uint256"
        }
      ],
      "name": "quote",
      "outputs": [
        {
          "internalType": "uint256",
          "name": "amountB",
          "type": "uint256"
        }
      ],
      "stateMutability": "pure",
      "type": "function"
    },
    {
      "inputs": [
        {
          "internalType": "address",
          "name": "tokenA",
          "type": "address"
        },
        {
          "internalType": "address",
          "name": "tokenB",
          "type": "address"
        },
        {
          "internalType": "uint256",
          "name": "liquidity",
          "type": "uint256"
        },
        {
          "internalType": "uint256",
          "name": "amountAMin",
          "type": "uint256"
        },
        {
          "internalType": "uint256",
          "name": "amountBMin",
          "type": "uint256"
        },
        {
          "internalType": "address",
          "name": "to",
          "type": "address"
        },
        {
          "internalType": "uint256",
          "name": "deadline",
          "type": "uint256"
        }
      ],
      "name": "removeLiquidity",
      "outputs": [
        {
          "internalType": "uint256",
          "name": "amountA",
          "type": "uint256"
        },
        {
          "internalType": "uint256",
          "name": "amountB",
          "type": "uint256"
        }
      ],
      "stateMutability": "nonpayable",
      "type": "function"
    },
    {
      "inputs": [
        {
          "internalType": "address",
          "name": "token",
          "type": "address"
        },
        {
          "internalType": "uint256",
          "name": "liquidity",
          "type": "uint256"
        },
        {
          "internalType": "uint256",
          "name": "amountTokenMin",
          "type": "uint256"
        },
        {
          "internalType": "uint256",
          "name": "amountETHMin",
          "type": "uint256"
        },
        {
          "internalType": "address",
          "name": "to",
          "type": "address"
        },
        {
          "internalType": "uint256",
          "name": "deadline",
          "type": "uint256"
        }
      ],
      "name": "removeLiquidityETH",
      "outputs": [
        {
          "internalType": "uint256",
          "name": "amountToken",
          "type": "uint256"
        },
        {
          "internalType": "uint256",
          "name": "amountETH",
          "type": "uint256"
        }
      ],
      "stateMutability": "nonpayable",
      "type": "function"
    },
    {
      "inputs": [
        {
          "internalType": "address",
          "name": "token",
          "type": "address"
        },
        {
          "internalType": "uint256",
          "name": "liquidity",
          "type": "uint256"
        },
        {
          "internalType": "uint256",
          "name": "amountTokenMin",
          "type": "uint256"
        },
        {
          "internalType": "uint256",
          "name": "amountETHMin",
          "type": "uint256"
        },
        {
          "internalType": "address",
          "name": "to",
          "type": "address"
        },
        {
          "internalType": "uint256",
          "name": "deadline",
          "type": "uint256"
        }
      ],
      "name": "removeLiquidityETHSupportingFeeOnTransferTokens",
      "outputs": [
        {
          "internalType": "uint256",
          "name": "amountETH",
          "type": "uint256"
        }
      ],
      "stateMutability": "nonpayable",
      "type": "function"
    },
    {
      "inputs": [],
      "name": "renounceOwnership",
      "outputs": [],
      "stateMutability": "nonpayable",
      "type": "function"
    },
    {
      "inputs": [
        {
          "internalType": "address",
          "name": "_oracle",
          "type": "address"
        }
      ],
      "name": "setOracle",
      "outputs": [],
      "stateMutability": "nonpayable",
      "type": "function"
    },
    {
      "inputs": [
        {
          "internalType": "uint256",
          "name": "amountOutMin",
          "type": "uint256"
        },
        {
          "internalType": "address[]",
          "name": "path",
          "type": "address[]"
        },
        {
          "internalType": "address",
          "name": "to",
          "type": "address"
        },
        {
          "internalType": "uint256",
          "name": "deadline",
          "type": "uint256"
        }
      ],
      "name": "swapExactETHForTokens",
      "outputs": [
        {
          "internalType": "uint256[]",
          "name": "amounts",
          "type": "uint256[]"
        }
      ],
      "stateMutability": "payable",
      "type": "function"
    },
    {
      "inputs": [
        {
          "internalType": "uint256",
          "name": "amountIn",
          "type": "uint256"
        },
        {
          "internalType": "uint256",
          "name": "amountOutMin",
          "type": "uint256"
        },
        {
          "internalType": "address[]",
          "name": "path",
          "type": "address[]"
        },
        {
          "internalType": "address",
          "name": "to",
          "type": "address"
        },
        {
          "internalType": "uint256",
          "name": "deadline",
          "type": "uint256"
        }
      ],
      "name": "swapExactTokensForTokens",
      "outputs": [
        {
          "internalType": "uint256[]",
          "name": "amounts",
          "type": "uint256[]"
        }
      ],
      "stateMutability": "nonpayable",
      "type": "function"
    },
    {
      "inputs": [
        {
          "components": [
            {
              "internalType": "uint256",
              "name": "amountIn",
              "type": "uint256"
            },
            {
              "internalType": "uint256",
              "name": "amountOutMin",
              "type": "uint256"
            },
            {
              "internalType": "address[]",
              "name": "path",
              "type": "address[]"
            },
            {
              "internalType": "address",
              "name": "to",
              "type": "address"
            },
            {
              "internalType": "uint256",
              "name": "deadline",
              "type": "uint256"
            }
          ],
          "internalType": "struct ShahSwapRouterVS3.SwapParams",
          "name": "params",
          "type": "tuple"
        }
      ],
      "name": "swapExactTokensForTokensMultiHop",
      "outputs": [
        {
          "internalType": "uint256[]",
          "name": "amounts",
          "type": "uint256[]"
        }
      ],
      "stateMutability": "nonpayable",
      "type": "function"
    },
    {
      "inputs": [
        {
          "components": [
            {
              "components": [
                {
                  "internalType": "uint256",
                  "name": "amountIn",
                  "type": "uint256"
                },
                {
                  "internalType": "uint256",
                  "name": "amountOutMin",
                  "type": "uint256"
                },
                {
                  "internalType": "address[]",
                  "name": "path",
                  "type": "address[]"
                },
                {
                  "internalType": "address",
                  "name": "to",
                  "type": "address"
                },
                {
                  "internalType": "uint256",
                  "name": "deadline",
                  "type": "uint256"
                }
              ],
              "internalType": "struct ShahSwapRouterVS3.SwapParams",
              "name": "swap",
              "type": "tuple"
            },
            {
              "internalType": "uint256",
              "name": "deadline",
              "type": "uint256"
            },
            {
              "internalType": "uint8",
              "name": "v",
              "type": "uint8"
            },
            {
              "internalType": "bytes32",
              "name": "r",
              "type": "bytes32"
            },
            {
              "internalType": "bytes32",
              "name": "s",
              "type": "bytes32"
            }
          ],
          "internalType": "struct ShahSwapRouterVS3.PermitSwapParams",
          "name": "params",
          "type": "tuple"
        }
      ],
      "name": "swapExactTokensForTokensWithPermit",
      "outputs": [
        {
          "internalType": "uint256[]",
          "name": "amounts",
          "type": "uint256[]"
        }
      ],
      "stateMutability": "nonpayable",
      "type": "function"
    },
    {
      "inputs": [
        {
          "internalType": "uint256",
          "name": "amountOut",
          "type": "uint256"
        },
        {
          "internalType": "uint256",
          "name": "amountInMax",
          "type": "uint256"
        },
        {
          "internalType": "address[]",
          "name": "path",
          "type": "address[]"
        },
        {
          "internalType": "address",
          "name": "to",
          "type": "address"
        },
        {
          "internalType": "uint256",
          "name": "deadline",
          "type": "uint256"
        }
      ],
      "name": "swapTokensForExactETH",
      "outputs": [
        {
          "internalType": "uint256[]",
          "name": "amounts",
          "type": "uint256[]"
        }
      ],
      "stateMutability": "nonpayable",
      "type": "function"
    },
    {
      "inputs": [
        {
          "internalType": "uint256",
          "name": "amountOut",
          "type": "uint256"
        },
        {
          "internalType": "uint256",
          "name": "amountInMax",
          "type": "uint256"
        },
        {
          "internalType": "address[]",
          "name": "path",
          "type": "address[]"
        },
        {
          "internalType": "address",
          "name": "to",
          "type": "address"
        },
        {
          "internalType": "uint256",
          "name": "deadline",
          "type": "uint256"
        }
      ],
      "name": "swapTokensForExactTokens",
      "outputs": [
        {
          "internalType": "uint256[]",
          "name": "amounts",
          "type": "uint256[]"
        }
      ],
      "stateMutability": "nonpayable",
      "type": "function"
    },
    {
      "inputs": [
        {
          "internalType": "address",
          "name": "newOwner",
          "type": "address"
        }
      ],
      "name": "transferOwnership",
      "outputs": [],
      "stateMutability": "nonpayable",
      "type": "function"
    },
    {
      "stateMutability": "payable",
      "type": "receive"
    }
  ],
  "bytecode": "0x6101a0346200036b576001600160401b0390601f6200475a38819003918201601f1916830192919084841183851017620003705781606092849260409687528339810103126200036b576200005481620003a2565b6020620000708462000068838601620003a2565b9401620003a2565b938051916200007f8362000386565b6011835280830190705368616853776170526f7574657256533360781b8252825196620000ac8862000386565b6005885281880191640312e302e360dc1b8352331562000353578899600080549460018060a01b0319963388881617835560018060a01b0396873391167f8be0079c531659141344cd1fd0a4f28419497f9722a3daafe3b4186f6b6457e08580a3600180556200012d620001208b620003b7565b9d6101209e8f5262000594565b996101409a8b525190209c8d60e0525190209b8c916101009d8e524660a052885192858401927f8b73c3c69bb8fe3d512ecc4cf759cc79239f7b179b0ffacaa9a75d522b39400f84528a85015260608401524660808401523060a084015260a0835260c0830193838510908511176200033f5750828852815190206080523060c05284891615620002fe57505082881615620002bb575061016095865261018096875216906004541617600455519361401095866200074a8739608051866135dd015260a051866136a8015260c051866135a7015260e0518661362c0152518561365201525184611c2501525183611c520152518281816101f9015281816105580152818161080e01528181610ebc01528181610f4301528181611138015281816116b80152818161183c0152818161210c01528181612311015281816126f7015281816136e101528181613a3401528181613cb20152613e0a0152518181816023015281816101c60152818161110c0152818161152101528181611d4b0152818161208101526126cb0152f35b60649085519062461bcd60e51b82526004820152601460248201527f526f757465723a20494e56414c49445f574554480000000000000000000000006044820152fd5b6101047f526f757465723a20494e56414c49445f464143544f52590000000000000000009160649462461bcd60e51b855260c4820152601760e48201520152fd5b634e487b7160e01b81526041600452602490fd5b8451631e4fbdf760e01b815260006004820152602490fd5b600080fd5b634e487b7160e01b600052604160045260246000fd5b604081019081106001600160401b038211176200037057604052565b51906001600160a01b03821682036200036b57565b805160209081811015620004545750601f825111620003f35780825192015190808310620003e457501790565b82600019910360031b1b161790565b90604051809263305a27a960e01b82528060048301528251908160248401526000935b8285106200043a575050604492506000838284010152601f80199101168101030190fd5b848101820151868601604401529381019385935062000416565b906001600160401b0382116200037057600254926001938481811c9116801562000589575b838210146200057357601f811162000539575b5081601f8411600114620004cd5750928293918392600094620004c1575b50501b916000199060031b1c19161760025560ff90565b015192503880620004aa565b919083601f198116600260005284600020946000905b888383106200051e575050501062000504575b505050811b0160025560ff90565b015160001960f88460031b161c19169055388080620004f6565b858701518855909601959485019487935090810190620004e3565b600260005284601f84600020920160051c820191601f860160051c015b828110620005665750506200048c565b6000815501859062000556565b634e487b7160e01b600052602260045260246000fd5b90607f169062000479565b8051602091908281101562000624575090601f825111620005c35780825192015190808310620003e457501790565b90604051809263305a27a960e01b82528060048301528251908160248401526000935b8285106200060a575050604492506000838284010152601f80199101168101030190fd5b8481018201518686016044015293810193859350620005e6565b6001600160401b03811162000370576003928354926001938481811c911680156200073e575b838210146200057357601f811162000705575b5081601f84116001146200069c575092829391839260009462000690575b50501b9160001990841b1c191617905560ff90565b0151925038806200067b565b919083601f1981168760005284600020946000905b88838310620006ea5750505010620006d1575b505050811b01905560ff90565b015160001983861b60f8161c19169055388080620006c4565b858701518855909601959485019487935090810190620006b1565b8560005284601f84600020920160051c820191601f860160051c015b828110620007315750506200065d565b6000815501859062000721565b90607f16906200064a56fe604060808152600480361015610053575b5050361561001d57600080fd5b610051337f00000000000000000000000000000000000000000000000000000000000000006001600160a01b031614612edd565b005b600091823560e01c806302751cec146126a0578063054d50d414612684578063186e2d77146126525780631f00ca74146126355780631f7547b61461245a57806330adf81f1461241f57806338ed17391461225b5780634a25d94a14612027578063715018a614611fcd5780637adbf97314611f4d5780637dc0d1d014611f255780637ff36ab514611ccf57806384b0196e14611c0757806385e0608e146117e357806385f8c259146117c75780638803dbee146116125780638da5cb5b146115ea5780639639011e14611550578063ad5c46481461150c578063ad615dec146114e9578063af2979eb146110e1578063baa2abde14610eeb578063c45a015514610ea7578063c67d4915146109c4578063d06ca61f14610994578063e3c5f81d14610712578063e8e33700146104e8578063f2fde38b1461045d5763f305d7191461019f5750610010565b6102676101ef916101c46101b2366129b0565b98939498959095929192421115612efa565b7f0000000000000000000000000000000000000000000000000000000000000000933490858a613c85565b96909561021d83827f0000000000000000000000000000000000000000000000000000000000000000612f50565b85516323b872dd60e01b8152338482019081526001600160a01b03808416602083810191909152604083018c9052999397948116969094938d9391928b9183918291606090910190565b0381868b5af1801561041e5790859291610440575b501695863b1561043c578751630d0e30db60e41b8152828187818f8c5af1801561041e57908391610428575b5050875163a9059cbb60e01b81526001600160a01b038216868201908152602081018d90528a90829081906040010381868c5af190811561041e57948094926102fd85938d98602497916103f1575b50612edd565b8a5197889687956335313c2160e11b87521690850152165af19485156103e75788956103ac575b505085610390959697503411610394575b8251868152602081018890526040810185905233907f43c967b388d3a4ccad3f7ab80167852e322e5a3fde9893f530252281b2ae8b709080606081015b0390a451938493846040919493926060820195825260208201520152565b0390f35b6103a76103a188346130d9565b3361313b565b610335565b9080929550813d83116103e0575b6103c48183612a84565b810103126103dc575194955085949261039038610324565b8680fd5b503d6103ba565b84513d8a823e3d90fd5b6104119150893d8b11610417575b6104098183612a84565b810190612f38565b386102f7565b503d6103ff565b89513d85823e3d90fd5b61043190612a0a565b61043c5781386102a8565b5080fd5b610456908b3d8d11610417576104098183612a84565b503861027c565b5090346104e45760203660031901126104e45761047861296b565b90610481612c82565b6001600160a01b039182169283156104ce57505082546001600160a01b0319811683178455167f8be0079c531659141344cd1fd0a4f28419497f9722a3daafe3b4186f6b6457e08380a380f35b51631e4fbdf760e01b8152908101849052602490fd5b8280fd5b5090346104e4576101003660031901126104e45761050461296b565b61050c612986565b60c4356001600160a01b038181169592918690036103dc576105bd936105364260e4351015612efa565b61054c60a4356084356064356044358786613c85565b979096898461057c87867f0000000000000000000000000000000000000000000000000000000000000000612f50565b9416948751966323b872dd60e01b978881528b818060209d8e938b338b850160409194939294606082019560018060a01b0380921683521660208201520152565b0381878c5af18015610708578361060b938f92938e946106eb575b508c519b8c5233888d019081526001600160a01b038b166020820152604081019390935216999283918291606090910190565b0381868c5af1801561041e5791602493918b9695936106ce575b50895196879586946335313c2160e11b8652850152165af19485156103e7578895610697575b50506103909495965082517f43c967b388d3a4ccad3f7ab80167852e322e5a3fde9893f530252281b2ae8b70339180610372888c8c846040919493926060820195825260208201520152565b9080929550813d83116106c7575b6106af8183612a84565b810103126103dc57519495508594926103903861064b565b503d6106a5565b6106e490873d8911610417576104098183612a84565b5038610625565b61070190853d8711610417576104098183612a84565b50386105d8565b8a513d86823e3d90fd5b5082903461043c5761072336612c51565b906107344260808401351015612efa565b80820192610759600261075161074a878761341b565b3691612abc565b511015613267565b6107616133ac565b823561077961077361074a878761341b565b826136ce565b80519095600019918281019081116109815761079590886132cd565b51956107a86020978883013511156132e1565b6107b2828261341b565b1561096e576001600160a01b03906107c990613338565b166107d4838361341b565b1561095b576107e290613338565b6107ec848461341b565b600110156109485761086d928c896108328d9561080b878d9701613338565b907f0000000000000000000000000000000000000000000000000000000000000000612f50565b8c516323b872dd60e01b8152339381019384526001600160a01b03909116602084015260408301949094529294859384929091839160600190565b03925af1801561093e57906108b5939291610921575b506108b06108aa610894848461341b565b91906108a260608601613338565b923691612abc565b8b613e08565b61341b565b919093875191820191821161090e575091600080516020613fbb833981519152916108f86108e86103909796958a6132cd565b515a90875194859433988661334c565b0390a26001805551928284938452830190612b5f565b634e487b7160e01b815260118952602490fd5b61093790893d8b11610417576104098183612a84565b508a610883565b87513d88823e3d90fd5b634e487b7160e01b885260328c52602488fd5b634e487b7160e01b875260328b52602487fd5b634e487b7160e01b865260328a52602486fd5b634e487b7160e01b855260118952602485fd5b83823461043c57610390906109b16109ab36612b30565b906136ce565b9051918291602083526020830190612b5f565b50346104e4576109d336612c51565b602092838201356109e642821015612efa565b610a04600261075161074a6109fb878061345f565b8881019061341b565b610a0c6133ac565b610a16838061345f565b35610a2d610a24858061345f565b8681019061341b565b15610e94576001600160a01b039187918390610a4890613338565b1690875192838093623f675f60e91b8252338983015260249586915afa8015610e8a578a90610e58575b604292508851908a8201927f6e71edae12b1b97f4d1f60370fef10105fa2faae0126114a169c64845d6126c98452338b840152306060840152608083015260a08201528560c082015260c08152610ac881612a4e565b519020610ad36135a4565b9088519161190160f01b8352600283015260228201522086860190610af782613481565b610b1a610b1160608a0135938460808c013594859261348f565b9092919261351f565b8533911603610e1657610b39610b30898061345f565b8a81019061341b565b15610e04579085610b4c8d959493613338565b1690610b62610b5b8b8061345f565b3594613481565b92823b15610e005785879360e4938c938f84988e60ff92519b8c9a8b9963d505accf60e01b8b5233908b015230908a01526044890152606488015216608486015260a485015260c48401525af18015610da757610de8575b5050610bda610bc9868061345f565b356109ab61074a610b30898061345f565b9788519260001993848101908111610dd657610bf9610c0e918c6132cd565b518a610c058a8061345f565b013511156132e1565b610c24610c1b888061345f565b8981019061341b565b15610dc457610c3290613338565b16610c40610c1b888061345f565b15610dc457610c4e90613338565b610c5b610b30898061345f565b60011015610db15791610c778b9261080b84610cbd9601613338565b90610c828a8061345f565b8b516323b872dd60e01b815233818c019081526001600160a01b03909416602085015290356040840152938492839187918391606090910190565b03925af18015610da75790610d259594939291610d8a575b50610d0f610d09610cf2610ce98a8061345f565b8b81019061341b565b91906108a26060610d038d8061345f565b01613338565b8c613e08565b610d1c610c1b888061345f565b9590978061345f565b35958a51938401938411610d7a57505050916108f861039096959492610d6c7f6dfd949eea2cda0f020fc0ef00d3a43baac044b521bf50dcd888f155b92a4ebd958b6132cd565b51875194859433988661334c565b634e487b7160e01b825260119052fd5b610da0908a3d8c11610417576104098183612a84565b5038610cd5565b88513d84823e3d90fd5b5050634e487b7160e01b82525060328552fd5b5050634e487b7160e01b815260328552fd5b5050634e487b7160e01b815260118552fd5b610df190612a0a565b610dfc578738610bba565b8780fd5b8580fd5b634e487b7160e01b8c5260328852848cfd5b885162461bcd60e51b81528088018b90526019818601527f526f757465723a20494e56414c49445f5349474e4154555245000000000000006044820152606490fd5b508882813d8311610e83575b610e6e8183612a84565b81010312610e7f5760429151610a72565b8980fd5b503d610e64565b88513d8c823e3d90fd5b634e487b7160e01b885260328452602488fd5b83823461043c578160031936011261043c57517f00000000000000000000000000000000000000000000000000000000000000006001600160a01b03168152602090f35b5091903461043c5760e036600319011261043c57610f0761296b565b91610f10612986565b6001600160a01b03929091906044359060a435858116908190036110dd57610f3c4260c4351015612efa565b610f6785887f0000000000000000000000000000000000000000000000000000000000000000612f50565b88516323b872dd60e01b8152338185019081526001600160a01b0383166020828101919091526040820187905292891694929082908190606001038189885af180156110d357916024918b94936110b5575b50868451958694859363226bf2d160e21b85528401525af19586156110ab5783918497611073575b508086610fef878294613014565b509116945016830361105d57600080516020613f9b8339815191529095945b61101c6064358810156131b3565b61102a60843587101561320d565b87519416938061104e3394888a846040919493926060820195825260208201520152565b0390a482519182526020820152f35b93600080516020613f9b8339815191529061100e565b88809298508193503d83116110a4575b61108d8183612a84565b810103126104e45784602082519201519690610fe1565b503d611083565b87513d85823e3d90fd5b6110cc9060203d8111610417576104098183612a84565b5038610fb9565b8a513d88823e3d90fd5b8380fd5b5091346114e6576110f1366129b0565b9794969291979390934211159161110783612efa565b6111317f000000000000000000000000000000000000000000000000000000000000000093612efa565b61115c83897f0000000000000000000000000000000000000000000000000000000000000000612f50565b86516323b872dd60e01b8152338682019081526001600160a01b039283166020808301829052604083018790529b909690939290918c908290819003606001818e8b5af180156114bf57908b9392916114c9575b50898051809863226bf2d160e21b8252308b8301528160249687925af19687156114bf578b908c9861148a575b509c8b9c9d836111f1849d9e9c9d88613014565b508782169c50168b0361147b57906112116112199299975b8a10156131b3565b86101561320d565b169788888b5197600080516020613f9b83398151915289819a6112508b8b3396846040919493926060820195825260208201520152565b0390a489516370a0823160e01b808252308983015293908d8185818d5afa90811561147157918d918f938e908492611437575b505163a9059cbb60e01b9481019485526001600160a01b03861687820190815260208101929092529293849390918491906112cc9082906040015b03601f198101835282612a84565b51925af16112d86130fc565b81611407575b50156113c557883b156113b7578951632e1a7d4d60e01b81528088018590528b818481838e5af180156113bb57918c86928f969594611397575b5050906113249161313b565b89519687928352309083015281885afa93841561138d57889461135e575b508651938452602084015260408301523391606090a451908152f35b9093508881813d8311611386575b6113768183612a84565b81010312610dfc57519238611342565b503d61136c565b87513d8a823e3d90fd5b9092506113a79193949550612a0a565b6113b75790838c93928c38611318565b8a80fd5b8b513d8e823e3d90fd5b895162461bcd60e51b81528088018d9052601f818401527f5472616e7366657248656c7065723a205452414e534645525f4641494c4544006044820152606490fd5b8051801592508e90831561141f575b505050386112de565b61142f9350820181019101612f38565b388d81611416565b935050509181813d831161146a575b6114508183612a84565b8101031261146657518d918d918d6112be611283565b8c80fd5b503d611446565b8c513d8f823e3d90fd5b95611219919061121190611209565b8098508b8092503d83116114b8575b6114a38183612a84565b810103126113b7578651968c0151968b6111dd565b503d611499565b8a513d8d823e3d90fd5b6114df908d803d10610417576104098183612a84565b50386111b0565b80fd5b83823461043c576020906115056114ff366129f0565b91613be8565b9051908152f35b83823461043c578160031936011261043c57517f00000000000000000000000000000000000000000000000000000000000000006001600160a01b03168152602090f35b50346104e457806003193601126104e45760206115b19261156f61296b565b611577612c82565b8554845163a9059cbb60e01b81526001600160a01b0391821693810193845260243560208501529586938492899290918491604090910190565b0393165af19081156115e157506115c6575080f35b6115dd9060203d8111610417576104098183612a84565b5080f35b513d84823e3d90fd5b83823461043c578160031936011261043c57905490516001600160a01b039091168152602090f35b5082903461043c5761163661162636612bc3565b9891939895909295421115612efa565b6116466002610751368689612abc565b61164e6133ac565b61167761166561165f368689612abc565b86613a24565b9861166f8a6132aa565b5111156133cf565b82156117b4576001600160a01b0361168e86613338565b169661169986613338565b84600110156117a15760209889916116b2898401613338565b6116dc917f0000000000000000000000000000000000000000000000000000000000000000612f50565b906116e68c6132aa565b518a516323b872dd60e01b8152339681019687526001600160a01b0390931660208701526040860152909384919082908590829060600103925af1908115611796575061039096959492600080516020613fbb833981519152949261175c92611779575b50611756368488612abc565b8a613e08565b6108f8611768896132aa565b51925a90875194859433988661334c565b61178f908a3d8c11610417576104098183612a84565b508a61174a565b8751903d90823e3d90fd5b506032602492634e487b7160e01b835252fd5b634e487b7160e01b875260329052602486fd5b83823461043c576020906115056117dd366129f0565b91613b19565b5091346114e6576117f336612c51565b90608061180542828501351015612efa565b61180d6133ac565b611817838061341b565b905015611bce57600a61182a848061341b565b905011611b8b578490829492918580947f00000000000000000000000000000000000000000000000000000000000000006060808901975b61186c8a8061341b565b9050811015611a8c5761187f8a8061341b565b821015611a7957611896908260051b81019061345f565b9760a09889813603126103dc578751998a016001600160401b03908b811082821117611a6657895281358b5260209081830135828d015289830135908111611a625760028a8d8d806118ee6119119636908a01612b12565b938301978489526119008c820161299c565b8c8501520135910152511015613267565b61192a6119218c518451906136ce565b938c5190613474565b9d83516000198101908111611a4f579061194761194e92866132cd565b5190613474565b8251909b6001600160a01b03918290611966906132aa565b5116918061197486516132aa565b5116908551805160011015611a3c57928c8c8f948d61199e916119da9996888c9a01511691612f50565b925194516323b872dd60e01b8152339181019182526001600160a01b039093166020820152604081019490945290948593849291839160600190565b03925af18015611a325791611a079391611a0c969593611a14575b505051611a018d613338565b91613e08565b613450565b999699611862565b81611a2a92903d10610417576104098183612a84565b508f806119f5565b8a513d8b823e3d90fd5b634e487b7160e01b8d5260328c5260248dfd5b634e487b7160e01b8a526011895260248afd5b8880fd5b634e487b7160e01b895260418852602489fd5b634e487b7160e01b865260328552602486fd5b868b878a858e8960208201358403611b4857848201358610611afb5750947f5450480b3a4f391b90dd657cd6ae5ba60b99566e1291a095cff2038a7fa7ca2091611ad88760209861341b565b9190505a9186519586528789870152868601528401523392a26001805551908152f35b608490602086519162461bcd60e51b8352820152602160248201527f526f757465723a20494e53554646494349454e545f544f54414c5f4f555450556044820152601560fa1b6064820152fd5b606490602086519162461bcd60e51b8352820152601f60248201527f526f757465723a20494e56414c49445f544f54414c5f414d4f554e545f494e006044820152fd5b845162461bcd60e51b8152602081860152601760248201527f526f757465723a2042415443485f544f4f5f4c415247450000000000000000006044820152606490fd5b845162461bcd60e51b815260208186015260136024820152720a4deeae8cae474408a9aa0a8b2be8482a8869606b1b6044820152606490fd5b83823461043c578160031936011261043c57610390611ca392611c497f0000000000000000000000000000000000000000000000000000000000000000612ce0565b92611cb0611c767f0000000000000000000000000000000000000000000000000000000000000000612e07565b91805192611c8384612a33565b8484528151978897600f60f81b895260e060208a015260e0890190612c11565b9187830390880152612c11565b9146606086015230608086015260a085015283820360c0850152612b5f565b5060803660031901126104e4576024356001600160401b0381116110dd57611cfa9036908401612b93565b60443592916001600160a01b0380851685036103dc57611d1e426064351015612efa565b611d2e6002610751368686612abc565b611d366133ac565b8215611f1257611d4582613338565b94611d787f0000000000000000000000000000000000000000000000000000000000000000968388169384911614613267565b611d8c611d86368686612abc565b346136ce565b9586519260001993848101908111611eff57611db690611dae8b35918b6132cd565b5110156132e1565b803b15610e7f578651630d0e30db60e41b81528a818b8134865af18015611ef557611ee2575b508560011015611ecf5788999291611e039899611e379260209a8b9361080b858b01613338565b8a5163a9059cbb60e01b81526001600160a01b03909116928101928352346020840152938492839188918391604090910190565b03925af180156110ab5790611e5e9291611eb2575b50611e58368787612abc565b89613e08565b8651918201918211611e9f5750610390939291611e8a600080516020613fbb83398151915292886132cd565b51906108f85a8651938493339734918661334c565b634e487b7160e01b815260118852602490fd5b611ec890893d8b11610417576104098183612a84565b5038611e4c565b634e487b7160e01b8a526032895260248afd5b611eee909a919a612a0a565b9838611ddc565b88513d8d823e3d90fd5b634e487b7160e01b8b5260118a5260248bfd5b634e487b7160e01b875260328652602487fd5b5090346104e457826003193601126104e4575490516001600160a01b03909116815260209150f35b50346104e45760203660031901126104e457611f6761296b565b611f6f612c82565b6001600160a01b0316908115611f92575081546001600160a01b03191617905580f35b5162461bcd60e51b81526020818401526016602482015275526f757465723a20494e56414c49445f4f5241434c4560501b6044820152606490fd5b83346114e657806003193601126114e657611fe6612c82565b80546001600160a01b03198116825581906001600160a01b03167f8be0079c531659141344cd1fd0a4f28419497f9722a3daafe3b4186f6b6457e08280a380f35b50346104e45761203961162636612bc3565b6120496002610751368689612abc565b6120516133ac565b6000198301838111612248578381101561223557906120776120ae9260051b8701613338565b6001600160a01b037f0000000000000000000000000000000000000000000000000000000000000000811693909182168414613267565b6120cf6120c56120bf36888b612abc565b88613a24565b9a61166f8c6132aa565b8415612222576120de87613338565b16976120e987613338565b856001101561220f5782908b60209b8c92838c0161210690613338565b612130917f0000000000000000000000000000000000000000000000000000000000000000612f50565b9161213a906132aa565b518c516323b872dd60e01b8152338782019081526001600160a01b0390941660208501526040840191909152938492839190829060600103925af1801561041e576121f2575b5061219030610d0936888b612abc565b823b1561043c578560248392838b519687948593632e1a7d4d60e01b85528401525af190811561179657508461039097969593600080516020613fbb833981519152959361175c936121e3575b5061313b565b6121ec90612a0a565b386121dd565b612208908a3d8c11610417576104098183612a84565b5038612180565b634e487b7160e01b835260328252602483fd5b634e487b7160e01b825260328952602482fd5b634e487b7160e01b825260328852602482fd5b634e487b7160e01b825260118852602482fd5b5082903461043c576122809061227036612bc3565b9690969493919294421115612efa565b6122906002610751368588612abc565b6122986133ac565b6122ac6122a6368487612abc565b846136ce565b968751916000199283810190811161240c5790611dae6122cc928b6132cd565b82156123f9576001600160a01b036122e386613338565b16966122ee86613338565b84600110156123e6578a908660209a8b92838b0161230b90613338565b612335917f0000000000000000000000000000000000000000000000000000000000000000612f50565b8b516323b872dd60e01b8152339581019586526001600160a01b0390911660208601526040850192909252909283919082908790829060600103925af180156123dc579061238f92916123bf575b50611756368689612abc565b875191820191821161090e575091600080516020613fbb833981519152916108f86108e86103909796958a6132cd565b6123d5908a3d8c11610417576104098183612a84565b508b612383565b88513d85823e3d90fd5b634e487b7160e01b835260328b52602483fd5b634e487b7160e01b815260328952602490fd5b634e487b7160e01b835260118b52602483fd5b83823461043c578160031936011261043c57602090517f6e71edae12b1b97f4d1f60370fef10105fa2faae0126114a169c64845d6126c98152f35b5082346114e65761246a36612b30565b939092805193606085018581106001600160401b038211176126225782526060855260209485810191858352838201948686526124ab60028a511015613267565b8883526124b889836136ce565b89516000199182820191821161260f57906124d2916132cd565b51855281546001600160a01b039a908b169182612545575b505050505094938251958587526080870190519560608189015286518092528060a089019701925b82811061252f575050505084955051908401525160608301520390f35b83518a1688529681019692810192600101612512565b8b61254f836132aa565b51169180519182019182116125fc5761256d8c959493928e926132cd565b5189516333d0bfab60e21b81526001600160a01b0393841695810195865291169091166020840152604083019490945283918290819060600103915afa8691816125cd575b506125c657508484525b87808080806124ea565b84526125bc565b9091508781813d83116125f5575b6125e58183612a84565b810103126103dc575190896125b2565b503d6125db565b634e487b7160e01b8b526011855260248bfd5b634e487b7160e01b8a526011845260248afd5b634e487b7160e01b855260418452602485fd5b83823461043c57610390906109b161264c36612b30565b90613a24565b83346114e657806003193601126114e65761266b612c82565b80546126819047906001600160a01b031661313b565b80f35b83823461043c5760209061150561269a366129f0565b9161396b565b5091903461043c576126b1366129b0565b9584959396949294421115976126c689612efa565b6126f07f000000000000000000000000000000000000000000000000000000000000000099612efa565b61271b89867f0000000000000000000000000000000000000000000000000000000000000000612f50565b8a516323b872dd60e01b8152338482019081526001600160a01b039283166020828101829052604083019b909b5292979291908a9082908190606001038187865af1801561296157918d918593612944575b50602482518094819363226bf2d160e21b8352308a8401525af190811561293a57918c918885948e8a9998979187946128f1575b506127ad839186613014565b5094169a8b941684036128de579d8e929d8e9c6127d06127d8925b8610156131b3565b8d101561320d565b16998a93518061280c600080516020613f9b8339815191529a8b943396846040919493926060820195825260208201520152565b0390a48a5163a9059cbb60e01b81526001600160a01b038416838201908152602081018c90528990829081906040010381858b5af180156128d4576128b7575b50863b156114e6578a51632e1a7d4d60e01b81529182018990528082602481838b5af19081156128ac5750918891612888936121e3575061313b565b87518781526020810187905260408101929092523391606090a48351928352820152f35b8b51903d90823e3d90fd5b6128cd90893d8b11610417576104098183612a84565b503861284c565b8c513d84823e3d90fd5b919d8e929d8e9c6127d06127d8926127c8565b959496979899505050505081813d8311612933575b6129108183612a84565b810103126104e45780519089015186959493928d9290919089908e6127ad6127a1565b503d612906565b8c513d85823e3d90fd5b61295a908c8d3d10610417576104098183612a84565b503861276d565b8d513d86823e3d90fd5b600435906001600160a01b038216820361298157565b600080fd5b602435906001600160a01b038216820361298157565b35906001600160a01b038216820361298157565b60c0906003190112612981576001600160a01b03600435818116810361298157916024359160443591606435916084359081168103612981579060a43590565b606090600319011261298157600435906024359060443590565b6001600160401b038111612a1d57604052565b634e487b7160e01b600052604160045260246000fd5b602081019081106001600160401b03821117612a1d57604052565b60e081019081106001600160401b03821117612a1d57604052565b604081019081106001600160401b03821117612a1d57604052565b90601f801991011681019081106001600160401b03821117612a1d57604052565b6001600160401b038111612a1d5760051b60200190565b9291612ac782612aa5565b91612ad56040519384612a84565b829481845260208094019160051b810192831161298157905b828210612afb5750505050565b838091612b078461299c565b815201910190612aee565b9080601f8301121561298157816020612b2d93359101612abc565b90565b9060406003198301126129815760043591602435906001600160401b03821161298157612b2d91600401612b12565b90815180825260208080930193019160005b828110612b7f575050505090565b835185529381019392810192600101612b71565b9181601f84011215612981578235916001600160401b038311612981576020808501948460051b01011161298157565b60a0600319820112612981576004359160243591604435906001600160401b03821161298157612bf591600401612b93565b90916064356001600160a01b0381168103612981579060843590565b919082519283825260005b848110612c3d575050826000602080949584010152601f8019910116010190565b602081830181015184830182015201612c1c565b6003199060208183011261298157600435916001600160401b038311612981578260a0920301126129815760040190565b6000546001600160a01b03163303612c9657565b60405163118cdaa760e01b8152336004820152602490fd5b90612cb882612aa5565b612cc56040519182612a84565b8281528092612cd6601f1991612aa5565b0190602036910137565b60ff8114612d1e5760ff811690601f8211612d0c5760405191612d0283612a69565b8252602082015290565b604051632cd44ac360e21b8152600490fd5b50604051600060025490600182811c90808416938415612dfd575b6020948584108114612de95783875286949392918115612dc95750600114612d6a575b5050612b2d92500382612a84565b9093915060026000527f405787fa12a823e0f2b7631cc41b3ba8828b3321ca811111fa75cd3aa3bb5ace936000915b818310612db1575050612b2d93508201013880612d5c565b85548784018501529485019486945091830191612d99565b915050612b2d94925060ff191682840152151560051b8201013880612d5c565b634e487b7160e01b85526022600452602485fd5b91607f1691612d39565b60ff8114612e295760ff811690601f8211612d0c5760405191612d0283612a69565b50604051600060035490600182811c90808416938415612ed3575b6020948584108114612de95783875286949392918115612dc95750600114612e74575050612b2d92500382612a84565b9093915060036000527fc2575a0e9e593c00f959f8c92f12db2869c3395a3b0502d05e2516446f71f85b936000915b818310612ebb575050612b2d93508201013880612d5c565b85548784018501529485019486945091830191612ea3565b91607f1691612e44565b15612ee457565b634e487b7160e01b600052600160045260246000fd5b15612f0157565b60405162461bcd60e51b815260206004820152600f60248201526e149bdd5d195c8e8811561412549151608a1b6044820152606490fd5b90816020910312612981575180151581036129815790565b91612f5a91613014565b6040929192519260208401906bffffffffffffffffffffffff199283809260601b16835260601b1660348501526028845260608401936001600160401b039281861084871117612a1d5760e092866040528251902090608083019560ff60f81b875260601b16608183015260958201527f96e8ac4277198ff8b6f785478aa9a39f403cb768dd02cbee326c3e7da348845f60b582015260558552019083821090821117612a1d57604052905190206001600160a01b031690565b90916001600160a01b039182841683821680821461308857101561308357925b9183161561303e57565b60405162461bcd60e51b815260206004820152601d60248201527f53686168537761704c6962726172793a205a45524f5f414444524553530000006044820152606490fd5b613034565b60405162461bcd60e51b8152602060048201526024808201527f53686168537761704c6962726172793a204944454e544943414c5f41444452456044820152635353455360e01b6064820152608490fd5b919082039182116130e657565b634e487b7160e01b600052601160045260246000fd5b3d15613136573d906001600160401b038211612a1d576040519161312a601f8201601f191660200184612a84565b82523d6000602084013e565b606090565b600080809381938260405161314f81612a33565b525af161315a6130fc565b501561316257565b60405162461bcd60e51b815260206004820152602360248201527f5472616e7366657248656c7065723a204554485f5452414e534645525f46414960448201526213115160ea1b6064820152608490fd5b156131ba57565b60405162461bcd60e51b815260206004820152602560248201527f5368616853776170526f757465723a20494e53554646494349454e545f415f416044820152641353d5539560da1b6064820152608490fd5b1561321457565b60405162461bcd60e51b815260206004820152602560248201527f5368616853776170526f757465723a20494e53554646494349454e545f425f416044820152641353d5539560da1b6064820152608490fd5b1561326e57565b60405162461bcd60e51b81526020600482015260146024820152730a4deeae8cae47440929cac82989288bea082a8960631b6044820152606490fd5b8051156132b75760200190565b634e487b7160e01b600052603260045260246000fd5b80518210156132b75760209160051b010190565b156132e857565b60405162461bcd60e51b815260206004820152602260248201527f526f757465723a20494e53554646494349454e545f4f55545055545f414d4f55604482015261139560f21b6064820152608490fd5b356001600160a01b03811681036129815790565b92959493918060808501608086525260a08401919060005b818110613381575050506020830195909552604082015260600152565b91929091906001906001600160a01b0361339a8661299c565b16815260209081019401929101613364565b6002600154146133bd576002600155565b604051633ee5aeb560e01b8152600490fd5b156133d657565b60405162461bcd60e51b815260206004820152601e60248201527f526f757465723a204558434553534956455f494e5055545f414d4f554e5400006044820152606490fd5b903590601e198136030182121561298157018035906001600160401b03821161298157602001918160051b3603831361298157565b60001981146130e65760010190565b903590609e1981360301821215612981570190565b919082018092116130e657565b3560ff811681036129815790565b91907f7fffffffffffffffffffffffffffffff5d576e7357a4501ddfe92f46681b20a0841161351357926020929160ff608095604051948552168484015260408301526060820152600092839182805260015afa156135075780516001600160a01b038116156134fe57918190565b50809160019190565b604051903d90823e3d90fd5b50505060009160039190565b600481101561358e5780613531575050565b6001810361354b5760405163f645eedf60e01b8152600490fd5b6002810361356c5760405163fce698f760e01b815260048101839052602490fd5b6003146135765750565b602490604051906335e2f38360e21b82526004820152fd5b634e487b7160e01b600052602160045260246000fd5b307f00000000000000000000000000000000000000000000000000000000000000006001600160a01b031614806136a5575b156135ff577f000000000000000000000000000000000000000000000000000000000000000090565b60405160208101907f8b73c3c69bb8fe3d512ecc4cf759cc79239f7b179b0ffacaa9a75d522b39400f82527f000000000000000000000000000000000000000000000000000000000000000060408201527f000000000000000000000000000000000000000000000000000000000000000060608201524660808201523060a082015260a0815260c081018181106001600160401b03821117612a1d5760405251902090565b507f000000000000000000000000000000000000000000000000000000000000000046146135d6565b9190916136df600284511015613267565b7f00000000000000000000000000000000000000000000000000000000000000009261370f6002825110156137aa565b6137198151612cae565b91613723836132aa565b5260005b815160001981019081116130e6578110156137a3576001600160a01b03908161375082856132cd565b51169160018201908183116130e65761379161378061379e9561379893613777868a6132cd565b5116908b61380a565b9061378b868a6132cd565b5161396b565b91866132cd565b52613450565b613727565b5090925050565b156137b157565b60405162461bcd60e51b815260206004820152601d60248201527f53686168537761704c6962726172793a20494e56414c49445f504154480000006044820152606490fd5b51906001600160701b038216820361298157565b9080606060049361383061381e8785613014565b50966001600160a01b03948593612f50565b1660405194858092630240bc6b60e21b82525afa9283156138d0576000908194613878575b5081906001600160701b03809116941694169116146000146138745791565b9091565b93506060843d82116138c8575b8161389260609383612a84565b810103126114e6576138a3846137f6565b9060406138b2602087016137f6565b95015163ffffffff8116036114e6575081613855565b3d9150613885565b6040513d6000823e3d90fd5b156138e357565b60405162461bcd60e51b815260206004820152602760248201527f53686168537761704c6962726172793a20494e53554646494349454e545f4c496044820152665155494449545960c81b6064820152608490fd5b818102929181159184041417156130e657565b8115613955570490565b634e487b7160e01b600052601260045260246000fd5b919082156139cc578015918215806139c3575b613987906138dc565b6103e5808502948504036130e65761399f9084613938565b916103e88083029283041417156130e657612b2d926139bd91613474565b9061394b565b5080151561397e565b60405162461bcd60e51b815260206004820152602a60248201527f53686168537761704c6962726172793a20494e53554646494349454e545f494e60448201526914155517d05353d5539560b21b6064820152608490fd5b613a32600283511015613267565b7f0000000000000000000000000000000000000000000000000000000000000000613a616002845110156137aa565b613a6b8351612cae565b92835192600019938481019081116130e657613a8790866132cd565b5280518381019081116130e657805b613aa1575050505090565b838101818111613b0457613af5613aee613add6001600160a01b0380613ac786896132cd565b511690613ad487896132cd565b5116908861380a565b90613ae8868b6132cd565b51613b19565b91876132cd565b528015613b0457830180613a96565b60246000634e487b7160e01b81526011600452fd5b91908215613b8f578281613b3d92151580613b86575b613b38906138dc565b613938565b916103e8928381029381850414901517156130e657613b5b916130d9565b6103e5908181029181830414901517156130e657613b789161394b565b600181018091116130e65790565b50831515613b2f565b60405162461bcd60e51b815260206004820152602b60248201527f53686168537761704c6962726172793a20494e53554646494349454e545f4f5560448201526a1514155517d05353d5539560aa1b6064820152608490fd5b8015613c1557612b2d92613c079183151580613c0c57613b38906138dc565b61394b565b50811515613b2f565b60405162461bcd60e51b8152602060048201526024808201527f53686168537761704c6962726172793a20494e53554646494349454e545f414d60448201526313d5539560e21b6064820152608490fd5b9081602091031261298157516001600160a01b03811681036129815790565b60405163e6a4390560e01b81526001600160a01b03828116600483015283811660248301529396949594937f0000000000000000000000000000000000000000000000000000000000000000808216949392909160209182816044818a5afa9081156138d057600091613deb575b501615613d74575b50613d06935061380a565b9290801580613d6c575b15613d1d57505050509091565b613d2c84828897959697613be8565b94838611613d4457505050506138749082101561320d565b839550613874945090613d5b91613d649394613be8565b94851115612edd565b8310156131b3565b508315613d10565b6040516364e329cb60e11b81526001600160a01b03848116600483015285166024820152948190869060449082906000905af19485156138d057613d0695613dbd575b50613cfb565b81613ddc92903d10613de4575b613dd48183612a84565b810190613c66565b503880613db7565b503d613dca565b613e029150833d8511613de457613dd48183612a84565b38613cf3565b7f000000000000000000000000000000000000000000000000000000000000000093929060005b835160001981019081116130e657811015613f92576001600160a01b0380613e5783876132cd565b511690600183018084116130e65781613e7082896132cd565b51169082613e89613e818487613014565b5092886132cd565b5191168403613f8a57600090915b885160011981019081116130e657861015613f7f5760028601908187116130e657613ed38c8287613ecb613edb968f6132cd565b511691612f50565b955b8c612f50565b600080604092835196826020988981019263022c0d9f60e01b8452602498898301526044998a83015260649b168b8201526080608482015260a482818301528152613f2581612a4e565b51925af1613f316130fc565b5015613f4a575050505050613f4590613450565b613e2f565b5162461bcd60e51b8152600481019390935260139083015272149bdd5d195c8e8814d5d05417d19052531151606a1b90820152fd5b613edb908895613ed5565b600091613e97565b50505050905056fed765e08eef31c0983ecca03ecd166297ac485ecd5dd69e291c848f0a020333c1faf6bd688536b0e77d3902f500c5bb95e9a9bbb8b906bdeea4879507cd263fc2a26469706673582212209608a1a29fbd66aceac82ac80ce52e6a2e4a9ea46c5a3d2670e18f03ab859e1364736f6c63430008140033",
  "linkReferences": {},
  "deployedLinkReferences": {}
}