{
  "_format": "hh-sol-artifact-1",
  "contractName": "ShahSwapLiquidityManager",
  "sourceName": "contracts/liquidity/ShahSwapLiquidityManager.sol",
  "abi": [
    {
      "inputs": [
        {
          "internalType": "address",
          "name": "_router",
          "type": "address"
        },
        {
          "internalType": "address",
          "name": "_shahToken",
          "type": "address"
        },
        {
          "internalType": "address",
          "name": "_farm",
          "type": "address"
        },
        {
          "internalType": "address",
          "name": "_owner",
          "type": "address"
        }
      ],
      "stateMutability": "nonpayable",
      "type": "constructor"
    },
    {
      "inputs": [],
      "name": "EnforcedPause",
      "type": "error"
    },
    {
      "inputs": [],
      "name": "ExpectedPause",
      "type": "error"
    },
    {
      "inputs": [
        {
          "internalType": "address",
          "name": "owner",
          "type": "address"
        }
      ],
      "name": "OwnableInvalidOwner",
      "type": "error"
    },
    {
      "inputs": [
        {
          "internalType": "address",
          "name": "account",
          "type": "address"
        }
      ],
      "name": "OwnableUnauthorizedAccount",
      "type": "error"
    },
    {
      "inputs": [],
      "name": "ReentrancyGuardReentrantCall",
      "type": "error"
    },
    {
      "inputs": [
        {
          "internalType": "address",
          "name": "token",
          "type": "address"
        }
      ],
      "name": "SafeERC20FailedOperation",
      "type": "error"
    },
    {
      "anonymous": false,
      "inputs": [
        {
          "indexed": true,
          "internalType": "address",
          "name": "user",
          "type": "address"
        },
        {
          "indexed": false,
          "internalType": "uint256",
          "name": "rewards",
          "type": "uint256"
        },
        {
          "indexed": false,
          "internalType": "uint256",
          "name": "lpAmount",
          "type": "uint256"
        }
      ],
      "name": "AutoCompoundExecuted",
      "type": "event"
    },
    {
      "anonymous": false,
      "inputs": [
        {
          "indexed": false,
          "internalType": "uint256",
          "name": "oldThreshold",
          "type": "uint256"
        },
        {
          "indexed": false,
          "internalType": "uint256",
          "name": "newThreshold",
          "type": "uint256"
        }
      ],
      "name": "AutoCompoundThresholdUpdated",
      "type": "event"
    },
    {
      "anonymous": false,
      "inputs": [
        {
          "indexed": true,
          "internalType": "address",
          "name": "user",
          "type": "address"
        },
        {
          "indexed": false,
          "internalType": "bool",
          "name": "enabled",
          "type": "bool"
        }
      ],
      "name": "AutoCompoundToggled",
      "type": "event"
    },
    {
      "anonymous": false,
      "inputs": [
        {
          "indexed": true,
          "internalType": "address",
          "name": "user",
          "type": "address"
        },
        {
          "indexed": true,
          "internalType": "address",
          "name": "token",
          "type": "address"
        },
        {
          "indexed": false,
          "internalType": "uint256",
          "name": "amount",
          "type": "uint256"
        }
      ],
      "name": "EmergencyWithdraw",
      "type": "event"
    },
    {
      "anonymous": false,
      "inputs": [
        {
          "indexed": false,
          "internalType": "address",
          "name": "oldRecipient",
          "type": "address"
        },
        {
          "indexed": false,
          "internalType": "address",
          "name": "newRecipient",
          "type": "address"
        }
      ],
      "name": "FeeRecipientUpdated",
      "type": "event"
    },
    {
      "anonymous": false,
      "inputs": [
        {
          "indexed": false,
          "internalType": "uint256",
          "name": "oldFee",
          "type": "uint256"
        },
        {
          "indexed": false,
          "internalType": "uint256",
          "name": "newFee",
          "type": "uint256"
        }
      ],
      "name": "FeeUpdated",
      "type": "event"
    },
    {
      "anonymous": false,
      "inputs": [
        {
          "indexed": true,
          "internalType": "address",
          "name": "user",
          "type": "address"
        },
        {
          "indexed": true,
          "internalType": "address",
          "name": "token",
          "type": "address"
        },
        {
          "indexed": false,
          "internalType": "uint256",
          "name": "shahAmount",
          "type": "uint256"
        },
        {
          "indexed": false,
          "internalType": "uint256",
          "name": "tokenAmount",
          "type": "uint256"
        },
        {
          "indexed": false,
          "internalType": "uint256",
          "name": "lpAmount",
          "type": "uint256"
        }
      ],
      "name": "LiquidityAdded",
      "type": "event"
    },
    {
      "anonymous": false,
      "inputs": [
        {
          "indexed": true,
          "internalType": "address",
          "name": "user",
          "type": "address"
        },
        {
          "indexed": true,
          "internalType": "address",
          "name": "token",
          "type": "address"
        },
        {
          "indexed": false,
          "internalType": "uint256",
          "name": "lpAmount",
          "type": "uint256"
        },
        {
          "indexed": false,
          "internalType": "uint256",
          "name": "shahAmount",
          "type": "uint256"
        },
        {
          "indexed": false,
          "internalType": "uint256",
          "name": "tokenAmount",
          "type": "uint256"
        }
      ],
      "name": "LiquidityRemoved",
      "type": "event"
    },
    {
      "anonymous": false,
      "inputs": [
        {
          "indexed": true,
          "internalType": "address",
          "name": "previousOwner",
          "type": "address"
        },
        {
          "indexed": true,
          "internalType": "address",
          "name": "newOwner",
          "type": "address"
        }
      ],
      "name": "OwnershipTransferred",
      "type": "event"
    },
    {
      "anonymous": false,
      "inputs": [
        {
          "indexed": false,
          "internalType": "address",
          "name": "account",
          "type": "address"
        }
      ],
      "name": "Paused",
      "type": "event"
    },
    {
      "anonymous": false,
      "inputs": [
        {
          "indexed": false,
          "internalType": "address",
          "name": "account",
          "type": "address"
        }
      ],
      "name": "Unpaused",
      "type": "event"
    },
    {
      "inputs": [],
      "name": "WETH",
      "outputs": [
        {
          "internalType": "address",
          "name": "",
          "type": "address"
        }
      ],
      "stateMutability": "view",
      "type": "function"
    },
    {
      "inputs": [
        {
          "internalType": "address",
          "name": "_token",
          "type": "address"
        },
        {
          "internalType": "uint256",
          "name": "_shahAmount",
          "type": "uint256"
        },
        {
          "internalType": "uint256",
          "name": "_tokenAmount",
          "type": "uint256"
        },
        {
          "internalType": "uint256",
          "name": "_minLp",
          "type": "uint256"
        }
      ],
      "name": "addLiquidity",
      "outputs": [],
      "stateMutability": "nonpayable",
      "type": "function"
    },
    {
      "inputs": [
        {
          "internalType": "uint256",
          "name": "_minLp",
          "type": "uint256"
        }
      ],
      "name": "addLiquidityETH",
      "outputs": [],
      "stateMutability": "payable",
      "type": "function"
    },
    {
      "inputs": [
        {
          "internalType": "address",
          "name": "",
          "type": "address"
        }
      ],
      "name": "autoCompoundEnabled",
      "outputs": [
        {
          "internalType": "bool",
          "name": "",
          "type": "bool"
        }
      ],
      "stateMutability": "view",
      "type": "function"
    },
    {
      "inputs": [],
      "name": "autoCompoundThreshold",
      "outputs": [
        {
          "internalType": "uint256",
          "name": "",
          "type": "uint256"
        }
      ],
      "stateMutability": "view",
      "type": "function"
    },
    {
      "inputs": [
        {
          "internalType": "address",
          "name": "_token",
          "type": "address"
        },
        {
          "internalType": "uint256",
          "name": "_amount",
          "type": "uint256"
        }
      ],
      "name": "emergencyWithdraw",
      "outputs": [],
      "stateMutability": "nonpayable",
      "type": "function"
    },
    {
      "inputs": [],
      "name": "emergencyWithdrawETH",
      "outputs": [],
      "stateMutability": "nonpayable",
      "type": "function"
    },
    {
      "inputs": [
        {
          "internalType": "address",
          "name": "_user",
          "type": "address"
        },
        {
          "internalType": "uint256",
          "name": "_pid",
          "type": "uint256"
        }
      ],
      "name": "executeAutoCompound",
      "outputs": [],
      "stateMutability": "nonpayable",
      "type": "function"
    },
    {
      "inputs": [],
      "name": "factory",
      "outputs": [
        {
          "internalType": "contract ShahSwapFactory",
          "name": "",
          "type": "address"
        }
      ],
      "stateMutability": "view",
      "type": "function"
    },
    {
      "inputs": [],
      "name": "farm",
      "outputs": [
        {
          "internalType": "contract ShahFarm",
          "name": "",
          "type": "address"
        }
      ],
      "stateMutability": "view",
      "type": "function"
    },
    {
      "inputs": [],
      "name": "feeRecipient",
      "outputs": [
        {
          "internalType": "address",
          "name": "",
          "type": "address"
        }
      ],
      "stateMutability": "view",
      "type": "function"
    },
    {
      "inputs": [
        {
          "internalType": "address",
          "name": "_user",
          "type": "address"
        }
      ],
      "name": "getAutoCompoundStatus",
      "outputs": [
        {
          "internalType": "bool",
          "name": "enabled",
          "type": "bool"
        },
        {
          "internalType": "uint256",
          "name": "lastCompound",
          "type": "uint256"
        }
      ],
      "stateMutability": "view",
      "type": "function"
    },
    {
      "inputs": [
        {
          "internalType": "address",
          "name": "_token",
          "type": "address"
        }
      ],
      "name": "getPairAddress",
      "outputs": [
        {
          "internalType": "address",
          "name": "",
          "type": "address"
        }
      ],
      "stateMutability": "view",
      "type": "function"
    },
    {
      "inputs": [
        {
          "internalType": "uint256",
          "name": "_pid",
          "type": "uint256"
        }
      ],
      "name": "harvestRewards",
      "outputs": [],
      "stateMutability": "nonpayable",
      "type": "function"
    },
    {
      "inputs": [
        {
          "internalType": "address",
          "name": "",
          "type": "address"
        }
      ],
      "name": "lastAutoCompound",
      "outputs": [
        {
          "internalType": "uint256",
          "name": "",
          "type": "uint256"
        }
      ],
      "stateMutability": "view",
      "type": "function"
    },
    {
      "inputs": [],
      "name": "liquidityFee",
      "outputs": [
        {
          "internalType": "uint256",
          "name": "",
          "type": "uint256"
        }
      ],
      "stateMutability": "view",
      "type": "function"
    },
    {
      "inputs": [],
      "name": "owner",
      "outputs": [
        {
          "internalType": "address",
          "name": "",
          "type": "address"
        }
      ],
      "stateMutability": "view",
      "type": "function"
    },
    {
      "inputs": [],
      "name": "pause",
      "outputs": [],
      "stateMutability": "nonpayable",
      "type": "function"
    },
    {
      "inputs": [],
      "name": "paused",
      "outputs": [
        {
          "internalType": "bool",
          "name": "",
          "type": "bool"
        }
      ],
      "stateMutability": "view",
      "type": "function"
    },
    {
      "inputs": [
        {
          "internalType": "address",
          "name": "_token",
          "type": "address"
        },
        {
          "internalType": "uint256",
          "name": "_lpAmount",
          "type": "uint256"
        },
        {
          "internalType": "uint256",
          "name": "_minShah",
          "type": "uint256"
        },
        {
          "internalType": "uint256",
          "name": "_minToken",
          "type": "uint256"
        }
      ],
      "name": "removeLiquidity",
      "outputs": [],
      "stateMutability": "nonpayable",
      "type": "function"
    },
    {
      "inputs": [
        {
          "internalType": "uint256",
          "name": "_lpAmount",
          "type": "uint256"
        },
        {
          "internalType": "uint256",
          "name": "_minShah",
          "type": "uint256"
        },
        {
          "internalType": "uint256",
          "name": "_minETH",
          "type": "uint256"
        }
      ],
      "name": "removeLiquidityETH",
      "outputs": [],
      "stateMutability": "nonpayable",
      "type": "function"
    },
    {
      "inputs": [],
      "name": "renounceOwnership",
      "outputs": [],
      "stateMutability": "nonpayable",
      "type": "function"
    },
    {
      "inputs": [],
      "name": "router",
      "outputs": [
        {
          "internalType": "contract ShahSwapRouterV2",
          "name": "",
          "type": "address"
        }
      ],
      "stateMutability": "view",
      "type": "function"
    },
    {
      "inputs": [
        {
          "internalType": "uint256",
          "name": "_threshold",
          "type": "uint256"
        }
      ],
      "name": "setAutoCompoundThreshold",
      "outputs": [],
      "stateMutability": "nonpayable",
      "type": "function"
    },
    {
      "inputs": [
        {
          "internalType": "address",
          "name": "_recipient",
          "type": "address"
        }
      ],
      "name": "setFeeRecipient",
      "outputs": [],
      "stateMutability": "nonpayable",
      "type": "function"
    },
    {
      "inputs": [
        {
          "internalType": "uint256",
          "name": "_fee",
          "type": "uint256"
        }
      ],
      "name": "setLiquidityFee",
      "outputs": [],
      "stateMutability": "nonpayable",
      "type": "function"
    },
    {
      "inputs": [],
      "name": "shahToken",
      "outputs": [
        {
          "internalType": "contract IERC20",
          "name": "",
          "type": "address"
        }
      ],
      "stateMutability": "view",
      "type": "function"
    },
    {
      "inputs": [
        {
          "internalType": "uint256",
          "name": "_pid",
          "type": "uint256"
        },
        {
          "internalType": "uint256",
          "name": "_lpAmount",
          "type": "uint256"
        }
      ],
      "name": "stakeInFarm",
      "outputs": [],
      "stateMutability": "nonpayable",
      "type": "function"
    },
    {
      "inputs": [
        {
          "internalType": "bool",
          "name": "_enabled",
          "type": "bool"
        }
      ],
      "name": "toggleAutoCompound",
      "outputs": [],
      "stateMutability": "nonpayable",
      "type": "function"
    },
    {
      "inputs": [
        {
          "internalType": "address",
          "name": "newOwner",
          "type": "address"
        }
      ],
      "name": "transferOwnership",
      "outputs": [],
      "stateMutability": "nonpayable",
      "type": "function"
    },
    {
      "inputs": [],
      "name": "unpause",
      "outputs": [],
      "stateMutability": "nonpayable",
      "type": "function"
    },
    {
      "inputs": [
        {
          "internalType": "uint256",
          "name": "_pid",
          "type": "uint256"
        },
        {
          "internalType": "uint256",
          "name": "_lpAmount",
          "type": "uint256"
        }
      ],
      "name": "unstakeFromFarm",
      "outputs": [],
      "stateMutability": "nonpayable",
      "type": "function"
    },
    {
      "stateMutability": "payable",
      "type": "receive"
    }
  ],
  "bytecode": "0x610120604081815234620003985760808262002a1d80380380916200002582856200039d565b83398101031262000398576200003b82620003d7565b9060606020926200004e848601620003d7565b946200005c848201620003d7565b6001600160a01b039390918491620000759101620003d7565b1692831562000380576000918254978260018060a01b03199587878c1617865587828a519c167f8be0079c531659141344cd1fd0a4f28419497f9722a3daafe3b4186f6b6457e08880a3600180556032600355670de0b6b3a7640000600555169889156200034d5750821690811562000314578216908115620002e15787896004969798999a60805289519687809263c45a015560e01b82525afa948515620002d7579089939291859662000289575b50826004961660a05260c05260e052608051168651938480926315ab88c960e31b82525afa9586156200027d57819662000237575b5050506101009384526004541617600455516126309182620003ed83396080518281816101a901526115cf015260a0518281816104c10152818161084f01528181610a9401528181610d16015281816112270152611d1e015260c0518281816101f00152818161046001528181610a3701528181610c4901528181610cd2015281816111bf0152818161157a01528181611c86015261209a015260e051828181610f0601528181611115015281816114bc01528181611a4f0152611aad015251818181610492015281816108d1015281816111e9015261166b0152f35b909180939650813d831162000275575b6200025381836200039d565b810103126200027257506200026890620003d7565b923880806200015a565b80fd5b503d62000247565b508451903d90823e3d90fd5b8481939592949697503d8311620002cf575b620002a781836200039d565b81010312620002cb5791839160049594620002c38b95620003d7565b965062000125565b8480fd5b503d6200029b565b88513d86823e3d90fd5b865162461bcd60e51b815260048101899052600c60248201526b496e76616c6964206661726d60a01b6044820152606490fd5b865162461bcd60e51b815260048101899052601260248201527124b73b30b634b21029a420a4103a37b5b2b760711b6044820152606490fd5b62461bcd60e51b815260048101899052600e60248201526d24b73b30b634b2103937baba32b960911b6044820152606490fd5b8451631e4fbdf760e01b815260006004820152602490fd5b600080fd5b601f909101601f19168101906001600160401b03821190821017620003c157604052565b634e487b7160e01b600052604160045260246000fd5b51906001600160a01b0382168203620003985756fe6080604081815260049182361015610022575b505050361561002057600080fd5b005b600092833560e01c9182631deb59cc146120c3575081631ece366a14611c2c578163357bf15c14611b9957816335fe79be14611a7e57816336e9332d14611a3a5781633d94adcc1461144a5781633f4ba83a146113e057816346904840146113b85781634b9ce62c146111815783826357126d0d146110ef575081635834e174146110a65781635c975abb146110825781636eb1154914610ebc578163715018a614610e62578382638453601714610df2575081638456cb5914610d9757816385e694b614610c9a5781638da5cb5b14610c7257816393ca2f8a146109e657816395ccea671461097457816398118cb414610955578163a63ec61614610900578163ad5c4648146108bc578163ae8c2c261461087e578163c45a01551461083a578163d06d04cc14610415578163e74b981b14610350578163e8d40d86146102ec578163eaaa3131146102b4578163f2fde38b1461021f57508063f6155811146101dc5763f887ea40146101965780610012565b346101d857816003193601126101d857517f00000000000000000000000000000000000000000000000000000000000000006001600160a01b03168152602090f35b5080fd5b50346101d857816003193601126101d857517f00000000000000000000000000000000000000000000000000000000000000006001600160a01b03168152602090f35b9050346102b05760203660031901126102b05761023a6120df565b90610243612139565b6001600160a01b0391821692831561029a575050600054826bffffffffffffffffffffffff60a01b821617600055167f8be0079c531659141344cd1fd0a4f28419497f9722a3daafe3b4186f6b6457e0600080a380f35b51631e4fbdf760e01b8152908101849052602490fd5b8280fd5b5050346101d85760203660031901126101d85760209181906001600160a01b036102dc6120df565b1681526007845220549051908152f35b9050346102b05760203660031901126102b05735908115158092036102b057338352600660205280832060ff1981541660ff8416179055519081527f72defbb28064584321264302489076b65ae61a5c2886d9fa7cf076a60371d5cf60203392a280f35b839150346101d85760203660031901126101d85761036c6120df565b90610375612139565b6001600160a01b03918083169182156103de5780546001600160a01b03198116939093179055935191166001600160a01b0390811682529092166020830152907faaebcf1bfa00580e41d966056b48521fa9f202645c86d4ddf28113e617c1b1d390604090a180f35b606490602087519162461bcd60e51b83528201526011602482015270125b9d985b1a59081c9958da5c1a595b9d607a1b6044820152fd5b90506020806003193601126108365761042c61237a565b61043461235c565b341561080157612710610449600354346121a1565b0490816107ab575b835163e6a4390560e01b8082527f00000000000000000000000000000000000000000000000000000000000000006001600160a01b038181168488018181527f000000000000000000000000000000000000000000000000000000000000000080841660208301529197929691957f000000000000000000000000000000000000000000000000000000000000000088169592948c9493909290918c9187908290819060400103818b5afa9788156107a15789918799610766575b508a891615610621575b5050505061053784926105316105769334903090339061229f565b3461222a565b976105428934612237565b8b5163095ea7b360e01b81526001600160a01b0388169b81019b8c523460208d0152909a9094859384928391604090910190565b03925af1801561061757966105df938199936105bf937f4a1a2a6176e9646d9e3157f7c2ab3c499f18337c0b0828cfb28e0a61de4a11f7999a6105e9575b50508633911661225c565b519283921695339534846040919493926060820195825260208201520152565b0390a36001805580f35b8161060892903d10610610575b61060081836121f4565b810190612244565b5038806105b4565b503d6105f6565b88513d8b823e3d90fd5b90919294939750868b8d61065f865195869384936364e329cb60e11b8552840190602090939293604083019460018060a01b03809216845216910152565b038189855af1801561075c57899588948d948f93610713575b50519081526001600160a01b039384169181019182529590921660208301528491829081906040015b03915afa801561070957849284916106c6575b50949091506105378a87610576610516565b83819492503d8311610702575b6106dd81836121f4565b810103126102b057610537610576916105316106f98795612216565b925050916106b4565b503d6106d3565b8a513d85823e3d90fd5b959397505092505082813d8311610755575b61072f81836121f4565b810103126107515787938b8b926106a18f61074a8b97612216565b5090610678565b8480fd5b503d610725565b83513d88823e3d90fd5b92509750508581813d831161079a575b61078081836121f4565b8101031261075157876107938d92612216565b973861050c565b503d610776565b82513d88823e3d90fd5b848080808560018060a01b038854165af16107c461239d565b50610451579050606492519162461bcd60e51b83528201526013602482015272119959481d1c985b9cd9995c8819985a5b1959606a1b6044820152fd5b606492519162461bcd60e51b83528201526012602482015271125b9d985b1a590811551208185b5bdd5b9d60721b6044820152fd5b8380fd5b5050346101d857816003193601126101d857517f00000000000000000000000000000000000000000000000000000000000000006001600160a01b03168152602090f35b5050346101d85760203660031901126101d85760209160ff9082906001600160a01b036108a96120df565b1681526006855220541690519015158152f35b5050346101d857816003193601126101d857517f00000000000000000000000000000000000000000000000000000000000000006001600160a01b03168152602090f35b919050346102b05760203660031901126102b0577f3ce4b54cdb9854244a343b27f9ee8462d9fb506733bf36c92a28cc0aee82a63c913561093f612139565b600554908060055582519182526020820152a180f35b5050346101d857816003193601126101d8576020906003549051908152f35b5050346101d857806003193601126101d85761098e6120df565b907ff24ef89f38eadc1bde50701ad6e4d6d11a2dc24f7cf834a486991f388332850460206024356109bd612139565b85546001600160a01b0395861695906109da90839083168861225c565b8654169351908152a380f35b919050346102b057610a8f6109fa366120f5565b610a099593929594919461237a565b6001600160a01b038381169790939088151580610c46575b610a2a90612165565b610a358815156123dd565b7f00000000000000000000000000000000000000000000000000000000000000009486519263e6a4390560e01b845283806020978893858b1687840190602090939293604083019460018060a01b03809216845216910152565b0381847f0000000000000000000000000000000000000000000000000000000000000000165afa928315610c3c578b93610c01575b50821692610ad384151561241d565b610adf8930338761229f565b610aef8960011c9889101561245f565b8710610bbe57855163095ea7b360e01b81526001600160a01b03909216908201908152602081018890529091839183919082908c90829060400103925af18015610bb4579480936105df9593610b6f937fbc7d19d505c7ec4db83f3b51f19fb98c4c8a99922e7839d1ee608dfbee29501b98610b96575b5050339061225c565b610b7a82338861225c565b5193845260208401819052604084015233929081906060820190565b81610bac92903d106106105761060081836121f4565b503880610b66565b84513d8a823e3d90fd5b855162461bcd60e51b8152908101849052601960248201527f496e73756666696369656e7420746f6b656e206f7574707574000000000000006044820152606490fd5b9092508481813d8311610c35575b610c1981836121f4565b81010312610c3157610c2a90612216565b9138610ac4565b8a80fd5b503d610c0f565b87513d8d823e3d90fd5b507f00000000000000000000000000000000000000000000000000000000000000008516891415610a21565b5050346101d857816003193601126101d857905490516001600160a01b039091168152602090f35b839150346101d857602092836003193601126102b057610d1184610cbc6120df565b835163e6a4390560e01b81526001600160a01b037f0000000000000000000000000000000000000000000000000000000000000000811696820196875291821660208701529094909283918291604090910190565b0381867f0000000000000000000000000000000000000000000000000000000000000000165afa938415610d8c578094610d4f575b50505191168152f35b909193508482813d8311610d85575b610d6881836121f4565b81010312610d825750610d7a90612216565b918480610d46565b80fd5b503d610d5e565b8251903d90823e3d90fd5b5050346101d857816003193601126101d85760207f62e78cea01bee320cd4e420270b5ea74000d11b0c9f74754ebdbfc544b05a25891610dd5612139565b610ddd61235c565b600160ff19600254161760025551338152a180f35b808434610e5f5781600319360112610e5f57610e0c612139565b7ff24ef89f38eadc1bde50701ad6e4d6d11a2dc24f7cf834a486991f388332850460204760018060a01b03610e538680808086868254165af1610e4d61239d565b506124ab565b8554169351908152a380f35b50fd5b8334610d825780600319360112610d8257610e7b612139565b600080546001600160a01b0319811682556001600160a01b03167f8be0079c531659141344cd1fd0a4f28419497f9722a3daafe3b4186f6b6457e08280a380f35b8383346101d857610ecc36612123565b919093610ed761237a565b610edf61235c565b610eea8315156123dd565b8151632f380b3560e01b81528181018690526001600160a01b037f00000000000000000000000000000000000000000000000000000000000000008116969160a0816024818b5afa908115611014578791611050575b501695861561101e578596610f578630338461229f565b845163095ea7b360e01b81526001600160a01b03831685820190815260208181018990529192839182908b90829060400103925af1801561101457610ff6575b50803b15610ff25785928360449286519788958694631c57762b60e31b865285015260248401525af1908115610fe95750610fd5575b506001805580f35b610fde906121ca565b610d82578082610fcd565b513d84823e3d90fd5b8580fd5b61100d9060203d81116106105761060081836121f4565b5087610f97565b85513d89823e3d90fd5b835162461bcd60e51b8152602081850152600c60248201526b125b9d985b1a59081c1bdbdb60a21b6044820152606490fd5b611071915060a03d811161107b575b61106981836121f4565b8101906124ed565b5050505088610f40565b503d61105f565b5050346101d857816003193601126101d85760209060ff6002541690519015158152f35b828434610d82576020366003190112610d82576001600160a01b036110c96120df565b16815260066020528160ff81832054169160076020522054825191151582526020820152f35b8091843461117d57602036600319011261117d5761110b61237a565b61111361235c565b7f00000000000000000000000000000000000000000000000000000000000000006001600160a01b031691823b156111785783926024849284519586938492636ee3193160e11b84528035908401525af1908115610fe95750610fd557506001805580f35b505050fd5b5050fd5b9050346102b05760603660031901126102b057803561119e61237a565b6111a98115156123dd565b825163e6a4390560e01b81526001600160a01b037f00000000000000000000000000000000000000000000000000000000000000008181168584019081527f000000000000000000000000000000000000000000000000000000000000000083811660208381019190915293949093918290829081906040010381887f0000000000000000000000000000000000000000000000000000000000000000165afa90811561061757899161137f575b508481169061126782151561241d565b6112738730338561229f565b8660011c976112866024358a101561245f565b604435891061133c57895163095ea7b360e01b81526001600160a01b03909216908201908152602081018890529091839183919082908d90829060400103925af1801561061757966105df93819993611309937fbc7d19d505c7ec4db83f3b51f19fb98c4c8a99922e7839d1ee608dfbee29501b999a610b96575050339061225c565b61131c888080808b335af1610e4d61239d565b519283921695803396846040919493926060820195825260208201520152565b895162461bcd60e51b8152908101849052601760248201527f496e73756666696369656e7420455448206f75747075740000000000000000006044820152606490fd5b90508181813d83116113b1575b61139681836121f4565b810103126113ad576113a790612216565b38611257565b8880fd5b503d61138c565b9050346102b057826003193601126102b0575490516001600160a01b03909116815260209150f35b9050346102b057826003193601126102b0576113fa612139565b6002549060ff82161561143c575060ff1916600255513381527f5db9ee0a495bf2e6ff9c91a7834c1ba4fdd244a5e8aa4e537bd38aeae4b073aa90602090a180f35b8251638dfc202b60e01b8152fd5b9050346102b057816003193601126102b0576114646120df565b91602491823561147261237a565b61147a61235c565b60018060a01b0394858116948588526020926006845260ff868a205416156119f8578689526007845285892054610e1081018091116119e65742106119b557877f000000000000000000000000000000000000000000000000000000000000000016908651634c4b4f4160e11b8152818782015288848201528581604481865afa9081156119ab578b9161197e575b506005541161194a57813b1561193c57898751636ee3193160e11b815282888201528181868183885af1801561194057611928575b505060a09083885180948193632f380b3560e01b83528a8301525afa801561191e576118fe575b5084516370a0823160e01b81523085820152937f000000000000000000000000000000000000000000000000000000000000000088169084868481855afa9586156118f4578a966118c0575b50856115c0575b896001805580f35b865163095ea7b360e01b8082527f00000000000000000000000000000000000000000000000000000000000000008b166001600160a01b038116848401908152602081018a905290949290889082908f90829081906040010391875af180156118b657611899575b5088519a60608c018c811067ffffffffffffffff821117611885578a5260028c52878c018a3682378c5115611871579183918e948e94526116688461251b565b907f0000000000000000000000000000000000000000000000000000000000000000169052838b8b6116b68251968793849363d06ca61f60e01b85528b8501528c84015260448301906125bd565b0381895afa92831561186757918a918a938695611849575b508c519081526001600160a01b03881687820190815260208101939093529394849283919082906040015b03925af1801561183f57906117149291611822575b5061251b565b519861012c420190814211611810578b80979695938195938a938c519e8f97889687956338ed173960e01b87528601528401526044830160a0905260a4830161175c916125bd565b90306064840152608483015203925af1968715611806577fd97f7727c261ed1fa078ce381613db42a28234f23a5de7f96377c89e11a0fd2096976117e4575b50824791826117ca575b50879150526007815242848320558351928352820152a23880808080808080806115b8565b81806117dc9481935af1610e4d61239d565b3882816117a5565b6117ff903d8086833e6117f781836121f4565b810190612541565b503861179b565b85513d85823e3d90fd5b634e487b7160e01b8c5260118352848cfd5b61183890883d8a116106105761060081836121f4565b503861170e565b89513d8e823e3d90fd5b6116f99550611861903d8089833e6117f781836121f4565b946116ce565b8b513d86823e3d90fd5b86603286634e487b7160e01b600052526000fd5b86604186634e487b7160e01b600052526000fd5b6118af90883d8a116106105761060081836121f4565b5038611628565b8a513d8f823e3d90fd5b9095508481813d83116118ed575b6118d881836121f4565b810103126118e8575194386115b1565b600080fd5b503d6118ce565b87513d8c823e3d90fd5b6119159060a03d811161107b5761106981836121f4565b50505050611565565b86513d8b823e3d90fd5b611931906121ca565b61193c57893861153e565b8980fd5b89513d84823e3d90fd5b865162461bcd60e51b8152808701869052600f818501526e10995b1bddc81d1a1c995cda1bdb19608a1b6044820152606490fd5b90508581813d83116119a4575b61199581836121f4565b810103126118e8575138611509565b503d61198b565b88513d8d823e3d90fd5b855162461bcd60e51b8152808601859052600c818401526b151bdbc8199c995c5d595b9d60a21b6044820152606490fd5b634e487b7160e01b8a5260118652828afd5b855162461bcd60e51b81528086018590526019818401527f4175746f2d636f6d706f756e64206e6f7420656e61626c6564000000000000006044820152606490fd5b5050346101d857816003193601126101d857517f00000000000000000000000000000000000000000000000000000000000000006001600160a01b03168152602090f35b9050346102b057611a8e36612123565b9190611a9861237a565b611aa38315156123dd565b6001600160a01b037f0000000000000000000000000000000000000000000000000000000000000000811692909190833b15611b95578551630441a3e760e41b81528282820152856024820152878160448183895af18015611b8b57611b72575b5090602460a09287519586938492632f380b3560e01b84528301525afa918215611b6857611b3d94508592611b44575b5033911661225c565b6001805580f35b611b5d91925060a03d811161107b5761106981836121f4565b505050509038611b34565b84513d87823e3d90fd5b60a0929197611b826024926121ca565b97919250611b04565b87513d8a823e3d90fd5b8680fd5b9050346102b05760203660031901126102b057803590611bb7612139565b6101f48211611bfa5750907f528d9479e9f9889a87a3c30c7f7ba537e5e59c4c85a37733b16e57c62df6130291600354908060035582519182526020820152a180f35b606490602084519162461bcd60e51b8352820152600c60248201526b08ccaca40e8dede40d0d2ced60a31b6044820152fd5b9050346102b057611c3c366120f5565b50919290611c4861237a565b611c5061235c565b6001600160a01b038481169490919085151580612097575b611c7190612165565b8115158061208e575b156120595791879187937f000000000000000000000000000000000000000000000000000000000000000091611cb28130338661229f565b611cbe8830338c61229f565b60035490612710611cdb81611cd385856121a1565b04938b6121a1565b049282612046575b83612033575b875163e6a4390560e01b8082526001600160a01b039688168781168c8401908152978416602089810191909152909a929990977f00000000000000000000000000000000000000000000000000000000000000008a1692919089908c9081906040010381865afa9a8b1561202757819b611fed575b508b8d8b8d1615611eb8575b50505050505050611d859291611d7f9161222a565b9761222a565b9386611d918682612237565b96838c8c519485809281611dc863095ea7b360e01b988983528d89840160209093929193604081019460018060a01b031681520152565b03925af1918215611eae5786938593611e91575b508b519081526001600160a01b03909316908301908152602081018790528290819060400103818d8c5af18015611e8757937f4a1a2a6176e9646d9e3157f7c2ab3c499f18337c0b0828cfb28e0a61de4a11f797989993611e4c9388936105df97611e69575b505033911661225c565b519283923396846040919493926060820195825260208201520152565b81611e7f92903d106106105761060081836121f4565b503880611e42565b89513d8c823e3d90fd5b611ea790843d86116106105761060081836121f4565b5038611ddc565b8b513d8e823e3d90fd5b85516364e329cb60e11b81526001600160a01b039283169181019182529187166020820152969b50969796949593949389918591829081906040010391865af1908115611fe05788948c948e93611f9a575b50519081526001600160a01b039384169181019182529490921660208301528391829081906040015b03915afa908115611eae578c91611f58575b5094909190611d858b38808f8b8d611d6a565b90508381813d8311611f93575b611f6f81836121f4565b81010312611f8f57611d8592611f87611d7f92612216565b915092611f45565b8b80fd5b503d611f65565b95925050925083813d8311611fd9575b611fb481836121f4565b81010312611fd5578a8a928f611f3390611fce8b97612216565b5090611f0a565b8e80fd5b503d611faa565b508f8451903d90823e3d90fd5b8980929c508195503d8311612020575b61200781836121f4565b8101031261193c576120198f93612216565b9938611d5e565b503d611ffd565b508351903d90823e3d90fd5b61204184878b54168d61225c565b611ce9565b61205483878b54168761225c565b611ce3565b865162461bcd60e51b8152602081860152600f60248201526e496e76616c696420616d6f756e747360881b6044820152606490fd5b50841515611c7a565b507f00000000000000000000000000000000000000000000000000000000000000008316861415611c68565b8490346101d857816003193601126101d8576020906005548152f35b600435906001600160a01b03821682036118e857565b60809060031901126118e8576004356001600160a01b03811681036118e85790602435906044359060643590565b60409060031901126118e8576004359060243590565b6000546001600160a01b0316330361214d57565b60405163118cdaa760e01b8152336004820152602490fd5b1561216c57565b60405162461bcd60e51b815260206004820152600d60248201526c24b73b30b634b2103a37b5b2b760991b6044820152606490fd5b818102929181159184041417156121b457565b634e487b7160e01b600052601160045260246000fd5b67ffffffffffffffff81116121de57604052565b634e487b7160e01b600052604160045260246000fd5b90601f8019910116810190811067ffffffffffffffff8211176121de57604052565b51906001600160a01b03821682036118e857565b919082039182116121b457565b919082018092116121b457565b908160209103126118e8575180151581036118e85790565b60405163a9059cbb60e01b60208201526001600160a01b0392909216602483015260448083019390935291815261229d916122986064836121f4565b6122f4565b565b6040516323b872dd60e01b60208201526001600160a01b03928316602482015292909116604483015260648083019390935291815260a081019181831067ffffffffffffffff8411176121de5761229d926040525b906000602091828151910182855af115612350576000513d61234757506001600160a01b0381163b155b6123255750565b604051635274afe760e01b81526001600160a01b039091166004820152602490fd5b6001141561231e565b6040513d6000823e3d90fd5b60ff6002541661236857565b60405163d93c066560e01b8152600490fd5b60026001541461238b576002600155565b604051633ee5aeb560e01b8152600490fd5b3d156123d8573d9067ffffffffffffffff82116121de57604051916123cc601f8201601f1916602001846121f4565b82523d6000602084013e565b606090565b156123e457565b60405162461bcd60e51b8152602060048201526011602482015270125b9d985b1a5908131408185b5bdd5b9d607a1b6044820152606490fd5b1561242457565b60405162461bcd60e51b815260206004820152601360248201527214185a5c88191bd95cc81b9bdd08195e1a5cdd606a1b6044820152606490fd5b1561246657565b60405162461bcd60e51b815260206004820152601860248201527f496e73756666696369656e742053484148206f757470757400000000000000006044820152606490fd5b156124b257565b60405162461bcd60e51b8152602060048201526013602482015272115512081d1c985b9cd9995c8819985a5b1959606a1b6044820152606490fd5b908160a09103126118e85761250181612216565b916020820151916040810151916080606083015192015190565b80516001101561252b5760400190565b634e487b7160e01b600052603260045260246000fd5b9060209081838203126118e857825167ffffffffffffffff938482116118e8570181601f820112156118e85780519384116121de578360051b906040519461258b858401876121f4565b855283808601928201019283116118e8578301905b8282106125ae575050505090565b815181529083019083016125a0565b90815180825260208080930193019160005b8281106125dd575050505090565b83516001600160a01b0316855293810193928101926001016125cf56fea2646970667358221220b62b470ff3b126ac3c41e703205cd83b1f484c185f5440ae2bf66566f724740964736f6c63430008140033",
  "linkReferences": {},
  "deployedLinkReferences": {}
}