{
  "_format": "hh-sol-artifact-1",
  "contractName": "OracleLibrary",
  "sourceName": "contracts/libraries/OracleLibrary.sol",
  "abi": [
    {
      "inputs": [],
      "name": "MAXIMUM_TWAP_PERIOD",
      "outputs": [
        {
          "internalType": "uint32",
          "name": "",
          "type": "uint32"
        }
      ],
      "stateMutability": "view",
      "type": "function"
    },
    {
      "inputs": [],
      "name": "MINIMUM_TWAP_PERIOD",
      "outputs": [
        {
          "internalType": "uint32",
          "name": "",
          "type": "uint32"
        }
      ],
      "stateMutability": "view",
      "type": "function"
    }
  ],
  "bytecode": "0x6080806040523461001957609e908161001f823930815050f35b600080fdfe6080806040526004361015601257600080fd5b600090813560e01c9081635263ab3114604d575063d7b0aba714603457600080fd5b80600319360112604a5760206040516107088152f35b80fd5b905081600319360112606457806201518060209252f35b5080fdfea264697066735822122003e92a4ad0939375b93d58708c139963d5b754b3fd99aa99e3520058cb7f92c164736f6c63430008140033",
  "linkReferences": {},
  "deployedLinkReferences": {}
}